:020000040007F3
:108000002858002049840700518407005384070042
:1080100055840700578407005984070000000000BA
:108020000000000000000000000000005B8407006A
:108030005D840700000000005F8407006184070082
:108040006384070063840700638407006384070078
:108050006384070063840700638407006384070068
:108060006384070063840700638407006384070058
:108070006384070063840700638407006384070048
:10808000638407001D98070063840700638407006A
:108090004198070063840700459807006384070040
:1080A0006384070063840700638407006384070018
:1080B00063840700638407000000000000000000E4
:1080C00063840700638407006384070063840700F8
:1080D00063840700638407006384070000000000D6
:1080E0000000000000000000000000000000000090
:1080F0000000000000000000000000000000000080
:10810000000000000000000000000000000000006F
:10811000000000000000000000000000000000005F
:10840000DFF80CD000F072F8004800471DAF0700FD
:1084100028580020056885F308884068FF2464B266
:10842000EFF30585002D01D1A646004725460646F7
:1084300021273FBAF0B40024002500260027F0B41D
:10844000F92040B200470000064880470648004730
:10845000FEE7FEE7FEE7FEE7FEE7FEE7FEE7FEE7F4
:10846000FEE7FEE76998070001840700202A04DB85
:10847000203A00FA02F1002070479140C2F1200337
:1084800020FA03F319439040704740EA01039B0729
:1084900003D009E008C9121F08C0042AFAD203E079
:1084A00011F8013B00F8013B521EF9D27047D2B2DD
:1084B00001E000F8012B491EFBD270470022F6E7CD
:1084C00010B513460A4604461946FFF7F0FF20464A
:1084D00010BD30B504460020034600E05B1C93420B
:1084E00003D2E05CCD5C401BF8D030BD064C074D9C
:1084F00006E0E06840F0010394E807009847103474
:10850000AC42F6D3FFF780FF40D8070060D80700E1
:108510002DE9F0438BB01446129D15F9046B0096BB
:108520001F46804689462B460246214602A800F097
:10853000BDFC02A9129A084600F0A8FC129B02AAF0
:108540004146404600F092FC129B02AA214620467A
:1085500000F08CFC2B464A4639463846009600F01F
:10856000A5FC129A394602A800F090FC02A92B46FD
:1085700042460846009600F099FC02A92B46224686
:108580000846009600F092FC2B46424621462046C3
:10859000009600F08BFC129B22464946484600F0AC
:1085A00065FC2B4602AA41462046009600F07EFC60
:1085B000129B22463946384600F058FC2B464A4664
:1085C00039463846009600F071FC324602A9204632
:1085D00000F032FE0BB0BDE8F083F0B5154689B06F
:1085E0001C4607460E461A462946684600F04EFCD1
:1085F00023466A463946384600F038FC23462A4668
:108600006946684600F032FC23466A4631463046E9
:1086100000F02CFC09B0F0BD8B1802448B4204D052
:1086200013F8010D02F8010DF8E770472DE9F04746
:10863000B3F9025089460824E91D1F3591FBF4F473
:108640002021944295FBF1F54FFA85F828BF144696
:108650001F464146064600F071FA22464946FFF79A
:10866000DBFFB7F90230E4009C4220D9E41A06EBA4
:1086700085010023C4F120008E4208D251F8042D58
:1086800022FA04F52B430B6002FA00F3F4E72437D7
:1086900042463146384600F05DFA012807D043468D
:1086A0003A4631463046BDE8F04700F019BFBDE814
:1086B000F0872DE9F04793F9006092B004468946AF
:1086C000104631461546984600F06CFA002840F0F6
:1086D00098804246494602A800F0D8FB434602AAC9
:1086E00021460AA800F0C2FB02A90846424600F053
:1086F000CDFB43462A464946484600F0B7FB08F101
:10870000040742462946284600F0C0FB3B462A465D
:1087100021462046009600F0F7FA3B462A462946B5
:108720002846009600F0F0FA3B462A4621462846A5
:10873000009600F0BBFB43462A462146204600F047
:1087400095FB3B46224621462846009600F0DCFA7F
:108750003B4600962A462146204600F0D5FA23687B
:10876000DB0714D533463A462146204600F0B8F9D7
:1087700031468246204600F052FD06F18043013B1F
:1087800054F8230040EACA7044F8230003E031465D
:10879000204600F044FD42462146284600F076FB84
:1087A0003B460AAA29462846009600F07FFB3B4636
:1087B0000AAA29462846009600F078FB0AA908462E
:1087C0003B462A46009600F071FB43460AAA214622
:1087D000204600F04BFB02AA3B461046214600967D
:1087E00000F064FB32462946204600F025FD324663
:1087F0004946284600F020FD324602A9484600F0CE
:108800001BFD12B0BDE8F0870048704790D7070005
:108810002DE9F04FEDB01F46DDF8D8810590B8F98D
:10882000026098F9005020231F3696FBF3F676B2CB
:1088300006F1FF3924AB002443F829406CAB03EB6D
:1088400089034CA88A469346394698F9012043F893
:10885000804C43F8604CFFF7DFFE98F9012054A8E4
:10886000B918FFF7D9FE29464CA800F09BF9074636
:10887000002840F02781294654A800F093F903907E
:10888000002840F0218108F1240332464CA9184603
:10889000029300F05FF9012840F01881324654A994
:1088A000029800F057F90128069040F00F811CACA7
:1088B0000CAF3346029A54A9204600F03EFA039BBF
:1088C00047F829305A46514638464346FFF7AEFE30
:1088D00039463846029B0096224600F0B5FA0DF55F
:1088E000B879029B009622464CA914A800F0ACFA75
:1088F00048462A46059900F09FFCAB0009EB030AA5
:108900000793059BA900591808F1440B50462A46C5
:1089100000F092FC59462A4634A800F08DFCAB00CA
:108920000BEB03012A463CA800F086FC08F1040387
:10893000494634AA20460095049300F0B7FA5346FE
:108940004A463CA934A8CDF80080FFF7E1FD2B464C
:10895000049A2146204600F0F0F922465146484646
:108960004346FFF73AFE039B08933146059B0A9363
:108970003846CDF824B0CDF82C9000F032FC3146CA
:10898000814614A800F02DFC4845B8BF48461FFAA0
:1089900080F909F1FF3B0FFA8BFB5946384600F08E
:1089A000CFFD5946071C14A818BF012700F0C8FDC9
:1089B000002814BF022300231F430DF1200A2A467A
:1089C0005AF8277024A8394600F036FC0DF1B00B98
:1089D000AB00F9182A46584600F02EFC29462046DE
:1089E00000F0ACF8A9F10209069B23600FFA89F99F
:1089F0000DF1900AB9F1000F45DB43462246D8F845
:108A0000A47059465046B84749460CA800F098FD56
:108A10004946071C14A818BF012700F091FD002843
:108A200014BF022300231F4308AB53F827702FB352
:108A30002A46394634A800F0FFFB079B2A46F9185E
:108A40003CA800F0F9FB434622463CA934A8FFF7B6
:108A5000C4FD049B009534AA514644A800F026FAB0
:108A60005B4652463CA934A8CDF80080FFF750FD84
:108A7000434644AA2146204600F0F8F909F1FF399F
:108A80000FFA89F9B6E72B46049A2146204600F0F2
:108A900054F94346224659465046FFF79EFD32465A
:108AA0005146029800F056F8012805D03346029A44
:108AB0005146504600F014FD2A464CA9504600F09D
:108AC0005DF804E0204602E0384600E003986DB00F
:108AD000BDE8F08F00000000000000000000000072
:108AE000C3F10803DB0070B50133002403A500BF08
:108AF0005B1920C940CAAD1920C0184720C940CA17
:108B0000754120C020C940CA754120C020C940CA53
:108B1000754120C020C940CA754120C020C940CA43
:108B2000754120C020C940CA754120C020C940CA33
:108B3000754120C06441204670BD00BF002210B5C1
:108B4000144653B28B4204DA1BB2013240F8234080
:108B5000F7E710BD10B5013A52B2002A0ADB13B292
:108B600050F8234051F823309C4205D8F3D24FF0FF
:108B7000FF3010BD002010BD012010BD70B5013ABE
:108B800052B20023002A09DB15B2013A50F82560E1
:108B900051F825407440234352B2F3E7B3FA83F00F
:108BA000400970BD10B500231A465CB28C4204DA4D
:108BB00050F8244001332243F7E7B2FA82F040092B
:108BC00010BD00002DE9F04FA5B01C46039114AB79
:108BD0002146804610461746029300F002FB494B9F
:108BE000C0EB841005B22B40002BBEBF03F1FF3356
:108BF00063F01F030133202695FBF6F676B20FFAD9
:108C000083F904A83146FFF799FFB9F1000F30B29C
:108C100014DD04AB002203EB8000C9F120061346EB
:108C2000A34212D257F8231001FA09FE4EEA0202BB
:108C300040F8232021FA06F20133F1E704AB224683
:108C4000394603EB800000F0F7FA27B27B0001936E
:108C500004AB03EB870704F1FF3924AB012603EBD8
:108C60008909002D42DB24AB0022C6F101009646A3
:108C700003EB860A03EB8000019B51B299421BDA99
:108C80000FFA81FC5AF8883C53F82CB024AB03EB64
:108C9000810151F8803CC3EB0B03CEEB03039B45F2
:108CA00004D034BF4FF0010E4FF0000E50F8881C76
:108CB000013241F82C30DFE7CEEB06035E4221465D
:108CC00004A85E4100F0ABFA24AB03EB8403214619
:108CD00053F8802C59F8803C384643EAC273013D72
:108CE00049F8803C2DB200F09AFABAE724AB03EBC6
:108CF0008606224656F8881C404600F09DFA25B0AC
:108D0000BDE8F08F1F00008070B59DF910401E4631
:108D100023460546FFF7E4FE30B922462946304691
:108D2000FFF718FF012807D0234632462946284678
:108D3000BDE8704000F0D4BB70BDF0B50F46A1B0E7
:108D400006461946384615461C46FFF72BFF20B14C
:108D500021463046FFF7F2FE74E022463946684667
:108D600000F06AFA2246294608A800F065FA214672
:108D700010A8FFF7E3FE0123214618A81093FFF780
:108D8000DDFE224608A96846FFF7E4FE002854D01D
:108D9000009BDA0704D42146684600F040FA26E03A
:108DA000089BDB0704D4214608A800F038FA3EE00F
:108DB000002823461FDD08AA6946684600F090FB9C
:108DC0002146684600F02BFA224618A910A8FFF7A2
:108DD000C1FE002805DA10A923462A460846FFF7F7
:108DE0007FFE10A9234618AA084600F079FB224608
:108DF000294610A81EE008A96A46084600F070FB44
:108E0000214608A800F00BFA224610A918A8FFF77F
:108E1000A1FE002805DA18A923462A460846FFF7CE
:108E20005FFE18A9234610AA084600F059FB224607
:108E3000294618A800F066FCA3E7224610A9304690
:108E400000F0FAF921B0F0BD70B590B005469DF97B
:108E500050401E466846234600F03AF82346324604
:108E600069462846FFF7AEFE10B070BD30B51C460F
:108E700091B0054693F90030684600F029F8D4F81F
:108E8000AC3069462846984711B030BD30B514461D
:108E900091B0054692F90020684600F0DAF9D4F85E
:108EA000AC3069462846984711B030BD70B59DF981
:108EB00010401E462346054600F012FB38B12346FB
:108EC000324629462846BDE87040FFF709BE70BD0E
:108ED0002DE9F04F08B4F8CA04B451F8042BA3FBF1
:108EE000028940F8048B4FF0000AE4FB629A4FF0CD
:108EF000000BE5FB62AB4FF0000CE6FB62BC4FF0F1
:108F0000000EE7FB62CE51F8042B4FF00008E3FBA4
:108F1000628940F8048BE4FB629AE5FB62ABE6FBF6
:108F200062BCE7FB62CE51F8042B4FF00008E3FB74
:108F3000628940F8048BE4FB629AE5FB62ABE6FBD6
:108F400062BCE7FB62CE51F8042B4FF00008E3FB54
:108F5000628940F8048BE4FB629AE5FB62ABE6FBB6
:108F600062BCE7FB62CE51F8042B4FF00008E3FB34
:108F7000628940F8048BE4FB629AE5FB62ABE6FB96
:108F800062BCE7FB62CE40F8049B40F804AB40F8BB
:108F900004BB40F804CB40F804EB0CBC052B00F0FC
:108FA0001E810C68A0F11400A1F11401A2F11402B9
:108FB00052F804EB4FF0000550F8046BE4FB6E56DA
:108FC00052F804EB50F8047BE4FB6E6752F804EBB4
:108FD00050F8048BE4FB6E7852F804EB50F8049BD5
:108FE000E4FB6E8952F804EB50F804ABE4FB6E9A94
:108FF000A0F1140052F8044B51F804EB4FF0000CB0
:10900000E4FB6EC540F804CB51F804EBE4FB6E566C
:1090100040F8045B51F804EBE4FB6E6740F8046B26
:1090200051F804EBE4FB6E7840F8047B51F804EB54
:10903000E4FB6E8940F8048B51F804EBE4FB6E9A74
:10904000A0E80006062B00F0CA800C68A0F118000A
:10905000A1F11801A2F1180252F804EB4FF000053B
:1090600050F8046BE4FB6E5652F804EB50F8047BA6
:10907000E4FB6E6752F804EB50F8048BE4FB6E7867
:1090800052F804EB50F8049BE4FB6E8952F804EBB1
:1090900050F804ABE4FB6E9A52F804EB50F804BBB2
:1090A000E4FB6EABA0F1180052F8044B51F804EB4E
:1090B0004FF0000CE4FB6EC540F804CB51F804EB14
:1090C000E4FB6E5640F8045B51F804EBE4FB6E677A
:1090D00040F8046B51F804EBE4FB6E7840F8047B35
:1090E00051F804EBE4FB6E8940F8048B51F804EB73
:1090F000E4FB6E9A40F8049B51F804EBE4FB6EAB82
:10910000A0E8000C072B6AD008B40C68A0F11C0082
:10911000A1F11C01A2F11C0252F804EB4FF0000572
:1091200050F8046BE4FB6E5652F804EB50F8047BE5
:10913000E4FB6E6752F804EB50F8048BE4FB6E78A6
:1091400052F804EB50F8049BE4FB6E8952F804EBF0
:1091500050F804ABE4FB6E9A52F804EB50F804BBF1
:10916000E4FB6EAB52F804EB50F804CBE4FB6EBCAE
:10917000A0F11C0052F8044B51F804EB4FF000032F
:10918000E4FB6E3540F8043B51F804EBE4FB6E560B
:1091900040F8045B51F804EBE4FB6E6740F8046BA5
:1091A00051F804EBE4FB6E7840F8047B51F804EBD3
:1091B000E4FB6E8940F8048B51F804EBE4FB6E9AF3
:1091C00040F8049B51F804EBE4FB6EAB40F804ABB1
:1091D00051F804EBE4FB6EBCA0E8001808BCBDE845
:1091E000F08F013949B2002909DA013149B2A1B140
:1091F00001F18043013B50F82330002004E050F897
:109200002130002BEDD0F0E713B15B080130FBE714
:10921000013900EB411108B270470846704700EB76
:1092200081010023884206D251F8042D43EA5203FB
:109230000B60D307F6E7704730B5002463B2934262
:1092400006DA1BB2013451F8235040F82350F5E7F9
:1092500030BD2DE9F04FB1E8005E06B4AAFB09125B
:109260004FF00003EBFB69234FF00004ECFB693483
:109270004FF00005EEFB69454FF00006EBFB6A631B
:10928000ECFB6A344918524176415B41A9FB0978ED
:109290004FF0000949F1000918EB0108A0E880012E
:1092A000AAFB0A78574158EB0608A0E88001EEFBBC
:1092B0006A454FF0000A4AF1000A4FF00001ECFB4A
:1092C0006B14EEFB6B454FF00002EEFB6C255FEA82
:1092D00059094941644152416D4149F10009EBFB93
:1092E0006B3A1AEB010AA0E80804ACFB0C6A664171
:1092F0005AEB020AA0E84004AEFB0E6A6E415AEB3C
:10930000090AA0E8400406BC052A00F0E680A0F1A6
:109310001400A1F11401B1E8E043A5FB0E344FF0B5
:109320000005E6FB6E454FF00006E7FB6E564FF07A
:109330000007E8FB6E674FF00008E9FB6E784FF01E
:109340000009DB1864416D4176417F4158EB080804
:1093500059F1000950F804CB13EB0C0350F804CB7F
:1093600054EB0C0450F804CB55EB0C0550F804CB2F
:1093700056EB0C0650F804CB57EB0C0758F10008DD
:1093800059F10009A0F11400EEFB0E89A0E8F803E2
:10939000062A00F0A280A0F11800A1F11801B1E89E
:1093A000E047A5FB0E344FF00005E6FB6E454FF09D
:1093B0000006E7FB6E564FF00007E8FB6E674FF0C4
:1093C0000008E9FB6E784FF00009EAFB6E894FF068
:1093D000000ADB1864416D4176417F4158EB080873
:1093E00059EB09095AF1000A50F804CB13EB0C03AE
:1093F00050F804CB54EB0C0450F804CB55EB0C059F
:1094000050F804CB56EB0C0650F804CB57EB0C0786
:1094100050F804CB58EB0C0859F100095AF1000A36
:10942000A0F11800EEFB0E9AA0E8F807072A54D026
:10943000A0F11C00A1F11C01B1E8E04FA5FB0E3426
:109440004FF00005E6FB6E454FF00006E7FB6E5659
:109450004FF00007E8FB6E674FF00008E9FB6E78FD
:109460004FF00009EAFB6E894FF0000AEBFB6E9AA1
:109470004FF0000BDB1864416D4176417F4158EBA2
:10948000080859EB09095AEB0A0A5BF1000B50F87E
:1094900004CB13EB0C0350F804CB54EB0C0450F842
:1094A00004CB55EB0C0550F804CB56EB0C0650F8EA
:1094B00004CB57EB0C0750F804CB58EB0C0850F8D2
:1094C00004CB59EB0C095AF1000A5BF1000BA0F137
:1094D0001C00EEFB0EABA0E8F80FBDE8F08F00001B
:1094E000C3F10803DB0070B50133002403A500BFFE
:1094F0005B1920C940CAAD1B20C0184720C940CA0B
:10950000B54120C020C940CAB54120C020C940CAC9
:10951000B54120C020C940CAB54120C020C940CAB9
:10952000B54120C020C940CAB54120C020C940CAA9
:10953000B54120C06441B4FA84F0400970BD00BF59
:109540004A11012350F8220001F01F0103FA01F132
:1095500008407047F0B5082289B00C460646FFF770
:109560006BFECB6A03930B6B04934B6B05938B6B76
:109570000693CB6B0793002708236A466946684623
:10958000029701970097FFF7ABFA082305466A4652
:1095900031463046FFF7A4FA236B0393636B0493C1
:1095A000A36B0593E36B0693054408236A4669465B
:1095B00068460797FFF794FA082305446A46314640
:1095C0003046FFF78DFA236A0093636A0193A36A1A
:1095D0000293A36B0693E36B0793054408236A4643
:1095E00031463046059704970397FFF779FA636A87
:1095F0000093A36A0193E36AA26B0293636B0393E4
:1096000004920693E26B236A0592054407936A4627
:10961000082331463046FFF763FAE36A0093236B71
:109620000193636B0293236A0693A36A079305442D
:1096300008236A4631463046059704970397FFF79B
:109640004FFF236B0093636B0193A36B0293E36B58
:109650000393636A0693E36A07932D1A08236A4605
:109660003146304605970497FFF73AFF636B009346
:10967000A36B0193E36B0293236A0393636A0493DE
:10968000A36A0593236B07932D1A08236A46314674
:1096900030460697FFF724FFA36B0093E36B01931B
:1096A000636A0393A36A0493E36A0593636B079366
:1096B0002D1A08236A463146304602970697FFF76F
:1096C0000FFF2D1A16D508230D4A31463046FFF7F5
:1096D00007FA2D18F7D410E0082231460848FFF7A2
:1096E00039FA012809D00823054A31463046FFF7E8
:1096F000F7FE2D1A002DEFD0F5E709B0F0BD00BF41
:1097000094D7070070B5036813F0010506461446A8
:1097100005D013460A460146FFF7E2F90546214601
:109720003046FFF77CFD45B104F18042013A56F81E
:10973000223043F0004346F8223070BD2DE9F0415D
:1097400015468AB0044688462022002102A8FEF76A
:10975000B7FE2E1D95F9007003232A464146204688
:109760000293FFF793FB334602AA21462046009757
:10977000FFF79CFB2B46424621462046FFF776FB2F
:109780000097334605F1840221462046FFF7BCFAD4
:109790000AB0BDE8F08100F01F02012191404009AC
:1097A000800000F1E020C0F88012704700F01F0236
:1097B000012191404009800000F1E020C0F8001133
:1097C000704700F01F02012191404009800000F124
:1097D000E020C0F8001270474907090E002806DA99
:1097E00000F00F0000F1E02080F8141D704700F138
:1097F000E02080F800147047BFF34F8F05480168E0
:10980000054A01F4E06111430160BFF34F8F00BFCF
:10981000FDE700000CED00E00400FA050748002118
:10982000C0F84011C0F84411C0F84811C0F84C11FC
:10983000C0F80011C0F8041103F022BD001001406F
:1098400003F096BC074810B5406830B18047002847
:1098500007D0BDE8104000F081BABDE8104001F02B
:1098600043BA10BD882C0020F0B598480023021D93
:1098700001780125101D4FF08056062907D1147874
:10988000240704D10478C4F30314032C02D006295E
:1098900004D00FE08F4F8E4C7C670EE014782407C5
:1098A00008D10478C4F30314032C06D0042C04D08C
:1098B000052C02D0062907D00EE0D6F84442864F88
:1098C000C4F342343C6002E01478240704D10478E5
:1098D000C4F30314032C02D0062906D011E07F4CF8
:1098E000276827F0807727600EE01478240708D1D6
:1098F0000478C4F30314032C06D0042C04D0052CE4
:1099000002D006290AD011E04FF08044C4F80C318F
:10991000C4F81031704C241F236002E0147824072F
:1099200004D10478C4F30314032C02D0062905D013
:109930000CE0694F032464373C600AE01478240784
:1099400004D10478C4F30314032C02D006290DD0EB
:1099500014E0634F05243C60614C78342560604C12
:10996000083423603F243F1D3C6002E01478240744
:1099700004D10478C4F30314052C02D0062957D06F
:1099800068E058490968584A11605649091D096834
:10999000121D1160534908310968121D11605149A7
:1099A0000C310968121D11604E4910310968121DF1
:1099B00011604C4914310968121D11604949183170
:1099C0000968494A2032116046491C310968121D54
:1099D0001160444920310968121D11604149243148
:1099E0000968121D11603F4928310968121D116074
:1099F0003C492C310968121D11603A49303109681F
:109A0000394A40321160374934310968121D1160FA
:109A1000344938310968121D116032493C310968F6
:109A2000121D11602F4940310968121D116002E0BA
:109A3000117809070ED10078C0F30310032803D072
:109A4000042801D0052805D1D6F85802274900F08E
:109A50004F00086021487438016841F470010160CA
:109A6000BFF34F8FBFF36F8F4FF01021D1F800027B
:109A7000002803DBD1F80402002822DA1C4A156012
:109A80001C480468002CFCD01524C1F8004205686D
:109A9000002DFCD0C1F8044201680029FCD01360FD
:109AA00001680029FCD0BFF34F8F0C48F0380168E3
:109AB000114A01F4E06111430160BFF34F8F00BF11
:109AC000FDE70F490D480860F0BD0000E00F00F011
:109AD0000DF0ADBA00C007403C050040FCED00E0D1
:109AE000105600400404001020C50040E40E004061
:109AF00004E5014000E401400400FA050090D003B1
:109B00009C2C002002E008C8121F08C1002AFAD1CC
:109B100070477047002001E001C1121F002AFBD1ED
:109B2000704700000121202803DA814005480140E8
:109B300003E0402802DA2038814009B10120704753
:109B400000207047FC06FFBC2DE9FC470025178864
:109B50000646158090F82D001446894630B13A46E5
:109B60002146484600F026FB050009D1B0784FF0A9
:109B70000C0A18B32088C846001DB84202D95046C6
:109B8000BDE8FC87684679DF0028F9D120880321E9
:109B900008F8001020881921401C80B2208008F8A5
:109BA00000102088401C80B2208000EB0801BDF826
:109BB000000003F0A7FB218808442080F0780222EF
:109BC000C8B1218896F9033001F1030C4846BC4521
:109BD000D5D8425421884FF0010C491C89B221800C
:109BE00000F801C02188491C89B2218009F80130A0
:109BF0002088401C20807068B8B1218890F900301E
:109C000001F1030C4846BC45B9D8425421880A22C8
:109C1000491C89B2218042542188491C89B2218083
:109C200009F801302088401C2080308950B1CDE9EE
:109C300000474B460622022106F1080003F0B8FB5C
:109C400005009DD1308A50B1CDE900474B4607222F
:109C5000032106F1100003F0ABFB050090D1308B1F
:109C600050B1CDE900474B461522142106F11800EA
:109C700003F09EFB050083D1306A30B13B4622469B
:109C8000494600F017FC0500DBD1706A30B13B4655
:109C90002246494601F04FF90500D2D196F82C0032
:109CA00038B13B4622464946304603F04DF80500A0
:109CB000C7D1307838B13B4622464946304601F09C
:109CC0006CF90500BDD128465AE70000F0B5204DDB
:109CD00093B0287A800702D5002013B0F0BD00248D
:109CE00001268DF84A604FF65960ADF848000E9491
:109CF0000F9410940627119438216846FEF7DEFB76
:109D000002208DF8000012A88DF8024003908DF813
:109D10000370ADF808600021684600F09BF9002848
:109D2000DBD18DF840402820ADF842008DF8384056
:109D30000F94ADF844400EA873DF0028CDD105493B
:109D4000B0040860A86840F00200A860C4E7000002
:109D5000382C002008050050FFF74EFDFFF74CFDA2
:109D60002DE9F84F254C8146924660880E46814287
:109D700041D800274FF6FF788DF80070684600F054
:109D80002BF922786078A188884201DA401C00E033
:109D90000020C0B2904204D19DF8000000F040F9CC
:109DA00027E065786078884201DA401C00E00020F6
:109DB00060709DF8000000F033F9454519D0A068A7
:109DC000B9F1000F40F835A00DD066B16188E068A8
:109DD000324605FB01004946FEF757FBA06800EB41
:109DE000C500868002E000EBC50087800020BDE84A
:109DF000F88F0420FBE70920F9E70000542C00202D
:109E000010B50E4C03E0401C00E0002020702078CC
:109E10006178814210D022786188E068A36802FBF3
:109E2000010003EBC20153F8322089889047207863
:109E3000A1888842E9DAE6E710BD0000542C002032
:109E400030B5CB0008339DB293074FF0000401D02A
:109E5000072030BD044B9A602A44DA605C701C70A5
:109E600058809980002030BD542C0020074B5B683F
:109E700023B12AB120B10068037C1BB108207047D0
:109E8000072070474174426100207047742C002005
:109E900010B50446082902D00020FFF75FFFD4E97F
:109EA0000010BDE8104008471CB5044ACDE9000188
:109EB00008216846FFF754FF1CBD0000919E070073
:109EC0002DE9F047074698461446894690074FF01B
:109ED000000526D12CB302F0A5FE134E06F11000AA
:109EE000C6F80C800570457080F80290446075607B
:109EF000357075701420FFF74EFC06211420FFF713
:109F00006BFC1420FFF752FC084807600621112063
:109F1000FFF762FC0548001F0068B0600020BDE844
:109F2000F0870720FBE70000642C002008150140A3
:109F30002DE9FC47DFF87890D9F8043073B368B3A3
:109F4000052902D20720BDE8FC87436933B3437C6F
:109F5000012B25D0002704460025884616468DF89B
:109F60000050684600F038F801A803F009FAC8B1BB
:109F7000012101700F4944600968C0E90218C0E975
:109F800004769DF8040089F801009DF8000000F0B7
:109F900047F81420FFF715FC2846D4E70820D2E73D
:109FA0000F46D8E704259DF8000000F039F8F3E7E4
:109FB000742C0020041501400649496839B130B1BC
:109FC000416921B100210174022103F035B9082053
:109FD00070470000742C002030B5EFF3108172B68A
:109FE0000D4A9468012324B10370002900D162B6A0
:109FF00030BD93604FF0E023D3F88051074C2540EB
:10A000001560C3F88041D3F8844154605A17C3F8EF
:10A01000842100220270E8E7B4370020FC06FFBC70
:10A020000B498A68002A11D000280FD1EFF3108065
:10A0300072B60B684FF0E022C2F800314B68C2F8EC
:10A04000043100228A60002800D162B67047000007
:10A05000B4370020F0B50C4693B01F210726ADF8A9
:10A060000010ADF80410002750B1C17849070DD594
:10A070006A4602A9FFF768FD002808D102AD02E098
:10A080000025ADF800706CB1E07810B1304613B027
:10A09000F0BD01AA0AA92046FFF756FD0028F6D117
:10A0A0000AAA02E00022ADF80470BDF80400C3B2B1
:10A0B000BDF80000C1B2284672DFE8E770B505467A
:10A0C00001461C220F48FEF7E0F90F4C00262670CF
:10A0D000286830B1016861604068A060201D7ADFA7
:10A0E00002E00948001D7BDF00280AD14FF6FF700F
:10A0F00060806670BDE87040044A00210448FFF7A4
:10A10000B5BE70BD6C320020242C002021D3070086
:10A1100000D607002DE9F041018800261F4C204D94
:10A12000102919D01F4F112922D0122931D05029BE
:10A130001CD1841D01F08CFC2088E989884215D14E
:10A140006089022812D104F10C0000F03AF9A8B19C
:10A15000BDE8F04100F0F4B9818861800169E160F7
:10A16000406920616670E8890028F1D0BDE8F0817F
:10A170004FF6FF70608001F07FFC66703868FFF773
:10A180001BFF0028F2D0A9690029EFD0BDE8F041FB
:10A1900008478168E160C0682061D9E7242C00206D
:10A1A0006C32002000D6070001480068FFF704BFAA
:10A1B00000D607007CB5054608880C460930904259
:10A1C00001D90C207CBD68466DDF0028FAD12188BA
:10A1D0000820685420881B21401C80B2208029540C
:10A1E0002088401C80B220802844DDF801100160E6
:10A1F000BDF8051081802088801D80B220809DF8E8
:10A200000010490800D0012129542088401C2080DA
:10A2100000207CBD30B585B004002AD0164D4FF625
:10A22000FF702246288001208DF812004FF65960F9
:10A23000ADF8100004A90120A0DF002817D10F4BB2
:10A240000FCB8DE80F00A11C684663DF00280ED1FC
:10A25000204600F0B3FB002809D1204600F078FA30
:10A26000002804D1A86840F00100A860002005B0D3
:10A2700030BD0E20FBE70000382C002008D6070078
:10A2800070B5144C0025A068410701D5002070BDB1
:10A2900040F00400A060104800F06AFF2088A0F59C
:10A2A0007F41FF3904D0132176DF0500EFD10DE0A7
:10A2B000207A80070AD574DF0028E8D107494FF4D7
:10A2C00080200860A06840F00200A060FFF76CFFEB
:10A2D000284670BD382C0020C0D401000C05005069
:10A2E00010B52B4888B00324C0F8004729494FF423
:10A2F0008020086028480068079001F0F9FBB8B991
:10A30000264813DFA0B9264B5022264907A802F0A1
:10A310000BFF08B1FFF722FD01216A46084602F053
:10A32000DDFE28B91720ADF81000684602F0CCFE1B
:10A3300000282BD11C4802F0BDFE002826D100F0D9
:10A340009DFC002822D117485030FFF763FF0028FA
:10A350001CD11C216846FEF7B1F840F6CD400190B3
:10A360004FF48040029000208DF80C40ADF80E00B4
:10A370008DF810000D4806906846FFF79FFE0028F4
:10A3800004D108B0BDE81040FFF7A0BC08B010BD74
:10A39000480000500C05005004D60700008007005C
:10A3A00015D1070088320020B1A307003DA50700A2
:10A3B00010B50446FFF7AEFE2046BDE8104001F0A0
:10A3C0006FBD007800F00100704710B543689C181D
:10A3D000446021B905E013F8010B01F8010B521E8E
:10A3E000F9D2012010BD000038B10549814204D8DE
:10A3F0000449814201D901207047002070470000C4
:10A40000A02C0020B02C00202DE9F05F26484168E8
:10A41000F1B3DFF898B00E688146DBF8004087683A
:10A420008078E11B21F07F45ED1CB0B9DFF880801A
:10A430004FF48030C8F84403C8F804031120FFF734
:10A44000AAF91120FFF7B2F94FF0010AC8F800A0ED
:10A450002F2000F0D3FE89F802A0B54200D2354685
:10A46000124BE8193C3320F07F401860DBF80010F5
:10A470005A46091B21F07F41001B20F07F40C91C78
:10A4800081420FD9106818602F2000F0B7FE00E05D
:10A4900004E0BDE8F05F1120FFF793B9BDE8F05F7D
:10A4A00002F0C0BBBDE8F09F642C00200415014001
:10A4B000001001402DE9F04117880646B81D1446EA
:10A4C0000D46984202D90C20BDE8F0813188072260
:10A4D00006290AD34FF4486C4FF6FF73614501D942
:10A4E000994202D17088062801D21046ECE76045F7
:10A4F00001D99842F9D1994203D0984201D08142C2
:10A50000F3D80520E85520881221401C80B2208015
:10A5100029542088401C80B220804119308802F0E4
:10A52000F1FE2188084480B220804119708802F031
:10A53000E9FE2188084420800020C5E7FFF70EBC13
:10A54000F8B5134800F00EFC114D0026114C0C3DDF
:10A5500030B16169B9B101208DF80000684611E0A1
:10A56000287820B1616971B18DF80060F6E76878EC
:10A5700058B1A168084800220068FFF7D9FC10B163
:10A58000A16901B188472E70F8BD6168F2E700004B
:10A59000302C00206C32002000D60700F0B54FF0C0
:10A5A000FF3622B11268D24300230A4D0DE0324635
:10A5B000FAE7C45C62400824D70700D037462F4032
:10A5C00087EA5202641EF7D15B1C8B42F1D3D04361
:10A5D000F0BD00002083B8EDF0B5146906468DB0DB
:10A5E00020681546271DE0B1022920D00A200090DE
:10A5F0006B4609AA304602F05DFA00280FD009A97F
:10A6000001A8009A02F03CF901AE96E80F0005AEF1
:10A6100086E80F00236869683A4605A898470DB098
:10A62000F0BD0DB03046BDE8F04002F09DB969467E
:10A63000304602F02FF90028F1D0236869683A46C5
:10A64000684698470028EAD002980028F5D101987A
:10A6500070600120E3E753685B7813F0C00303D018
:10A66000402B03D00020704700F002B8FFF7B4BFC2
:10A670002DE9FF410B465168064614464878334D94
:10A6800000F00F0210F0300055F8225006D01028CC
:10A6900006D0202808D0302856D13EE022694DE06F
:10A6A00061690120087047E0022B28D1042A26D8CE
:10A6B0004FF0010869463046676902F0EBF8002860
:10A6C0001AD009E00B79226913FB00226846A847DB
:10A6D00070B13878401C3870029820B161683878C1
:10A6E0004A799042EED301987060029860BB02E014
:10A6F0004FF00008F7E7404604B0BDE8F081D4E928
:10A7000004300F79027817FB023349798A421BD251
:10A71000521C02701A46616810E008786169072AC5
:10A72000087009D1606801792069FDF7C7FE60688B
:10A730002169806802F0C9F82269616804B0304676
:10A74000AC46BDE8F04160470020D5E76CD7070074
:10A7500010B58EB004461C216846FDF7AFFE1421EB
:10A7600008A8FDF7ABFE9DF80010002041F018018D
:10A7700007908DF80010A1788DF836100121ADF802
:10A7800034109DF81C1004F10C0321F0FF018DF82A
:10A790001C109DF81D1008AA21F00F01491C21F082
:10A7A000F00110318DF81D109DF81E1021F00601EA
:10A7B000891C41F011018DF81E100DA9089107A9FF
:10A7C00009911721ADF82C100C9020886946A2DF62
:10A7D0000EB010BD02488168491E816070470000BC
:10A7E000002C00201FB50E4800F15C01826B68460A
:10A7F00002F046F80B489DE80E0080E80E0009497B
:10A8000009480B4AC86009490020086048600949A6
:10A81000044801F0CFFD002800D0012004B010BD95
:10A82000583600203C320020E9C607001C2C0020CE
:10A83000B02C002094D507002DE9F0411F461600EA
:10A84000054600F104044FF0000127D037B394F817
:10A850005F0018B194F8600001281FD0207AE8B199
:10A86000E06834281AD100204FF44053227C13E0D2
:10A8700004EB800CB3F80CE0DCF814C0F4450AD10A
:10A8800094F82500484A60B1012813D002280DD061
:10A89000032803D10AE0401C8242E9DC0A20BDE81B
:10A8A000F08121780029F9D0916803E0217800290E
:10A8B000F4D0D16830B1022801D0032802D16068F9
:10A8C0008842EBD995F870000028E7D1384837491D
:10A8D00003460160202141603A463146052000F0E0
:10A8E000C3FB0028DAD1314895F8712005F17201D7
:10A8F0002030FDF7CAFD2E482C4908382031016070
:10A9000095F8711041600346294A2A49042000F055
:10A91000D1FB08B10520C2E7254D00201C3D286170
:10A9200094F8251041B3012933D023480229C0F5FA
:10A93000FC2027D00329B1D194F82C100029ADD0E8
:10A9400094F826100029A9D0A26A216B53182B6114
:10A9500032B329B381420DD8202204F13F011348BC
:10A96000FDF793FD2869D8B1114A0021103A00F093
:10A9700039FFB8B1042092E794F8340000288DD054
:10A98000A06B0BE094F82C10002987D0216B296173
:10A99000E0E794F82600002880D0A06A2861DBE771
:10A9A00003207CE701207AE758360020DC310020C4
:10A9B0001C2C0020F8D507000080070010B58EB0D1
:10A9C00004461C216846FDF779FD142108A8FDF70F
:10A9D00075FD9DF80010002041F0040107908DF8EE
:10A9E0000010A1788DF836100221ADF834109DF8D2
:10A9F0001C1008AA21F0FF018DF81C109DF81D10F5
:10AA000021F00F01491C21F0F00110318DF81D10CB
:10AA10009DF81E1021F00601891C41F001018DF8FE
:10AA20001E100DA9089107A909911421ADF82C1049
:10AA30000C902088231D6946A2DF0EB010BD0000D7
:10AA4000044A09B9002313705268002A00D0104745
:10AA5000704700004C2C0020F8B51C4617460D46E8
:10AA6000060018D0BDB1B4B100F08AF9A8B12846EB
:10AA700000F086F988B1204600F082F968B1FDF750
:10AA8000C3FE009023463A4629463046FDF7C0FEF5
:10AA900028B10020F8BD0E20F8BD1020F8BD0B2015
:10AAA000F8BD00000E4910B50A784C780023A24288
:10AAB00012D0521CD2B20A70022A00D10B70084A7E
:10AAC0000B78183252F8232002608868104420F076
:10AAD0007F408860012010BD0360002010BD000091
:10AAE000642C0020F8B506461A481F461546007823
:10AAF0000C46C00708D03046FFF776FC30B13CB1B9
:10AB0000200507D00620F8BD0120F8BD0220F8BDC1
:10AB10000320F8BD3068A04204D8716804EB05300A
:10AB2000884201D90520F8BD7DB1684601F060FF7B
:10AB300068B100980221C0E900670172210B818190
:10AB4000058201F0A9FF0020F8BD0420F8BD072010
:10AB5000F8BD0000842C0020084A136823F001038C
:10AB6000136031B143F0020313604268002A03D03E
:10AB7000104723F00203F7E770470000482C00203D
:10AB80000348017841F00101017000207047000086
:10AB9000842C00202DE9F84307461D48DDF820806D
:10ABA0001E46007815460C46C0070CD03846FFF705
:10ABB0001BFC50B15DB154B145EA0400800708D0D8
:10ABC0000620BDE8F8830120FBE70220F9E7032017
:10ABD000F7E73868A04204D8786804EB8601884219
:10ABE00001D20520EDE77EB1684601F001FF68B1B2
:10ABF00000980121C0E900780172C0E903548682FF
:10AC000001F04AFF0020DCE70420DAE70720D8E75C
:10AC1000842C002070B5174A17490446106E0B7833
:10AC200000EB400002EBC0009D0715D5022C02D0BE
:10AC3000032C1BD102E001F02FFA17E04A78521CD6
:10AC4000D2B24A70032A11D900224A70082102F0B8
:10AC500041F801F0B7FE09E0580707D523F00400DA
:10AC60000870526E12B140F002000870BDE87040EA
:10AC700001F0DABEC0370020842C002010B586B069
:10AC800000249DF80000019420F00F00401C20F0EB
:10AC9000F00010308DF80000029403A86DDF00284A
:10ACA0001CD19DF80D00401C8DF80D0003A86CDF31
:10ACB000002813D107220AA168467CDF00280DD1A5
:10ACC0000C20ADF804001820ADF80600ADF80840DF
:10ACD0004FF4C870ADF80A0001A87ADF06B010BDC5
:10ACE0004466755461726700F8B51D4C20780028E1
:10ACF00034D0206928B10026E06820B1002526B1B3
:10AD000013E00126F8E70125F9E76078002825D14E
:10AD1000684648DF052803D020B1FFF71FF804E09C
:10AD2000012602E02169009888479DB960780028D3
:10AD300014D16088ADF800006946A06861DF05287D
:10AD400003D020B1FFF70AF804E0012502E0D4E9BE
:10AD500002018847002ED8D0002DD0D0F8BD0000C9
:10AD6000882C0020054940880A88904204D34988ED
:10AD7000884201D80120704700207047282C00200D
:10AD8000800701D0002070470120704770B505464C
:10AD900008680C464A6886682846314601F0B6FCC9
:10ADA0006068286104F10C00686170780221B1EBE1
:10ADB000901F01D1241D2C6170BD00002DE9F043CE
:10ADC000264CA4F110092278D9F8048099F8035090
:10ADD000404694F801C0D9F8086031E002EB420324
:10ADE0006168521C01EBC301A378D2B2934200D137
:10ADF00000220B78022B02D0032B21D11DE0034649
:10AE00004F68194603E0B94203D00B46C969B9B18E
:10AE1000F9E7A9B18B4205D1C06918B9104E0125D7
:10AE2000B56000260F68C969D96149B10B683B4418
:10AE30000B6005E00174C06900E000210028F9D131
:10AE40009445CBD1C9E9010689F80350404502D0A9
:10AE50000120BDE8F0830020FBE70000742C0020F7
:10AE6000001001402DE9F0412A4F0446002607F169
:10AE70001005D7F804803EE002D02046E4691DE0CA
:10AE80002878696800EB4002401CC0B201EBC201A7
:10AE90002870AA78904200D12E700A784868012A5A
:10AEA0002BD1027C4ABB8A684260CA6882600A6908
:10AEB000C26049698161F97801B146604368BA6846
:10AEC000DFF854C0991A21F07F41614502D28268AF
:10AED000114406E0D11A826821F07F418A4202D9EA
:10AEE000511A016000E0066046600121866001742D
:10AEF000C66102F083F9002CBED1287869788842B7
:10AF0000BED17968414502D00120BDE8F081002022
:10AF1000FBE70000642C0020FFFF7F0010B500F06D
:10AF20009FF808B1FEF768FC4FF44050806800F0CD
:10AF300082F8002010BD70B5144682880E46054682
:10AF40002088111D0144921C994201D8FE2A01D982
:10AF50000C2070BD521C32542088FF21401C80B24E
:10AF6000208031542088401C80B22080811928889C
:10AF700002F0C8F92188084480B22080AA8842B132
:10AF8000A96841B13044FDF780FA2088A9880844B7
:10AF90002080002070BD072070BDF8B50E460178F6
:10AFA00014460546012901D1687830B12088821CF9
:10AFB0009A422DD8012902D006E00720F8BD697811
:10AFC0000144891C994223D8181A801E87B2ADF813
:10AFD00000702188B01C084469467DDF0028EDD14F
:10AFE0002878022805D1BDF80010B94201D80921FE
:10AFF0000AE00821012805D16878B84202D8ADF8E6
:10B00000000001E0ADF80070BDF80000FE2801D995
:10B010000C20F8BD2288401CB0542088401C80B20F
:10B02000208031542088401C2080BDF80010084446
:10B0300020800020F8BD10B5044600F059FD00281E
:10B040000DD14FF0E021401EC1F88001204613DFF2
:10B05000002804D12046BDE81040FDF7DBB910BD43
:10B0600010B500F08BFC10BD70B59CB01C461546A9
:10B070000E46052802D006201CB070BD606820284E
:10B0800001D00920F8E7684601F02AFF0028F3D133
:10B090002A463146684601F0E3FF0028ECD1012240
:10B0A0006846216801F094FE0028E5D12020606008
:10B0B0000020E1E730B4042802D0062030BC7047FD
:10B0C0004868402802D15868402801D00920F5E797
:10B0D0001B68D2E9004508682A46214630BCFFF7C4
:10B0E000BBBC000000283ED01F49204A096800BFB1
:10B0F00000BF00BF00BF00BF00BF00BF00BF914244
:10B100002FD000BF00BF00BF00BF00BF00BF00BF07
:10B1100000BF00BF00BF00BF00BF00BF00BF00BF37
:10B1200000BF00BF00BF00BF00BF00BF00BF00BF27
:10B1300000BF00BF00BF00BF00BF00BF00BF00BF17
:10B1400000BF00BF00BF00BF00BF00BF00BF00BF07
:10B1500000BF00BF00BF00BF00BF00BF00BF00BFF7
:10B1600000BF401EC3D170479C2C00200024F40077
:10B1700000283ED01F49204A096800BF00BF00BF19
:10B1800000BF00BF00BF00BF00BF91422FD000BF73
:10B1900000BF00BF00BF00BF00BF00BF00BF00BFB7
:10B1A00000BF00BF00BF00BF00BF00BF00BF00BFA7
:10B1B00000BF00BF00BF00BF00BF00BF00BF00BF97
:10B1C00000BF00BF00BF00BF00BF00BF00BF00BF87
:10B1D00000BF00BF00BF00BF00BF00BF00BF00BF77
:10B1E00000BF00BF00BF00BF00BF00BF00BF401EC8
:10B1F000C3D170479C2C00200024F40000283ED0CE
:10B200001F49204A096800BF00BF00BF00BF00BF40
:10B2100000BF00BF00BF91422FD000BF00BF00BFE2
:10B2200000BF00BF00BF00BF00BF00BF00BF00BF26
:10B2300000BF00BF00BF00BF00BF00BF00BF00BF16
:10B2400000BF00BF00BF00BF00BF00BF00BF00BF06
:10B2500000BF00BF00BF00BF00BF00BF00BF00BFF6
:10B2600000BF00BF00BF00BF00BF00BF00BF00BFE6
:10B2700000BF00BF00BF00BF00BF401EC3D170476A
:10B280009C2C00200024F4002DE9F14F284C4FF4B1
:10B2900040594FF48058206B666AD9F80820371A55
:10B2A00002EB000B4546AF4200D83D46002201218B
:10B2B000584600F0BBFA002837D100232A465846EA
:10B2C000009900F015FB00282FD12A465846009916
:10B2D00000F0E2FB002828D100220121009800F0B4
:10B2E000A5FA5FEA000A20D1206B284420630020E1
:10B2F00000F044FD0098AB44284400907F1BD1D15E
:10B3000000223146D9F80800FFF748F9A16A8142C6
:10B3100003D10121A661C4E907010548243000F0EA
:10B320006FFB002000F02AFD5046BDE8F88F0000BA
:10B330005836002010B50A4C206A01280BD1E0696C
:10B3400058B14FF44050A16980680022FFF726F9F8
:10B35000E169814201D0002010BD012010BD000034
:10B36000583600202DE9F0410E460A680C49496B19
:10B37000551A0F182A4639460A4800F08DFB04007A
:10B3800007D02946384600F095FB04462046BDE824
:10B39000F081304600F034FB002000F0EFFCF5E7D0
:10B3A00058360020008007002DE9F0413E4C91F80E
:10B3B00000C00E4615460127D4E90E103B023B4A59
:10B3C000BCF1070F6DD2DFE80CF06C041C37186C71
:10B3D0006600B06820B1984204D90420BDE8F0812D
:10B3E0000320FBE730480025957020213830FDF719
:10B3F00065F82563B068A06354E06860206CA860BD
:10B4000050E0B26813188B4203D96860206CA860C2
:10B41000E6E7254B71685C331844FDF736F8E06BBE
:10B42000B168214A0844E063D6E901014032FFF7E0
:10B43000B5F82064E06BE0E7884201D00820CDE752
:10B440009078144608B10120C8E7FFF7CBF901282E
:10B450001FD1174890F87410B9B100F28C5190F8D0
:10B460007A207830012A01D0052006E00F4A1C32EC
:10B470000CCAFFF7E1F9012801D0074612E00020CD
:10B4800000F07CFC0120A0700CE0007808B10A27D5
:10B4900008E00520A2E7206CA860E06BC5E9003059
:10B4A00000E00227384699E758360020002C00209B
:10B4B000B02C002030B40B4B02464FF440501C69B6
:10B4C000816803F11800012C08D05C6934B19B69D4
:10B4D0000C3003F6FF736FF30B03194430BC00F01C
:10B4E00003B80000583600202DE9F0410D46014612
:10B4F00016468A680020012A0CD00127A52A12D0FE
:10B50000AA2A20D0AC2A1CD10C46284600F0C8FB41
:10B51000B0B91DE011494969012912D12846BDE899
:10B52000F041FFF7B1BE28460D4600F0B9FB04001C
:10B5300006D1284600F064FA002000F01FFC2046E7
:10B540003760BDE8F0812846BDE8F041FFF70ABF4B
:10B5500021462846FFF706FFF2E700005836002094
:10B560002DE9F05F15460C004FF0010B58D0924FBB
:10B57000904E94F800C0D7E91410B278BB6C4FF429
:10B58000805A4FF00009BCF1070F7DD2DFE80CF0C4
:10B590007C0436EBE77CF100A16871B3854B0D05A7
:10B5A0001B6902D045189D423AD151452FD8002A37
:10B5B0006BD00144994268D8F96CB964A1683865C8
:10B5C000796438637178491C01F003017170A6F841
:10B5D0000490B168491CB160A168F26801F6FF717E
:10B5E0001044090B754A00F021F900287ED0B0689C
:10B5F000401EB0600520BDE8F09F11E06960B86CA6
:10B60000A860002AD4D0A168B1F5807F01D90420B8
:10B61000F1E7386D7A6D0844801A7A6C904201D94E
:10B620000320E8E7644A60684832FEF7B7FFB86471
:10B63000386DA268DFF888A1104438656860B86C7E
:10B64000A860B088A268B8461118FF2905D8777895
:10B6500061680AEB072318443FE0C0F580717378F6
:10B660008FB20AEB032210443A466168FCF70DFFE3
:10B67000B088384481B2B180A068C01BA060606807
:10B6800038444746606001E091E070E0D8F830004F
:10B69000F268C91C1044B268521CB26073788A0800
:10B6A0000AEB0321454B00F023F9E8B3B068401ED4
:10B6B000B060F86CB864786D38656860F86CA86044
:10B6C0007078401C00F003007070A6F80490A26827
:10B6D000002A6AD00AEB00206168FCF7D6FE2089B8
:10B6E000B18808440104B080090C00E02CE05CD073
:10B6F000D8F85420D8F83000D8F84430821A0A44D8
:10B7000044469A4251D3F268C91C1044B268521C94
:10B71000B26073788A080AEB0321284B00F0E8F83E
:10B72000C0B1B068401E00E00FE0B060E06CA06403
:10B73000606D20656860E06CA8607078401C00F067
:10B7400003007070A6F804902FE0B188386B0844AD
:10B750003863B5E7B188206B08442063EDE7696082
:10B76000B86CA86021E07A6C081A904202D00820D8
:10B7700041E716E0C7F84490FB640020796500F0CB
:10B78000FDFA386D3169884202D00EE000F050FBBE
:10B79000B0680028FAD10A48B03800F0B5F98346FD
:10B7A00003E0AB60386DC5E900A0584623E70220EE
:10B7B000F5E70000002C002058360020D5A7070030
:10B7C000DC2D0020064810B5816D012901D0002034
:10B7D00010BD00218165084600F0D0FA012010BD9F
:10B7E0005836002030B54FF010235D694FF44053B8
:10B7F0009C682B1BA3F5405383420FD30A4B146064
:10B80000A3F118020024156A012D06D014615461B9
:10B810005C609C601860002030BD09B1042030BD20
:10B820000121C2E90414F3E7703600202DE9FF413D
:10B830000E462149044615460868002742071BD5D5
:10B84000820703D50A2004B0BDE8F08140F0010072
:10B8500008608846B2B22B4621461848FFF742F9E5
:10B86000D8F80010070002D021F0010101E041F0FA
:10B870000101C8F800101DE0200501D00620E2E714
:10B88000C4F30F38204600F0D5FA04F58054761E34
:10B89000F8D17DB10A480168D0E90220CDE9022043
:10B8A000CDE90015200BADF80880ADF80A000021A5
:10B8B0006846A8473846C6E7482C0020A02C002040
:10B8C0001CD6070010B50100074C4FF0000009D04E
:10B8D000FFF756F918B9054801F040FC08B10820F7
:10B8E00010BD0421216010BD482C002015AC0700BC
:10B8F0002DE9FF4116461F4A05461C4610680027E1
:10B90000430719D5830703D50A2004B0BDE8F081A9
:10B9100040F00100106090460A46B3B2294616482E
:10B920000094FFF737F90700EFD1D8F8001041F085
:10B930000101C8F8001019E031B12DB141EA05004C
:10B94000800703D00620E0E70320DEE786B1324619
:10B95000284600F087FA4CB10020CDE90250CDE92D
:10B9600000040146ADF80C606846A0473846CCE7B5
:10B970000420CAE7482C0020A02C002038B5002065
:10B98000009000F0D5F96846FFF794FD012400B15E
:10B990000094FFF717FF08B100940EE0009860B91B
:10B9A000FFF7C8FC48B1FFF7C5FC20B14FF4405089
:10B9B0008068FFF740FB002038BD0F4B0F4A06217F
:10B9C0000020FEF77DFA08B1FEF7C8F90B4A1421F2
:10B9D00090320820FEF734FA08B1FEF7BFF900F004
:10B9E0002DF800F00FFA0028E6D100F011F900BFA1
:10B9F000FEF706FAFCE70000A99E07001C330020B2
:10BA0000002101604160816002480163416301617E
:10BA1000416170475836002006484FF48022017873
:10BA200009B1054B01E0044B1B1D1A6081F00101B7
:10BA300001707047442C002008050050024A012183
:10BA40000248FEF713BA000019BA070018D607001B
:10BA500010B5074C6078002808D10648002240F64F
:10BA6000CD410068FEF764FA0120607010BD00004F
:10BA7000442C002018D6070010B5054C607800282B
:10BA800005D004480068FEF797FA0020607010BDEA
:10BA9000442C002018D607001FB5054B01AC9208B6
:10BAA0001B6A009384E80700684618DF04B010BDE5
:10BAB0002CD607001FB58908002201AB009283E84D
:10BAC0000700684618DF04B010BD00001FB59208DB
:10BAD000930502D0092004B010BD044B1B680093ED
:10BAE0000392CDE90110684618DFF4E72CD6070071
:10BAF0001FB5044B0FCB8DE80F00684618DF04B06C
:10BB000010BD00003CD607002DE9F041044690F836
:10BB10003D000125DFF8E480032808D00A25384ECF
:10BB20007069E0B101281DD00A20BDE8F081334ED4
:10BB300034481C363346306020207060D8E9031248
:10BB40000520FFF791FA00B10A25202204F13F01F8
:10BB50003068FCF7BEFC0028E1D00525DFE7284867
:10BB6000183001E0264824300027012D10D08760CE
:10BB700047600760224820213830FCF79FFC2048AE
:10BB8000FF22B2215C30FCF792FC1F4C37632DE0A2
:10BB900094F8251071B101290ED002290ED0032985
:10BBA0000FD00A2594F8251081B1022911D003295C
:10BBB00011D10EE0012102E0A52103E0AA2181605C
:10BBC000F0E7AC218160A16A7163EBE76168B16065
:10BBD00001E06168F160B16C4160D8F8101001605B
:10BBE000C8E72046FFF77EFA00F022F9074800F088
:10BBF000C5F81128F5D0284697E70000002C002052
:10BC000058360020DC310020A086010071C00700FA
:10BC100070B50120FFF756FE00281BD10E4D0F4CCA
:10BC2000A860A06BA8B1FEF7DDFD90B1206A50B905
:10BC3000A06940B1084A00210C322861FFF7D2FD0B
:10BC40000120A87005E0E06A18B9A06908B1606A2F
:10BC5000F0E7002070BD0000002C002058360020C6
:10BC600030B40C780D4B012C01D0062C08D10C7986
:10BC7000012C04D0022C02D0072030BC70471C706D
:10BC80001B78012B03D0022B04D00520F5E730BC34
:10BC9000FFF78ABB30BCFFF763BC0000002C00201C
:10BCA0002DE9F04703461D4840F6FF75066B426BD1
:10BCB0003146541A04F6FF746FF30B0405EB940538
:10BCC00006EB03086FF30B0506F5805622B191428F
:10BCD00002D10020BDE8F08781462A464146304621
:10BCE000FFF7F4FE0028F5D12A4641463046FFF71B
:10BCF000D3FE0700EED12E44A844A54201D900246A
:10BD000000E0641BD9F834100020091BC9F830107A
:10BD100000F034F8002CE0D13846DBE7583600203C
:10BD2000002258210148FEF739BC00005C36002093
:10BD300070B50F4900204FF4AE7508702A460D49C2
:10BD40000D48FCF7A2FB0C4C2068401C04D0FFF708
:10BD5000E7FF216881420AD029460748FCF7AEFB7D
:10BD600001206060BDE87040002000F007B870BDA1
:10BD70004C2C002000F007005836002070B5114C04
:10BD8000217809B1112070BD01212170606000226D
:10BD90000D48FFF74BFD002588B9FFF7C1FF0B49A0
:10BDA0004FF4AE720860A1F5AE70FCF76EFB084B65
:10BDB000572208490448FFF79BFD0028E3D025706F
:10BDC000E0E700004C2C002000F00700583600206F
:10BDD00041AA0700FC34002070B50848084D401BFC
:10BDE000C6080020044606E005EBC4004068804712
:10BDF000002802D1641CB442F6D370BD68D8070095
:10BE000060D8070070B50848084D401BC6080020E0
:10BE1000044605E055F834008047002802D1641C30
:10BE2000B442F7D370BD000068D8070060D807009F
:10BE3000FDF7E6BF094A0221116009490B68002B92
:10BE4000FCD0064B1B1D186008680028FCD00020A1
:10BE5000106008680028FCD07047000004E501402D
:10BE600000E4014070B50C4D01232B600B4C23689E
:10BE7000002BFCD0002307E051F8236040F823603A
:10BE80002668002EFCD05B1C9342F5D3002028606E
:10BE900020680028FCD070BD04E5014000E40140AA
:10BEA00070B5334D044600882E88502855D017DCD5
:10BEB000112829D00ADC022835D0102805D1A08805
:10BEC0002880A86820F00200A86070BD132824D044
:10BED0001428FAD10023A0881A46194686DF0DE0FF
:10BEE000512824D0522832D055283CD05628ECD1A5
:10BEF000A0790028E9D11321304676DF0028E4D06C
:10BF0000BDE87040FDF72ABFFDF7E0FE08B1FDF780
:10BF100025FF4FF6FF70288070BD00231A4685214B
:10BF200030467FDFEAE70021304667DFE6E7A079A9
:10BF30000028F1D021460F4800F0D8F80028EBD0B7
:10BF400004F10801BDE870400A4800F015B800236C
:10BF5000A0881A461946A9DFD0E72146BDE87040FF
:10BF6000044800F00DB9A0881721ADDFC6E7000036
:10BF7000382C0020D832002010B586B004460020AE
:10BF80000090019002900390049005900B7B37483D
:10BF9000072B67D2DFE803F0660429351E664900E7
:10BFA0004A89062A01D0032212E042888280487B17
:10BFB00004904A7CD1F80E0003A962F31F6005903B
:10BFC00001208DF80C006A460020FFF749FE02466A
:10BFD00001213DE003208DF80C006A4603A90020F2
:10BFE000FFF73EFE0246042132E04A89032A01D0CF
:10BFF000032204E0B1F80D1041808180012202216A
:10C0000026E004208DF80C006A4603A90020FFF703
:10C0100027FE0246012801D0032119E0DDE90112C3
:10C02000204600F079FD06B010BD4889022801D0F5
:10C0300003220CE0487B049006208DF80C006A4631
:10C0400003A90020FFF70CFE0246012804D00621B8
:10C05000204600F0C7FDE6E79DE80E00204600F010
:10C060008BFDE0E703221946F2E70000382C0020A0
:10C07000FFF7B2FEBFF34F8F05480168054A01F490
:10C08000E06111430160BFF34F8F00BFFDE7000087
:10C090000CED00E00400FA05134A10B500215170C0
:10C0A000017A012912D002291DD18189491C81817F
:10C0B000C189491C89B2C181028A914213D10021F0
:10C0C00000F008FEBDE8104000F07CBC838AC28A04
:10C0D0004FF480619C1A8C4200DAA1B2114489B2FB
:10C0E000C1829942EBD010BD842C002030B587B0BE
:10C0F000002401940294039404948A1D8B790831DE
:10C10000022B35D153888589AB4231D1127A042A6A
:10C110002ED0062A2CD0052A2AD0022201238DF8FF
:10C1200004208DF80A300B89ADF80C304B890C31A6
:10C13000CDE90414ADF81420104DADF80E30CDF853
:10C1400018D0018A05AA2888A5DF18B96846FEF725
:10C1500038F930B1ADF8084001A92888A8DF50B1FE
:10C1600006E040F2FD10ADF8080001A92888A8DF1C
:10C17000002007B030BD0120FBE70000382C002074
:10C1800030B50546C888AA8887B0904223D10020E0
:10C190000590039004900090029002208DF800001A
:10C1A00001F112000190088A029003AA694600205A
:10C1B000FFF756FD094C608800280CD0A088401E6F
:10C1C0000004000CA08006D1DDE90412284600F02E
:10C1D000A3FC6088A08007B030BD0000382C002090
:10C1E000F8B50D4614460646694600F057FA002891
:10C1F0000ED0009BFF2B0AD8581C834207D86978C1
:10C200000222B2EB911F02D02979814201D2002093
:10C21000F8BD2370611C3046009A00F069FBF8BD40
:10C22000114600F0D6B8114600F0E3B8F8B50C4658
:10C2300015460646694600F031FA00280CD0009AEF
:10C24000501C904207D361780223B3EB911F02D0B8
:10C250002179814201D20020F8BD2946304600F004
:10C2600047FB009A0021A954F8BD2DE9FF410C4677
:10C270008E6817460546694600F00CFB00280ED074
:10C28000A06800280BD060783A46C0F3011002285D
:10C290003146684606D000F0DBF80199696004B0C9
:10C2A000BDE8F08100F086F8F7E77CB50D4614464E
:10C2B000694600F090F9002820D02879082806D097
:10C2C000042809D002280AD001280CD015E0DDE9A5
:10C2D0000001C4E900010AE00098206006E000982F
:10C2E00000B2208002E0009840B22070C117DDE962
:10C2F000002350405940084301D000207CBD01205C
:10C300007CBD7CB50D461446694600F0A2F90028B4
:10C3100020D02879082807D00021042809D0022835
:10C320000AD001280CD014E0DDE90001C4E90001C5
:10C3300009E00098206006E0009880B2208002E0CA
:10C340000098C0B22070DDE90023504059400843F6
:10C3500001D000207CBD01207CBD7CB50D4614467B
:10C36000694600F076F9002821D02979082908D0FB
:10C370000098C21704290BD002290DD001290ED034
:10C3800014E0DDE90002C4E900020146134609E0B9
:10C39000C3170146206005E001B2218001E041B2EF
:10C3A0002170CB1741405340194301D000207CBD80
:10C3B00001207CBD70B50D46064614461146284640
:10C3C00000F083FA224629463046BDE8704000F06E
:10C3D0003FB838B50C460422694600F089FA0028B7
:10C3E00006D09DF80310009861F31F6020600120C3
:10C3F00038BD1CB50C460822694600F079FA0028C1
:10C4000024D09DF801109DF800209DF80230080E00
:10C4100042EA012242EA034240EA13409DF8033017
:10C420009DF8041040EA132008439DF8051042EAE5
:10C43000036240EA01209DF8061040EA01409DF8A1
:10C44000071040EA0160C4E9002001201CBD000083
:10C450002DE9F04F04469DB0002000900646019063
:10C460004FF0FF3A0AA800F051F94FF0010BE946EE
:10C4700082E012AB05AA06A9204600F0C9F850B127
:10C480000AA8059900F053F960B10B98407810F0B4
:10C49000300F53D060E09DF84800002870D11DB0E7
:10C4A000BDE8F08F0598B04242D30B9D0AAE0B98C1
:10C4B000407800F00F00082812D0304600F04EF906
:10C4C0000B98A842F3D156460599B14230D3D4F81F
:10C4D000088009919DF8181008910E990D6820E0C8
:10C4E0000B980678F0E729680F682FB1DDE908326C
:10C4F00029462046B84711E011948968DDE90872A1
:10C50000097891420CD1294617A8FEF73FFC85F81F
:10C510000CB017AA39461198FEF79DF80028BED036
:10C52000AD6815B1A1684145DDD0A168414523D171
:10C530009DF81810204600F017FA1BE00C984028D0
:10C540000AD200F01F010BFA01F00C994A0959F8C0
:10C550002230034349F82230E5682DB10AAB9DF83B
:10C56000182020460599A8470AAA9DF818102046C9
:10C57000FEF771F8002892D0A06800287FF479AF08
:10C58000DDE90B0445780AA800F0E8F80028F7D1A7
:10C5900015F0300F03D10B98007800B1641CC4B1C2
:10C5A0000020494605E000BF51F82020521C0ED162
:10C5B000401CB0EB541FF7D3600959F8201004F069
:10C5C0001F00C0F120022AFA02F0814201D00020AF
:10C5D00065E7012063E71CB50C46694600F039F8B1
:10C5E000002814D0DDE90002C10709D051084FEA44
:10C5F00030006FEA00026FEA0100C4E9002004E0A5
:10C6000051084FEA3000C4E900014FF001001CBDA1
:10C61000F8B507460020187008700E4610601C46DA
:10C6200015466946384600F039F801004FF0010020
:10C6300009D0009959B1C8082860009800F0070097
:10C6400030700120F8BDB96809B10020F8BD207034
:10C65000FBE72DE9F84300268846814634463546F7
:10C6600004E0402E02D30020BDE8F8836946484626
:10C6700000F06AF90028F7D09DF80070324607F004
:10C680007F00C10FFBF7F2FE29430443F61D0D4660
:10C690003806E6D4C8E900410120E5E7F8B50E46C2
:10C6A0000746694600F050F900280AD09DF800407E
:10C6B000200616D5072504F07F0403E0202D01D3C2
:10C6C0000020F8BD6946384600F03EF90028F8D051
:10C6D0009DF8001001F07F00A8400443ED1D0806FE
:10C6E000ECD401203460F8BD5968064A896891424B
:10C6F00006D1D0E90110044A401E491CC2E90010CD
:10C7000070470000A4D407001C2C0020C260002346
:10C710000160C0E901138B781A44026191F903307A
:10C720001A4442610878002800D00120704770B593
:10C7300045680E46044660680178B14206D14078EB
:10C7400000F00F00082801D0012070BD204600F045
:10C7500005F86068A842EED1002070BD30B5416890
:10C760000A785AB101F10C0343600A7B42B14C785C
:10C770000A79C4F30115032D07D00BE0002030BD6A
:10C78000C2680168FFF7C2FFF8E75D78C5F30115DD
:10C79000032D07D00225B5EB141F09D14C7914FBEA
:10C7A00002F209E08D7804690022641B046103E051
:10C7B000B5EB941F00D10422497811F0300F02D15B
:10C7C0008168491C81609C780169214411440161A0
:10C7D00093F9032011444161012030BD30B5416817
:10C7E000002487B0497801F00F02082A11D08A0985
:10C7F0001ED00222B2EB911F09D10269C1F30111CF
:10C800000229146001D0032901D14069047007B0E6
:10C8100030BD0069056808E02C7329466846FEF7BC
:10C82000B5FA6846FFF7DAFFAD68002DF4D1EEE700
:10C83000C1F30111012912D00229E6D00329E4D065
:10C840004268517801F00F0107290BD0916881B13E
:10C850001279006907B0BDE83040FBF716BE4169A8
:10C860000C70EDE70169906807B0BDE8304000F05A
:10C870002CB81179006907B0BDE83040FBF71EBE47
:10C8800010B5034B002408C080E8160010BD00005E
:10C89000CBA3070038B50D4604466946FFF7FEFEF8
:10C8A00000280BD0D4E90002D4E90213C5E9000244
:10C8B000C5E902130098814201D2002038BDA8606A
:10C8C000A168081AA060012038BD00B50A4687B0EB
:10C8D00001466846FFF71AFF002807D06846FFF7B1
:10C8E0007DFF6846FFF73AFF0028F7D107B000BD8B
:10C8F0007FB514460546A9B9124A2868904208D166
:10C9000010E0102269462846FFF7F2FF002807D002
:10C91000103C102CF5D8224669462846FFF7E8FF60
:10C9200004B070BDA868A04201D20020F8E72B68CF
:10C930002246284698470028F2D0A868001BA86025
:10C940000120EDE7CBA3070010B50446806800285E
:10C9500009D02368012220469847002803D0A06808
:10C96000401EA060012010BD38B5002439B1012956
:10C9700012D0022912D005291DD0002038BD05464D
:10C98000012269462846FFF7B3FF90B19DF80000E9
:10C990000006F5D4012038BD08220DE005466946A1
:10C9A000FFF77CFE28B100212846009AFFF7A0FF80
:10C9B00038BD204638BD0422BDE838400021FFF7CD
:10C9C00097BF00000848416E491E416604D10749DF
:10C9D0000A7822F002020A70016E491C01660429DD
:10C9E00001D1002101667047C0370020842C00204F
:10C9F00070B50C490446486E042811D00A6E0244F2
:10CA0000042A00D3121F401C486602EB420001EBCF
:10CA1000C00005461821FBF751FD0120256070BDBF
:10CA2000002070BDC0370020194830B4016E01EB02
:10CA3000410100EBC104406E002827D0207A012874
:10CA400002D0022816D10FE0A18AE08A4FF480625A
:10CA5000091A914200DA8AB2E168236901EB800188
:10CA600003EB800029DF01E0A08928DF112806D030
:10CA700000280BD0204630BC092100F02BB9054915
:10CA8000087820F0020040F00400087030BC7047C5
:10CA9000C0370020842C00200549087810F0060FCC
:10CAA00004D140F002000870FFF7BEBF70470000DD
:10CAB000842C00202DE9F0411E681C4615460746CF
:10CAC00021B1012918D0052923D119E000202060C7
:10CAD000401C2060B0421CD8012229463846FFF78E
:10CAE00007FF002806D015F8010B000601D52068C5
:10CAF000EEE70120BDE8F08108200246186002E060
:10CB000004200246186029463846BDE8F041FFF788
:10CB1000EFBE0020EEE700002DE9F04190460A4606
:10CB200006001FD0124D2888A0F57F41FF391CD088
:10CB3000287AC00719D00F4C6020012120700320F3
:10CB40006070A170E11C104600F0E1FBC71CE11908
:10CB5000404600F0DCFBC219B1892888BDE8F041ED
:10CB600000F0DEB80E20BDE8F0810820FBE70000F1
:10CB7000382C0020EC3200202DE9F04790469946F1
:10CB80000A46060024D0154D2888A0F57F41FF39BC
:10CB900021D0287AC0071ED0114C602006212070B9
:10CBA00061700120A070E11C104600F0B0FBC71CB2
:10CBB000E119404600F0ABFB0744E119484600F09C
:10CBC000A6FBC219B1892888BDE8F04700F0A8B8D3
:10CBD0000E20BDE8F0870820FBE70000382C00207D
:10CBE000EC32002030B498B10C4B1C88A4F57F4582
:10CBF000FF3D10D01B7ADB070DD0094B60251D705F
:10CC000059709A708189204630BC032200F088B8A0
:10CC10000E2030BC70470820FBE70000382C0020B5
:10CC2000EC32002070B5012670044FF0E0210025A1
:10CC3000C1F88001084C4010C4F84803C4F8080348
:10CC400066602F20FEF7DAFAA660044C2F20A5605C
:10CC5000FEF7D4FAA57070BD00100140642C0020CE
:10CC600010B50446FCF75EFF40B1002C09DA04F071
:10CC70000F0000F1E02090F8140D06E042F20100F0
:10CC800010BD04F1E02090F800044109082914D2F5
:10CC900099B1012911D004290FD005290DD00C49D3
:10CCA0008B6804F01F0201209040620943B151F8E3
:10CCB0002230034341F8223007E042F2020010BD67
:10CCC000910001F1E021C1F80001002010BD000039
:10CCD000B43700201FB50022009201920292039205
:10CCE000037A012B02D0022B13D107E08DF800202C
:10CCF00002690292828AADF80C200AE001228DF8C6
:10CD000000208289C389D21AADF808208289ADF843
:10CD10000A204268019200688268684690471FBDF9
:10CD200007B584B000220092ADF8001001218DF803
:10CD3000021006A902910349039101926946A6DFF8
:10CD400007B000BDEC3200202DE9F0410746806AB3
:10CD500014468846C8B3002531E000BFB96A05EB28
:10CD6000450001EB8006B088801CFE2802D90C200B
:10CD7000BDE8F0812288401C08F8020020881622B5
:10CD8000401C80B2208008F800202088401C80B21F
:10CD9000208000EB0801308800F0B4FA21880844B4
:10CDA00080B22080B28842B1B16871B14044FBF7D3
:10CDB0006CFB2088B188084420806D1CEDB297F888
:10CDC0002C00A842CAD80020D2E7FFE70720CFE70F
:10CDD00070B516460D46040007D035B1206C802290
:10CDE00000213828225403D307E00E2070BD2154BF
:10CDF000401C3828FBD30BE02154401C4028FBD3B7
:10CE00002146084600F096F838212046FBF756FBED
:10CE1000216CD4E912304A0FC900383459185041F6
:10CE2000C4E90410227CE2710A0A42EA0062A2719B
:10CE30000A0C42EA00426271020242EA1160207169
:10CE40006069E070010AA170010C6170000E04F8C5
:10CE500038092146084600F06DF84FF00002EEB1A7
:10CE6000E06ED100C840A854A36ECB40A81803714F
:10CE7000636ECB400372236ECB400373E36DCB40F4
:10CE80000374A36DCB400375636DCB400376236DB4
:10CE9000CB40521C0377042AE2D31FE018235042F0
:10CEA000216D03EBC000C140A954666DC640A918AE
:10CEB0000E71A66DC6400E72E66DC6400E73266EEC
:10CEC000C6400E74666EC6400E75A66EC6400E76DF
:10CED000E66EC640521C0E77042AE0D3002070BDD7
:10CEE000A8B100210164C0E912110A4901650A498B
:10CEF00041650A4981650A49C1650A4901660A49CD
:10CF000041660A4981660A49C166002070470E20C1
:10CF10007047000067E6096A85AE67BB72F36E3C36
:10CF20003AF54FA57F520E518C68059BABD9831FF4
:10CF300019CDE05B2DE9F04FC8B0002213466F46D3
:10CF4000CC181B1D2568E4782DBA25F0FF05254374
:10CF500047F82250521C102AF2D31BE007EB820143
:10CF600051F8083C4FEA734484EAF34484EA93247A
:10CF700051F83C3C4FEAF31585EAB34585EAD30303
:10CF8000234451F81C4C51F8401C2144194447F8E3
:10CF90002210521C402AE1D3036D4793416D469104
:10CFA000846D4594C26D44929246026E4392456EE2
:10CFB0004295A946856E4195C66E4096B3460026B9
:10CFC0004FEAB21787EAF22787EA726C02EA09078A
:10CFD00025EA020887EA0807BC44204F57F8268054
:10CFE00008EB0B07BC445DF82670AB460CEB070E54
:10CFF0004FEAB30787EA733787EAB35C81EA04072D
:10D000004D4601EA040891461F400AEB0E02A24673
:10D0100087EA08070C46BC441946761C0EEB0C0345
:10D02000402ECDD3479E33440365469B194441654A
:10D0300045992144816544995144C16543991144FE
:10D040000166429949444166419929448166409963
:10D050005944C16648B0BDE8F08F00006CD60700A7
:10D060002DE9F04116460F46040004D006B317B16F
:10D070000025A8461AE00E20BDE8F081216C785DFD
:10D080006054206C401C206440280ED12146084684
:10D09000FFF750FFD4E912014FF40072801841F1FC
:10D0A0000001C4F84080C4E912016D1CB542E5D30B
:10D0B0000020E1E718B10349C860002070470E2046
:10D0C00070470000882C00201CB503490191009195
:10D0D000694660DF1CBD0000002C002070B50E46C4
:10D0E000054614461C211046FBF7E8F90120208074
:10D0F0000021A16121752672657205B1A072002020
:10D1000070BD10B511B10020FCF728FEBDE810403D
:10D11000FDF7EABD0021024A0846FCF721BE0000E7
:10D1200003D10700FCF718BE30B409B18C0702D058
:10D13000072030BC7047074C0125A160628006497A
:10D14000636010DF0028F4D1257030BC1620FFF793
:10D1500087BD0000882C002025D1070018B10349A5
:10D160000861002070470E2070470000882C0020C6
:10D170002DE9F84F204C00256846D4E901B6FDF7AB
:10D1800091FC8046FDF71AFE0746A946B8F1000F4C
:10D1900025D00023009ACC46606819E00768014654
:10D1A000974202D9BA1A026014E0C1F800C0D1F85F
:10D1B0000C80D21BC8693B448A46B8F1000F07D0E7
:10D1C000F71827F07F47C1E90178CAF81C500D46CF
:10D1D0000028E3D160602846FDF744FE04E02846BD
:10D1E000FDF740FE00B917B15846FDF70DF984F878
:10D1F0000390BDE8F88F0000642C00200D4B10B5A3
:10D20000596831B102680C68A24204D8A21A0A60B7
:10D21000C161586010BD0B4603E00B46C969121B83
:10D2200021B10C689442F8D3A41A0C600260C16169
:10D23000D86110BD642C00207CB5064600240D4644
:10D240008DF800406846FCF7C7FE01A800F098F88A
:10D2500070B10570094946609DF8040048709DF85A
:10D260000000FCF7DDFE1420FCF7ABFA20467CBD85
:10D2700004249DF80000FCF7D3FEF7E7742C00208F
:10D280002DE9F0411D4D6C68002C35D01C4800275D
:10D290000068A968B846401A20F07F462068B0426E
:10D2A00015D82246361A0744E469107C68B182F822
:10D2B0001080EB6833B1D2E90501984728B1FCF73B
:10D2C0004DFD02E0D2E905108847002CE6D129780F
:10D2D0006878814206D1401CC0B26870022801D132
:10D2E00085F8018005486978183040F82170BDE85C
:10D2F000F0411420FCF765BABDE8F081642C0020F1
:10D30000041501400870000A487002207047087038
:10D31000020A4A70020C8A70000EC870042070471E
:10D3200038B515494888A0F57F42FF3A23D04A789E
:10D33000124C521CD2B24A70237B93420AD3091D6D
:10D3400075DF002817D0A169002914D001B0BDE80D
:10D350003040084700254D70217C29B13B2176DF04
:10D3600010B1A16901B188476169002903D08DF826
:10D3700000506846884738BD242C00206C320020BD
:10D380000A4A10B553789478591CC9B28C4200D11E
:10D39000002114788C4201D1002010BD017050682A
:10D3A00003EB430100EBC10010BD0000742C002012
:10D3B0002DE9FC411646DDE90854CDE900541F462D
:10D3C0008046022200F00CF8002807D1CDE9005475
:10D3D0003B4610223146404600F002F8BDE8FC8191
:10D3E0002DE9FC5F0026DDE90C4B994692468E46FE
:10D3F00080462788354630E0D8F80400002200EB4C
:10D40000850069460068019001A865DF002830D1D9
:10D410009DF8000050451FD10EB1002100E002210F
:10D42000228808441118594522D846B9521C90B296
:10D43000208009F800E02088401C208001262188F7
:10D4400001A801EB0902694665DF002811D1208897
:10D450009DF80010084420806D1CB8F80000A84218
:10D46000CADC56B12088C01B401E80B2FF2802D9FA
:10D470000C20BDE8FC9F09F807000020F9E7000038
:10D480000101000001000000000000000205000092
:10D49000210000000000000000000000000000006B
:10D4A00000000000011104FC040000000000000066
:10D4B000021104FC0400000000000000032104FC31
:10D4C0000404000000000000041101FF010000003E
:10D4D00000000000051102FE040000000000000032
:10D4E000061104FC0400000000000000071104FC09
:10D4F0000400000000000000081701FF22000000E7
:10D5000080D40700091001FF010000007ED407004D
:10D510000000000000000000000000000101000009
:10D5200004000000000000000000000000000000F7
:10D5300000000000011101FF0100000000000000D8
:10D54000021702FE64000000A4D40700031704FCC5
:10D55000040000001CD507000000000000000000CF
:10D5600000000000010700007000000034D5070033
:10D57000020100000100000000000000030500009F
:10D58000410000000000000000000000000000005A
:10D5900000000000011704FC7000000034D50700F3
:10D5A000021704FCB400000064D50700000000006E
:10D5B00000000000000000007C572C85BFF65E8153
:10D5C00093374681677094507A9F51D51A62BBF5A4
:10D5D00054412261623B4747BAFD757B334838D2DC
:10D5E0005BC91074110F28875530FD0512C58D7861
:10D5F00032F97292C0D4D5EDB8D5070040000000D2
:10D600004C3200200100000750EADA308883B89FCE
:10D61000604F15F30000C98EFC32002001000000AD
:10D6200000000000000000000000000001000000F9
:10D6300000000000000000000000000002000000E8
:10D6400000000000000000000000000003000000D7
:10D6500000000000000000000000000004000000C6
:10D66000000000000000000000000000982F8A4227
:10D6700091443771CFFBC0B5A5DBB5E95BC2563924
:10D68000F111F159A4823F92D55E1CAB98AA07D83C
:10D69000015B8312BE853124C37D0C55745DBE725F
:10D6A000FEB1DE80A706DC9B74F19BC1C1699BE4DF
:10D6B0008647BEEFC69DC10FCCA10C246F2CE92D6F
:10D6C000AA84744ADCA9B05CDA88F97652513E9893
:10D6D0006DC631A8C82703B0C77F59BFF30BE0C69A
:10D6E0004791A7D55163CA0667292914850AB72728
:10D6F00038211B2EFC6D2C4D130D385354730A65C5
:10D70000BB0A6A762EC9C281852C7292A1E8BFA29B
:10D710004B661AA8708B4BC2A3516CC719E892D103
:10D72000240699D685350EF470A06A1016C1A41986
:10D73000086C371E4C774827B5BCB034B30C1C3985
:10D740004AAAD84E4FCA9C5BF36F2E68EE828F7444
:10D750006F63A5781478C8840802C78CFAFFBE905E
:10D76000EB6C50A4F7A3F9BEF27871C65BC3070057
:10D7700003C30700ABC2070021C2070027C207008E
:10D78000E1C107002DC207006BC2070000000000C6
:10D7900008200001FFFFFFFFFFFFFFFFFFFFFFFF6C
:10D7A0000000000000000000000000000100000078
:10D7B000FFFFFFFF512563FCC2CAB9F3849E17A780
:10D7C000ADFAE6BCFFFFFFFFFFFFFFFF0000000018
:10D7D000FFFFFFFF96C298D84539A1F4A033EB2D87
:10D7E000817D0377F240A463E5E6BCF847422CE173
:10D7F000F2D1176BF551BF376840B6CBCE5E316BB7
:10D800005733CE2B169E0F7C4AEBE78E9B7F1AFE7A
:10D81000E242E34F4B60D2273E3CCE3BF6B053CCC6
:10D82000B0061D65BC86987655BDEBB3E7933AAA62
:10D83000D835C65AB38607003D97070055950700AF
:10D8400068D80700002C0020B0000000049B0700EF
:10D8500018D90700B02C0020782B0000149B07007B
:10D86000E1A2070081A20700010000000000000003
:10D8700000000000000000000000000000000000A8
:10D880000000000000000000000000000000000098
:10D890000000000000000000000000000000000088
:10D8A000FFFF00000000000000000000000000007A
:10D8B0000000000000000000000000000000000068
:10D8C0000000000000000000000000000000000058
:10D8D0000000000000000000000000000000000048
:10D8E0000000000000000000000000000000000038
:10D8F0000000000000000000000000000000000028
:10D90000000000000090D00300100000003008006C
:08D9100059AB07000000000004
:020000041000EA
:041014000080070051
:020000041000EA
:0410180000E00700ED
:04000005000784016B
:00000001FF
