:020000040000FA
:10000000E8290020150400001D0400001F04000062
:10001000210400002304000025040000000000006B
:1000200000000000000000000000000027040000A5
:1000300029040000000000002B0400002D04000033
:100040002F0400007D060000AD0C00002F0400000E
:100050002F0400002F0400002F0400002F040000D4
:100060002F040000010C0000490C00002F040000C8
:100070002F0400002F0400002F0400002F040000B4
:100080002F0400002F0400002F0400002F040000A4
:10009000850800002F0400002F0400002F0400003A
:1000A0002F0400002F0400002F0400002F04000084
:1000B0002F0400002F0400000000000000000000DA
:1000C0002F0400002F0400002F0400002F04000064
:1000D0002F0400002F0400002F0400000000000087
:1000E0000000000000000000000000000000000010
:1000F0000000000000000000000000000000000000
:1001000000000000000000000000000000000000EF
:1001100000000000000000000000000000000000DF
:10040000DFF80CD000F082F800480047BD3500004E
:10041000E82900200648804706480047FEE7FEE737
:10042000FEE7FEE7FEE7FEE7FEE7FEE7FEE7FEE7A4
:10043000650900000104000040EA01039B0703D0A6
:1004400009E008C9121F08C0042AFAD203E011F813
:10045000013B00F8013B521EF9D27047D2B201E0D5
:1004600000F8012B491EFBD270470022F6E710B5B9
:1004700013460A4604461946FFF7F0FF204610BD12
:10048000421C10F8011B0029FBD1801A704730B5BF
:1004900004460020034600E05B1C934203D2E05C6C
:1004A000CD5C401BF8D030BD2DE9F05F0546002043
:1004B00092469B4688460646814640241BE02846D5
:1004C00041464746224600F042F853465A46C01A73
:1004D000914110D311461846224600F029F82D1AF2
:1004E00067EB01084F4622460120002100F020F86A
:1004F00017EB00094E41201EA4F10104DFDC484641
:1005000031462A464346BDE8F09F0000064C074DA1
:1005100006E0E06840F0010394E8070098471034D3
:10052000AC42F6D3FFF770FFC86B0000E86B000029
:10053000202A04DB203A00FA02F1002070479140A3
:10054000C2F1200320FA03F3194390407047202A98
:1005500004DB203A21FA02F00021704721FA02F36D
:10056000D040C2F12002914008431946704703F081
:1005700099B900002DE9F74F354D4FF480391746F2
:1005800080460024C5F80893324EB07800281CBF7E
:100590003148FFF7ECFFB8F1000F04BF2F48FFF719
:1005A000E6FF706800281CBF2D48FFF7E0FFC6F883
:1005B0000480DFF8B0B038004FF0000A4FF00107B8
:1005C000ABF104082FD0012808BFD8F8004006D0AE
:1005D000022813BF244825480468FFF7C8FFB770F6
:1005E000C5F840A10198204480B2C8F80000D8F8AE
:1005F00000806F64DBF80060D5F8400100281CBF64
:100600001B48FFF7B4FF444514D8A64228BFB045A5
:1006100098BF184802D800BFFFF7A9FFC5F8049398
:1006200003B0BDE8F08F6F64DBF800402F64C5F8BD
:1006300040A1D4E746452CBF00200120B44294BF1E
:1006400001210021884208BF0B48E7D1E4E7000000
:1006500000A000407C00002073000400750004002E
:100660007600040044A500408900040048A500402D
:100670009B000400B0000400C90004002DE9F05FF5
:10068000734C20696778401C2061607D00281CBF86
:100690007048FFF76CFF2046217800256E4C6F4EA6
:1006A0004FF003094FF002084FF0FF3A4FF0010BF3
:1006B000032945D1D4F80C11002941D0012F06D0CF
:1006C000022F36D0BDE8F05F6548FFF750BF074600
:1006D000006903281CBF6348FFF749FF87F80080C3
:1006E000B869401CB861C4F80052C4F808A34FF0C0
:1006F000E020C0F88082C4F80C51C4F80051C4F85E
:100700001051C4F8045187F801907D603D75306840
:10071000017D49B154490968B975C4F81C51C4F840
:1007200018B0524A04211160C068002843D1BDE8C6
:10073000F09F006901281CBF4D48FFF718FF76E0C5
:10074000032F7FD00821012F38D0022F6FD042789D
:10075000484B002703EB0212137B002B1EBFD4F87B
:100760000C31002B0127927A0270C4F80052032A40
:1007700061D0C4F808A34FF0E021C1F88082C4F82A
:100780000C5180F8019000BFC4F80051C4F810511A
:10079000C4F804514560057530680069002818BF29
:1007A0008047002F08BFBDE8F09F306880680028B0
:1007B00008BFBDE8F09FBDE8F05F00470269012A6D
:1007C00020D0022A18BFBDE8F09FC4F80C51C4F82D
:1007D0001051C4F80051C4F800526FF00102C4F87F
:1007E0000823C4F8041380F800904560057530684C
:1007F0000069002818BF8047306880680028DAD177
:10080000BDE8F09FC4F80051C4F80451C4F808A32F
:10081000C4F804B33168097D11B1174A042111608D
:100820001649C0680860BDE8F09F0BE0FFE7BDE82F
:10083000F05F04F069BF6FF00802C4F80823C4F841
:100840000413A1E7BDE8F05F0D48FFF790BE00007C
:10085000D006002090010A00001000408400002013
:10086000A9010A009F010A004815004008F501404F
:10087000A4010A008C6B000004F50140041500403F
:10088000D6010A002DE9F041012080F31088344D93
:10089000D5F88400002700285DD0D5F8800000EB53
:1008A000400005EB8000017961F30704417961F3B1
:1008B0000F24817961F31744C17961F31F64816862
:1008C0008289C08962F30F0660F31F46D5F8840061
:1008D000401EC5F88400D5F88000401CC5F8800093
:1008E000D5F880000A2833D2002080F310882B68C6
:1008F000324620469847012080F31088D5F88400BE
:1009000048B3D5F8800000EB400005EB800001798A
:1009100061F30704417961F30F24817961F317448E
:10092000C17961F31F6481688289C08962F30F060F
:1009300060F31F46D5F88400401EC5F88400D5F842
:100940008000401CC5F88000D5F880000A28CBD371
:10095000C5F88070C8E7002080F31088BDE8F081FA
:10096000F4060020F0B598480023021D0178012507
:10097000101D4FF08056062907D11478240704D1A2
:100980000478C4F30314032C02D0062904D00FE02A
:100990008F4F8E4C7C670EE01478240708D10478C2
:1009A000C4F30314032C06D0042C04D0052C02D06D
:1009B000062907D00EE0D6F84442864FC4F34234ED
:1009C0003C6002E01478240704D10478C4F30314D3
:1009D000032C02D0062906D011E07F4C276827F0AF
:1009E000807727600EE01478240708D10478C4F3D8
:1009F0000314032C06D0042C04D0052C02D00629A5
:100A00000AD011E04FF08044C4F80C31C4F8103122
:100A1000704C241F236002E01478240704D104786A
:100A2000C4F30314032C02D0062905D00CE0694F4F
:100A3000032464373C600AE01478240704D1047866
:100A4000C4F30314032C02D006290DD014E0634F25
:100A500005243C60614C78342560604C0834236088
:100A60003F243F1D3C6002E01478240704D1047841
:100A7000C4F30314052C02D0062957D068E0584966
:100A80000968584A11605649091D0968121D11600C
:100A9000534908310968121D116051490C31096828
:100AA000121D11604E4910310968121D11604C4928
:100AB00014310968121D1160494918310968494A01
:100AC0002032116046491C310968121D11604449E9
:100AD00020310968121D1160414924310968121D35
:100AE00011603F4928310968121D11603C492C31C1
:100AF0000968121D11603A4930310968394A40329B
:100B00001160374934310968121D11603449383198
:100B10000968121D116032493C310968121D1160CB
:100B20002F4940310968121D116002E01178090750
:100B30000ED10078C0F30310032803D0042801D09D
:100B4000052805D1D6F85802274900F04F00086063
:100B500021487438016841F470010160BFF34F8F80
:100B6000BFF36F8F4FF01021D1F80002002803DB94
:100B7000D1F80402002822DA1C4A15601C480468D7
:100B8000002CFCD01524C1F800420568002DFCD0D3
:100B9000C1F8044201680029FCD0136001680029F3
:100BA000FCD0BFF34F8F0C48F0380168114A01F4B4
:100BB000E06111430160BFF34F8F00BFFDE70F49B4
:100BC0000D480860F0BD0000E00F00F00DF0ADBA78
:100BD00000C007403C050040FCED00E0105600401E
:100BE0000404001020C50040E40E004004E501406C
:100BF00000E401400400FA050090D0034400002006
:100C00000E4800220178142905D2491CC9B201708E
:100C10000A2901D302E00270022101E06FF0010114
:100C2000074803680B44036043681944416001218D
:100C300041720448C0F8402100F0E0B906000020ED
:100C4000A00000200090004070B5144E4FF480309A
:100C5000C6F808030025C6F84051114C606800280A
:100C600004BF1048FFF783FCA5706268012365602C
:100C700073640D480168001F00681430B1F5804F9F
:100C800004D2B0F5404F88BF637004D881422CBFB6
:100C9000012000206070BDE87040104700A00040B7
:100CA0007C000020EC00040044A500400448017FC3
:100CB00004480029024901D005F025BE05F094BD85
:100CC000AC000020002000400FB4084B10B504A970
:100CD00002AA039801F094F9044602A9002000F04A
:100CE0003FF8204610BC5DF814FB0000610D0000C9
:100CF00002E008C8121F08C1002AFAD170477047E5
:100D0000002001E001C1121F002AFBD170472DE92C
:100D1000F041044600251E461746880404D405E029
:100D200039462020B0476D1C641EF9D52846BDE821
:100D3000F0812DE9F041044600251E469046C80387
:100D400001D5302700E02027880404D505E041467E
:100D50003846B0476D1C641EF9D52846BDE8F081C1
:100D60000A68531C0B601070704700000BA1012033
:100D700005F054F804F0ACFF04F0AEFF0028FBD1FE
:100D8000BFF34F8F0B4801680B4A01F4E061114338
:100D90000160BFF34F8F00BFFDE700004150505F7F
:100DA0004552524F523A4552524F523A466174613F
:100DB0006C0D0A000CED00E00400FA050EB50021F0
:100DC0000091CDE901106A4644F20100FFF7CEFF21
:100DD0000EBD00F003B800F009B8000072B602487A
:100DE0000168491C0160704714000020034908682D
:100DF000401E086000D162B6704700001400002059
:100E00002DE9F04105460878214F012606FA00F049
:100E10000C463860086803F002FA0021606803F0AD
:100E2000F5F928791B4901EB4010A169007F0028E2
:100E30002868C0F8241519D0607D217D2A680843F0
:100E4000C2F86C0518E00021A06803F0DFF9207BF0
:100E500086403E60E06803F0E2F9D4E902122868B7
:100E6000C0F80825C0F81015BDE8F081607D227D2E
:100E700029681043C1F86C05D4E900122868C0F84D
:100E80000C15C0F81425207D0128DCD0ECE700000B
:100E900008050050AC00002070B504F043FB1E4C68
:100EA0001E4E0025012025613070A4F150001C4920
:100EB0000069086005F0E8F908B305F0E5F90328D2
:100EC00018BF184802D000BFFFF751FB022004F002
:100ED000DBFC002004F058FD05F0D6F903281CBF08
:100EE0001148FFF744FB307801281CBF0F48FFF77B
:100EF0003EFB022030700E48C4E9030570BD05F0CA
:100F00000BF80228E2D305F045FA6060002808BF1C
:100F10000848DBD1D8E70000AC06002068000020BC
:100F20003015004080050900880509009205090078
:100F3000112400007B050900024905200870FFF715
:100F4000ABBF00006800002004280CD2074A1268DA
:100F5000074B13F8203001209840904300D0012027
:100F60000870002070470020FAE7000010050050CC
:100F7000146B00001FB501460020890710D50949F0
:100F80001EC98DE81E0000216C460C2354F8212058
:100F9000920002F1A042C2F80037491C0429F5D39F
:100FA00004B010BD246B0000002901DA0020704756
:100FB000026811440160012070470000034803C823
:100FC000814201D10120704700207047FC010020C0
:100FD00002490A880280897881707047786B000026
:100FE000002207E010F8013BFF2B01D000207047E2
:100FF000521CD2B28A42F5D3012070477047704725
:10100000FFFFFFFFFFFFFFFFFFFFFFFFFFFFFFFFF0
:10101000FFFFFFFFFFFFFFFFFFFFFFFFFFFFFFFFE0
:10102000FFFFFFFFFFFFFFFFFFFFFFFFFFFFFFFFD0
:10103000FFFFFFFFFFFFFFFFFFFFFFFFFFFFFFFFC0
:102000002DE9FF4F8DB00F460546002606E0252836
:102010000BD0DDE90F1290476D1C761C2878002844
:10202000F5D111B03046BDE8F08F0024A246A1469C
:102030000122EC4900E0044315F8013F203B02FA7D
:1020400003F00842F7D128782A2810D06FF02F0229
:102050002878A0F13001092914D80AEB8A0102EB93
:10206000410144F0020400EB010A6D1CF0E701CFCE
:102070005FEA000A03D544F40054CAF1000A44F0B0
:1020800002046D1C28782E2817D115F8010F44F092
:1020900004042A280ED06FF02F022878A0F1300116
:1020A00009290AD809EB890102EB410100EB01097A
:1020B0006D1CF2E757F8049B6D1C28786C280FD034
:1020C00006DC4C2817D068280DD06A2814D104E00B
:1020D000742810D07A280FD10DE044F400140AE0DF
:1020E00044F4801401E044F440146978814202D140
:1020F00004F580146D1C6D1C2A786E2A1FD00CDC30
:10210000632A31D004DC002A8BD0582A11D1A3E0F5
:10211000642A68D0692A0CD165E0732A2ED004DCC9
:102120006F2A73D0702A04D19BE0752A6FD0782A69
:102130006ED01046DDE90F129047761C50E1C4F3D3
:102140000250022806D0032809D0042801CF09D064
:10215000066045E101CFF117C0E9006140E101CF20
:1021600006803DE106703BE117F8040B8DF8000096
:1021700000208DF80100EB46012003E057F804BB76
:102180004FF0FF3061074FF0000102D40DE008F17D
:102190000101884649450FDA8045F8DB1BF8081035
:1021A0000029F4D108E008F1010188468142FADBF8
:1021B0001BF808100029F6D1DDE90F23AAEB08006F
:1021C00081462146FEF7B5FD304400EB080604E0E9
:1021D000DDE90F121BF8010B9047B8F10108F7D2A7
:1021E00021464846F7E00A21C4F302534FF0000BA2
:1021F0000891022B04D001CFC117032B09D00AE0AC
:10220000FF1D27F00707F7E8020108E032E01FE0B2
:1022100020E000B2C117042B01D140B2C117031E48
:1022200071F1000307DA4FF0000CD0EB0C006CEBFF
:1022300001012D2302E0230504D52B238DF8243042
:10224000012303E0E30701D02023F7E7984658E095
:102250000A2110E010210EE010204FF0000B089032
:102260000CE010214FF0000B44F004044FF008097B
:10227000089103E008214FF0000B0891C4F30253CA
:10228000022B04D001CF0021032B06D006E0FF1D56
:1022900027F00707F7E8020103E080B2042B00D122
:1022A000C0B24FF0000823072BD5702A07D0DDF805
:1022B00020C08CF0100C5CEA0B0C05D00EE0402323
:1022C0008DF82430012308E050EA010306D03023C2
:1022D0008DF824308DF8252002239846DDF820C0A3
:1022E0008CF0080C5CEA0B0C0BD150EA010301D115
:1022F000630706D530238DF824304FF00108A9F18B
:102300000109582A04D038A20B9208AA0A920BE0BD
:102310003AA2F9E75B46089AFEF7C6F80B9B9B5C6E
:102320000A9A521E0A92137050EA0102F2D10A98D8
:10233000ADEB000000F1200B600702D524F48034DF
:1023400001E04FF00109D94502DDA9EB0B0000E0E7
:10235000002000EB0B0141440890AAEB010AE003C6
:1023600006D4DDE90F2321465046FEF7E2FC064481
:102370004FF0000908E009A911F80900DDE90F1282
:10238000904709F10109761CC145F4DBE0030CD547
:10239000DDE90F2321465046FEF7CBFC064404E05E
:1023A000DDE90F1230209047761C0899481E0890EE
:1023B0000029F5DC08E00A980A990078491C0A917E
:1023C000DDE90F129047761CBBF10001ABF1010B68
:1023D000F1DC21465046DDE90F23FEF798FC064468
:1023E0006D1C1BE609280100303132333435363795
:1023F0003839616263646566000000003031323351
:1024000034353637383941424344454600000000F0
:102410002DE9F04151488CB00068514C012802D0A0
:102420005048006828B960680078202898BF0120CB
:1024300000D900204C4F0321002639702660002867
:1024400076D04A48056800684949086003A8CDE984
:1024500000044848026801232946184603F0ACFDF1
:10246000002839D0012813D0022839D0032818BFFA
:10247000414801D0FEF77BF82068002865D0012094
:1024800060753E482061042038700CB0BDE8F081D2
:10249000039800281CBF3A48FEF769F8284603F065
:1024A000EFFE002804BF3748FEF761F84FF002083E
:1024B00078680023807D8DF800808DF801508DF8BC
:1024C0000200ADF808300193ADF80A308DF8033002
:1024D000684603F0E3FCCFE72B48FEF748F8CBE76C
:1024E0000398002804BF2948FEF741F8284603F066
:1024F000C7FE002804BF2648FEF739F84FF0020C4B
:1025000078680022039B807D8DF800C08DF8015013
:102510008DF802004FF00108ADF808200193ADF8E6
:102520000A208DF80380684603F0B8FCA4E7FFE7B3
:10253000002300961A4619461846019603F03CFD02
:10254000042818BF134895D196E702F0EBFF667593
:102550002661FEF7A1FC0CB0BDE8F081001400403C
:10256000AC0600203415004068000020081400402C
:102570002C1500400C140040C8050900390F00005C
:10258000B8050900B9050900BD050900C005090025
:10259000C1050900CF0509002DE9F041461C0125C0
:1025A0000020FEF716FC1149741CD1E900208F6849
:1025B000101A3B1A5B1C9C420FD963B10C480D4B9F
:1025C0003A4000681B6801EB820263F39F20D060F1
:1025D0000868401C0860002501E090190860002090
:1025E000FEF7F9FB2846BDE8F0810000FC01002061
:1025F000546B0000240000202DE9F043484883B0CC
:102600000068012802D04748006830B94648406851
:102610000078202898BF012600D90026434C0125C8
:10262000606920B901F0D2FD002808BF656103F0A0
:102630002BFE01281CBF3E48FDF799FF3D4D686801
:10264000007D00281CBF3C48FDF791FF02F06AFFA7
:10265000002E04BF03B0BDE8F0830121084603F05B
:1026600071FD052845D2DFE800F003412241410019
:102670004FF0000903F0F8FD0646B4F80C80E78936
:1026800003F0F8FD014668680023827D8DF8009014
:102690008DF80110ADF808808DF802200196ADF894
:1026A0000A708DF80330684603F0F8FB21E04FF024
:1026B000000903F0D9FD0646B4F80C80E78903F061
:1026C000D9FD014668680123827D8DF800908DF860
:1026D0000110ADF808808DF802200196ADF80A705F
:1026E0008DF80330684603F0D9FB02E01348FDF78C
:1026F0003EFF01F009F92061114800F168024169CB
:1027000061602378022B03D0002908BF806800D0C5
:10271000C068106003B00020BDE8F04301F026B9A6
:102720000014004034150040AC0600209006002044
:10273000A806090068000020A9060900C8060900CB
:102740005C06002070B5174C4FF000054FF00106F5
:1027500021796078814305D0257113A1032003F00E
:102760005DFB01E000B12671E1782078814305D05E
:10277000E57017A1032003F051FB01E000B1E67002
:102780006179A078814305D0657119A1032003F018
:1027900045FB01E000B1667103F09EFA0028FBD111
:1027A00070BD0000000000204150503A494E464F95
:1027B0003A53797374656D20616464726573732034
:1027C0006E6F742072656365697665640D0A00003A
:1027D0004150503A494E464F3A486F73742049442D
:1027E000206E6F742072656365697665640D0A00FA
:1027F0004150503A494E464F3A44796E204B6579E4
:10280000206E6F742072656365697665640D0A00D9
:1028100030B5294D83B0687E002804BF03B030BDB9
:1028200001F07CFC002401280BD001F0BBFC234804
:10283000007F10B9012081074860002003F048FEA6
:102840006C6002F06FFEAC706C7605208DF80000B5
:102850008DF80140ADF808408DF802400194ADF8C4
:102860000A408DF80340684603F018FB14481549E8
:1028700004700320086003F007FD012818BF022838
:1028800015D003281CBF03B030BD009400231A46A6
:1028900019461846019403F08FFB042804BF03B0C7
:1028A00030BD094803B0BDE83040FDF760BE0021EF
:1028B000084603F047FCF0E7900600205C06002085
:1028C0006800002008F50140E80109002DE9F04109
:1028D0008AB020270026099701F0ACFD054601F0DB
:1028E000C1FD804601F066FFC82001F00BFF052006
:1028F00001F038FF002001F06BFD01F01BFD00200E
:102900008DF8200004460022012108A800F066FB93
:1029100030B1002001F05CFF641CE4B2642CF2D3FF
:10292000C82000F009F901208DF82000014600229E
:1029300008A800F053FB08B31E480078F0B100204F
:1029400001F07AFD00281DDD09AA694600200997DB
:1029500001F0FEFCB0B19DF80000082812D1154826
:10296000DDF801100C38C0F803100DF1010000F083
:1029700097FB002000F03EFA012603E04FF496702A
:1029800000F0DAF84FF4AF7000F0D6F801F012FF63
:10299000002001F01DFD002001F02AFD284601F075
:1029A000B1FE404601F0DEFE01F0C4FC0AB0304644
:1029B000BDE8F0813A000020F0B50746204889B014
:1029C000154600780E4698B1012814D0022834D15B
:1029D00010221C4904A8FDF72FFD1B490D2204A855
:1029E000FDF72AFD0024164A6846521C21460DE0D8
:1029F00010221449F3E71022124904A8FDF71CFD28
:102A000004A800F0D3F8EDE7052C02D2135D0355BE
:102A100000E00155641CE4B2102CF5D301F042F93A
:102A200004A801F051F96946084601F011F92B4656
:102A30006A463146384600F093FB09B0F0BD00000D
:102A4000280000207B6B00003406002070B50C4687
:102A500005460D2910D800F02BF808B1012070BDF3
:102A60000648007840B900F083F928B1214628468D
:102A7000BDE8704000F01CB8002070BD2E000020A2
:102A800001490870704700002800002001460D220F
:102A90000148FDF7D1BC000034060020034902685C
:102AA000C1F801200079487170470000280000201B
:102AB000F0B50746081D89B0C6B206208DF8100093
:102AC00004AC0D46601CFEF783FA2A463946201DE9
:102AD000FDF7B2FC174D287808B1002000E0022075
:102AE000FFF7CEFF701EC2B2611C601CFFF764FFCF
:102AF00001200090002301AA314604A800F084FAC6
:102B000018B99DF804000B2802D0002009B0F0BDD0
:102B100001AC0322A01DA11DFFF74EFFA01D00F078
:102B200013FB0028F2D0287810B9601CFFF7B6FF1D
:102B30000120EBE72E00002010B5044601F090FCC8
:102B40006043BDE81040400000F024BFF0B54E23C4
:102B5000B3FBF2F5022303704F23841804F8013C01
:102B600081B10123541E0BE003F003068E5DB6FB1A
:102B7000F5F705FB176605FB0366C6545B1CDBB265
:102B8000A342F1DB01210DE04318445C13F8013C42
:102B9000E31ADBB2052B03D2C3F1050323444354EC
:102BA000491CC9B29142EFD3F0BD00000349D1F8EE
:102BB00007200260C97A0171704700002E000020D2
:102BC00010B588B000216FF0010002AAFF23535412
:102BD000491C09B20529FADB40F6817241F27E01F7
:102BE000895CFF2917D00F20B0EB111F01D00C0911
:102BF00001E001F00F04214604A800F0F0F80522DE
:102C000002A905A8FDF743FC10B1204608B010BD8D
:102C10004FF0FF30FAE7521E12B2002ADEDAF5E773
:102C2000F0B52F4D87B000262878012701ACB0B150
:102C300003208DF80400601CFEF7CAF90020FFF79E
:102C40001FFF0322611C601CFFF7B6FE002303AACE
:102C5000042101A8009700F0D7F9A0B117E00220E5
:102C60008DF804000521601C00F086F90122062180
:102C700001A800F0B3F950B1601CFFF70FFF2F70EF
:102C8000002007B0F0BD9DF80C00092802D02E707E
:102C90000320F6E703AC0922601C611CFFF78CFEE1
:102CA000601C00F051FAC0B19DF8100020B101285D
:102CB00005D0022800D12E709DF81000E1E7601DBC
:102CC00000F076F90D21074800F056F90548FFF7A6
:102CD000DDFE012000F08EF8EDE72E700220D0E737
:102CE0002E0000204106002041F6FF700078FF28EA
:102CF00001D0012070470020704740F6817041F2FA
:102D00007E01095CFF2905D00F20B0EB111F07D011
:102D100008097047401E00B20028F0DA0E20704704
:102D200001F00F00704700003EB5104C00202070ED
:102D3000FFF7DAFF98B94FF4805090F87E00FF2833
:102D40000DD0FFF7DAFF01460E2808D2684600F0E2
:102D500046F80098C4F8030001A800F029F9BDE87E
:102D60003E400248C01C00F09BB900002E0000202D
:102D700010B58AB004208DF80400012001460090AF
:102D8000002306AA01A800F03FF930BB9DF8180007
:102D90000A2822D10DF11900FFF780FE05208DF8D9
:102DA000040001AC601CFEF713F90D21201D00F09A
:102DB000E3F8201DFFF76AFE0120FFF761FE1022F5
:102DC000611C601CFFF7F8FD0122112101A800F031
:102DD00005F910B101200AB010BD0020FBE701EB9E
:102DE000C10101F580510A6802604A684260097AAF
:102DF000017270472DE9FE4300265E4FB04634460F
:102E000000285ED00025E94629466846FFF7E7FF1F
:102E100058490422C91C6846FDF739FB38B95549A1
:102E20000522C91D09F10400FDF731FB80B16D1CBD
:102E3000EDB20E2DE8D3002529466846FFF7CFFFF7
:102E40004C490422C91C6846FDF721FB10B10CE077
:102E50002C4632E0052109F10400FEF7C1F820B14B
:102E6000D7F807000190F87A13E06D1CEDB20E2D33
:102E7000E2D3002529466846FFF7B1FF09216846DD
:102E8000FEF7AEF848B157F8030F0090786801904C
:102E9000387A8DF808002C4631E06D1CEDB20E2D0D
:102EA000E8D3B8F1000F07D004EBC400694609224B
:102EB00000F5805003F072F83EB3FFF715FF28B31A
:102EC00056E0002421466846FFF789FF294904227D
:102ED000C91C6846FDF7DBFA0028EED0641CE4B29A
:102EE0000E2CEFD3002421466846FFF778FF04211B
:102EF0006846FEF775F820B1D7F803000090012668
:102F0000D2E7641CE4B20E2CEDD331E0FFF7F5FEFE
:102F1000A0422DD00E2C2BD04FF48051002040F633
:102F200081720F2591F87E10531C04E041F27E015E
:102F30009042095C0DD0CE43360706D0B5EB111F89
:102F40000AD164F31F11C9B20AE001F0F001214374
:102F500006E044F0E00103E0401C00B29842E5DBEB
:102F600041F27E02104402F0FBFF0120BDE8FE8327
:102F70000020FBE72E000020F0B50B4B0025C3F826
:102F8000005101241C602A46084E09E0D3F8007164
:102F9000002FFBD037688754C3F80051521CD2B2BF
:102FA0008A42F3D35C60F0BD00D0004008D50040F9
:102FB00003490268C1F807200079C8727047000011
:102FC0002E00002010B5044601F08EF900E030BF5D
:102FD00001F040FAB0EB440FF9D310BD10B5094C25
:102FE000134600226270A2700A460146184601F09C
:102FF00021F908B910BD30BF60780028FBD0A07857
:1030000010BD00002E0000202DE9FC4780460A205C
:103010000A9D009016460F46284601F0D9FB012470
:1030200001F07CF901F0D0FA0028FBD101F010FA90
:1030300081461E2001F076FB01F07CF92A463946D4
:103040004046FFF7CBFFE0B10224284601F0C0FB69
:1030500007208DF804000A20FFF7B4FF2A4601215B
:1030600001A8FFF7BBFF60B1284601F0E5F940B1C8
:10307000202000906A463146284601F069F900B1E7
:10308000002401F04BF900BF01F09EFA0028FBD1AB
:10309000484601F047FB01F04DF92046BDE8FC87AA
:1030A0002DE9FF41054601F08FFA264C0646EDB3A7
:1030B00028786978EA7800EB0120A978090401EB07
:1030C0000261471801F076FB204601F0BBFA50B1CF
:1030D0000021084601F0A0FA28B1384601F0C2FAF2
:1030E00008B1012402E0012407E037B12146084677
:1030F00001F092FA08B1012700E00027641CE4B255
:10310000082CF2D301F08AF90446C2B22946684677
:10311000FFF71CFD87B12146684601F0B3FA58B1AC
:103120000120002E05D001F005F900E007E030B1E4
:10313000012004B0BDE8F0810020002EF9D000206D
:10314000F7E700000405070B10B503220349FDF75C
:103150009EF908B1002010BD012010BD786B000061
:1031600070B5002409E000BF11F8015B12F8016B93
:103170007540641C00F8015BE4B29C42F4D370BD5E
:1031800070B50E460446007918494FF4A27501EB5C
:103190004010017F2068A1B14FF4887103F0BCF9A1
:1031A0004FF49071206803F0B7F94FF492712068E2
:1031B00003F0B2F92946206803F0AEF90C49206803
:1031C00009E04FF48E7103F096F92946206803F068
:1031D00092F908492068C0F80413206800F047FC01
:1031E0003146BDE8704000F026BC0000AC00002075
:1031F00010030200800002000022027002214254EB
:10320000491CC9B20829FAD3704700220270042170
:10321000817003214254491CC9B20829FAD370476E
:103220002DE9F05FC74800260660C7480325056002
:10323000C64806604FF00108C0F80080C448016825
:1032400021F480710160016821F00F0141F0060155
:103250000160016821F4702141F440310160041DD6
:10326000206820F000702060206840F080702060AE
:10327000206820F0FF0040F020002060206820F44B
:103280007F4020604FF0E0204FF00209C0F88092AC
:1032900000F03CFFAF490860091FAF480860AF4825
:1032A0000560AF4802F0C6FAAE49AF4D4860687F8E
:1032B000216821F4E02141EA004020600023D5F894
:1032C00020C019461822C8002CFA00F0C0B2002411
:1032D00000F0010744EAC714C0F3400744EA87142A
:1032E000C0F3800744EA4714C0F3C00744EA071458
:1032F000C0F3001744EAC704C0F3401744EA870448
:10330000C0F3801744EA470444EAD0104C4202EB71
:10331000C404A0400343481CC1B20429D3D393483A
:1033200003600023D5F824C01946C8002CFA00F029
:10333000C0B2002400F0010744EAC714C0F34007FC
:1033400044EA8714C0F3800744EA4714C0F3C00777
:1033500044EA0714C0F3001744EAC704C0F3401757
:1033600044EA8704C0F3801744EA470444EAD010D3
:103370004C4202EBC404A0400343481CC1B20429E0
:10338000D3D37B4803600024071D4FF0FF0B07F1E8
:10339000040A2819082C90F8280058D2A107C90E51
:1033A0000BFA01F2D243042C26D23B681A403A6051
:1033B000002200F0010342EAC312C0F3400342EAD4
:1033C0008312C0F3800342EA4312C0F3C00342EA0F
:1033D0000312C0F3001342EAC302C0F3401342EAEF
:1033E0008302C0F3801342EA430242EAD0108840CD
:1033F0003968084338602DE0DAF800301A40CAF81E
:103400000020002200F0010342EAC312C0F340038F
:1034100042EA8312C0F3800342EA4312C0F3C003BE
:1034200042EA0312C0F3001342EAC302C0F340139E
:1034300042EA8302C0F3801342EA430242EAD01018
:103440008840DAF800100843CAF8000002E0494852
:10345000FDF78DF8641C082C9BDB474995F830007C
:103460000860464895F83110026822F0FF020260B9
:10347000002904BF016801600AD0414A131F0129D5
:1034800029D0022930D0032938D03E48FDF76FF803
:103490003F4B95F8320003F1040C0CF104043A4957
:1034A0003A4ADFF8F0A0251DDFF8ECB02F1D70B30D
:1034B000012839D0022818BFBDE8F09FC1F800905C
:1034C0001A603648CCF800A0206035482860C7F85C
:1034D00000B0BDE8F09F016841F001010160C2F851
:1034E00000B040F2071007E0016841F002010160FE
:1034F0004FF6FF7010602B481860C9E7016841F073
:10350000030101606FF07F4010601E60C0E7FFE7BD
:103510000E601A602448CCF800A020602348286080
:10352000C7F800B0BDE8F09FC1F800801A602048DD
:10353000CCF800A020601F4828601F483860BDE814
:10354000F09F000014F5014008F50140FC1F004009
:10355000141500401CF501400411004004F5014021
:10356000AC060020680000205C0600201C1500400E
:1035700020150040390309000C15004034150040A7
:103580003C150040C20309001015004000500078AF
:10359000241700404E0000543E420F8208800C6009
:1035A000886472002110010003800C6022647200A4
:1035B00002800C6011646600DEC08F821CB50022A0
:1035C00011460220FDF7D6FC002002F055FC08B1A0
:1035D000FDF7F4FB3AA1032002F020FC02F07CFB93
:1035E0000028FBD1012000F08DF810B90020FDF774
:1035F000E5FB00F07FF8002000F054FF28B900F050
:1036000013FF00F50340FDF7D9FB962001F07AF88F
:1036100028B900F009FF00F50340FDF7CFFB0020BB
:1036200001F056F828B900F0FFFE00F50340FDF761
:10363000C5FB4FF4FC7001F085F828B900F0F4FEEA
:1036400000F50340FDF7BAFB002001F06BF828B944
:1036500000F0EAFE00F50340FDF7B0FBFFF7B0FA1B
:103660000022204910F1020F05D00123B0F1FF3FE5
:1036700004D00B7003E00A704A7001E00A704B70CE
:10368000FFF752FB00F056FE28B900F0CDFE00F522
:103690000340FDF793FB69460120FDF755FC9DF8BB
:1036A000000008B102F0E0FF01A90020FDF74CFC8A
:1036B0009DF8040008B102F05FFFFFF743F8EAE766
:1036C0004150503A494E464F3A4465736B746F709F
:1036D00020656D756C61746F72206578616D706CBA
:1036E000650D0A00000000200148407A7047000084
:1036F000A000002002480121C16001607047000065
:1037000000900040134A0021116051605172117203
:10371000114901224A60CA60931EC1F8083313049C
:10372000C1F80433C1F800220C4A042111600B498E
:10373000303110B14FF4FA5001E04FF47A60086074
:103740004FF0E0214FF40070C1F88002C1F8000191
:1037500001207047A000002000900040109500401C
:103760000B4910B54A7A8AB1022202708A884270E7
:103770000B88C2F3032242EA031484701A09C27050
:103780000020086048604872012010BD002010BD74
:10379000A00000202DE9F0470E46C0F30729C3B270
:1037A000010E40F307400024170C40421FFA82F834
:1037B000062B67D2DFE803F00319314B475E00297F
:1037C00018BF0121254667F30F0461F3070560F375
:1037D0001F4468F31F45304601F0E0F822462946B1
:1037E0004846BDE8F04700F08FBD29488068407E1C
:1037F000002804BF2748FCF7BAFE304601F0CEF897
:10380000214664F3070167F30F0468F31F41224662
:103810004846BDE8F04700F06DBD002918BF012102
:1038200061F3070460F31F4439B1002E04BF1A4846
:10383000FCF79DFE304601F0B1F821464846BDE850
:10384000F04700F02EBE00F0C5FEBDE8F08713483B
:103850004168491C41600178002908BFBDE8F08734
:10386000816800291EBF491E8160BDE8F08701F014
:10387000AFF918B1BDE8F047FDF7C1BBBDE8F047AF
:1038800000F0BEBFBDE8F0470548FCF770BE000081
:1038900048000020B5030500C303050050060020C2
:1038A000E303050002490F220A70C8607047000058
:1038B00048000020094841684A1C011F426009680D
:1038C0000B689A4238BF70470022426003685B1C55
:1038D000036049688B4228BF026070477400002073
:1038E00070B5074C251F206829684968884224BFA5
:1038F0000448FCF73CFE286821688068405C70BD85
:1039000074000020B2000100014800687047000008
:1039100074000020014840687047000074000020D7
:1039200010B5040004BF0548FCF721FE044800213F
:103930000460001D0160416010BD00002A0001000C
:103940007000002010B50446054800684068A04299
:103950009CBF0448FCF70BFE0348046010BD000048
:1039600070000020B90001007400002010B504466A
:10397000054800680068A0429CBF0448FCF7F7FDBA
:103980000348446010BD000070000020C500010025
:103990007400002000283ED01F49204A096800BF5B
:1039A00000BF00BF00BF00BF00BF00BF00BF91420B
:1039B0002FD000BF00BF00BF00BF00BF00BF00BFCF
:1039C00000BF00BF00BF00BF00BF00BF00BF00BFFF
:1039D00000BF00BF00BF00BF00BF00BF00BF00BFEF
:1039E00000BF00BF00BF00BF00BF00BF00BF00BFDF
:1039F00000BF00BF00BF00BF00BF00BF00BF00BFCF
:103A000000BF00BF00BF00BF00BF00BF00BF00BFBE
:103A100000BF401EC3D17047440000200024F400C2
:103A200000F01F02012191404009800000F1E020D8
:103A3000C0F8801170474907090E002806DA00F027
:103A40000F0202F1E02282F8141D03E000F1E022EF
:103A500082F8001400F01F0201219140400980000B
:103A600000F1E020C0F88012C0F800117047000B90
:103A700040B270472DE9F04105460079164F904657
:103A800007EB40140E46E07E10B10820BDE8F0813F
:103A9000707F20772846FDF7B3F95FEA0800606081
:103AA0003169216003D0317F2846FFF769FB28790F
:103AB00007EB4010007F0028286801D0082100E0B3
:103AC0000421C0F800150020E0752076A0750121C2
:103AD000E176A076DAE70000AC0000202DE9F0479F
:103AE000054600793E4C0E4604EB4013187F38B172
:103AF0004FF40050B0EB164F02D01020BDE8F08715
:103B0000284600F06FF808B11120F7E79A750027F2
:103B10009E609F8228794FF0010804EB40143E46D6
:103B2000207F0028286825D04FF49079494602F07C
:103B3000F3FC4FF4AC7A5146286802F0EDFC28689B
:103B4000A17DA268C0F84425C0F848152868C0F8CF
:103B500008806068F0B94946286802F0D8FC8046C1
:103B60005146286802F0D3FC58EA0001F3D058BB54
:103B7000A7750FE04FF48E7A514602F0BCFC28681E
:103B8000C0F808802146286802F008FE61684FF4FA
:103B9000807089B13046B1E75146286802F0A6FC32
:103BA00010B9A08A4845F7D1A08A484505D02146DA
:103BB000286802F0F3FD00E08146A08AA17D8842DA
:103BC000EAD3A08A484501D10F26D1E7514628689B
:103BD00002F08CFC0028F9D02868C0F80C80C7E7F8
:103BE000AC0000200079044901EB4010807D0028E2
:103BF00000D0012070470000AC00002070B50446E2
:103C000000791149002601EB401520682A7FC0F891
:103C10000065686888B1207901EB4010007F0028BA
:103C2000206801D0094901E008498C39C0F808131F
:103C30002068FFF71CFFFFF7F3FE204602F072FC3E
:103C4000EE766E6070BD0000AC0000201003020034
:103C500070B5124D06464FF080746868814202D0FC
:103C60001022FCF7E9FB0E490020C1F800010122F7
:103C70000A6001E0641E0ED0D1F80021002AF9D0BC
:103C8000C1F80001A9688E4203D010223046FCF72B
:103C9000D3FB012070BD002070BD00000800002093
:103CA00000E000400549064801F11002C0E9001299
:103CB000103282600348016001207047CC00002070
:103CC0000800002004E50040014602481022006878
:103CD000FCF7B2BB080000202DE9F05F80461028F9
:103CE00024BF4348FCF743FCB8F1100F24BF414800
:103CF000FCF73DFC08EB48063F49885D002808BFFB
:103D0000BDE8F09F3D4A701802EB860B054610F89F
:103D1000022F5BF822400278521C027090F800C01B
:103D20000022BCF1030F28BF0270885D401E885539
:103D3000002C08BFBDE8F09FDFF8C4A0314FDFF8CA
:103D4000C890544504BF3148FCF711FC3868062878
:103D500024BF2F48FCF70BFC0020396800290BD941
:103D600059F82030A34203D12A48FCF700FC0FE0A9
:103D7000401CC0B28842F3D32749002000EB001258
:103D800001EB4202A24206D0401CC0B20628F5D385
:103D90002248FCF7ECFB386859F8200050451CBF5E
:103DA0001F48FCF7E4FB386849F82040401C3860A5
:103DB000B8F1100F24BF0F48FCF7D9FB0E48815D06
:103DC000002908BFBDE8F09FA978AB785BF82140D7
:103DD000A91C5B1CAB70AB78032B24BF00220A70BC
:103DE000815D491E8155002CABD1BDE8F09F0000DC
:103DF000D7000300A60003001008002040080020A0
:103E0000ADDEADDE9C00002000090020DB000300D9
:103E100085000300F6000300180900208600030057
:103E20008800030070B51B4E04463068062824BF86
:103E30001948FCF79CFB00213268184D002A0BD969
:103E400055F82130A34203D11548FCF790FB0FE051
:103E5000481CC1B29142F3D3124A002101EB011078
:103E600002EB4003A34206D0481CC1B20629F5D399
:103E70000D48FCF77CFB30680C4955F8200088425F
:103E80001CBF0B48FCF773FB306845F82040401C12
:103E9000306070BD9C0000208500030000090020F8
:103EA000F60003001809002086000300ADDEADDE39
:103EB0008800030001480068704700009C00002053
:103EC00010B50446102824BF0348FCF750FB04EB50
:103ED00044000249085C10BDC8000300100800201F
:103EE00030B40020144A014600EB400303EB020CFF
:103EF0008CF801108CF80210D154401C1028F3D318
:103F00000E4C002104F1180C5FF0DE0201EB0110F1
:103F10000CEB400344F8213000201D181A54801C7B
:103F20006A702228F9D3491C0629EFD304490620D8
:103F3000086030BC70470000100800200009002015
:103F40009C00002070B500240546102824BF1148AD
:103F5000FCF70DFB05EB45030F4AD05CC0B1991887
:103F600002F1300011F802CF00EB830050F82C4032
:103F700091F800C00CF1010C81F800C091F800C06C
:103F8000BCF1030F24BF00200870D05C401ED05449
:103F9000204670BDA60003001008002070B50D4635
:103FA0000446102924BF2348FCF7E1FA00222248E6
:103FB00016460068002888BF20490BD951F822C056
:103FC000A44503D11E48FCF7D2FA0FE0521CD2B22E
:103FD0008242F3D31B48002202EB021100EB4103A3
:103FE000A34206D0511CCAB2062AF5D31648FCF7E4
:103FF000BEFA164B05EB4502985C032824BF00204F
:1040000070BD1348D11800EB820011F801CF40F8C1
:104010002C4091F800C00CF1010C81F800C091F81F
:1040200000C0BCF1030F28BF0E70985C401C985470
:10403000012070BD8F0003009C00002000090020BB
:10404000F60003001809002090000300100800206B
:104050004008002010B50446102824BF0948FCF78A
:1040600086FA04EB440008490A5C002A04BF0020D9
:1040700010BD064A02EB80020844807852F8200006
:1040800010BD0000B7000300100800204008002009
:10409000184B10B51968002449B3174ADFF85CC003
:1040A00002EB810050F8044C40F804CC481E4FF05D
:1040B000000118600CD000BF52F821C0A44503D104
:1040C0000F48FCF754FA0FE0491CC9B28142F3D300
:1040D0000C48002101EB011200EB4203A34206D081
:1040E000491CC9B20629F5D30748FCF740FA204617
:1040F00010BD00009C00002000090020ADDEADDEF8
:10410000F6000300180900207D00030000487047F6
:1041100048A000400048704740A100400148007896
:10412000704700007C00002070B5124E01247460BE
:10413000F460114800250560746410480068002888
:104140001CBF0F48FCF713FA4FF0FF30C6F8080306
:10415000C6F840510B49042008600B4845600470C4
:104160004570857008154FF0E021C1F88002C1F854
:10417000000170BD00A0004008A5004044A500401B
:104180003500040010A500407C00002003490120F8
:1041900008600349002008707047000000A000403C
:1041A0007C000020074801214160C16006480022D0
:1041B0004FF0E02C426042708B02CCF8803282706B
:1041C0000170704700A000407C000020014840784A
:1041D000704700007C00002030B541EA4201DDE973
:1041E000034541EA8301800041EA042100F1A04037
:1041F00041EA0541C0F8001730BD1CB5002100910F
:104200000B4601220191FFF7E7FF1CBD1CB5002200
:104210000B46009211460192FFF7DEFF1CBD1CB554
:10422000002100910B46012201911146FFF7D4FFB6
:104230001CBD00002DE9F041294C16468846074672
:10424000082804D3042020700020BDE8F081B8F1D4
:10425000000F06D0202E09D9062020700020BDE8CE
:10426000F081032020700020BDE8F08100F0B6FB53
:10427000032804D3092020700020BDE8F0813846CF
:1042800000F09EFB032804D30A2020700020BDE824
:10429000F08100F08DFB022804D20820207000205D
:1042A000BDE8F08100F0F0FC05460670407832462B
:1042B00040F0010068704146A81CFCF7BDF8F8B258
:1042C000294600F099FC00281CBF0120BDE8F081C0
:1042D0000448FCF74CF90F2020700020BDE8F08165
:1042E00048000020DD0005000149002048607047BB
:1042F000500600200348C160026101214170002185
:10430000817070472E0000200348C16002610121C6
:1043100041708170704700002E00002010B500F041
:1043200057FC18B1BDE81040FCF769BEBDE810406D
:1043300000F066BA0548816819B9022101700020B1
:10434000704710B500F09AFA012010BD4800002017
:104350002DE9F04116460F46044600F031FB1A4D98
:1043600060B187B1204600F08DFC00783168814251
:104370000ED2062028700020BDE8F0810B202870A6
:104380000020BDE8F081032028700020BDE8F08106
:10439000204600F027FC040018BF14F102000BD0E7
:1043A0002278014638463260FCF746F8204600F095
:1043B000F5FA0120BDE8F0810448FCF7D8F80F2099
:1043C00028700020BDE8F0814800002005010500AC
:1043D00010B5082804D3054904200870002010BD3A
:1043E000C0B200F0B7FA012010BD00004800002064
:1043F000094910B58A68527E1AB10C200870002055
:1044000010BD082803D304200870002010BDC0B2DE
:1044100000F0AAFA012010BD4800002001484068C1
:1044200070470000480000200148007870470000F5
:104430004800002000F0BEBA082804D30349042035
:104440000870401F704700F0BBBA00004800002011
:1044500000F0B8BA014840687047000050060020DC
:1044600000F0B6BA10B5012400F0BAFAF02808BF7F
:10447000052414D008DC90B1042808BF00240ED015
:10448000EC2808BF06240AE0F42808BF042406D05C
:10449000F82808BF032402D0FC2808BF02242046C5
:1044A00010BD70472DE9F047434C80460025434836
:1044B0002570E560056045608560414800F096FA2A
:1044C0000127A060002872D0407E0226626804F1B5
:1044D0001001012808BF26701FD0102A1BD8100019
:1044E00019D03848FBF7A8FF3648616800F0EAFBAE
:1044F0004FF00109B8F1000F12D0B8F1010F08BF59
:10450000022011D0B8F1020F1CBF052020704FF01F
:10451000000009D00BE0072020704FF00009E9E708
:10452000012000F04BFC01E000F048FC012000EA13
:104530000908042000F0B2FBA1680020497E002990
:104540001CBF2670284602D100F0B6FB3846A16891
:1045500000EA08080020497E00291CBF2670284672
:1045600002D100F03DFD384600EA0808A068407E10
:1045700000281CBF2670284603D1012000F0BCFB98
:104580003846A16800EA08080020497E002918BFC3
:10459000267002D100F02EFD3D4605EA08050120F7
:1045A00000F0C6F9002D1CBF0120BDE8F087277080
:1045B0000020BDE8F08700004800002050060020E1
:1045C000953700005800002001488068407E704701
:1045D000480000207047000010B50446082804D3A6
:1045E0000C4904200870002010BD00F0F7F90328E2
:1045F0000EDA204600F0E4F9032809DA00F0D8F9D1
:10460000C0F10600C0F10600022824BF012010BD41
:10461000002010BD48000020094A10B593685B7E59
:104620001BB102201070002010BD082803D3042005
:104630001070002010BD00F07BFC012010BD0000B8
:1046400048000020064910B58A68527E1AB102203F
:104650000870002010BD00F0F3FB012010BD000029
:1046600048000020064910B58A68527E1AB102201F
:104670000870002010BD00F01FFC012010BD0000DC
:104680004800002010B5114CA268527E012A11D0BA
:10469000102913D891B1A8B10A466160014604F10E
:1046A0001000FBF7C9FE04F11000616800F00AFB7E
:1046B000012010BD02202070002010BD07202070B6
:1046C000002010BD03202070002010BD48000020F5
:1046D0000B4910B58B68024600205B7E1BB102209F
:1046E0000870002010BD3AB1012A08BF012003D094
:1046F0000E200870002010BD00F0DEFA012010BD71
:1047000048000020064910B58A68527E1AB102207E
:104710000870002010BD00F04BFB012010BD000010
:1047200048000020064910B58A68527E1AB102205E
:104730000870002010BD00F047FC012010BD0000F3
:1047400048000020064910B58A68527E1AB102203E
:104750000870002010BD00F03DFC012010BD0000DD
:1047600048000020124910B58B68024600205B7E8D
:104770001BB102200870002010BD072A14D2DFE808
:1047800002F0040F06080A0C0E00042008E0FC20CA
:1047900006E0F82004E0F42002E0F02000E0EC2045
:1047A00000F01EFC012010BD0E200870002010BD7E
:1047B0004800002010B5FFF707FF002806D0FFF7DC
:1047C000ADFD30BFFFF700FF0028FBD110BD00009A
:1047D00038B50446012181F31088202505E06A469A
:1047E000064920460095FFF7B3FD2046FFF724FE5B
:1047F0000028F4DC002080F3108838BD1406002067
:1048000010B5012080F310881748417E002927D079
:10481000817829BB01248470FFF780FC01281FD117
:1048200001F048FE00281CBF1048FBF7A0FE002244
:1048300064210F48FBF79EFE0E48007F70B90E48BA
:10484000046000210007C0F80011046000BF00BF31
:1048500000BF00BFD0F800110029FBD0FFF796FC85
:10486000002080F3108810BD900600202C0609005F
:10487000916400005C0600201405004070B5234DD3
:10488000687E002818BF70BDFEF7CAFC204CA068E7
:10489000002804BF1F48FBF76AFE6068002804BFB9
:1048A0001D48FBF764FE01F0FFFD00281CBF1B48FC
:1048B000FBF75DFE002001F00BFE01246C76FFF794
:1048C0002DFC012818BF70BD01F0F4FD00281CBFAD
:1048D0001348FBF74CFE002264211248FBF74AFE06
:1048E0001148007F70B91148046000210007C0F82A
:1048F0000011046000BF00BF00BF00BFD0F800116E
:104900000029FBD0BDE87040FFF740BC90060020B6
:10491000C40600205E0209005F0209006602090069
:104920002C060900916400005C060020140500407C
:1049300010B5044604484068002804BF0348FBF74C
:1049400016FE0348047510BD68000020F603090038
:10495000AC06002010B5012181F3108801F05CFC49
:10496000002080F3108810BD10B50446012181F3AA
:10497000108808490A78002A1FBF487E0028064888
:10498000FBF7F5FD204601F04BFC002080F310887A
:1049900010BD000090060020FA02090010B50121A8
:1049A00081F3108801F056FC002080F3108810BDC0
:1049B00001F052BC0148408B704700005C060020AB
:1049C00001F05EBC01484069704700005C060020B1
:1049D00001484068704700005C06002001F05ABCA6
:1049E000014890F8300070475C0600202DE9F04740
:1049F0000546012080F310886B4E4FF00309002418
:104A0000707086F80090B4707460B460B481F48102
:104A1000346107467461347606F11C0074760460D4
:104A200044608460C460046100F118080475C8F82B
:104A30000840C8F80440FFF777FB284601F076FAF3
:104A400001F02AFC002001F03BFD06F13400FEF7E6
:104A500067FF564880F80044554880F8004455499F
:104A6000202081F80004012087F310883178A6F116
:104A70003405012928D07070707E20B1FFF74EFBFD
:104A8000012803D020E001F0B7FF1DE001F012FD86
:104A900000281CBF4848FBF76AFD002264214748F4
:104AA000FBF768FD287F68B9454807600007C0F834
:104AB0000041076000BF00BF00BF00BFD0F8001179
:104AC0000029FBD0FFF762FB002080F31088FF2055
:104AD0002861042169773B4828623B48686285F871
:104AE0002870022085F8290085F82A9085F82B1077
:104AF000052185F82C10062185F82D10072185F851
:104B00002E10082185F82F1085F8304085F83100E7
:104B100085F832701E2169614FF416716960E86092
:104B20003278022A06D07168002904BFA968C8F843
:104B3000001001D0C8F800000F21A960022A05D09A
:104B40007268002A08BFC8F8001001D0C8F8000039
:104B5000002068830120287668760020287701F0FD
:104B600013FC69202860707801281CBF1748FBF7E8
:104B7000FEFC3770B4707460B460B481F481346149
:104B8000746134767476FEF74BFB4FF0E0204FF4FF
:104B90008061C0F880128902C0F8801284F3108806
:104BA0000148BDE8F0870000900600200AE000E020
:104BB00001E000E014E000E02C0609009164000030
:104BC0001405004004070A0D05080B0E3C020900FD
:104BD0000348407E00280CBF0120002070470000E1
:104BE0009006002010B5012181F3108801F08AFBA6
:104BF000002181F3108810BD10B5012282F31088C6
:104C000001F083FB00282ED01948817831BB407E0B
:104C100020B3FFF783FA012820D101F04BFC0028D4
:104C20001CBF1448FBF7A3FC002264211248FBF7C9
:104C3000A1FC1248007F78B91148012101600022CF
:104C40000007C0F80021016000BF00BF00BF00BF27
:104C5000D0F800110029FBD0FFF798FA002080F36C
:104C60001088012010BD002080F3108810BD0000C6
:104C7000900600202C060900916400005C060020CC
:104C80001405004001F052BB10B5012080F31088DC
:104C900001F04FFB002181F3108810BD04494877D3
:104CA00004490A6822F4E02242EA004008607047A2
:104CB0005C06002018150040014908767047000086
:104CC0005C06002070B50C00054604BF0748FBF7E2
:104CD0004EFC002D04BF0648FBF749FC0548C0E91F
:104CE0000145BDE870400020FEF72CBE48030900D6
:104CF00049030900C40600202DE9F0011F49224B99
:104D0000204A1C1D81F83200251D1D49DFF87CC09A
:104D10002E1DDFF87C80371DA0B1012820D002288D
:104D20001CBFBDE8F0017047022008601A601948F6
:104D3000C4F800C0286018483060C7F80080BDE89B
:104D4000F0017047002008601A601448C4F800C0E1
:104D5000286013483060C7F80080BDE8F001704754
:104D6000012008601A600F48C4F800C028600E488F
:104D700030600E483860BDE8F00170475C060020E6
:104D80001015004000500078241700404E000054D9
:104D90003E420F8208800C608864720003800C60C1
:104DA0002264720002800C6011646600DEC08F8293
:104DB00001494883704700005C06002010B50121BE
:104DC00081F3108819490A7882422BD04870487EB6
:104DD00020B1FFF7A3F9012803D023E001F00CFE76
:104DE00020E001F067FB00281CBF1148FBF7BFFB68
:104DF000002264210F48FBF7BDFB0F48007F78B904
:104E00000E480121016000220007C0F80021016066
:104E100000BF00BF00BF00BFD0F800110029FBD0C9
:104E2000FFF7B4F9002080F3108810BD9006002031
:104E30002C060900916400005C0600201405004067
:104E40001B4930B400231A464FF0180C0862D100F9
:104E500020FA01F1C9B2002401F0010544EAC514A9
:104E6000C1F3400544EA8514C1F3800544EA4514C2
:104E7000C1F3C00544EA0514C1F3001544EAC504B2
:104E8000C1F3401544EA8504C1F3801544EA4504A2
:104E900044EAD11154420CEBC404A1400B43511C11
:104EA000CAB2042AD3D30348036030BC7047000061
:104EB0005C0600201C1500401B4930B400231A4634
:104EC0004FF0180C4862D10020FA01F1C9B2002459
:104ED00001F0010544EAC514C1F3400544EA851414
:104EE000C1F3800544EA4514C1F3C00544EA051442
:104EF000C1F3001544EAC504C1F3401544EA850432
:104F0000C1F3801544EA450444EAD11154420CEB44
:104F1000C404A1400B43511CCAB2042AD3D3034892
:104F2000036030BC704700005C0600202015004084
:104F300008283ED2204AFF2302444FF0000C82F89A
:104F400028108207D20E03FA02F201F001034CEAA4
:104F5000C313C1F3400C43EA8C13C1F3800C43EA42
:104F60004C1CC1F3C0034CEA031CC1F300134CEA10
:104F7000C30CC1F340134CEA830CC1F380134CEA19
:104F8000430343EAD1118307DB0ED243994004283F
:104F900007D20A4803681A400260026811430160A0
:104FA0007047074803681A400260026811430160B5
:104FB00070470448FBF7DBBA5C060020241500406C
:104FC0002815004039030900014948617047000075
:104FD0005C06002001494860704700005C06002024
:104FE000024981F830000249086070475C060020E1
:104FF0000C15004001490877704700005C0600204E
:1050000070B51148114C4068407D28B1012000F076
:10501000BBFCA089401CA0810D49002630460E60D3
:105020000C494A680968551A01F052FA6069A842A9
:1050300024BF0948FBF79BFA60690122291A074837
:10504000FBF798FA666170BD6800002090060020AA
:1050500014F501405C0600204D0609009164000033
:105060002DE9F04FF84CDFF8E483F94F606983B025
:1050700004F1340A4FF001090025A4F1340610B9F7
:10508000FFF7A4F8D0B1606800281CBF401E606024
:105090002078022804D06168002908BFB16800D0D8
:1050A000F168CAF80010A178002900F0EF81FEF73E
:1050B00001FC03B0BDE8F04FFDF7AABB2078012842
:1050C00002D0022806D00CE000F054FC002840F08A
:1050D000198206E098F80000042818BF032800F0A1
:1050E0001182FEF7E7FB606800281CBF401E60606D
:1050F0002078022804D06068002808BFB06800D07B
:10510000F068CAF80000A078E8B1FDF781FB00BFA5
:1051100000F002FF0228C0F0B38100204FF0030C22
:105120008DF800C08DF80100ADF808000190ADF8D1
:105130000A008DF802508DF80350684600F0AEFE6C
:1051400003B0BDE8F08F01F057FC88B1002076680D
:1051500001F0BEF96069B04224BFBE48FBF707FA10
:1051600060690122311ABC48FBF704FA6561CFE798
:105170002078002800F0348101281AD0022800F09D
:105180001381B648FBF7F3F9707E0128C0D120786F
:105190000228BDD061680029BAD14FF080470028AD
:1051A00000F04281012800F02781AD48FBF7DFF9CC
:1051B000AEE700F0B7F901F067F8DFF8A8A20AF14E
:1051C000040B28B3708B00287ED0A18981427BD349
:1051D0000121002000F0B6FF4FF0010801F044F873
:1051E0000746B4F80CA0B4F80EB001F043F88DF8FF
:1051F00000808DF80100ADF808A08DF802500197ED
:10520000ADF80AB08DF80350684600F047FE9CE008
:1052100000F082FE022876D32078022801D0606850
:1052200018B1FEF777FB60B38FE02069FEF78AFBC9
:105230000020FEF79BFB01F0CFF8002863D0A5818A
:10524000E58101F017F88849086001F013F809FAC0
:1052500000F18648016001F007F88549086000F018
:10526000FDFF834948608348C860FEF739FB38601A
:1052700001F00AF8012870D001F006F8022857D092
:1052800053E0307E30B301F0A7F8E0B3A581E581AB
:1052900000F0F0FF7449086000F0ECFF09FA00F13B
:1052A0007248016000F0E0FF7149086000F0D6FF2D
:1052B0006F4948606F48C860FEF712FB386000F025
:1052C000E3FF012866D000E048E000F0DDFF02289F
:1052D0005ED02AE0FEF718FB2169884235D101F043
:1052E0007BF880B1A581E58100F0C4FF5E490860CC
:1052F00000F0C0FF09FA00F15C48016000F0B4FF63
:105300005B49086000E020E000F0A8FF58494860D1
:105310005848C860FEF7E4FA386000F0B5FF01288D
:1053200038D000F0B1FF022832D05348FBF71FF904
:105330002EE000BF00F0A8FAFEF7ECFECAF800006D
:10534000D8F804004068CBF800000120376801F06D
:10535000BFF86069B8421FD349E01BE0FEF736FF93
:1053600000281CBF4548FBF702F9FEF7B9FA396877
:10537000884202D0E089401CE081FEF7B1FA386033
:1053800000F082FF012805D000F07EFF0228CCD17A
:105390000020CFE70120CDE760690122391A2E48AD
:1053A000FBF7E8F86561EFE64FF0000AFEF798FAC0
:1053B0003968884204D0FEF793FA38604FF0010A4A
:1053C00098F80010AAF10100084208BFFBF764FD3D
:1053D0000020776801F07CF86069B842DCD306E011
:1053E0000020776801F074F86069B842D4D3194896
:1053F000FBF7BDF8D0E700BF00F046FF00287FF4C0
:1054000087AE01F03FF800287FF482AEFEF786FEFB
:1054100001283FF47DAEFEF7C5FE307F70B900BFB6
:10542000C7F804900AE000BFFEF778FE01283FF4B9
:105430006FAEFEF7B7FE307F0028F1D0002001F0FC
:1054400047F8656064E600009006002068000020D0
:10545000081500404D060900916400005804090039
:105460007204090010F501402C1500403015004071
:10547000AC060020F92500001E0609000A050900F7
:1054800003B02548BDE8F04FFBF771B8022809D0FA
:10549000FEF710FA0020766801F01AF86069B04251
:1054A00023D225E098F80000042818BF032829D04B
:1054B000FEF700FA4FF00009FEF712FA3968884249
:1054C00004D0FEF70DFA38604FF0010998F800108B
:1054D000A9F10100084208BFFBF7DEFC0020766856
:1054E00000F0F6FF6069B04202D30C48FBF73FF8CA
:1054F00060690122311A0A48FBF73CF8656103B084
:10550000BDE8F08F70684108616103B00122BDE819
:10551000F04F0348FBF72EB88C0409004D06090034
:105520009164000030B44FF0E02401204FF0020CF1
:105530000021C4F880C1724A851EC2F80853C4F81D
:1055400080C2C2F80012C2F81011106190616D4B58
:105550001878012808BF06205AD0022816BF032851
:10556000022001207ED0401E00BF00BF00BF00BF50
:1055700000BF00BF00BF00BF00BF00BF00BF00BF33
:1055800000BF00BF00BF00BF00BF00BF00BF00BF23
:1055900000BF00BF00BF00BF00BF00BF00BF00BF13
:1055A00000BF00BF00BF00BF00BF00BF00BF00BF03
:1055B00000BF00BF00BF00BF00BF00BF00BF00BFF3
:1055C00000BF00BF00BF00BF00BF00BF00BF00BFE3
:1055D00000BF00BF00BF00BFC5D100BFC2F810119F
:1055E0001970C2F80012C2F80853C4F880C2C2F899
:1055F0000C1103205870C2F80011C2F81011C2F843
:105600000411596019755975C4F800C130BC704750
:10561000401E00BF00BF00BF00BF00BF00BF00BFF3
:1056200000BF00BF00BF00BF00BF00BF00BF00BF82
:1056300000BF00BF00BF00BF00BF00BF00BF00BF72
:1056400000BF00BF00BF00BF00BF00BF00BF00BF62
:1056500000BF00BF00BF00BF00BF00BF00BF00BF52
:1056600000BF00E011E000BF00BF00BF00BF00BFEF
:1056700000BF00BF00BF00BF00BF00BF00BF00BF32
:1056800000BF00BF00BFC3D1A8E7401E00BF00BFDE
:1056900000BF00BF00BF00BF00BF00BF00BF00BF12
:1056A00000BF00BF00BF00BF00BF00BF00BF00BF02
:1056B00000BF00BF00BF00BF00BF00BF00BF00BFF2
:1056C00000BF00BF00BF00BF00BF00BF00BF00BFE2
:1056D00000BF00BF00BF00BF00BF00BF00BF00BFD2
:1056E00000BF00BF00BF00BF00BF00BF00BF00BFC2
:1056F00000BF00BF00BF00BF00BF00BFC5D16DE746
:1057000000100040D00600202DE9F0473D483F4EF4
:105710000322036900253C4C3168012B06D0022B83
:1057200056D0BDE8F0473A48FAF721BF0427077082
:1057300083695B1C8361C4F800224FF0E0290222D8
:105740004FF00108C9F88022C4F80C51C4F8005188
:10575000C4F81051C4F804510822C4F80423097D88
:1057600081B12C49096881752B48006810F0040F3D
:1057700004BF2A48FAF7FBFEC4F81C51C4F818808D
:1057800027480760D4F8000100281CBF2548FAF715
:10579000EEFED4F80C0100281CBF2348FAF7E7FE00
:1057A000D9F8000210F0020F1CBF2048FAF7DFFE04
:1057B0003068C068002818BF80473068417D0029E4
:1057C00008BFBDE8F087006819490860BDE8F087A8
:1057D000C4F80C51C4F81051C4F80051C4F8045175
:1057E000C4F8005205704FF0FF33C4F8083342701C
:1057F000456005750869002808BFBDE8F087BDE869
:10580000F0470047D0060020001000408400002030
:10581000E7020A004815004000F50140AD020A0009
:1058200008F50140B6020A00B7020A00B8020A00F1
:105830000415004070B50F4902254FF0E0260860BE
:105840000024C6F880510D490B480860091F0C4818
:10585000086006F5C076FFF765FE0A48032104706C
:1058600041704460046104754475847546F8805C39
:1058700070BD0000840000201410004024F5014099
:1058800004110040D00600202DE9F04705462E48BF
:105890002E4C00EB0517207D00281CBF2C48FAF782
:1058A00066FE00264FF0010A002D1CBF012D022DBF
:1058B0002DD02848FAF75BFE2748FAF758FEDFF8A4
:1058C0009C8066754FF0FF30C8F808034FF0E02168
:1058D0000220C1F88002DFF888906570032DD9F8A6
:1058E00000000168A1604268C4E90326A661386827
:1058F00060601BD2387AC8F80002FB7A194853B1AD
:1059000002600068002808BF17480AD00BE0207822
:105910000028D1D1D3E701600068002808BF1348F0
:1059200001D1FAF724FE787AC8F80403D9F8000008
:10593000007D28B1022D03D10D49A6750420086011
:1059400084F815A0BDE8F0878C6B0000D00600201D
:10595000DB000A00F9020A00DD000A000010004026
:10596000840000200415004005010A0000010A001F
:1059700004F501400348D0F80401012818BF0020B5
:1059800070470000001000402DE9F041214C07460F
:105990002148657800EB0516607D01281CBF1F4873
:1059A000FAF7E5FD207D00281CBF1D48FAF7DFFD52
:1059B0000120002120756175032D09D2002F04BF3D
:1059C00031680860022D12BF012DB07A207002E00C
:1059D0001448FAF7CCFD14480068007D002808BF81
:1059E000BDE8F081022D18BFBDE8F0810F480068C6
:1059F00010F0040F04BF0E48FAF7B9FD0D48006817
:105A0000002818BFBDE8F0810B48BDE8F041FAF767
:105A1000AEBD0000D00600208C6B000021010A0002
:105A200022010A003A010A008400002004F5014026
:105A300040010A000415004041010A000048704777
:105A4000B55A000030B5184C054689B0207828B109
:105A50006078854202D1002009B030BD2022134970
:105A60006846FAF7E9FC00208DF814000620009043
:105A70000820019005200390072002904FF0EB7062
:105A800006900948001DFEF7B9F80DB1002200E0AC
:105A9000074A05486946001DFDF7ECFF0028DBD1E9
:105AA000012020706570D6E718000020346B0000DC
:105AB000D96700002DE9F04FC1B00D00DDF82CB121
:105AC0004D984FF000011C4690460BEB000A4091A8
:105AD00001D00A2600E0002600F02CFE002873D139
:105AE0006F46BCB9409840AA3918284600F03EFEDF
:105AF000002869D04046FAF7C3FCC22800D9C2206A
:105B0000054640982A4638444146FAF795FC4098A5
:105B1000284440904FF020094098821931320DEB13
:105B200002016844002202E000F8019B521CB242CC
:105B3000FAD30027544508D300F8019B00F8019BD5
:105B400000F8019B01F8019B26E05C4502D24A9ACD
:105B5000125D03E04C9AA4EB0B03D25C8446012552
:105B6000AB0022FA03F808F00F03092B01D93733F1
:105B700000E03033C5F101086D1E0CF80830EFD29B
:105B80000CF10200A2F1200300F8019B5E2B00D96A
:105B90002E2201F8012B641C7F1C102FCAD30D226A
:105BA0000A700A224A7080F80090409881194331A7
:105BB0006846409100F0C4FD30B100F0BBFD18B95B
:105BC000002040905445A7D341B02046BDE8F08F57
:105BD0002DE9F043C5B000251C46904689464C9FF0
:105BE000449500F0A7FDB0BB449804AE311844AA18
:105BF000484600F0BBFD00282ED0072F22D2DFE858
:105C000007F00412192E384451004046FAF738FCC8
:105C1000054644982918FF2914D830442A4641469D
:105C2000FAF70AFC0EE04498226830444146FBF73C
:105C30004BF806E0D4E90023449841463044FBF792
:105C400043F80546294644A8FBF7AEF918B1449934
:105C5000B1F5807F33D9002045B0BDE8F083A0685E
:105C60000090D4E90023449841463044FBF72CF8D7
:105C7000E7E7D4E90201CDE90001D4E90023449823
:105C800041463044FBF720F8DBE704F1080007C881
:105C90008DE80700D4E90023449841463044FBF7DF
:105CA00013F8CEE704F108000FC88DE80F00D4E91F
:105CB0000023449841463044FBF706F8C1E704A8A6
:105CC00000F03EFDC8E7000000487047D15B0000CF
:105CD0000120FFF7B7BE00002DE9F04F87B0FBF7BA
:105CE0006DF918B1002007B0BDE8F08F454ED6E938
:105CF000014704EA070006EB8000A146641CC56862
:105D00000CE000BFC5F3891000EB9550044404EA91
:105D1000070006EB8000A146C568641CA807F1D007
:105D200005F003004FF0000B022805D0AA0A01A8D5
:105D3000C5F38313002153E004EA070006EB80005B
:105D400004F1010A0AEA0704C268381B80004FEA1E
:105D50009558001DC5F38913804521D929490C3177
:105D600038B106EB840400F0FF0CA8EB00000C3403
:105D700004E00C46002108F0FF0C0846C0B2CDE953
:105D80000210CDE9004CD6F81444C5F3C2005946C0
:105D9000A047404511D108F103080AEB98042AE016
:105DA000002106EB84000C300090CDE901810391C5
:105DB000C5F3C200D6F81444EAE760F38F1509EA88
:105DC000070006EB8000C56016E000BF04EA070C80
:105DD00006EB8C0C491CDCF80CC040F804CB641CAE
:105DE0009942F3D3C5F3C2000093D6F8105401AB27
:105DF0005946A84700B17460FBF7E0F880F0010055
:105E000071E70000FC010020034AFF239360002398
:105E10001360536000F028B8FC0100202DE9F04722
:105E2000DFF83C800446002689463046D8F80870E2
:105E3000D8F80050FCF7B0FB00280ED0094800212C
:105E40003D40406861F3820064F3C50066F3891049
:105E500008EB850169F39F20C860BDE8F08700006A
:105E6000FC010020546B0000024A02F5826203C26A
:105E700070470000FC01002070B506460020FFF7C7
:105E8000E1FD040008D1FFF7D9FD0546FFF71CFF2F
:105E900032462946FFF7B8FF204670BD70B51B4C4F
:105EA00005462068002804BF1948FAF760FBD4F8BB
:105EB00084000A2824BF1748FAF759FBE06F00EB6B
:105EC000400004EB80012878087168784871A87850
:105ED0008871E878C87168688860288988816889CD
:105EE000C881D4F88400401CC4F88400E06F401CD2
:105EF000E067E16F00200A2928BFE0674FF48010B7
:105F00004FF0E021C1F8000270BD0000F40600204F
:105F100034000B0035000B000348D0F88400C0F1BA
:105F20000A00C0B270470000F406002010B504005B
:105F300004BF0948FAF71BFB08490C600020C8673A
:105F4000C1F88000C1F884004FF0E0214FF48010C8
:105F5000C1F8000110BD000029000B00F40600206C
:105F600010B500F003029043D200FF249440036870
:105F70009140A343CA18074B0121196006490C68D8
:105F8000002CFCD0026008680028FCD000201860BB
:105F900010BD000004E5014000E40140F0B51546E5
:105FA0000E460746002404E0315D3819FFF7D8FF9C
:105FB000641CAC42F8D3F0BD2DE9FF4F584D83B0BF
:105FC0000327DDE910B9E86F4FF000080C4646469C
:105FD000002804BF5348FAF7CAFA287803281CBFE0
:105FE0005148FAF7C4FAE86F417811F0010F69D10E
:105FF00095F89200002818BF4FF0000A62D003986D
:10600000002808BF042767D0059A304662F31700BE
:10601000C1F3410161F31F6005EB8401896BCBF88B
:106020000060C9F800600190884257D0E86F0028EE
:1060300004BF3E48FAF79BFA04F10801E86F0091AB
:10604000FDF7ACFF00281ABF4FF00108EE674FF0D4
:1060500000080AEA080AB8F1000F3FD0009805EBE3
:10606000800101988861069918EA010F35D03048FF
:10607000005D80B32046FDF723FF002804BF2D48B4
:10608000FAF775FA2046FDF75DFF009068B195F8C4
:106090009000274620B12869B84208BF00F04CF9AB
:1060A000E81980F880602248C6550098CBF80000B7
:1060B000BBF1000F08BF204807D0002808BF1F48C9
:1060C00003D004E04FF0010A99E7FAF750FA1848B4
:1060D0000227065502E000E017E00127BAF1000FA1
:1060E00008BFC9F800600DD02046FDF7B3FFC9F81E
:1060F0000000002807BF1248C9F8000001210C4821
:1061000018BF0155B8F1000F03D1E86FFDF78AFE03
:10611000EE672E7000F010F907B03846BDE8F08F3A
:106120007C0700205B010C005C010C006F020C007E
:106130008800002091010C009A010C0096010C00CF
:10614000D40700202DE9F0412B4C05460F4620785E
:1061500001281EBF02282948FAF709FA0026002D57
:1061600008BF4FF0040826D0207801281CBF24481F
:10617000FAF7FDF9E068002804BF2248FAF7F7F9BA
:10618000E0680078002808BF4FF0000813D0E06FE7
:106190006568002804BF1C48FAF7E9F905F1080111
:1061A000E06FFDF7FBFE00280ABF1848E667FAF724
:1061B000DEF94FF00208C7B165682846FDF7C2FE58
:1061C00007000CD094F8900020B12069A84208BFC5
:1061D00000F0B2F8601980F880600D484655A0685C
:1061E000B8421CBF0B48FAF7C2F9267000F0A4F8B9
:1061F0004046BDE8F08100007C070020FC000C0058
:1062000002010C0003010C006F020C000E010C00D7
:10621000880000201E010C000830FDF75DBD000065
:1062200070B50A4D044695F8900020B12969A14245
:1062300008BF00F081F800202919054A81F8800084
:1062400010552046BDE87040FDF746BD7C07002094
:1062500088000020FDF7E6BDFDF72CBE0148C068B0
:10626000704700007C0700200148806870470000EC
:106270007C07002001484068704700007C07002030
:106280000830FDF71DBE000001480078704700008F
:106290007C070020FDF714BE70B5FDF721FE00213C
:1062A000164BDFF85CC00846024603EB810460F33E
:1062B0001F62A26101F10802044603EB820560F34C
:1062C0001F64AC615C181A4484F8800082F8800076
:1062D0000CF80100491C0829E6D318705860986032
:1062E000D8601861586183F8900083F8910083F8B2
:1062F0005800D867012083F8920070BD7C07002009
:10630000880000200830FDF71DBE70B50E4604461B
:106310000025FDF7CFFD38B121463046FDF73EFEA2
:1063200010B100F009F80125284670BD0830FDF7CE
:1063300091BEFDF7ADBE00002DE9F041114C207873
:10634000002806BF94F890000028BDE8F0810825D9
:10635000012600276069FDF7B3FD18B184F890604D
:10636000606920616069401C6061082808BF67613E
:1063700094F89000002818BFBDE8F0816D1EE9D1A7
:10638000BDE8F0817C070020014981F89200704748
:106390007C07002070B50E4D287800281CBF0D48E2
:1063A000FAF7E5F8E86F10B9FDF772FEE867040048
:1063B0000CD0FF2020706078FF2240F00600607053
:1063C0002021A01CFAF74AF803202870204670BD4F
:1063D0007C0700203B010C0070B5264C207800287B
:1063E0001CBF2548FAF7C3F894F89000002538B38D
:1063F00020696060FDF72EFEA060002804BF1F48E2
:10640000FAF7B5F8A068407810F0010F08D194F8B9
:10641000920000281CBF0220E56001D0207013E02C
:1064200060680830FDF74CFD032809D2E06F10B911
:10643000FDF72EFEE067E060002818BF0120EDD1D7
:106440002078002808BF70BDA068002804BF0C4851
:10645000FAF78DF82069606004EB8001C87E401C6B
:10646000C876A1684A7860F342024A7084F8905076
:10647000012070BD7C070020C3000C00C9000C0087
:10648000E7000C00014890F8900070477C0700205E
:1064900004480178817041780170001D50F8210096
:1064A000004700009000002001480078704700007D
:1064B00090000020014840787047000090000020C4
:1064C00002498870487008707047000090000020F2
:1064D00010B50446022824BF0248FAF748F80248DB
:1064E000447010BD2A000D00900000204058002884
:1064F00000D00120704708B500224250405800905B
:1065000008BDD0F80403084000D00120704740586F
:10651000002800D00120704708B5002242504058A2
:10652000009008BD70B502464FF0FF301168D1F8F9
:106530000C35D1F81465D1F80855D1F81045C1F8DB
:106540000C05C1F814051168C1F80805C1F810055B
:106550001846FDF752FE3046FDF74FFE601C02D094
:106560002046FDF74AFE681C04D02846BDE870406E
:10657000FDF743BE70BD0000FEB56846FCF745FE62
:10658000294C20786178084302D1FCF79FF96070AC
:10659000607821784FF0010688434FF000050BD05A
:1065A000FCF73EFB01282FD0022801D0032801D19F
:1065B000257065700028F3D02078A178884305D035
:1065C00008216846FCF742FA08B3A6702078A17843
:1065D000084227D008216846FCF738FAC8B113A151
:1065E0000320FFF71BFC02A90020FAF7ADFC9DF881
:1065F00008000028F7D16846FCF7FEFD0821684630
:10660000FCF724FA48B109E026706670D4E72570DB
:10661000DCE70DA10320FFF701FCA570FFF75CFB91
:106620000028FBD1FEBD0000000000204150503A80
:10663000494E464F3A4B6579626F617264207365CB
:106640006E74204F4B0D0A004150503A494E464F50
:106650003A4B6579626F6172642073656E7420468F
:1066600041494C45440D0A0008B5FDF73DF80028A6
:106670001AD06846FDF774F8002815D00220FDF7FF
:10668000ABFF0028FAD0042269460220FDF7D2FDB4
:1066900008B106A100E00CA10320FFF7BFFB00BF7B
:1066A000FFF71AFB0028FBD108BD00004150503A0B
:1066B000494E464F3A4D6F7573652073656E742071
:1066C0004F4B0D0A000000004150503A494E464FD2
:1066D0003A4D6F7573652073656E74204641494C61
:1066E00045440D0A0000000070B50546C87D0C4603
:1066F00000284FF4847128460AD0FFF7FCFED5F835
:106700001805627EE1688854607E401C607670BD2A
:10671000FFF7F1FED5F8180570BD1FB501238DF800
:1067200000308DF808100192D0E9001268469047B9
:106730001FBD00000148FDF755BA00001C000020F5
:1067400070B50D460A46014601240648F9F774FE65
:10675000EAB204490448FDF7C1F900B1002420461B
:1067600070BD0000FC0000201C00002010B5144685
:1067700002004FF001000AD00846126805A1FAF79E
:10678000A3FA01462046BDE81040FAF70DBC0021EF
:10679000216010BD5B253038645D000070B50C468B
:1067A00005464FF48E71FFF7A6FEA18AA068415CF2
:1067B000A08A401CA082C5F81C1570BD1FB5002220
:1067C0008DF800208DF80810816801918275D0E95C
:1067D0000012684690471FBD0078012801D1014989
:1067E00088707047180000202DE9FF470C460546C9
:1067F0004FF40071FFF785FE01274FF40178002662
:1068000018B34FF4927949462846FFF76FFEE0B17E
:1068100049462846FFF76FFEC5F80883A07E00B9F9
:106820006F6002208DF80000D5F88004C5F8800460
:106830000390E07D8DF80800E0680190E67526760B
:10684000D4E900126846904727E004212846FFF764
:1068500058FE10B34FF484712846FFF747FEE0B1AD
:1068600021462846FFF740FFE07D617E884214D133
:10687000207E38B1617EE268E0752069E0602676AE
:10688000667607E0A07E00B96F60C5F80883E675FC
:10689000617EE2682046FFF740FF4FF48E78414664
:1068A0002846FFF723FE88B1A08AA17D884204D242
:1068B00021462846FFF772FF08E041462846FFF7C9
:1068C0001AFEA17D11B12046FFF778FF4FF4A278A0
:1068D00041462846FFF70AFE002812D041462846C6
:1068E000FFF709FEA07E00B12F60E07D002808D0F0
:1068F000E675617EE26804B02046BDE8F047FFF728
:106900000CBFBDE8FF872DE9FF410C464FF492779D
:1069100005463946FFF7FBFD0026C0B1394628463B
:10692000FFF7FAFD02208DF80000D5F88004C5F8C5
:1069300080040390D5F83C058DF80800E0680190CC
:10694000E6752676D4E900126846904724E04FF4B5
:10695000887739462846FFF7DAFDE8B139462846F8
:10696000FFF7DAFDD5F83C05C1B2E07D884213D1CE
:10697000207E60B1E268D5F8000220F02000C5F862
:106980000002207EE0752069E060267601E0E67571
:10699000E2682046FFF7C1FE4FF4A2773946284649
:1069A000FFF7B5FD68B139462846FFF7B5FDE07D34
:1069B00038B1E675D5F83C05E268C1B22046FFF76C
:1069C000ACFE4FF4907631462846FFF7A0FD002834
:1069D0000FD031462846FFF79FFDA07D002808D044
:1069E000D5F84C0504B0C1B22046BDE8F041FFF730
:1069F000E5BEBDE8FF8100002DE9F0413F4D84B0C8
:106A000028786978884202BF002004B0BDE8F08190
:106A1000002808BFFCF704FC68780024E8B938496E
:106A200003200860FFF730FC012818BF022802D0BD
:106A3000032805D011E000210846FFF783FB07E09B
:106A4000002300941A46194618460194FFF7B4FA39
:106A500004281CBF2B48F9F78AFD2B480460FEF779
:106A600061FD2A4EA6F15007346074603461B46051
:106A7000F460287806F11808012802D0022808D00E
:106A80001BE0FFF701FCA8B100210846FFF75AFB05
:106A900010E0FEF747FD1E4834610470FFF7F4FB79
:106AA000032807D1002300941A461946184601947A
:106AB000FFF782FA2878022804D06868002808BF07
:106AC000B86800D0F868C8F800006878287000231B
:106AD0004FF0040C8DF800C08DF80130ADF808308F
:106AE0008DF802400193ADF80A308DF803406846F6
:106AF000FFF7D4F904B00120BDE8F0819006002032
:106B000008F50140E801090014F50140AC06002039
:106B1000680000200D0000000E0000000F000000C3
:106B2000100000000D0000000E0000000F0000002B
:106B300010000000FFFFFFFFFFFFFFFFFFFFFFFF51
:106B4000FFFFFFFF00000000000000000000D60172
:106B50000601000029000000010000000100000003
:106B60000100000001000000010000000100000021
:106B7000010000000200000032536601172D2D1A9B
:106B8000440C4023490D171A2D0B4D0000100040F6
:106B90001011004003100000010000000010004030
:106BA000000000000B020400000000000410004080
:106BB0000000000007080301000000004F76657226
:106BC000666C6F770D0A0000E86B00000000002083
:106BD000A0000000F00C0000886C0000A000002065
:106BE00048290000000D0000000000010101000024
:106BF0000000000000000000000000000000000095
:106C0000000000000020004000000000BC6B0000FD
:106C10000000000000000000000000000000000074
:106C20000000000000000000000000000090D00301
:106C3000000000000500000000000000000000004F
:106C400004192A3F4D000000000000000000000071
:106C50000000000000000000000000000000000034
:106C60000000000000000000000000000000000024
:106C70000000000000000000000000006150000063
:086C80000150000000000000BB
:0400000500000401F2
:00000001FF
