:020000040000FA
:10000000B0250020150400001D0400001F0400009E
:10001000210400002304000025040000000000006B
:1000200000000000000000000000000027040000A5
:1000300029040000000000002B0400002D04000033
:100040002F0400002F040000710900002F0400009D
:100050002F0400002F0400002F04000031050000D1
:10006000250900002F0400002F0400002F040000C9
:100070002F0400002F0400002F0400002F040000B4
:100080002F0400002F0400002F0400002F040000A4
:100090002F0400002F0400002F0400002F04000094
:1000A0002F0400002F0400002F0400002F04000084
:1000B0002F0400002F0400000000000000000000DA
:1000C0002F0400002F0400002F0400002F04000064
:1000D0002F0400002F0400002F0400000000000087
:1000E0000000000000000000000000000000000010
:1000F0000000000000000000000000000000000000
:1001000000000000000000000000000000000000EF
:1001100000000000000000000000000000000000DF
:10040000DFF80CD000F062F80048004791100000BF
:10041000B02500200648804706480047FEE7FEE773
:10042000FEE7FEE7FEE7FEE7FEE7FEE7FEE7FEE7A4
:10043000890600000104000040EA01039B0703D085
:1004400009E008C9121F08C0042AFAD203E011F813
:10045000013B00F8013B521EF9D27047421C10F8D4
:10046000011B0029FBD1801A70472DE9F05F05467A
:10047000002092469B4688460646814640241BE063
:10048000284641464746224600F041F853465A4620
:10049000C01A914110D311461846224600F028F8A0
:1004A0002D1A67EB01084F4622460120002100F07B
:1004B0001FF817EB00094E41201EA4F10104DFDCF8
:1004C000484631462A464346BDE8F09F064C074D54
:1004D00006E0E06840F0010394E807009847103414
:1004E000AC42F6D3FFF790FFCC210000EC210000D6
:1004F000202A04DB203A00FA02F1002070479140E4
:10050000C2F1200320FA03F3194390407047202AD8
:1005100004DB203A21FA02F00021704721FA02F3AD
:10052000D040C2F1200291400843194670470000B4
:100530002DE9FE434FF48278404601F071FB504FA5
:100540000025504C012600B3404601F071FB94F8A1
:100550002B0010B194F82C10D1B18DF800506168C7
:1005600001912189ADF80810E16829B16160A18A83
:100570002181E56018B103E084F8295000E03E6075
:1005800021686846884784F82C5094F82B0098B36B
:100590004FF48077384601F043FB68B3384601F0EA
:1005A00047FBE28A72B194F82A108A4210D9A2EB72
:1005B000010080B2E0822289A2EB0000626802EBB7
:1005C00040000BE0208994F82A10A0EB0100F0E72E
:1005D00007D1E06828B184F82C60E58201F0DAFAEE
:1005E00004E08A4202D184F82C60E582404601F0A2
:1005F0001FFB2348001D06604FF48877384601F042
:100600000FFB50B1384601F013FB84F8295002204B
:100610008DF800002168684688474FF48A7738468D
:1006200001F0FEFA30B1384601F002FB84F829509F
:10063000BDE8FE834FF000484FF48C7927691CE039
:10064000B7FA87F028FA00F109EB80058F432846B6
:1006500001F0E6FA88B1284601F0EAFAA5F58C75B2
:10066000E8088DF8040045F38000401C8DF8006018
:100670008DF80500216868468847002FE0D1D7E74C
:10068000007000403C000020F0B598480023021D97
:1006900001780125101D4FF08056062907D11478E6
:1006A000240704D10478C4F30314032C02D00629D0
:1006B00004D00FE08F4F8E4C7C670EE01478240737
:1006C00008D10478C4F30314032C06D0042C04D0FE
:1006D000052C02D0062907D00EE0D6F84442864FFA
:1006E000C4F342343C6002E01478240704D1047857
:1006F000C4F30314032C02D0062906D011E07F4C6A
:10070000276827F0807727600EE01478240708D147
:100710000478C4F30314032C06D0042C04D0052C55
:1007200002D006290AD011E04FF08044C4F80C3101
:10073000C4F81031704C241F236002E014782407A1
:1007400004D10478C4F30314032C02D0062905D085
:100750000CE0694F032464373C600AE014782407F6
:1007600004D10478C4F30314032C02D006290DD05D
:1007700014E0634F05243C60614C78342560604C84
:10078000083423603F243F1D3C6002E014782407B6
:1007900004D10478C4F30314052C02D0062957D0E1
:1007A00068E058490968584A11605649091D0968A6
:1007B000121D1160534908310968121D1160514919
:1007C0000C310968121D11604E4910310968121D63
:1007D00011604C4914310968121D116049491831E2
:1007E0000968494A2032116046491C310968121DC6
:1007F0001160444920310968121D116041492431BA
:100800000968121D11603F4928310968121D1160E5
:100810003C492C310968121D11603A493031096890
:10082000394A40321160374934310968121D11606C
:10083000344938310968121D116032493C31096868
:10084000121D11602F4940310968121D116002E02C
:10085000117809070ED10078C0F30310032803D0E4
:10086000042801D0052805D1D6F85802274900F000
:100870004F00086021487438016841F4700101603C
:10088000BFF34F8FBFF36F8F4FF01021D1F80002ED
:10089000002803DBD1F80402002822DA1C4A156084
:1008A0001C480468002CFCD01524C1F800420568DF
:1008B000002DFCD0C1F8044201680029FCD013606F
:1008C00001680029FCD0BFF34F8F0C48F038016855
:1008D000114A01F4E06111430160BFF34F8F00BF83
:1008E000FDE70F490D480860F0BD0000E00F00F083
:1008F0000DF0ADBA00C007403C050040FCED00E043
:10090000105600400404001020C50040E40E0040D2
:1009100004E5014000E401400400FA050090D00322
:10092000240000202DE9F84300250F4C04274FF444
:10093000A078BE034FEA050908EB850006FA05F129
:1009400022585AB1D4F804230A4207D044F8009040
:100950002158064A00915168126890476D1CEDB20B
:10096000BD42E9D3BDE8F883008000406C00002060
:100970000448017F04480029024901D001F075BBF9
:1009800001F0E4BA78000020002000400FB4084BCA
:1009900010B504A902AA039800F01CF8044602A9A5
:1009A000002000F048FA204610BC5DF814FB00005F
:1009B000370E000002E008C8121F08C1002AFAD151
:1009C00070477047002001E001C1121F002AFBD1CF
:1009D000704700002DE9FF4F8DB00F4605460026F9
:1009E00006E025280BD0DDE90F1290476D1C761C20
:1009F00028780028F5D111B03046BDE8F08F0024EA
:100A0000A246A1460122EC4900E0044315F8013F4B
:100A1000203B02FA03F00842F7D128782A2810D0A8
:100A20006FF02F022878A0F13001092914D80AEBC1
:100A30008A0102EB410144F0020400EB010A6D1C43
:100A4000F0E701CF5FEA000A03D544F40054CAF18D
:100A5000000A44F002046D1C28782E2817D115F8DE
:100A6000010F44F004042A280ED06FF02F022878DA
:100A7000A0F1300109290AD809EB890102EB4101F3
:100A800000EB01096D1CF2E757F8049B6D1C2878F8
:100A90006C280FD006DC4C2817D068280DD06A28A7
:100AA00014D104E0742810D07A280FD10DE044F45A
:100AB00000140AE044F4801401E044F4401469781E
:100AC000814202D104F580146D1C6D1C2A786E2AB7
:100AD0001FD00CDC632A31D004DC002A8BD0582ACA
:100AE00011D1A3E0642A68D0692A0CD165E0732A89
:100AF0002ED004DC6F2A73D0702A04D19BE0752AB3
:100B00006FD0782A6ED01046DDE90F129047761C20
:100B100050E1C4F30250022806D0032809D004286B
:100B200001CF09D0066045E101CFF117C0E90061AE
:100B300040E101CF06803DE106703BE117F8040B70
:100B40008DF8000000208DF80100EB46012003E045
:100B500057F804BB4FF0FF3061074FF0000102D49B
:100B60000DE008F10101884649450FDA8045F8DBC0
:100B70001BF808100029F4D108E008F101018846AB
:100B80008142FADB1BF808100029F6D1DDE90F23BA
:100B9000AAEB08008146214600F036F9304400EB0C
:100BA000080604E0DDE90F121BF8010B9047B8F1CD
:100BB0000108F7D221464846F7E00A21C4F3025360
:100BC0004FF0000B0891022B04D001CFC117032B6B
:100BD00009D00AE0FF1D27F00707F7E8020108E047
:100BE00032E01FE020E000B2C117042B01D140B277
:100BF000C117031E71F1000307DA4FF0000CD0EBB0
:100C00000C006CEB01012D2302E0230504D52B23FE
:100C10008DF82430012303E0E30701D02023F7E718
:100C2000984658E00A2110E010210EE010204FF005
:100C3000000B08900CE010214FF0000B44F004046E
:100C40004FF00809089103E008214FF0000B0891CC
:100C5000C4F30253022B04D001CF0021032B06D092
:100C600006E0FF1D27F00707F7E8020103E080B266
:100C7000042B00D1C0B24FF0000823072BD5702AF7
:100C800007D0DDF820C08CF0100C5CEA0B0C05D00E
:100C90000EE040238DF82430012308E050EA0103E0
:100CA00006D030238DF824308DF825200223984675
:100CB000DDF820C08CF0080C5CEA0B0C0BD150EA7C
:100CC000010301D1630706D530238DF824304FF09E
:100CD0000108A9F10109582A04D038A20B9208AAE8
:100CE0000A920BE03AA2F9E75B46089AFFF7BDFBD0
:100CF0000B9B9B5C0A9A521E0A92137050EA0102E7
:100D0000F2D10A98ADEB000000F1200B600702D58C
:100D100024F4803401E04FF00109D94502DDA9EB4C
:100D20000B0000E0002000EB0B0141440890AAEB0F
:100D3000010AE00306D4DDE90F232146504600F006
:100D400063F806444FF0000908E009A911F809000A
:100D5000DDE90F12904709F10109761CC145F4DB6A
:100D6000E0030CD5DDE90F232146504600F04CF896
:100D7000064404E0DDE90F1230209047761C089904
:100D8000481E08900029F5DC08E00A980A990078C6
:100D9000491C0A91DDE90F129047761CBBF1000156
:100DA000ABF1010BF1DC21465046DDE90F2300F0E9
:100DB00019F806446D1C1BE6092801003031323356
:100DC0003435363738396162636465660000000087
:100DD0003031323334353637383941424344454671
:100DE000000000002DE9F041044600251E4617468C
:100DF000880404D405E039462020B0476D1C641EE9
:100E0000F9D52846BDE8F0812DE9F04104460025DA
:100E10001E469046C80301D5302700E020278804ED
:100E200004D505E041463846B0476D1C641EF9D52F
:100E30002846BDE8F0810A68531C0B6010707047AB
:100E40000BA1012000F038FE00F090FD00F092FDB3
:100E50000028FBD1BFF34F8F0B4801680B4A01F408
:100E6000E06111430160BFF34F8F00BFFDE7000059
:100E70004150505F4552524F523A4552524F523AAA
:100E8000466174616C0D0A000CED00E00400FA0587
:100E90000EB500210091CDE901106A4644F201002F
:100EA000FFF7CEFF0EBD00F003B800F009B8000058
:100EB00072B602480168491C0160704710000020AA
:100EC00003490868401E086000D162B67047000000
:100ED000100000202DE9F04105460878214F012639
:100EE00006FA00F00C463860086800F0EAFB0021C2
:100EF000606800F0DDFB28791B4901EB4010A16917
:100F0000007F00282868C0F8241519D0607D217D55
:100F10002A680843C2F86C0518E00021A06800F0B8
:100F2000C7FB207B86403E60E06800F0CAFBD4E946
:100F300002122868C0F80825C0F81015BDE8F08135
:100F4000607D227D29681043C1F86C05D4E9001248
:100F50002868C0F80C15C0F81425207D0128DCD0C5
:100F6000ECE700000805005078000020002901DAB5
:100F700000207047026811440160012070470000A2
:100F80002DE9F041461C01250020FFF78CFF114997
:100F9000741CD1E900208F68101A3B1A5B1C9C421C
:100FA0000FD963B10C480D4B3A4000681B6801EB48
:100FB000820263F39F20D0600868401C086000250F
:100FC00001E0901908600020FFF76FFF2846BDE898
:100FD000F0810000980100209C21000020000020EA
:100FE000034803C8814201D10120704700207047A7
:100FF0009801002070B50E460446007918494FF458
:10100000A27501EB4010017F2068A1B14FF48871F7
:1010100000F02EFE4FF49071206800F029FE4FF48E
:101020009271206800F024FE2946206800F020FE1E
:101030000C49206809E04FF48E7100F008FE294643
:10104000206800F004FE08492068C0F804132068F6
:1010500000F071F83146BDE8704000F050B8000073
:10106000780000201003020080000200012181406E
:1010700003484068014201D00120704700207047BA
:101080000800002001218140080300D001207047A2
:10109000002000F06DFD08B1FFF7FAFE08A1032063
:1010A00000F00AFD00F074FE00F0AEFE00F09EFEBF
:1010B000AFF3028000F05EFC0028FBD1F8E70000EF
:1010C0004150503A494E464F3A53414144432048DB
:1010D000414C2073696D706C65206578616D706C32
:1010E000652E0D0A0000000000F01F020121914052
:1010F0004009800000F1E020C0F8801170474907E6
:10110000090E002806DA00F00F0202F1E02282F850
:10111000141D03E000F1E02282F8001400F01F0229
:10112000012191404009800000F1E020C0F88012C8
:10113000C0F800117047000B40B270472DE9F0472E
:101140000427144E814600244FF001080020FFF7C9
:10115000AAFE08FA04F5354203D02046FFF786FFC1
:1011600058B10020FFF7A1FE27B104F10104AE43FE
:10117000E4B2EBD13846BDE8F087074908FA04F03D
:1011800000274A681043486089F800403846FFF756
:101190008CFEEFE7FFFF0F000800002070B514463B
:1011A0000D00064610D07CB1FFF76CFF70B13046E1
:1011B000FFF75CFF60B1074800EBC600C0F81055B0
:1011C000C0F81445002070BD0E2070BD072070BD12
:1011D000082070BD00F0014070B504460125A5400F
:1011E000FFF750FF18B12046FFF740FF18B1034842
:1011F0000560002070BD082070BD000004F50140AE
:101200000448017809B18520704701210170002050
:1012100070470000080000202DE9F041254C0646EB
:1012200012200D46C4F80803234890F82920022A0A
:1012300018D001464FF4807891F82B10012A13D072
:101240000222C4F80423012780F829704660058132
:101250000022C26021B3C58290F82A10304600F007
:1012600099FC25E0122002E0C2682AB10220C4F8ED
:1012700004031120BDE8F081C660858261B947464C
:10128000384600F0CDFC0028FAD0384600F0D0FCFB
:101290002946304600F07EFC0220C4F8040307E033
:1012A0002946304600F076FC404600F0C1FC27603D
:1012B0000020DFE7007000403C00002070B50F4ABE
:1012C00005460C4692F8290008B1112070BD02EBCA
:1012D0004501087E18B912F82A0F401C1070E079F9
:1012E0000876207A48762146284600F05BFC227A70
:1012F000E179284600F08AFC002070BD3C00002007
:101300002DE9F0411C4C054694F8280010B1082046
:10131000BDE8F08109B115B102E00720F8E7174DEB
:1013200044F8101B164928780860091D6878086081
:10133000E878E0760127277600206076A0762060A6
:10134000104E20776FF00040C6F808034FF482700B
:1013500000F06EFCA9780720FFF7D1FE0220C6F846
:101360000403E07E10B10120C6F804030448F038FD
:1013700007600020CCE700003C0000207521000041
:10138000F075004000700040044890F82B0008B150
:10139000002000E004200249084470473C0000207F
:1013A0000070004030B54FF4803405688C4013B1B4
:1013B000C5F8044301E0C5F80843006800EB81006C
:1013C000C0F8402530BD0000016801220A600079A4
:1013D000034A00EB400002EB8000022101727047DB
:1013E0006C000020F0B40468049E40F20115D4F8AB
:1013F00000728D40AF43C4F800720468D4F8005204
:101400001D43C4F800523346F0BCFFF7CBBF0000C9
:10141000F8B504460D460079204900EB400001EB89
:101420008006307A08B10820F8BD3AB132606868A9
:101430007060002003464FF4A07709E00720F8BD54
:10144000226807EB800153505158401CC0B20091F4
:1014500061798142F4D82068E978000B40B2FFF747
:101460004EFE20686978D0F8042561F30102C0F8C7
:1014700004252068A978D0F8082561F30102C0F896
:10148000082520682978D0F8102561F30302C0F8F8
:101490001025012030720020F8BD00006C000020F3
:1014A0002DE9F04105460079164F904607EB4014B0
:1014B0000E46E07E10B10820BDE8F081707F2077F5
:1014C0002846FFF707FD5FEA080060603169216088
:1014D00003D0317F2846FFF78DFD287907EB4010B8
:1014E000007F0028286801D0082100E00421C0F80E
:1014F00000150020E0752076A0750121E176A07628
:10150000DAE70000780000202DE9F0470546007971
:101510003E4C0E4604EB4013187F38B14FF4005098
:10152000B0EB164F02D01020BDE8F087284600F03F
:101530006FF808B11120F7E79A7500279E609F8227
:1015400028794FF0010804EB40143E46207F002824
:10155000286825D04FF49079494600F089FB4FF474
:10156000AC7A5146286800F083FB2868A17DA26808
:10157000C0F84425C0F848152868C0F8088060689D
:10158000F0B94946286800F06EFB8046514628684D
:1015900000F069FB58EA0001F3D058BBA7750FE0D3
:1015A0004FF48E7A514600F052FB2868C0F808804C
:1015B0002146286800F0A4FC61684FF4807089B16E
:1015C0003046B1E75146286800F03CFB10B9A08ACC
:1015D0004845F7D1A08A484505D02146286800F043
:1015E0008FFC00E08146A08AA17D8842EAD3A08AD0
:1015F000484501D10F26D1E75146286800F022FB6B
:101600000028F9D02868C0F80C80C7E778000020CF
:101610000079044901EB4010807D002800D00120B2
:10162000704700007800002070B504460079114929
:10163000002601EB401520682A7FC0F80065686825
:1016400088B1207901EB4010007F0028206801D08C
:10165000094901E008498C39C0F808132068FFF7F0
:101660006AFDFFF741FD204600F008FBEE766E6054
:1016700070BD0000780000201003020030B541EA80
:101680004201DDE9034541EA8301800041EA04218A
:1016900000F1A04041EA0541C0F8001730BD1CB57B
:1016A000002100910B4601220191FFF7E7FF1CBDCD
:1016B0001CB500220B46009211460192FFF7DEFF97
:1016C0001CBD1CB5002100910B4601220191114661
:1016D000FFF7D4FF1CBD0000004870475117000001
:1016E00030B5184C054689B0207828B1607885421D
:1016F00002D1002009B030BD202213496846FEF710
:101700009BFE00208DF81400062000900820019018
:1017100005200390072002904FF0EB7006900948D7
:10172000001DFFF781FF0DB1002200E0074A0548C8
:101730006946001DFFF7B4FE0028DBD101202070B0
:101740006570D6E7140000207C2100003D1F0000DA
:101750002DE9F04FC1B00D00DDF82CB14D984FF0E0
:1017600000011C4690460BEB000A409101D00A266E
:1017700000E0002600F08EFB002873D16F46BCB954
:10178000409840AA3918284600F0A2FB002869D0EA
:101790004046FEF763FEC22800D9C22005464098A5
:1017A0002A4638444146FEF747FE40982844409078
:1017B0004FF020094098821931320DEB0201684444
:1017C000002202E000F8019B521CB242FAD300272B
:1017D000544508D300F8019B00F8019B00F8019BD9
:1017E00001F8019B26E05C4502D24A9A125D03E0B3
:1017F0004C9AA4EB0B03D25C84460125AB0022FA81
:1018000003F808F00F03092B01D9373300E0303318
:10181000C5F101086D1E0CF80830EFD20CF1020082
:10182000A2F1200300F8019B5E2B00D92E2201F8C3
:10183000012B641C7F1C102FCAD30D220A700A22B0
:101840004A7080F800904098811943316846409171
:1018500000F026FB30B100F01DFB18B900204090CD
:101860005445A7D341B02046BDE8F08F2DE9F043A1
:10187000C5B000251C46904689464C9F449500F013
:1018800009FBB0BB449804AE311844AA484600F0A6
:101890001FFB00282ED0072F22D2DFE807F004120A
:1018A000192E384451004046FEF7D8FD05464498AD
:1018B0002918FF2914D830442A464146FEF7BCFDBA
:1018C0000EE04498226830444146FFF75FF806E096
:1018D000D4E90023449841463044FFF757F80546C1
:1018E000294644A8FFF742FB18B14499B1F5807F1F
:1018F00033D9002045B0BDE8F083A0680090D4E95A
:101900000023449841463044FFF740F8E7E7D4E924
:101910000201CDE90001D4E9002344984146304456
:10192000FFF734F8DBE704F1080007C88DE807008B
:10193000D4E90023449841463044FFF727F8CEE726
:1019400004F108000FC88DE80F00D4E90023449883
:1019500041463044FFF71AF8C1E704A800F0A0FAA6
:10196000C8E70000004870476D1800000120FFF72D
:10197000B7BE00002DE9F04F87B0FFF731FB18B17B
:10198000002007B0BDE8F08F454ED6E9014704EAD4
:10199000070006EB8000A146641CC5680CE000BF90
:1019A000C5F3891000EB9550044404EA070006EBE8
:1019B0008000A146C568641CA807F1D005F00300AB
:1019C0004FF0000B022805D0AA0A01A8C5F3831323
:1019D000002153E004EA070006EB800004F1010A4D
:1019E0000AEA0704C268381B80004FEA9558001DB8
:1019F000C5F38913804521D929490C3138B106EB4B
:101A0000840400F0FF0CA8EB00000C3404E00C464A
:101A1000002108F0FF0C0846C0B2CDE90210CDE964
:101A2000004CD6F81444C5F3C2005946A0474045BF
:101A300011D108F103080AEB98042AE0002106EB13
:101A400084000C300090CDE901810391C5F3C20000
:101A5000D6F81444EAE760F38F1509EA070006EBAD
:101A60008000C56016E000BF04EA070C06EB8C0C92
:101A7000491CDCF80CC040F804CB641C9942F3D339
:101A8000C5F3C2000093D6F8105401AB5946A847DD
:101A900000B17460FFF7A4FA80F0010071E7000064
:101AA00098010020034AFF239360002313605360D2
:101AB00000F056B8980100202DE9F047DFF83C808F
:101AC0000446002689463046D8F80870D8F80050F9
:101AD000FFF756FA00280ED0094800213D40406823
:101AE00061F3820064F3C50066F3891008EB850199
:101AF00069F39F20C860BDE8F087000098010020CE
:101B00009C2100002DE9F047DFF84C8005460127B5
:101B1000924689463846D8F80860D8F80040FFF762
:101B20002FFA002815D00D48002104EA060280682B
:101B3000641C61F3820065F3C50067F3891008EB4C
:101B40008202344069F39F2008EB8401D060C1F821
:101B50000CA0BDE8F0870000980100209C21000047
:101B6000024A02F5826203C2704700009801002019
:101B700070B506460020FFF7B3FD040008D1FFF75B
:101B8000ABFD0546FFF7EEFE32462946FFF78AFF1A
:101B9000204670BD024A1060101D016070470000B1
:101BA0002C76004010B50A784B78302402F00302FE
:101BB00004EA03131A438B784FF4E06404EA032326
:101BC0001A43CB784FF4805404EA03331A430B7959
:101BD0004FF4E02404EA03431A434B794FF4801492
:101BE00004EA03531A438B79240104EA03631A437A
:101BF000030105481844C0F81825CA79097AC0F8C5
:101C00001415C0F8102510BD0070004003010348F2
:101C10001844C0F81425C0F8101570470070004033
:101C200002494058002800D0012070470070004051
:101C3000034908B50844002202600068009008BD0E
:101C4000007000404058002800D00120704708B5BF
:101C5000002242504058009008BDD0F804030840CC
:101C600000D0012070474058002800D00120704764
:101C700008B5002242504058009008BD70B5024699
:101C80004FF0FF301168D1F80C35D1F81465D1F858
:101C90000855D1F81045C1F80C05C1F814051168B4
:101CA000C1F80805C1F810051846FFF7F8FC3046E2
:101CB000FFF7F5FC601C02D02046FFF7F0FC681C23
:101CC00004D02846BDE87040FFF7E9BC70BD70B590
:101CD0000546C87D0C4600284FF4847128460AD07A
:101CE000FFF7B5FFD5F81805627EE1688854607E7D
:101CF000401C607670BDFFF7AAFFD5F8180570BDCF
:101D00001FB501238DF800308DF808100192D0E93D
:101D10000012684690471FBD70B505460078002840
:101D20001AD105216868FFF777FA08B1FFF7B0F814
:101D30000A4E0BA103207268FFF7E4FE00246868D6
:101D40000FA130F914200320FFF7DCFE641C052CE2
:101D5000F5DB7068401C706070BD00000000002062
:101D60004150503A494E464F3A41444320657665CA
:101D70006E74206E756D6265723A2025640D0A00DE
:101D80004150503A494E464F3A25640D0A00000032
:101D90000EB5134A07CA8DE8070001208DF8070029
:101DA00010490020FFF7ACFA08B1FFF771F8694657
:101DB0000020FFF783FA08B1FFF76AF805210A4807
:101DC000FFF72AFA08B1FFF763F8074805210A3040
:101DD000FFF722FA002801D0FFF75AF80EBD0000E5
:101DE0006C210000191D000028000020054810B5D6
:101DF0000078FFF7F1F9002803D0BDE81040FFF7A5
:101E000047B810BD000000203EB5FFF7F9F908B152
:101E1000FFF73EF81B491C4AD1E90201CDE9010157
:101E200003208DF8060001A91648FFF7F1FA08B162
:101E3000FFF72EF8134C2068D0F81005134A012341
:101E4000C2400020014600902046FFF7CBFA204612
:101E5000FFF7BAFA246804F5A074FFF795FA05466F
:101E60000B48FFF76BF908B1FFF712F808482A464C
:101E700021460078FFF792F9002801D0FFF708F813
:101E80003EBD00005C210000CD1E000000A86100E6
:101E9000000000200148FFF7BBBB00001800002035
:101EA00070B50D460A46014601240648FEF7C4FAFD
:101EB000EAB204490448FFF727FB00B1002420469A
:101EC00070BD00009800002018000020704700003E
:101ED00010B5144602004FF001000AD008461268FF
:101EE00005A1FEF753FD01462046BDE81040FFF76F
:101EF0003DB80021216010BD5B253038645D0000D5
:101F000070B50C4605464FF48E71FFF7A0FEA18A0E
:101F1000A068415CA08A401CA082C5F81C1570BD59
:101F20001FB500228DF800208DF8081081680191FE
:101F30008275D0E90012684690471FBD00780128DD
:101F400001D1014988707047140000202DE9FF4736
:101F50000C4605464FF40071FFF77FFE01274FF452
:101F60000178002618B34FF4927949462846FFF7C6
:101F700069FEE0B149462846FFF769FEC5F80883C7
:101F8000A07E00B96F6002208DF80000D5F88004B3
:101F9000C5F880040390E07D8DF80800E0680190AA
:101FA000E6752676D4E900126846904727E00421BA
:101FB0002846FFF752FE10B34FF484712846FFF70E
:101FC00041FEE0B121462846FFF781FEE07D617EBB
:101FD000884214D1207E38B1617EE268E0752069C4
:101FE000E0602676667607E0A07E00B96F60C5F8EF
:101FF0000883E675617EE2682046FFF781FE4FF4B4
:102000008E7841462846FFF71DFE88B1A08AA17D43
:10201000884204D221462846FFF772FF08E0414675
:102020002846FFF714FEA17D11B12046FFF778FF87
:102030004FF4A27841462846FFF704FE002812D04C
:1020400041462846FFF703FEA07E00B12F60E07DE9
:10205000002808D0E675617EE26804B02046BDE83D
:10206000F047FFF74DBEBDE8FF872DE9FF410C4665
:102070004FF4927705463946FFF7F5FD0026C0B1CB
:1020800039462846FFF7F4FD02208DF80000D5F808
:102090008004C5F880040390D5F83C058DF808004D
:1020A000E0680190E6752676D4E90012684690470C
:1020B00024E04FF4887739462846FFF7D4FDE8B18D
:1020C00039462846FFF7D4FDD5F83C05C1B2E07D7E
:1020D000884213D1207E60B1E268D5F8000220F07A
:1020E0002000C5F80002207EE0752069E0602676B9
:1020F00001E0E675E2682046FFF702FE4FF4A277A2
:1021000039462846FFF7AFFD68B139462846FFF744
:10211000AFFDE07D38B1E675D5F83C05E268C1B2A7
:102120002046FFF7EDFD4FF4907631462846FFF745
:102130009AFD00280FD031462846FFF799FDA07D73
:10214000002808D0D5F84C0504B0C1B22046BDE83F
:10215000F041FFF7E5BEBDE8FF81000000800040D0
:102160000004000000000006000000000000000065
:10217000020000000001000600000000FFFFFFFF5A
:10218000FFFFFFFFFFFFFFFFFFFFFFFF000000005B
:10219000000000000000D601060100002900000038
:1021A000010000000100000001000000010000002B
:1021B000010000000100000001000000020000001A
:1021C0004F766572666C6F770D0A0000EC21000097
:1021D0000000002028000000B409000014220000C4
:1021E0002800002088250000C4090000000000002D
:1021F00000000000000000000000000000000000DF
:10220000000000000020004000000000C02100008D
:042210000090D00367
:0400000500000401F2
:00000001FF
