:020000040000FA
:10000000B0080020D5000000EF000000F100000063
:1000100000000000000000000000000000000000E0
:10002000000000000000000000000000F3000000DD
:100030000000000000000000F5000000F7000000D4
:10004000F9000000F9000000F9000000F9000000CC
:10005000F90000000000000081010000F90000002C
:100060006103000079030000F9000000F9000000BE
:10007000F9000000F9000000F9000000F90000009C
:10008000F9000000F9000000F9000000F90000008C
:10009000F9000000F9000000F9000000F90000007C
:1000A000F9000000F900000000000000000000005E
:1000B0000000000000000000000000000000000040
:1000C0000348854600F04AF80048004799090000B7
:1000D000B00800200321094802680A43026008486A
:1000E00002680A4302600748804707480047FEE766
:1000F000FEE7FEE7FEE7FEE7FEE70000240500401E
:1001000054050040C1020000C100000030B50B469C
:10011000014600202022012409E00D46D5409D42E1
:1001200005D31D469540491B254695404019154667
:10013000521E002DF1DC30BD03460B439B0703D05C
:1001400009E008C9121F08C0042AFAD203E00B789C
:100150000370401C491C521EF9D27047064C012501
:10016000064E05E0E36807CC2B430C3C984710345F
:10017000B442F7D3FFF7A8FF581600007816000026
:10018000F0B50025FF2689B0013601242F460195E0
:10019000304600F0F5FF002807D044484068204270
:1001A00003D0304600F0E4FF2543361D64007F1C79
:1001B000B6B2042FECD3FF247D34204600F0E0FFDC
:1001C000002807D0204600F0D3FF600705433848D9
:1001D00000690190374C280714D0012700262F42D0
:1001E0000CD03548B200111808690969C004C00E66
:1001F0008903A258890F002A00D090477F00761CFF
:10020000042EECD3002D2FDA0020421E2646203685
:100210000590307D00278506AD0E41B2491C23D0E4
:100220000121A940114200911ED080090390284667
:1002300000F038FB800020580490002802D1039879
:10024000032811D103980099032802D10598084387
:1002500005901A4AA80080180068019A8003800F50
:10026000114203D0022803D009B0F0BD0328FBD10E
:100270000399032906D1022815D00221284600F04F
:1002800067FF01270498002803D0049A28460399A1
:100290009047002FE8D00648006901998842E3D0D2
:1002A0000190059AB5E70321E8E7000000630040EC
:1002B0000005005044000020006500400007005089
:1002C00010B500F03DFB002805D01F491D484860CF
:1002D000C8131E4988611E48018CC9B201290BD17F
:1002E000828C120708D1028D1206120F042A03D144
:1002F000828D1206120F0AD0012921D1818C0907A3
:100300001ED1018D0906090F0A2904D007E0114A00
:1003100001219160F5E7828D1206120F05D00D299B
:100320000ED1808D0006000F0AD10B48016801290B
:1003300004D00A49016001680129FCD1C021416152
:1003400010BD0000DFFF07C000050040006C00404A
:10035000C00F00F00006004000EC0640759300005E
:1003600010B504220249034800F0A4FA10BD0000B1
:100370007C0000200080004010B5042202490348A0
:1003800000F098FA10BD00008800002000900040A6
:1003900002E008C8121F08C1002AFAD1704770474E
:1003A000002001E001C1121F002AFBD170470000AC
:1003B000BFF34F8F04490348C860BFF34F8F00BF9E
:1003C000FDE700000400FA0500ED00E00EB5002195
:1003D000029000916A4601910148FFF7E9FF0EBDC6
:1003E0000140000070B5054640680B4E0179715C14
:1003F0000124FF290DD0FE290CD000F099FD014603
:100400006868064B007982009A58914202D1FF2118
:1004100031540024204670BD0C00002094000020C0
:1004200070B5044600680D46008B642180B25043CD
:10043000FFF76CFE82B22946204600F001F870BD3D
:10044000F8B50D460446174600680C212E462322B7
:100450004E43125C3118022A01D00820F8BD4968C9
:10046000B94206D1C16900293ED060680079884749
:100470003AE02046FFF7B6FF002801D01120F8BD72
:1004800061681A4A0979FE20505423683A469E1939
:10049000776820462946002F02D09E69B7420AD3CA
:1004A000002A02D09B69934202D800F007FF0BE0BC
:1004B00000F03EFF08E0002A01D0964202D800F08A
:1004C000C1FF01E001F044F82068C06900280BD0AA
:1004D0006168064A097902204900D21C89184855EA
:1004E0000221606800F05AFD0020F8BD0C000020D9
:1004F000FFB581B006460768029D0C2045432320C6
:10050000C05DEC19002802D0082005B0F0BD002025
:1005100060600498A0722C480068009028463168FA
:100520000A30085C002808D000206946487003980B
:1005300000F0F4FA002816D101E00120F5E7039855
:1005400078510127039938468840049A1F49002AA8
:1005500001D0C86000E0886000256019083000F014
:1005600083FB002801D00420CFE76D1CEDB2022DE3
:10057000F3D3207A00F0C6FB607A00F0C3FB20685A
:1005800000F018FB05467068029900F0F7FC014680
:10059000207A2A4600F096FB206800F00BFB054607
:1005A0000221706800F0EAFC0146607A2A4600F0F9
:1005B00089FBE7727168064A0979002049008A18A8
:1005C00002995054A1E700004C16000000050050AD
:1005D0000F000020F8B50768054600246A68204629
:1005E00012790C21484353001E4AC61900219A185B
:1005F0001155F17A00290DD029680A30085C0028CD
:1006000019D00021306800F0F7FA306800F0DCFA09
:1006100000207060641C022CE0D36968114AFF203E
:100620000979D21E505468680F4A0168012091422E
:1006300003D10E490AE00121E4E70D4A914201D1BC
:100640000C4903E00C4A914201D10C49C86068682A
:1006500000F07BFC686800F0BFFC02202037F870D7
:10066000F8BD00000F00002000800040008C00401A
:1006700000900040009C004000A0004000AC004002
:10068000F7B588B00E00054609D02C68204620300A
:100690000690C078002804D008200BB0F0BD0B20D5
:1006A000FBE700F039FC002803D0852801D00420A6
:1006B000F3E700F02BFA002805D100F0F9F9002843
:1006C00001D00320E9E70698FF21017006984170E8
:1006D00006988170002007460C2141430B19DF72F8
:1006E000FF221A725A720022D243401CC0B26250DA
:1006F0000228F1D32046223000F0A4FB002806D1C6
:100700000027E019203000F0AFFA002803D0284677
:1007100000F058FDCBE77F1CFFB2022FF1D300277A
:10072000B8003258501C12D0F019037A39462846C6
:10073000FFF7DEFE0490002804D0284600F042FDBA
:100740000498AAE7002239462846FFF779FE7F1C65
:10075000FFB2022FE4D300200922244B316901E0CB
:100760004908401C994201D99042F9D3204A516866
:100770009268029201916946087168681D4A007981
:10078000029001A9686800F04DFC070004D02846DB
:1007900000F018FD384680E76868052200681202FC
:1007A0008018316900690E01C640A661686800F0D2
:1007B000CCFB01270097042332460221686800F031
:1007C00019FC0221686800F0E0FB0A98E0616868A3
:1007D00009490079094A80000D506968FF200979AC
:1007E00050540698C770002057E70000FF0F000024
:1007F0004C16000065120000A00000200C00002034
:1008000000B500F005F800BD00B500F009F800BD26
:1008100072B602480168491C016070471800002048
:1008200003490868401E086000D162B670470000A6
:10083000180000200003000F01D0002070470120A5
:10084000704700000022D243830004490428CA50A4
:1008500002D30818203002747047000044000020C2
:10086000F0B50025ED43002A02D00023042601E064
:10087000042305260A4C04E09F00E7597F1C04D09E
:100880005B1CB342F8D32846F0BD5DB2261835751F
:100890009E00A151002AF6D1E11820310874F2E738
:1008A000440000200249091814200856704700002F
:1008B00044000020F7B50025164604462F4616E0F2
:1008C000A80001210904A940FF3041302258002A24
:1008D0000BD003221202A21852680A4205D02750F8
:1008E000019A01991268496890476D1CEDB2B542B2
:1008F000E6D3FEBD0121814003484068014201D09A
:100900000120704700207047040000200121814031
:1009100003484078014201D0012070470020704711
:1009200004000020014610B501208840FFF782FF37
:1009300010BD01218140080700D001207047000050
:100940001048018CC9B2012917D1818C090714D133
:10095000018D09060A0F03D1828D1206120F0ED0E7
:10096000090F012903D1828D1206120F07D0032926
:1009700003D1808D0006000F01D0002070470120B8
:1009800070470000C00F00F0012181400804000CF6
:1009900000D001207047000086B014222649684626
:1009A000FFF7CAFB0120694648722348234A0838EA
:1009B000FFF766FE002801D0FFF708FD1E48083843
:1009C000FFF708FE1E4D0024274601E0142C02D23A
:1009D000A000261803E0A0002018C8210E1A2F70CE
:1009E0001548B2B200210838FFF71AFD1128F7D0D8
:1009F00028780028FCD01048B2B201210838FFF74F
:100A00000FFD002801D0FFF7E1FC0F490D480F4A08
:100A1000096800BF00BF00BF00BF00BF00BF00BF2C
:100A200000BF914200D000BF401EF2D1641CE4B26E
:100A3000282CC8D2CAE7000038160000591200005E
:100A400000000020A86100001C0000200024F40029
:100A50008207D30EFF229A408907090E10B59940EC
:100A600000280BDA03071B0F083B9C080C4BA40063
:100A7000E318DC6994430C43DC6107E08408094B0C
:100A8000A400E418236893430B432360C106C90EF6
:100A900001208840044908600449086010BD000036
:100AA00000ED00E000E400E080E200E000E100E0B2
:100AB00070B5144D687D002801D0082070BD114923
:100AC00000202039421E0B18401CC0B21A75202885
:100AD000F9D300242046FFF7B5FE641CE4B2052CD0
:100AE000F8D303210620FFF7B3FFFF207D3000F08D
:100AF0003FFB01200449C0074860012068750020C1
:100B000070BD000064000020006300400248407D8A
:100B1000002800D00120704764000020FEB5044684
:100B200020480D460019142141560026491C01D0C9
:100B3000082633E0A97800291DD001220021204693
:100B4000FFF78EFE411C14D0830017482A7818182E
:100B500069780369154F3B4003610369E706FF0CA1
:100B60009207920BC907C90A3B430A431343036127
:100B700004E0042612E00121C94301756A780120CE
:100B8000A0400B49012A0BD0C860002100910B4600
:100B9000012201912046114600F0BEFA3046FEBD0A
:100BA0008860F2E74400002000650040FFE0ECFFB1
:100BB0000005005010B5FFF775FE80060149000ED4
:100BC000401810BD0060004009490918142008565B
:100BD0008100084809180869032210431F221202E5
:100BE00002430A6100BF00BF00BF086170470000F8
:100BF0004400002000650040002900D00121074A80
:100C0000121814201056820005481218106901238A
:100C10001B059843090508431061704744000020F4
:100C20000065004010B5044600F0B4FA00280DD06D
:100C30002046FFF737FEC0B2FFF704FE2046FFF75D
:100C400031FE074A0021800080180161054900201B
:100C5000C04309190875204600F070FA10BD000065
:100C60000065004044000020F1B50427134E002425
:100C70000020FFF7C5FD0125A540354204D02046E0
:100C8000FFF738FE00280BD00020FFF7BDFD002F36
:100C900004D0641CAE43E4B2002EE9D13846F8BD5E
:100CA000074901204A68A040104348600098002787
:100CB00004703846FFF7A8FDF0E70000FFFF0000D2
:100CC0000400002070B514460D00064611D0002C1B
:100CD0000FD0FFF759FE00280DD03046FFF70AFE6F
:100CE00000280AD00648F100081805614461002078
:100CF00070BD0E2070BD072070BD082070BD0000C3
:100D000000F5014010B50446FFF70CFE00280FD097
:100D10002046FFF739FE002804D02046FFF7EAFD01
:100D2000002807D001200449A0408860002010BDA1
:100D3000072010BD082010BD00F5014010B5044685
:100D4000FFF7F0FD00280FD02046FFF71DFE00281A
:100D500004D02046FFF7CEFD002807D0012004492B
:100D6000A0404860002010BD072010BD082010BD25
:100D700000F5014070B50546FFF706FE00280FD0CC
:100D800001240848AC4084600020FFF739FD064884
:100D90004168A14341600020FFF736FD002070BD8F
:100DA000072070BD00F501400400002070B5054625
:100DB0000C460846FFF7BDFD002819D02046FFF776
:100DC000A5FD002812D02846FFF734FD00280FD0DB
:100DD0000020FFF715FD0748A10008180168294306
:100DE00001600020FFF710FD002070BD082070BDDD
:100DF000072070BD00F8014070B505460C46084656
:100E0000FFF797FD002819D02046FFF77FFD002847
:100E100012D02846FFF70EFD00280FD00020FFF764
:100E2000EFFC0748A10008180168A94301600020F1
:100E3000FFF7EAFC002070BD082070BD072070BDE0
:100E400000F80140F1B504270F2600240020FFF729
:100E5000D7FC0125A540354204D02046FFF756FDBA
:100E600000280BD00020FFF7CFFC002F04D0641C1B
:100E7000AE43E4B2002EE9D13846F8BD0649012060
:100E80004A78A04010434870009800270470384604
:100E9000FFF7BAFCF0E700000400002010B504469C
:100EA000FFF747FD00280BD02046FFF72FFD002855
:100EB00008D0054A0120E10089180860002010BD13
:100EC000072010BD082010BD00F0014070B5044699
:100ED000FFF72FFD002816D02046FFF717FD00284A
:100EE00013D00B490125E000401845600020FFF7B2
:100EF00087FC0848A5404178A94341700020FFF7CE
:100F000083FC002070BD072070BD082070BD00006C
:100F100000F001400400002004480178002901D0BD
:100F200085207047012101700020704704000020D7
:100F3000152200688900920189184058704702689C
:100F400088004030C0B21018704700680121C160AD
:100F5000704770B5012424048C40032605683602CE
:100F6000AD19002B01D06C6000E0AC600068890016
:100F70000818052109024018026470BD0268880043
:100F8000FF30413080B21018704702680120000421
:100F90008840032109025118886070478A0010B503
:100FA000FF324132036892B200249C500268012053
:100FB00000048840032109025118486010BD000058
:100FC00002680121116100790C225043014A801806
:100FD000017270477C000020016801220A600079DC
:100FE0000C225043024A022180180172704700000F
:100FF0007C000020F0B5FF25023504688D40FF34E9
:10100000FF340234059E2768AF4327600468FF342D
:10101000FF34023425681D4325603346FFF799FFEE
:10102000F0BD000070B504460D4600790C21484320
:1010300022494618307A002801D0082070BD002AC5
:1010400005D03260686870600020034608E0072021
:1010500070BD8100FF31226841315350401CC0B245
:1010600061798142F5D82068E978000B40B2FFF73A
:10107000EFFC052022680002121869785368C9073E
:101080005B085B00C90F0B4353602168AA780918FD
:101090008B6892079B089B00920F13438B6022681A
:1010A000297810180269090712091201090F0A4369
:1010B000026101203072002070BD00007C00002021
:1010C00030B503460068C103C90E012088401049AD
:1010D000086019680020FF31C043FF3102310A68FF
:1010E00000240C600322196812028918886018799C
:1010F0000C21084D48434019007A022802D11846B5
:10110000FFF75EFF18790C2148434019047230BD87
:1011100080E100E07C00002030B552000A439900D5
:10112000039C0A432102049D0A4329040A430249FD
:1011300080004018026030BD000700501CB500213F
:1011400000910B4601220191FFF7E6FF1CBD000054
:10115000820006481018026803231B049A430260A9
:10116000026809040A43026070470000000700504B
:1011700002494018002101607047000000600040F3
:10118000034940180068012800D000207047000083
:10119000006000400449081814214156042901D276
:1011A00001207047002070474400002010B50068FF
:1011B0000C2251430C18207AFFF7A4FD607AFFF748
:1011C000A1FD10BDF1B582B0029800240568281970
:1011D00020300078FF2801D0FFF7CCFD641CE4B27A
:1011E000022CF4D32220405DFF2801D0FFF76EFED1
:1011F000002420460C214843002647190090B819C6
:101200000190007AFF2804D0FFF7B4FD0199FF2078
:101210000872761CF6B2022EF1D300982858411CB1
:1012200005D0FFF7FFFC00210098C943295000209A
:10123000641CE4B2F872022CDBD302984068FFF71A
:101240003FFFFEBD10B5046820342078FFF75AFD3B
:101250006078FFF757FD10BD014901200870704705
:1012600000000020F8B50D4612480127002449006F
:101270000E18305D002806D0305D401E3055305DC0
:1012800000280ED00027641CE4B2022CF1D3002FFA
:1012900006D00948A900405802214068FFF775FEB2
:1012A000F8BD0548A90040580068C169284688472C
:1012B000E9E700000F000020A0000020FEB50C466A
:1012C00001680546009120460C2148430099019091
:1012D000471816462846FFF7B5FF21462846FFF770
:1012E00065FF01980A30002E09D000998969B14242
:1012F0000FD88EB22968085C002804D005E0296860
:10130000085C002801D0002100E001213868FFF7C7
:1013100073FC0023324621466868FFF71AFE7E60A0
:101320006968024A0979FF205054FEBD0C00002074
:10133000F7B582B00446056803980C214843471965
:101340002035AE78039800902046FFF77BFF2046BB
:101350000399FFF72BFF00236068049A0099FFF7B9
:10136000F8FD31463348FFF747FD397A0120024640
:101370008A40797A884010433146FFF717FD796833
:101380002D48002933D0F1000E1802216068FFF7C4
:10139000F5FD014628783246FFF794FC0023012230
:1013A00003216068FFF7D5FD6068002100798200A5
:1013B0002248815003216068FFF7C1FD06460221E3
:1013C0006068FFF7DBFD014668783246FFF77AFC7C
:1013D0002878FFF7B3FC6878FFF7B0FC04987860D2
:1013E0006168174A09790320505405B0F0BDF10037
:1013F0000E1860680399FFF7C1FD01462878324650
:10140000FFF760FC00231A4603216068FFF7A1FD87
:1014100060680399FFF78CFD616809798A000749C4
:10142000885003216068FFF78AFD064660680399CB
:10143000C7E70000FFFFF0FF00F00140940000202C
:101440000C000020F7B5076882B0044603980C2111
:101450004843C2193D4620350092AE782046FFF73A
:10146000F1FE31463648FFF7C7FC009A0121127A97
:1014700008469040009A527A914008433146FFF75F
:1014800095FC04992F48002937D0398B89B20491F3
:10149000F1000E1802216068FFF770FD0146287800
:1014A0003246FFF70FFC0023012203216068FFF79B
:1014B00050FD60680021007982002348815003219B
:1014C0006068FFF73CFD064602216068FFF756FDA5
:1014D000014668783246FFF7F5FB2878FFF72EFCC7
:1014E0006878FFF72BFC0099049848606168174AF8
:1014F00009790320505405B0F0BDF1000E18606862
:101500000399FFF73BFD014628783246FFF7DAFBE7
:1015100000231A4603216068FFF71BFD60680399EA
:10152000FFF706FD616809798A00074988500321A1
:101530006068FFF704FD064660680399C6E700008F
:10154000FFFFF0FF04F00140940000200C00002099
:10155000F7B582B00546046803980C214843071983
:101560002034A6782846FFF76DFE31462B48FFF75A
:1015700043FC22780121084690406278914008435C
:101580003146FFF713FC68680399FFF7D8FC009019
:1015900003216868FFF7F2FC01462078009AFFF704
:1015A00091FB68680521006809024018006900067F
:1015B000000E13D0002104980818796888420FD2D1
:1015C0003868FFF7F7FA009003216868FFF7D6FC48
:1015D00001466078009AFFF775FB07E00121EAE712
:1015E0006278012031469040FFF706FC049878604D
:1015F000002368680321049AFFF7ABFC3046FFF72D
:101600004DFC6968064A0979049889005050696858
:10161000044A09790398505405B0F0BDFFFFF0FF6C
:10162000940000200C000020009000400104000005
:101630002000002028160000150000001600000001
:1016400000000000020000008813000003000100F9
:1016500000000003000000007816000000000020D9
:1016600020000000900300009816000020000020D9
:1016700090080000A003000000000000000000002F
:10168000000000000000000000000000000000005A
:08169000000000000024F4003A
:04000005000000C136
:00000001FF
