:020000040000FA
:10000000B8250020150400001D0400001F04000096
:10001000210400002304000025040000000000006B
:1000200000000000000000000000000027040000A5
:1000300029040000000000002B0400002D04000033
:100040002F0400002F040000BD0900002F04000051
:100050002F0400002F040000310500002F040000D1
:100060002F0400002F0400002F0400002F040000C4
:100070002F0400002F0400002F0400002F040000B4
:100080002F0400002F040000650600002F0400006C
:100090002F0400002F0400002F0400002F04000094
:1000A0002F0400002F0400002F0400002F04000084
:1000B0002F0400002F0400000000000000000000DA
:1000C0002F0400002F0400002F0400002F04000064
:1000D0002F0400002F0400002F0400000000000087
:1000E0000000000000000000000000000000000010
:1000F0000000000000000000000000000000000000
:1001000000000000000000000000000000000000EF
:1001100000000000000000000000000000000000DF
:10040000DFF80CD000F062F80048004771120000DD
:10041000B82500200648804706480047FEE7FEE76B
:10042000FEE7FEE7FEE7FEE7FEE7FEE7FEE7FEE7A4
:10043000210700000104000040EA01039B0703D0EC
:1004400009E008C9121F08C0042AFAD203E011F813
:10045000013B00F8013B521EF9D27047421C10F8D4
:10046000011B0029FBD1801A70472DE9F05F05467A
:10047000002092469B4688460646814640241BE063
:10048000284641464746224600F041F853465A4620
:10049000C01A914110D311461846224600F028F8A0
:1004A0002D1A67EB01084F4622460120002100F07B
:1004B0001FF817EB00094E41201EA4F10104DFDCF8
:1004C000484631462A464346BDE8F09F064C074D54
:1004D00006E0E06840F0010394E807009847103414
:1004E000AC42F6D3FFF790FFB4230000D423000002
:1004F000202A04DB203A00FA02F1002070479140E4
:10050000C2F1200320FA03F3194390407047202AD8
:1005100004DB203A21FA02F00021704721FA02F3AD
:10052000D040C2F1200291400843194670470000B4
:100530002DE9F84F0025DFF82091A8464FF480768A
:1005400001242F46304601F031FA38B1D9F80403BE
:10055000204203D0304601F01FFA2543361D6400C7
:100560007F1CB6B2082FEDD34FF4BE74204601F0C5
:100570001DFADFF8E8A030B1204601F00DFADAF8F4
:10058000008045F00045364E15F0FF0F15D00127CD
:1005900000242F420DD009EB8401D1F81005D1F8C9
:1005A0001015C0F3042056F82420C1F3014102B114
:1005B00090477F00641C082CEBD3002D2CDA00241C
:1005C000611E96F84420002750B222F0C005401C5E
:1005D00022D0012000FA05F919EA010F1CD04FEAD8
:1005E000921B284600F05EFD56F82000009010B9DE
:1005F000BBF1030F10D14846BBF1030F00D10443F8
:10060000A90001F1A041D1F8001719EA080FC1F3C0
:10061000014103D0022903D0BDE8F88F0329FBD1A3
:10062000BBF1030F06D1022913D00221284601F0A5
:10063000A4F90127009818B1009A59462846904716
:10064000002FE9D0DAF800004045E5D08046214689
:10065000B7E70321EAE70000006000401005005002
:10066000380000202DE9F8432A48DFF8A4804FF431
:1006700080720168284E002589B1D8F8041311F062
:10068000010F0CD0056000680090244862F30F044D
:100690000068726860F317443946204690471D4849
:1006A0004FF48271001D0268BAB1D8F8042312F029
:1006B000020F12D0056000680090184861F30F0423
:1006C0000C30006860F31F4414483C3000687268C6
:1006D00060F30F073946204690470E484FF4847266
:1006E000083041460368002B10D0D1F8041311F0F4
:1006F000040F0BD0056000680090204662F30F00E5
:10070000726801B03946BDE8F0431047BDE8F88390
:100710000020014000210140180000200C2501406C
:10072000F0B598480023021D01780125101D4FF0F7
:100730008056062907D11478240704D10478C4F31D
:100740000314032C02D0062904D00FE08F4F8E4CE7
:100750007C670EE01478240708D10478C4F30314EE
:10076000032C06D0042C04D0052C02D0062907D077
:100770000EE0D6F84442864FC4F342343C6002E0B7
:100780001478240704D10478C4F30314032C02D092
:10079000062906D011E07F4C276827F08077276074
:1007A0000EE01478240708D10478C4F30314032C52
:1007B00006D0042C04D0052C02D006290AD011E062
:1007C0004FF08044C4F80C31C4F81031704C241F31
:1007D000236002E01478240704D10478C4F30314DE
:1007E000032C02D0062905D00CE0694F032464379E
:1007F0003C600AE01478240704D10478C4F303149D
:10080000032C02D006290DD014E0634F05243C6070
:10081000614C78342560604C083423603F243F1DD0
:100820003C6002E01478240704D10478C4F3031474
:10083000052C02D0062957D068E058490968584A63
:1008400011605649091D0968121D1160534908318C
:100850000968121D116051490C310968121D11609F
:100860004E4910310968121D11604C491431096854
:10087000121D1160494918310968494A2032116036
:1008800046491C310968121D11604449203109682C
:10089000121D1160414924310968121D11603F4940
:1008A00028310968121D11603C492C310968121D5C
:1008B00011603A4930310968394A4032116037498C
:1008C00034310968121D1160344938310968121D2C
:1008D000116032493C310968121D11602F494031C5
:1008E0000968121D116002E0117809070ED1007825
:1008F000C0F30310032803D0042801D0052805D134
:10090000D6F85802274900F04F0008602148743893
:10091000016841F470010160BFF34F8FBFF36F8F27
:100920004FF01021D1F80002002803DBD1F80402B7
:10093000002822DA1C4A15601C480468002CFCD0F0
:100940001524C1F800420568002DFCD0C1F804420E
:1009500001680029FCD0136001680029FCD0BFF3B6
:100960004F8F0C48F0380168114A01F4E0611143DF
:100970000160BFF34F8F00BFFDE70F490D480860CE
:10098000F0BD0000E00F00F00DF0ADBA00C0074070
:100990003C050040FCED00E010560040040400104F
:1009A00020C50040E40E004004E5014000E40140A1
:1009B0000400FA050090D003340000200448017FB1
:1009C00004480029024901D001F03FBC01F0AEBB50
:1009D00080000020002000400FB4084B10B504A98F
:1009E00002AA039800F01CF8044602A9002000F0B7
:1009F00048FA204610BC5DF814FB0000830E00008E
:100A000002E008C8121F08C1002AFAD170477047D7
:100A1000002001E001C1121F002AFBD17047000035
:100A20002DE9FF4F8DB00F460546002606E025282C
:100A30000BD0DDE90F1290476D1C761C287800283A
:100A4000F5D111B03046BDE8F08F0024A246A14692
:100A50000122EC4900E0044315F8013F203B02FA73
:100A600003F00842F7D128782A2810D06FF02F021F
:100A70002878A0F13001092914D80AEB8A0102EB89
:100A8000410144F0020400EB010A6D1CF0E701CFC4
:100A90005FEA000A03D544F40054CAF1000A44F0A6
:100AA00002046D1C28782E2817D115F8010F44F088
:100AB00004042A280ED06FF02F022878A0F130010C
:100AC00009290AD809EB890102EB410100EB010970
:100AD0006D1CF2E757F8049B6D1C28786C280FD02A
:100AE00006DC4C2817D068280DD06A2814D104E001
:100AF000742810D07A280FD10DE044F400140AE0D5
:100B000044F4801401E044F440146978814202D135
:100B100004F580146D1C6D1C2A786E2A1FD00CDC25
:100B2000632A31D004DC002A8BD0582A11D1A3E0EB
:100B3000642A68D0692A0CD165E0732A2ED004DCBF
:100B40006F2A73D0702A04D19BE0752A6FD0782A5F
:100B50006ED01046DDE90F129047761C50E1C4F3C9
:100B60000250022806D0032809D0042801CF09D05A
:100B7000066045E101CFF117C0E9006140E101CF16
:100B800006803DE106703BE117F8040B8DF800008C
:100B900000208DF80100EB46012003E057F804BB6C
:100BA0004FF0FF3061074FF0000102D40DE008F173
:100BB0000101884649450FDA8045F8DB1BF808102B
:100BC0000029F4D108E008F1010188468142FADBEE
:100BD0001BF808100029F6D1DDE90F23AAEB080065
:100BE0008146214600F036F9304400EB080604E067
:100BF000DDE90F121BF8010B9047B8F10108F7D29D
:100C000021464846F7E00A21C4F302534FF0000B97
:100C10000891022B04D001CFC117032B09D00AE0A1
:100C2000FF1D27F00707F7E8020108E032E01FE0A8
:100C300020E000B2C117042B01D140B2C117031E3E
:100C400071F1000307DA4FF0000CD0EB0C006CEBF5
:100C500001012D2302E0230504D52B238DF8243038
:100C6000012303E0E30701D02023F7E7984658E08B
:100C70000A2110E010210EE010204FF0000B089028
:100C80000CE010214FF0000B44F004044FF0080971
:100C9000089103E008214FF0000B0891C4F30253C0
:100CA000022B04D001CF0021032B06D006E0FF1D4C
:100CB00027F00707F7E8020103E080B2042B00D118
:100CC000C0B24FF0000823072BD5702A07D0DDF8FB
:100CD00020C08CF0100C5CEA0B0C05D00EE0402319
:100CE0008DF82430012308E050EA010306D03023B8
:100CF0008DF824308DF8252002239846DDF820C099
:100D00008CF0080C5CEA0B0C0BD150EA010301D10A
:100D1000630706D530238DF824304FF00108A9F180
:100D20000109582A04D038A20B9208AA0A920BE0B3
:100D30003AA2F9E75B46089AFFF797FB0B9B9B5C8F
:100D40000A9A521E0A92137050EA0102F2D10A98CE
:100D5000ADEB000000F1200B600702D524F48034D5
:100D600001E04FF00109D94502DDA9EB0B0000E0DD
:100D7000002000EB0B0141440890AAEB010AE003BC
:100D800006D4DDE90F232146504600F063F80644FF
:100D90004FF0000908E009A911F80900DDE90F1278
:100DA000904709F10109761CC145F4DBE0030CD53D
:100DB000DDE90F232146504600F04CF8064404E0DC
:100DC000DDE90F1230209047761C0899481E0890E4
:100DD0000029F5DC08E00A980A990078491C0A9174
:100DE000DDE90F129047761CBBF10001ABF1010B5E
:100DF000F1DC21465046DDE90F2300F019F80644E6
:100E00006D1C1BE60928010030313233343536378A
:100E10003839616263646566000000003031323346
:100E200034353637383941424344454600000000E6
:100E30002DE9F041044600251E461746880404D4D7
:100E400005E039462020B0476D1C641EF9D52846C0
:100E5000BDE8F0812DE9F041044600251E4690468C
:100E6000C80301D5302700E02027880404D505E019
:100E700041463846B0476D1C641EF9D52846BDE88A
:100E8000F0810A68531C0B60107070470BA10120A1
:100E900000F084FF00F0DCFE00F0DEFE0028FBD155
:100EA000BFF34F8F0B4801680B4A01F4E061114317
:100EB0000160BFF34F8F00BFFDE700004150505F5E
:100EC0004552524F523A4552524F523A466174611E
:100ED0006C0D0A000CED00E00400FA050EB50021CF
:100EE0000091CDE901106A4644F20100FFF7CEFF00
:100EF0000EBD00F003B800F009B8000072B6024859
:100F00000168491C016070472000002003490868FF
:100F1000401E086000D162B670470000200000202B
:100F20002DE9F04105460878214F012606FA00F028
:100F30000C463860086800F016FD0021606800F07B
:100F400009FD28791B4901EB4010A169007F0028A9
:100F50002868C0F8241519D0607D217D2A680843CF
:100F6000C2F86C0518E00021A06800F0F3FC207BBB
:100F700086403E60E06800F0F6FCD4E90212286882
:100F8000C0F80825C0F81015BDE8F081607D227D0D
:100F900029681043C1F86C05D4E900122868C0F82C
:100FA0000C15C0F81425207D0128DCD0ECE70000EA
:100FB0000805005080000020002901DA0020704759
:100FC0000268114401600120704700002DE9F041E2
:100FD000461C01250020FFF78CFF1149741CD1E944
:100FE00000208F68101A3B1A5B1C9C420FD963B11A
:100FF0000C480D4B3A4000681B6801EB820263F31A
:101000009F20D0600868401C0860002501E090190E
:1010100008600020FFF76FFF2846BDE8F081000060
:10102000A00100208423000030000020034803C8F2
:10103000814201D10120704700207047A0010020AB
:1010400005494FF0FF32082841F8202002D3084418
:1010500080F83C207047000038000020F0B54FF0C9
:10106000FF3512B10023082601E0082309260C4CA5
:1010700005E000BF54F823707F1C04D05B1CB34212
:10108000F8D32846F0BD26185DB286F8245044F8FF
:101090002310002AF5D1E11881F83C00F1E70000A7
:1010A000380000200249084490F9240070470000ED
:1010B0003800002070B5124D041E03DD687828B199
:1010C000641E03E002DA687800B1641C686838B115
:1010D0006A680CA1012000F087FE0020FFF7FEFEE9
:1010E000A868A04208D0AB68224616A1012000F0F3
:1010F000A9FE0020FFF7F2FE0020687070BD00001E
:10110000000000204150503A4552524F523A6D5F14
:1011100061636364626C72656164207761732065EA
:101120007870656374656420746F206861766520EB
:1011300076616C7565203020627574206973202596
:10114000750D0A004150503A4552524F523A6D5F68
:10115000616363726561642073686F756C6420629B
:1011600065202564206275742069732025640D0A4A
:101170000000000010B51E4C6068002806DD607895
:1011800020B16068401E60601A4813E06068002863
:1011900007DA607828B16068401C60601548001D5F
:1011A00008E0A06850B1607840B1A068401EA0601F
:1011B000104808302178405C207001E00020607009
:1011C0002078C0074FF01E0002D000F01DFA01E0A9
:1011D00000F0B6F9207880074FF01F0003D5BDE876
:1011E000104000F011BABDE8104000F0A9B90000AD
:1011F0000C0000203C23000070B50E460446007928
:1012000018494FF4A27501EB4010017F2068A1B18D
:101210004FF4887100F07CFE4FF49071206800F06C
:1012200077FE4FF49271206800F072FE2946206824
:1012300000F06EFE0C49206809E04FF48E7100F05A
:1012400056FE2946206800F052FE08492068C0F882
:101250000413206800F08BF83146BDE8704000F0C0
:101260006AB8000080000020100302008000020025
:101270002DE9F04702240125002000F021FE08B1ED
:10128000FFF72CFE1A49002000F0E6F908B1FFF73D
:1012900025FE18484FF00A080068C0B200F090FE22
:1012A00015A1032000F07AFD1B4E4FF0000900BF8E
:1012B00005FB04F7384600F0ADFE00F0BDF900E094
:1012C00020BF30780028FBD014A1132000F066FD69
:1012D00086F800903846FFF7EDFE641C4445E7D9D8
:1012E00001246D4200F0B8FC0028FBD1E0E70000CB
:1012F000A11F0000042501404150503A494E464F7D
:101300003A514445432074657374696E6720737461
:1013100061727465640D0A00000000202A0000005C
:1013200000F01F02012191404009800000F1E020FF
:10133000C0F8801170474907090E002806DA00F04E
:101340000F0202F1E02282F8141D03E000F1E02216
:1013500082F8001400F01F02012191404009800032
:1013600000F1E020C0F88012C0F800117047000BB7
:1013700040B270472DE9F0478846814600F0CEFD27
:101380000124224E0028484618D0FFF78BFE304437
:1013900090F83C008009032802D0012806D007E01D
:1013A0001B48006804FA09F4204201D1022100E040
:1013B00003214846BDE8F04700F0DFBA00F0BAFD6F
:1013C000002820D04846FFF76DFE0546114F4FF428
:1013D000807007EB850100EB8500D1F8102580B205
:1013E00042F00102C1F8102500F0D6FAB8F1000F62
:1013F00009D04846FFF756FE56F82000002802D0D4
:10140000AC40C7F80443BDE8F08700003800002076
:1014100010050050006000402DE9FC41DFF8A48079
:10142000044608EB0400002790F924001346C01777
:101430000E46401C01D0082740E0F27819462046AD
:10144000FFF70CFE0546401C37D0B07848B1A0002D
:1014500000F1A040D0F8001721F00201C0F80017F9
:1014600007E000217378204600910A46019100F0C0
:101470003DFAF078C0B11448317800EB8500D0F81F
:101480001025124B1A40C0F810254FF4F8524FF4B3
:10149000403302EA042203EA01410A43D0F810155E
:1014A0000A43C0F8102509E008EB0500327810F86F
:1014B0003C1F41EA8211017000E004273846BDE874
:1014C000FC8100003800002000600040FFE0FCFFCD
:1014D00070B5144D95F8450008B1082070BD002086
:1014E000411E2A18401CC0B282F824102028F8D3CC
:1014F00000242046FFF7A4FD641CE4B2092CF8D3B5
:1015000006210846FFF717FF4FF4BE7000F044FABB
:1015100005494FF00040C1F80403012085F845005B
:10152000002070BD3800002000600040034890F8A3
:101530004500002800D0012070470000380000203E
:101540000121814001480160704700000C050050F6
:101550002DE9FC41044628480D462044002690F918
:101560002410491C01D008263FE0A978002751B378
:10157000012200212046FFF771FD411C21D083008C
:101580001E482A7818446978D0F81035DFF870C002
:1015900003EA0C03C0F81035D0F810354FF4F85CAE
:1015A0000CEA042C43EA0C034FF4403C0CEA0242E0
:1015B0004FF4801C0CEA01510A431343C0F8103564
:1015C00004E0042611E0FE2180F82410697801204F
:1015D000A04001290CD00B49086001222046009749
:1015E00000231146019700F081F93046BDE8FC81E7
:1015F0000449091FF0E700003800002000600040A7
:10160000FFE0ECFF0C050050012181400148016022
:101610007047000008050050044901200860044A92
:101620000021116003490870704700000420014048
:1016300000250140180000200449012008600449E9
:10164000086004490220087070470000002501402E
:10165000002001401800002070B5294D044628786C
:1016600008B1082070BD04B9264C79B369602649D9
:10167000607808600021E06800F063F9002160688C
:1016800000F05FF90021A06800F05BF91E4BD4E97F
:1016900001211833E0681A601A1D1160191F0860D3
:1016A00019492069383108601749207D091F0860F1
:1016B0001649D1F8000240F00100C1F800021248BA
:1016C000627D2030012622B1066004E0FFE707209A
:1016D00070BD0022026022780420082A03D00A4844
:1016E000083002600620A27D0AB140F00100C1F876
:1016F0000403E17D1220FFF71EFE2E70002070BD56
:10170000180000204C230000082501400020014063
:101710002DE9F04105460079164F904607EB40143D
:101720000E46E07E10B10820BDE8F081707F207782
:101730002846FFF7F5FB5FEA080060603169216029
:1017400003D0317F2846FFF757FD287907EB40107B
:10175000007F0028286801D0082100E00421C0F89B
:1017600000150020E0752076A0750121E176A076B5
:10177000DAE70000800000202DE9F04705460079F7
:101780003E4C0E4604EB4013187F38B14FF4005026
:10179000B0EB164F02D01020BDE8F087284600F0CD
:1017A0006FF808B11120F7E79A7500279E609F82B5
:1017B00028794FF0010804EB40143E46207F0028B2
:1017C000286825D04FF49079494600F0A1FB4FF4EA
:1017D000AC7A5146286800F09BFB2868A17DA2687E
:1017E000C0F84425C0F848152868C0F8088060682B
:1017F000F0B94946286800F086FB804651462868C3
:1018000000F081FB58EA0001F3D058BBA7750FE048
:101810004FF48E7A514600F06AFB2868C0F80880C1
:101820002146286800F05CFC61684FF4807089B143
:101830003046B1E75146286800F054FB10B9A08A41
:101840004845F7D1A08A484505D02146286800F0D0
:1018500047FC00E08146A08AA17D8842EAD3A08AA5
:10186000484501D10F26D1E75146286800F03AFBE0
:101870000028F9D02868C0F80C80C7E78000002055
:101880000079044901EB4010807D002800D0012040
:10189000704700008000002070B5044600791149AF
:1018A000002601EB401520682A7FC0F800656868B3
:1018B00088B1207901EB4010007F0028206801D01A
:1018C000094901E008498C39C0F808132068FFF77E
:1018D0004EFDFFF725FD204600F038FBEE766E60EA
:1018E00070BD0000800000201003020030B541EA06
:1018F0004201DDE9034541EA8301800041EA042118
:1019000000F1A04041EA0541C0F8001730BD30B5F4
:1019100041EA4201DDE9034541EA8301800041EAF1
:10192000042100F1A04041EA0541C0F8001730BD94
:101930001CB5002100910B4601220191FFF7E7FF42
:101940001CBD0022800000F1A04042EA8101C0F8E5
:10195000001770471CB500220B46009211460192F9
:10196000FFF7D5FF1CBD1CB5002100910B460122DD
:1019700001911146FFF7CBFF1CBD800000F5E06030
:1019800000F1A040026822F440320260026842EA9C
:101990000141016070470000034908B50844002177
:1019A00001600068009008BD006000400249405896
:1019B000012800D0002070470060004000487047B8
:1019C000351A000030B5184C054689B0207828B18A
:1019D0006078854202D1002009B030BD2022134931
:1019E0006846FEF729FD00208DF8140006200090BF
:1019F0000820019005200390072002904FF0EB7023
:101A000006900948001DFFF747FF0DB1002200E0D6
:101A1000074A05486946001DFFF77AFE0028DBD11A
:101A2000012020706570D6E72400002064230000A8
:101A30001D2100002DE9F04FC1B00D00DDF82CB1E3
:101A40004D984FF000011C4690460BEB000A409168
:101A500001D00A2600E0002600F00EFB002873D11A
:101A60006F46BCB9409840AA3918284600F020FBC0
:101A7000002869D04046FEF7F1FCC22800D9C220F8
:101A8000054640982A4638444146FEF7D5FC409822
:101A9000284440904FF020094098821931320DEBD4
:101AA00002016844002202E000F8019B521CB2428D
:101AB000FAD30027544508D300F8019B00F8019B96
:101AC00000F8019B01F8019B26E05C4502D24A9A8E
:101AD000125D03E04C9AA4EB0B03D25C8446012513
:101AE000AB0022FA03F808F00F03092B01D93733B2
:101AF00000E03033C5F101086D1E0CF80830EFD25C
:101B00000CF10200A2F1200300F8019B5E2B00D92A
:101B10002E2201F8012B641C7F1C102FCAD30D222A
:101B20000A700A224A7080F8009040988119433167
:101B30006846409100F0A6FA30B100F09DFA18B95D
:101B4000002040905445A7D341B02046BDE8F08F17
:101B50002DE9F043C5B000251C46904689464C9FB0
:101B6000449500F089FAB0BB449804AE311844AAF9
:101B7000484600F09DFA00282ED0072F22D2DFE839
:101B800007F00412192E384451004046FEF766FC57
:101B9000054644982918FF2914D830442A4641465E
:101BA000FEF74AFC0EE04498226830444146FEF7B6
:101BB00013FF06E0D4E90023449841463044FEF781
:101BC0000BFF0546294644A8FFF7F6F918B14499DA
:101BD000B1F5807F33D9002045B0BDE8F083A0681F
:101BE0000090D4E90023449841463044FEF7F4FEC7
:101BF000E7E7D4E90201CDE90001D4E900234498E4
:101C000041463044FEF7E8FEDBE704F1080007C870
:101C10008DE80700D4E90023449841463044FEF79C
:101C2000DBFECEE704F108000FC88DE80F00D4E911
:101C30000023449841463044FEF7CEFEC1E704A895
:101C400000F020FAC8E7000000487047511B000070
:101C50000120FFF7B7BE00002DE9F04F87B0FFF776
:101C6000E5F918B1002007B0BDE8F08F454ED6E980
:101C7000014704EA070006EB8000A146641CC56822
:101C80000CE000BFC5F3891000EB9550044404EA52
:101C9000070006EB8000A146C568641CA807F1D0C8
:101CA00005F003004FF0000B022805D0AA0A01A896
:101CB000C5F38313002153E004EA070006EB80001C
:101CC00004F1010A0AEA0704C268381B80004FEADF
:101CD0009558001DC5F38913804521D929490C3138
:101CE00038B106EB840400F0FF0CA8EB00000C34C4
:101CF00004E00C46002108F0FF0C0846C0B2CDE914
:101D00000210CDE9004CD6F81444C5F3C200594680
:101D1000A047404511D108F103080AEB98042AE0D6
:101D2000002106EB84000C300090CDE90181039185
:101D3000C5F3C200D6F81444EAE760F38F1509EA48
:101D4000070006EB8000C56016E000BF04EA070C40
:101D500006EB8C0C491CDCF80CC040F804CB641C6E
:101D60009942F3D3C5F3C2000093D6F8105401ABE7
:101D70005946A84700B17460FFF758F980F0010098
:101D800071E70000A0010020034AFF2393600023B5
:101D90001360536000F08CB8A00100202DE9F047DB
:101DA000DFF83C800446002689463046D8F80870A3
:101DB000D8F80050FFF70AF900280ED00948002192
:101DC0003D40406861F3820064F3C50066F389100A
:101DD00008EB850169F39F20C860BDE8F08700002B
:101DE000A0010020842300002DE9F047DFF84C809B
:101DF00005460127924689463846D8F80860D8F843
:101E00000040FFF7E3F8002815D00D48002104EA50
:101E100006028068641C61F3820065F3C50067F305
:101E2000891008EB8202344069F39F2008EB84019B
:101E3000D060C1F80CA0BDE8F0870000A001002030
:101E4000842300002DE9F05FDFF85C80064602275E
:101E50009B46924689463846D8F80850D8F8004044
:101E6000FFF7B4F800281CD01048002104EA05024E
:101E7000C06808EB820261F3820066F3C50067F375
:101E8000891069F39F20641CD06004EA0502641C79
:101E900008EB82022C4008EB8401C2F80CA0C1F8C8
:101EA0000CB0BDE8F09F0000A001002084230000DA
:101EB000024A02F5826203C270470000A0010020BE
:101EC00070B506460020FFF77DFD040008D1FFF73E
:101ED00075FD0546FFF7B8FE32462946FFF754FF69
:101EE000204670BD4058002800D00120704708B53A
:101EF000002242504058009008BDD0F8040308402A
:101F000000D0012070474058002800D001207047C1
:101F100008B5002242504058009008BD04490844CA
:101F200090F92400082801DB012070470020704749
:101F3000380000200449084490F92400082801D200
:101F400001207047002070473800002070B502461D
:101F50004FF0FF301168D1F80C35D1F81465D1F885
:101F60000855D1F81045C1F80C05C1F814051168E1
:101F7000C1F80805C1F810051846FFF7D9FC30462E
:101F8000FFF7D6FC601C02D02046FFF7D1FC681C8E
:101F900004D02846BDE87040FFF7CABC70BD000001
:101FA00082B2B2F5827F08D18AB204494A60001435
:101FB000886001200870FFF72FBB704700000020E9
:101FC0001CB504461148C068009000200190032011
:101FD0008DF80100FFF7AAFA08B9FFF779FA14B9EA
:101FE00002208DF800000A4A69461D20FFF714FA06
:101FF00001211D20FFF7BEF901A91F20FFF7A8FA54
:1020000001A91E20FFF7A4FA1CBD00003C2300001C
:1020100075110000002100F001B80000024A506074
:1020200091600120507070470C00002070B505468B
:10203000C87D0C4600284FF4847128460AD0FFF76B
:1020400056FFD5F81805627EE1688854607E401C12
:10205000607670BDFFF74BFFD5F8180570BD1FB552
:1020600001238DF800308DF808100192D0E900129C
:10207000684690471FBD00000148FFF701BC000003
:102080002800002070B50D460A4601460124064886
:10209000FEF7D2F9EAB204490448FFF76DFB00B13C
:1020A0000024204670BD0000A00000202800002071
:1020B00010B5144602004FF001000AD0084612681D
:1020C00005A1FEF789FC01462046BDE81040FEF759
:1020D00073BF0021216010BD5B253038645D0000B6
:1020E00070B50C4605464FF48E71FFF700FFA18ACC
:1020F000A068415CA08A401CA082C5F81C1570BD78
:102100001FB500228DF800208DF80810816801911C
:102110008275D0E90012684690471FBD00780128FB
:1021200001D1014988707047240000202DE9FF4744
:102130000C4605464FF40071FFF7DFFE01274FF410
:102140000178002618B34FF4927949462846FFF7E4
:10215000C9FEE0B149462846FFF7C9FEC5F8088325
:10216000A07E00B96F6002208DF80000D5F88004D1
:10217000C5F880040390E07D8DF80800E0680190C8
:10218000E6752676D4E900126846904727E00421D8
:102190002846FFF7B2FE10B34FF484712846FFF7CC
:1021A000A1FEE0B121462846FFF740FFE07D617EB9
:1021B000884214D1207E38B1617EE268E0752069E2
:1021C000E0602676667607E0A07E00B96F60C5F80D
:1021D0000883E675617EE2682046FFF740FF4FF412
:1021E0008E7841462846FFF77DFE88B1A08AA17D02
:1021F000884204D221462846FFF772FF08E0414694
:102200002846FFF774FEA17D11B12046FFF778FF45
:102210004FF4A27841462846FFF764FE002812D00A
:1022200041462846FFF763FEA07E00B12F60E07DA7
:10223000002808D0E675617EE26804B02046BDE85B
:10224000F047FFF70CBFBDE8FF872DE9FF410C46C3
:102250004FF4927705463946FFF755FE0026C0B188
:1022600039462846FFF754FE02208DF80000D5F8C5
:102270008004C5F880040390D5F83C058DF808006B
:10228000E0680190E6752676D4E90012684690472A
:1022900024E04FF4887739462846FFF734FEE8B14A
:1022A00039462846FFF734FED5F83C05C1B2E07D3B
:1022B000884213D1207E60B1E268D5F8000220F098
:1022C0002000C5F80002207EE0752069E0602676D7
:1022D00001E0E675E2682046FFF7C1FE4FF4A27701
:1022E00039462846FFF70FFE68B139462846FFF702
:1022F0000FFEE07D38B1E675D5F83C05E268C1B265
:102300002046FFF7ACFE4FF4907631462846FFF7A3
:10231000FAFD00280FD031462846FFF7F9FDA07DD1
:10232000002808D0D5F84C0504B0C1B22046BDE85D
:10233000F041FFF7E5BEBDE8FF81000001030002A8
:102340000200030103020100020000010007000077
:1023500003000000040000001C000000FF0100005A
:1023600001000006FFFFFFFFFFFFFFFFFFFFFFFF72
:10237000FFFFFFFF00000000000000000000D6018A
:10238000060100002900000001000000010000001B
:102390000100000001000000010000000100000039
:1023A00001000000020000004F766572666C6F77D6
:1023B0000D0A0000D42300000000002038000000B7
:1023C000000A00000C2400003800002080250000D6
:1023D000100A0000000100000000000000000000E2
:1023E00000000000000000000000000000000000ED
:1023F000000000000000000000000000002000407D
:0C24000000000000A82300000090D003A2
:0400000500000401F2
:00000001FF
