:020000040000FA
:10000000B80B0020D5000000EF000000F100000058
:1000100000000000000000000000000000000000E0
:10002000000000000000000000000000F3000000DD
:100030000000000000000000F5000000F7000000D4
:10004000F9000000F901000045030000F90000007C
:10005000F900000000000000F9000000F9000000B5
:10006000F9000000F9000000F9000000F9000000AC
:10007000F9000000F9000000F9000000F90000009C
:10008000F9000000F9000000F9000000F90000008C
:100090004D020000F9000000F9000000F900000026
:1000A000F9000000F900000000000000000000005E
:1000B0000000000000000000000000000000000040
:1000C0000348854600F046F8004800470D0500004B
:1000D000B80B00200321094802680A43026008485F
:1000E00002680A4302600748804707480047FEE766
:1000F000FEE7FEE7FEE7FEE7FEE70000240500401E
:1001000054050040A5020000C100000003460B4357
:100110009B0703D009E008C9121F08C0042AFAD2BD
:1001200003E00B780370401C491C521EF9D2704743
:10013000D2B201E00270401C491EFBD2704700227F
:10014000F6E710B513460A4604461946FFF7F0FFD6
:10015000204610BD064C0125064E05E0E36807CC9D
:100160002B430C3C98471034B442F7D3FFF7ACFF55
:10017000200E0000400E0000C106C90E012088407C
:10018000014908607047000080E100E0C106C90E27
:1001900001208840014908607047000000E100E04C
:1001A000C106C90E0120884001490860704700005F
:1001B00000E200E08307FF22DB0E9A408907090E68
:1001C000994000280BDA0007000F08388308084818
:1001D0009B001818C36993430B43C361704783089E
:1001E00004489B001B181868904308431860704728
:1001F00000ED00E000E400E0F8B5114C2068114E7D
:100200000027002803D07068C00700D02760E0688E
:100210000D4D002807D07068000704D5E760E86836
:10022000002800D080472069002807D07068C006E9
:1002300004D52761A868002800D08047F8BD0000D9
:100240000011004000130040000000207CB5144C59
:10025000206A01902078002820D00120FFF78CFF31
:100260006568002666600120FFF790FFA1690029FC
:1002700014D0E80702D0684606708847A80705D55D
:10028000012069460870A16968468847680705D556
:10029000022069460870A169684688477CBD000055
:1002A0000000002010B500F00DF9002805D01F490E
:1002B0001D484860C8131E4988611E48018CC9B298
:1002C00001290BD1828C120708D1028D1206120F60
:1002D000042A03D1828D1206120F0AD0012921D1DE
:1002E000818C09071ED1018D0906090F0A2904D046
:1002F00007E0114A01219160F5E7828D1206120F85
:1003000005D00D290ED1808D0006000F0AD10B48B3
:100310000168012904D00A49016001680129FCD162
:10032000C021416110BD0000DFFF07C00005004093
:10033000006C0040C00F00F00006004000EC0640DA
:100340007593000010B50249024800F02EFC10BD64
:10035000680000200020004002E008C8121F08C109
:10036000002AFAD170477047002001E001C1121F36
:10037000002AFBD1704710B500F002F800BA10BD9A
:100380000168094A08091140104009010843074A59
:1003900081081040114080000143054A480811407F
:1003A00010404900084370470F0F0F0F33333333AA
:1003B0005555555570B5FF200C4C143020600D4933
:1003C0000B480969C07C88470C490B4848600C48B9
:1003D000002101610B4B01221A610569002DFCD03F
:1003E0000161FF20183020605A6070BD001200408B
:1003F000840000200000002066030020001500405B
:10040000001100400010004004480021016001215B
:100410008205116001680029FCD07047000100408E
:1004200000B518A08BB00068089017A0006817A14D
:10043000099003C907910690182216496846FFF7EC
:1004400065FE08206946C87401200870087248706B
:100450001148019000200875684600F0E1F8002876
:100460000DD108A800F09CF9002808D109A800F0D7
:10047000AFF9002803D1082106A800F0C1F90BB09C
:1004800000BD0000E7E7E7E7C2C2C2C2E7C2C3C4DB
:10049000C5C6C7C8080E00009905000010B50020A9
:1004A0000121074B03220C468440E401240F02D0B3
:1004B0008400E4182260401C2028F4D310BD000002
:1004C000000700501048018CC9B2012917D1818C56
:1004D000090714D1018D09060A0F03D1828D120676
:1004E000120F0ED0090F012903D1828D1206120FAF
:1004F00007D0032903D1808D0006000F01D0002012
:100500007047012070470000C00F00F0FFF7C6FFE2
:10051000FFF77AFFFFF784FF002801D0872104E06E
:1005200000F094F9002802D08C2100F027F820BFB9
:10053000FDE7000010B50F200C49800288600C49CF
:100540000020487000F0AAFA24210A48FFF7F7FDBE
:10055000084809210A38FFF7F2FD1420FFF70CFEC6
:10056000054903200860002010BD000000F501408F
:10057000000000209203002000120040BFF34F8FC4
:1005800004490348C860BFF34F8F00BFFDE7000078
:100590000400FA0500ED00E010B5007800283BD01B
:1005A000012839D0022837D11C4800F0BDF80028B6
:1005B00032D11A4CA079410703D04007400F0428DC
:1005C00001D9012100E00021152000F081F9A07976
:1005D0004007400F012801D9052801D9012100E079
:1005E0000021162000F074F9A0794007400F02287E
:1005F00001D9062801D9012100E00021172000F0CF
:1006000067F9A0794007400F032801D8012100E0D5
:100610000021182000F05CF910BD0000400000200F
:1006200070B5050068D0354C2078002803D0FFF75E
:1006300081FF00285FD16868A061182229463048F0
:10064000FFF764FD0025656024212E48FFF777FD44
:100650002C4809210A38FFF772FD00F05DFB00F01D
:100660001DFA27490020284A1831252343438600D4
:100670005B18401C93510828F7DB2349214A0020CE
:100680002C317A3A2523434386005B18401C935152
:100690000828F7DB1D480421016185601D491C48BD
:1006A00008601E481C4901621D4941621A49091D22
:1006B00081621B49091DC1621649C039016316498F
:1006C000F03941631349BC3981631649C1630C4E4B
:1006D000707C8107890F0120FFF76CFDB07C8107DA
:1006E000890F1420FFF766FD1420FFF74FFD65709A
:1006F00001202070002070BD0E2070BD0000002081
:100700008400002092030020C401002000A50040C6
:100710000202000000A200400011004040F501402C
:1007200000A000400010004070B505461A4800784F
:1007300000282AD0002D2AD0184CA06A002828D0E2
:100740000120FFF719FD606A800021580A782A709D
:1007500021584978697021588978A97021580979F8
:1007600029712158681D491DFFF7D0FC606A401CA3
:100770006062082801D300206062A06A401EA06267
:100780000120FFF703FD002070BD082070BD0E2082
:1007900070BD052070BD000000000020180300207F
:1007A00010B50A494978002901D0112010BD002850
:1007B0000AD00146054804222830FFF7A7FC012093
:1007C00000F088FA002010BD0E2010BD00000020AF
:1007D00010B50A494978002901D0112010BD002820
:1007E0000AD00146054804222C30FFF78FFC022076
:1007F00000F070FA002010BD0E2010BD0000002097
:1008000010B50C4610494978002901D0112010BDBF
:10081000002803D0092C03D3072010BD0E2010BDE3
:100820000146094822463030FFF770FC064808218F
:1008300028300A1BFF210474D1408174042000F089
:1008400049FA002010BD00000000002070B51748D4
:100850004178002901D0112070BD00221449D243F3
:100860008A60144D00242C61134A8260FF22134BCE
:1008700018321A6010224A60042141700B49104856
:1008800028318A7C0263C97C81600E49416001265F
:100890000D49022008603046FFF778FC6C60AC60C0
:1008A0002C610A484660002070BD00000000002056
:1008B0000013004000110040050900000012004034
:1008C000001500406603002080E200E000100040B8
:1008D000012282400348002901D082607047C26033
:1008E00070470000000500504058002800D001204B
:1008F00070470322120280184068084000D001208F
:1009000070470000F8B54E4900200A680127002A08
:1009100003D04C4A926A082A02D3FFF74BFDF8BD78
:100920008A68484B92007A33CC68D6182C3B5A78A8
:1009300035885208AC4204D1B478A24201D10120DA
:1009400000273F49B270C96831803F493F4C0A7D5A
:10095000002A07D03B4A4E325278D20702D0FFF726
:1009600029FD52E0FF223A4B1C321A600A783749BF
:10097000344D09692C35002A59D0012A3CD1354A19
:10098000936A9E46002B2ED0526A94469300314AB9
:10099000D25853782A4A9268934224D1F27801239C
:1009A000012A0FD100280DD162462A48521C42620A
:1009B000082A01D3002242627246521E8262606897
:1009C000184360602348F370426A92008058606167
:1009D000007888476169087828700A78A81C491D42
:1009E000FFF794FB04E00020F07088470020287097
:1009F00014484E3040786870052060701048816857
:100A00001548C16245601548A060002F87D00C488A
:100A1000B1788068C0B200F06DF80028F6D0606848
:100A20000421084360601420FFF7BAFBF8BD0020E2
:100A3000884704484E30007828700020DBE700002B
:100A40000014004018030020840000200000002053
:100A500000120040C401002000150040610A00009F
:100A600010B5FF20074918300860084C0648216976
:100A7000C07C88470749064848600748A0600420B2
:100A8000607010BD001200408400002000000020B3
:100A900066030020001500400509000005490020FC
:100AA000086248628862FF31553108624862886294
:100AB00070470000C401002030B5FF220523CD7D22
:100AC000002409321B02C318002D8450986905D0F8
:100AD0004B7ECA68D054487E401C487630BD1FB556
:100AE00001246B461C701972019206C86846904733
:100AF0001FBD0000F8B51C4C0746A06A0E4608282A
:100B000030D21A4A2046006A137821464E31002519
:100B10008000012B04D05378002B07D0D27C02E058
:100B20000A78202A1ED823581A7001E0225815701E
:100B30002058891C0278401DFFF7E8FA206A8100DE
:100B4000625857700A4A92686358401C9A706158FC
:100B500008280E71206200D32562A06A401CA062A2
:100B60000120F8BD0020F8BD1803002084000020FB
:100B700040150040FF221D32002383508B8A8A6873
:100B8000D25C8B8A5B1C8B82052109024018C261F2
:100B900070471FB500226B461A7019728168019167
:100BA000827506C8684690471FBDF0B50C46012106
:100BB00085B005464902FFF79CFE032109026F1824
:100BC0000026002826D0FF2125312846FFF78CFE7D
:100BD00000281FD0FF2025302E5081208000B860D3
:100BE000A07E002801D101206860022168460170C2
:100BF0000920C0012918086808600390E17D684653
:100C00000172E0680190E675267606CC6846083CDD
:100C100090472DE004212846FFF76BFE002827D0DF
:100C2000FF2109312846FFF75FFE002820D021462A
:100C30002846FFF741FFE07D617E884218D1207E83
:100C4000002807D0617EE268E0752069E0602676C2
:100C500066760AE0A07E002801D10120686081202C
:100C60008000B860E675617EE2682046FFF737FFD6
:100C7000FF271D3739462846FFF736FE00280FD0DC
:100C8000A08AA17D884204D221462846FFF772FF40
:100C900006E0EE51A17D002902D02046FFF779FF42
:100CA000FF27453739462846FFF71EFE00280ED09D
:100CB000EE51A07E002801D001202860E07D0028B0
:100CC00005D0E675617EE2682046FFF708FF05B0B3
:100CD000F0BD000070B504460D4DC00703D00D48AF
:100CE000FFF749FBE861A00704D50A48001DFFF79C
:100CF00042FB2862600709D506480830FFF740FB31
:100D0000686204480C30FFF73BFBA86270BD00002E
:100D1000001500402800002010B500F041F81949E6
:100D200019480B7A03614024184A002B0BD0012B81
:100D300004D0022B04D0032B06D104E0302300E0C2
:100D4000FA23536200E054620B78002B03D0012B8E
:100D500003D10F4B00E00F4B13614B7A4363022B1F
:100D600002D0012B04D008E00B4BC3630B4B03E014
:100D7000FF23C363FF2308338363C87C116988475B
:100D800010BD00008400002000150040000000207D
:100D9000E10D0000B50D0000FFFF00002110010073
:100DA00002480349807AC860704700008400002030
:100DB000001500400849074A4A61084A0302527C6C
:100DC000521E12041A4302430120000602438A61A4
:100DD00070470000000101000015004028000020BD
:100DE0000648054941610649064A497C491E0904ED
:100DF00011438161704700000600030000150040A8
:100E00002800002020000001010000000000000078
:100E100001020000FA0003000001022000000000AF
:100E2000400E0000000000204000000058030000B9
:100E3000800E000040000020780B000068030000D6
:100E400000000000000000000000000000000000A2
:100E50000000000000000000000000000000000092
:100E60000000000000000000E7E7E7E7C2C2C2C2DE
:100E7000E7C2C3C4C5C6C7C80805FF020024F40002
:04000005000000C136
:00000001FF
