:020000040000FA
:1000000008210020150400001D0400001F0400004A
:10001000210400002304000025040000000000006B
:1000200000000000000000000000000027040000A5
:1000300029040000000000002B0400002D04000033
:10004000E50400002F0400002F0400002F0400002E
:100050002F0400002F0400002F0400002F040000D4
:100060002F0400002F0400002F0400002F040000C4
:100070002F0400002F0400002F0400002F040000B4
:100080002F0400003D0500002F0400002F04000095
:10009000610500002F0400002F0400002F04000061
:1000A0002F0400002F0400002F0400002F04000084
:1000B0002F0400002F0400000000000000000000DA
:1000C0002F0400002F0400002F0400002F04000064
:1000D0002F0400002F0400002F0400000000000087
:1000E0000000000000000000000000000000000010
:1000F0000000000000000000000000000000000000
:1001000000000000000000000000000000000000EF
:1001100000000000000000000000000000000000DF
:10040000DFF80CD000F02AF800480047E50D0000A6
:10041000082100200648804706480047FEE7FEE71F
:10042000FEE7FEE7FEE7FEE7FEE7FEE7FEE7FEE7A4
:100430006505000001040000D2B201E000F8012BC4
:10044000491EFBD270470022F6E710B513460A4654
:1004500004461946FFF7F0FF204610BD064C074D35
:1004600006E0E06840F0010394E807009847103484
:10047000AC42F6D3FFF7C8FF0412000024120000BC
:1004800000F01F02012191404009800000F1E020AE
:10049000C0F88012704700F01F020121914040090E
:1004A000800000F1E020C0F80011704700F01F024A
:1004B000012191404009800000F1E020C0F80012C5
:1004C00070474907090E002806DA00F00F0000F116
:1004D000E02080F8141D704700F1E02080F800143F
:1004E000704700002DE9F0414FF48077384600F066
:1004F000A3FC0124104EA50748B1384600F0A3FC28
:100500000120C5F808037470002000F047FA4FF48A
:100510008277384600F090FC00280BD0384600F077
:1005200092FC0220C5F80803B470BDE8F041012038
:1005300000F034BABDE8F0818C00002007480021AB
:10054000C0F84011C0F84411C0F84811C0F84C116F
:10055000C0F80011C0F8041100F0F0BD0010014017
:1005600000F088BDF0B598480023021D01780125F0
:10057000101D4FF08056062907D11478240704D1A6
:100580000478C4F30314032C02D0062904D00FE02E
:100590008F4F8E4C7C670EE01478240708D10478C6
:1005A000C4F30314032C06D0042C04D0052C02D071
:1005B000062907D00EE0D6F84442864FC4F34234F1
:1005C0003C6002E01478240704D10478C4F30314D7
:1005D000032C02D0062906D011E07F4C276827F0B3
:1005E000807727600EE01478240708D10478C4F3DC
:1005F0000314032C06D0042C04D0052C02D00629A9
:100600000AD011E04FF08044C4F80C31C4F8103126
:10061000704C241F236002E01478240704D104786E
:10062000C4F30314032C02D0062905D00CE0694F53
:10063000032464373C600AE01478240704D104786A
:10064000C4F30314032C02D006290DD014E0634F29
:1006500005243C60614C78342560604C083423608C
:100660003F243F1D3C6002E01478240704D1047845
:10067000C4F30314052C02D0062957D068E058496A
:100680000968584A11605649091D0968121D116010
:10069000534908310968121D116051490C3109682C
:1006A000121D11604E4910310968121D11604C492C
:1006B00014310968121D1160494918310968494A05
:1006C0002032116046491C310968121D11604449ED
:1006D00020310968121D1160414924310968121D39
:1006E00011603F4928310968121D11603C492C31C5
:1006F0000968121D11603A4930310968394A40329F
:100700001160374934310968121D1160344938319C
:100710000968121D116032493C310968121D1160CF
:100720002F4940310968121D116002E01178090754
:100730000ED10078C0F30310032803D0042801D0A1
:10074000052805D1D6F85802274900F04F00086067
:1007500021487438016841F470010160BFF34F8F84
:10076000BFF36F8F4FF01021D1F80002002803DB98
:10077000D1F80402002822DA1C4A15601C480468DB
:10078000002CFCD01524C1F800420568002DFCD0D7
:10079000C1F8044201680029FCD0136001680029F7
:1007A000FCD0BFF34F8F0C48F0380168114A01F4B8
:1007B000E06111430160BFF34F8F00BFFDE70F49B8
:1007C0000D480860F0BD0000E00F00F00DF0ADBA7C
:1007D00000C007403C050040FCED00E01056004022
:1007E0000404001020C50040E40E004004E5014070
:1007F00000E401400400FA050090D0032800002026
:1008000002E008C8121F08C1002AFAD170477047D9
:10081000002001E001C1121F002AFBD17047000037
:10082000BFF34F8F05480168054A01F4E0611143A9
:100830000160BFF34F8F00BFFDE700000CED00E04B
:100840000400FA050EB500210091CDE901106A46B9
:1008500044F20100FFF7E4FF0EBD0000074B5B68A8
:1008600023B12AB120B10068037C1BB10820704776
:10087000072070474174426100207047100000203B
:100880002DE9F047074698461446894690074FF0F1
:10089000000526D12CB300F0CFFB134E06F110005B
:1008A000C6F80C800570457080F802904460756051
:1008B000357075701420FFF7E3FD06211420FFF753
:1008C00000FE1420FFF7E7FD08480760062111200D
:1008D000FFF7F7FD0548001F0068B0600020BDE885
:1008E000F0870720FBE7000000000020081501400A
:1008F0002DE9F843DFF87090D9F804305BB350B3BA
:10090000052902D20720BDE8F88343691BB3437C65
:10091000012B22D00027044600258846164628468B
:1009200000F026F8684600F04BFCC0B101210170D0
:100930000E4944600968C0E90218C0E904769DF8D0
:10094000000089F80100002000F014F81420FFF7DF
:10095000ADFD2846D7E70820D5E70F46DBE704259D
:10096000002000F007F8F4E7100000200415014013
:1009700000F002B800F008B872B602480168491CDD
:10098000016070472000002003490868401E08608D
:1009900000D162B6704700002000002070B5084CFE
:1009A000050009D010342168002907D008682060AC
:1009B000496828468847F6E70834F4E770BD000028
:1009C0008C0000202DE9F05F26484168F1B3DFF884
:1009D00098B00E688146DBF8004087688078E11B9C
:1009E00021F07F45ED1CB0B9DFF880804FF48030F6
:1009F000C8F84403C8F804031120FFF741FD112093
:100A0000FFF749FD4FF0010AC8F800A02F2000F0C1
:100A100023FA89F802A0B54200D23546124BE819F4
:100A20003C3320F07F401860DBF800105A46091B69
:100A300021F07F41001B20F07F40C91C81420FD96B
:100A4000106818602F2000F007FA00E004E0BDE80D
:100A5000F05F1120FFF72ABDBDE8F05F00F0ECBAAF
:100A6000BDE8F09F00000020041501400010014087
:100A70000E4910B50A784C780023A24212D0521CBD
:100A8000D2B20A70022A00D10B70084A0B781832D1
:100A900052F8232002608868104420F07F4088606C
:100AA000012010BD0360002010BD000000000020E8
:100AB00002680A60016070470278C1680AB1044A9E
:100AC00001E0034A121F11600021417070470000CD
:100AD0000C0500500278C1680AB1044A01E0034ADB
:100AE000121D11600121417070470000080500507F
:100AF0002DE9F04104464078B8B3A178884234D952
:100B0000E07890B3E66886B348211948FFF79BFC6C
:100B1000174D94E8070005F10C0383E84700012610
:100B20006E70A078E178144A0844A88000202870EC
:100B3000E068A860287B2877E0682862FF20687753
:100B40000C4805F11C01686201F10C00074600F039
:100B50000BF900280AD1AE70A078E1780844C1B240
:100B60003846BDE8F04100F0F7B80720BDE8F08155
:100B7000A0000020001200007D0B000070B5194994
:100B800019480A68002A2ADC02464478D37B9288F6
:100B900064B1447BE51A954206DC002242708480F1
:100BA00042690BE0521D0BE0D1180CE0847BE51884
:100BB000954207D30122427084800269002AF1D154
:100BC0000A6001E0D11A818001790748283000F0DD
:100BD000C3F8002805D0BDE87040FFF733BEFF3AE8
:100BE000EEE770BD24000020A0000020014601486F
:100BF00000F0E4B8C80000202DE9F043264CA4F131
:100C000010092278D9F8048099F80350404694F8E6
:100C100001C0D9F8086031E002EB42036168521C60
:100C200001EBC301A378D2B2934200D100220B782A
:100C3000022B02D0032B21D11DE003464F68194639
:100C400003E0B94203D00B46C969B9B1F9E7A9B1CC
:100C50008B4205D1C06918B9104E0125B560002638
:100C60000F68C969D96149B10B683B440B6005E065
:100C70000174C06900E000210028F9D19445CBD16E
:100C8000C9E9010689F80350404502D00120BDE8BA
:100C9000F0830020FBE7000010000020001001405E
:100CA0002DE9F0412A4F0446002607F11005D7F838
:100CB00004803EE002D02046E4691DE0287869689F
:100CC00000EB4002401CC0B201EBC2012870AA78C0
:100CD000904200D12E700A784868012A2BD1027CFC
:100CE0004ABB8A684260CA6882600A69C260496910
:100CF0008161F97801B146604368BA68DFF854C091
:100D0000991A21F07F41614502D28268114406E0C0
:100D1000D11A826821F07F418A4202D9511A0160BA
:100D200000E006604660012186600174C66100F043
:100D3000E7F9002CBED1287869788842BED179685D
:100D4000414502D00120BDE8F0810020FBE7000012
:100D500000000020FFFF7F0082788A4201D2072036
:100D60007047C1700020704770B5826104460878F2
:100D70004E6820704868A0604868E0604878A070BD
:100D8000886800250C4A2946E061FFF767FD0028C6
:100D900011D103204EB1F10704D0A90001F1A04107
:100DA000C1F8000776086D1CF4E72046FFF784FEC3
:100DB00001202071002070BDAD0F000070B5044609
:100DC000022020710D462046E160FFF775FEA06805
:100DD0002843A06000202075204600F0E7F800209E
:100DE00070BD00001FB500F07DF808B1FFF72AFDC7
:100DF000002000F08FF800230D4A04211846FFF769
:100E00003FFD08B1FFF71EFD0A4B0FCB8DE80F0029
:100E10006846FFF76DFE08B1FFF714FD4FF4F010C0
:100E2000FFF7E4FE08B1FFF70DFD20BFFDE700006E
:100E30002C000020F011000000F180400068002824
:100E400000D00120704708B500F18040002101600A
:100E50000068009008BD000000283ED01F49204ACD
:100E6000096800BF00BF00BF00BF00BF00BF00BFD8
:100E700000BF91422FD000BF00BF00BF00BF00BF26
:100E800000BF00BF00BF00BF00BF00BF00BF00BF6A
:100E900000BF00BF00BF00BF00BF00BF00BF00BF5A
:100EA00000BF00BF00BF00BF00BF00BF00BF00BF4A
:100EB00000BF00BF00BF00BF00BF00BF00BF00BF3A
:100EC00000BF00BF00BF00BF00BF00BF00BF00BF2A
:100ED00000BF00BF00BF401EC3D1704728000020E4
:100EE0000024F40010B5094C207808B1852010BD0D
:100EF0000020A06060602061E060062100F03AF808
:100F00000349012008602070002010BD8C000020E3
:100F10001805004070B5154D0446A87838B114B1D5
:100F20006168012088470020FFF722FD15E00020BE
:100F3000FFF71EFD24B10D4821461030FFF7B8FD24
:100F4000E86850B94FF48270FFF77DFF0220410737
:100F5000C1F80403064901200860E868401CE86005
:100F6000BDE870400020FFF705BD00008C000020A8
:100F7000080000404907090E002806DA00F00F02B9
:100F800002F1E02282F8141D03E000F1E02282F871
:100F9000001400F01F02012191404009800000F17F
:100FA000E020C0F88012C0F8001170472DE9F04130
:100FB000012604460671007D052760B12046FFF733
:100FC0007BFD00202075A078E178411A11FB00F02C
:100FD00007EB20201BE0A16909B120468847E5788E
:100FE000A078A84203D12046FFF774FD0DE020460B
:100FF0004DB1FFF76FFDA07810FB05F007EB102057
:101000002061267504E0FFF757FDA078401D2061A0
:10101000207901280DD102202071E0692169224642
:101020000068FFF765FC002803D0BDE8F041FFF73A
:1010300009BCBDE8F081000070B5012670044FF0D6
:10104000E0210025C1F88001084C4010C4F8480395
:10105000C4F8080366602F20FFF7FEFEA660044C6C
:101060002F20A560FFF7F8FEA57070BD00100140AD
:10107000000000202DE9F84F204C00256846D4E9F7
:1010800001B6FFF7F5FC8046FFF7B6FD0746A94617
:10109000B8F1000F25D00023009ACC46606819E013
:1010A00007680146974202D9BA1A026014E0C1F8F3
:1010B00000C0D1F80C80D21BC8693B448A46B8F105
:1010C000000F07D0F71827F07F47C1E90178CAF869
:1010D0001C500D460028E3D160602846FFF7E0FD74
:1010E00004E02846FFF7DCFD00B917B15846FFF7CA
:1010F00069FC84F80390BDE8F88F00000000002030
:101100000D4B10B5596831B102680C68A24204D881
:10111000A21A0A60C161586010BD0B4603E00B467D
:10112000C969121B21B10C689442F8D3A41A0C604F
:101130000260C161D86110BD000000202DE9F041BE
:101140001D4D6C68002C35D01C4800270068A9682C
:10115000B846401A20F07F462068B04215D8224693
:10116000361A0744E469107C68B182F81080EB6895
:1011700033B1D2E90501984728B1FFF763FB02E0DC
:10118000D2E905108847002CE6D129786878814299
:1011900006D1401CC0B26870022801D185F80180D8
:1011A00005486978183040F82170BDE8F0411420F6
:1011B000FFF77CB9BDE8F081000000200415014074
:1011C0000A4A10B553789478591CC9B28C4200D1A0
:1011D000002114788C4201D1002010BD01705068AC
:1011E00003EB430100EBC10010BD00001000002024
:1011F00000DC0005000001000000000000001E00EF
:10120000E800002024120000000000202C00000054
:1012100000080000501200002C000020DC2000001C
:1012200010080000000000000000000000000000A6
:1012300000000000000000000000000000000000AE
:101240000000000000000000000000000090D0033B
:0400000500000401F2
:00000001FF
