:020000040000FA
:1000000008090020D5000000EF000000F10000000A
:1000100000000000000000000000000000000000E0
:10002000000000000000000000000000F3000000DD
:100030000000000000000000F5000000F7000000D4
:1000400099010000F9000000F9000000F90000002B
:10005000F900000000000000F9000000F9000000B5
:10006000F9000000F9000000F9000000F9000000AC
:10007000F9000000F9000000F9000000F90000009C
:10008000F9000000ED010000F9000000F900000097
:100090000D020000F9000000F9000000F900000066
:1000A000F9000000F900000000000000000000005E
:1000B0000000000000000000000000000000000040
:1000C0000348854600F034F800480047F508000072
:1000D000080900200321094802680A430260084811
:1000E00002680A4302600748804707480047FEE766
:1000F000FEE7FEE7FEE7FEE7FEE70000240500401E
:100100005405004015020000C1000000D2B201E019
:100110000270401C491EFBD270470022F6E710B562
:1001200013460A4604461946FFF7F0FF204610BD65
:10013000064C0125064E05E0E36807CC2B430C3C3A
:1001400098471034B442F7D3FFF7BEFFE00C00002D
:10015000000D00008307FF22DB0E9A408907090E7D
:10016000994000280BDA0007000F08388308084878
:100170009B001818C36993430B43C36170478308FE
:1001800004489B001B181868904308431860704788
:1001900000ED00E000E400E0F8B5FF20013000F0E1
:1001A000D7FB002401250E4E0E4F002807D00E4825
:1001B00004600120B0607D70002000F04FF9FF2046
:1001C000053000F0C5FB002808D00748001D04607A
:1001D0000220B060BD70012000F040F9F8BD0000C1
:1001E000000300408C0000200001004010B50649CB
:1001F0000020086048608860C86003494039086092
:10020000486000F00DFD10BD4011014010B500F038
:100210009DFC10BD10B500F0A9F9002805D01F49BC
:100220001D484860C8131E4988611E48018CC9B228
:1002300001290BD1828C120708D1028D1206120FF0
:10024000042A03D1828D1206120F0AD0012921D16E
:10025000818C09071ED1018D0906090F0A2904D0D6
:1002600007E0114A01219160F5E7828D1206120F15
:1002700005D00D290ED1808D0006000F0AD10B4844
:100280000168012904D00A49016001680129FCD1F3
:10029000C021416110BD0000DFFF07C00005004024
:1002A000006C0040C00F00F00006004000EC06406B
:1002B0007593000002E008C8121F08C1002AFAD195
:1002C00070477047002001E001C1121F002AFBD1D6
:1002D00070470000BFF34F8F04490348C860BFF365
:1002E0004F8F00BFFDE700000400FA0500ED00E0BD
:1002F0000EB50021029000916A4601910148FFF776
:10030000E9FF0EBD01400000094B5B68002B07D0E0
:10031000002A07D0002805D00068037C002B03D0FA
:1003200008207047072070474174426100207047E1
:1003300010000020FFB507469007002581B01E463B
:100340001446002825D1002C23D000F0DDFB3046D8
:10035000114EF06030461030057045700299817082
:1003600044607560357001240C4875702405046084
:1003700003211420FFF7EEFE09480460094CA76032
:1003800003211120FFF7E6FE6068B060002005B091
:10039000F0BD0720FBE700000000002080E200E045
:1003A00000E100E000150140FEB51D4B5B68002B2D
:1003B0002DD000282BD0052901D20720FEBD43698E
:1003C000002B24D0437C012B23D00027044600259A
:1003D00016462846019100F027F8684600F060FCB8
:1003E000002818D0012101700E49446049688160DD
:1003F000019907614661C160684609490078487003
:10040000002000F015F800F0E3FB2846FEBD0820B0
:10041000FEBD0F46DAE70425002000F009F8F4E7F6
:10042000100000200015014000B500F005F800BDE7
:1004300000B500F009F800BD72B602480168491C19
:10044000016070472000002003490868401E0860D2
:1004500000D162B6704700002000002070B5084C43
:10046000050009D010342168002907D008682060F1
:10047000496828468847F6E70834F4E770BD00006D
:100480008C000020F8B52348416800293ED00E6852
:1004900021494C6887688078E11B0D022D0AED1C0C
:1004A000002814D101201D4A000450601B4A403A24
:1004B00050601B49400008601A4908601A49012031
:1004C00008602F2000F04CFA124901208870B542D4
:1004D00000D23546E81900020F4B000A403318607D
:1004E0000D4A5168001B091B0902090A0002000A93
:1004F000C91C814209D9506818602F2000F030FAD9
:1005000001200749400480390860F8BD00F0FCFA7A
:10051000F8BD00000000002000150140401301401C
:1005200080E200E000E100E00010014010B50E495B
:1005300000230A784C78A24212D0521CD2B20A7020
:10054000022A00D10B700A78074B920018339A5890
:100550000260886810180002000A8860012010BD3F
:100560000360002010BD0000000000201048018C36
:10057000C9B2012917D1818C090714D1018D09064F
:100580000A0F03D1828D1206120F0ED0090F012916
:1005900003D1828D1206120F07D0032903D1808D5B
:1005A0000006000F01D000207047012070470000B6
:1005B000C00F00F002680A60016070470378054AC6
:1005C000C168002B01D0D16000E091600021417032
:1005D00070470000000500500378054AC168002BF1
:1005E00001D0916000E0D1600121417070470000AE
:1005F00000050050F8B504464078002836D0A178B0
:10060000884233D9E078002830D0E668002E2DD01B
:1006100048211748FFF781FD154D07CC2B460C33B9
:1006200047C301266E700C3CA078E178124A40184E
:10063000A88000202870E068A860287B2877E06800
:100640002862FF2068770B481946686208460C301C
:10065000074600F00FF9002807D1AE70A078E178C6
:100660004018C1B2384600F0FDF8F8BD0720F8BDCB
:10067000A0000020DC0C00007D06000070B51949C8
:1006800019480A68002A2ADC02464478D37B9288FB
:10069000002C0CD0447BE51A954206DC0022427007
:1006A000848042690BE0521D0BE0D1180CE0847B82
:1006B000E518954207D30122427084800269002A1E
:1006C000F1D10A6001E0D11A818001790648283011
:1006D00000F0C8F8002801D0FFF70AFE70BDFF3A0D
:1006E000EFE7000024000020A000002010B5014624
:1006F000014800F0EBF810BDC8000020F0B5284C10
:100700002146103948688B68227886469C46CF7807
:10071000667836E0182353436168521CC918A378E1
:10072000D2B2934200D100220B78022B02D0032BCD
:1007300027D123E003464D68194603E0A94204D0BF
:100740000B46C96900291CD0F8E7002919D08B4253
:1007500008D1C069002805D1124F0125BD600025D0
:10076000AC4601270D68C969D961002909D00B6819
:100770005B190B6005E00174C06900E000210028EE
:10078000F9D19642C6D10649624610398A6048605E
:10079000CF70704501D00120F0BD0020F0BD0000F9
:1007A0001000002000100140F8B52C4E044670687F
:1007B0000025009041E0002C02D02046E46920E0B2
:1007C000264818231030017842684B43491CC9B2AF
:1007D000D21801708378994200D105701178506861
:1007E00001292CD1017C002929D191684160D1686F
:1007F00081601169C16051698161F178002900D07F
:1008000045604368B268164F991A0902090AB9424D
:1008100002D28268891806E0D11A09028268090AA0
:100820008A4202D9511A016000E005604560012149
:1008300085600174C56100F0D3F9002CBBD1074875
:100840001030017840788142BAD1716800988142B5
:1008500001D00120F8BD0020F8BD000000000020FC
:10086000FFFF7F0082788A4201D207207047C17063
:100870000020704770B58261044608784E68207089
:100880004868A0604868E0604878A07088680025E3
:100890000C4A2946E061FFF737FD002811D10A49CB
:1008A0000320002E07D0F20702D0AA0052181060D1
:1008B00076086D1CF5E72046FFF780FE01202071C9
:1008C000002070BD890A00000007005070B5044682
:1008D000022020710D462046E160FFF76FFEA06800
:1008E0002843A06000202075204600F0CDF80020AD
:1008F00070BD00001FB500F04BF8002801D0FFF7D5
:10090000F7FC002000F05EF800230F4A042118468F
:10091000FFF710FD002801D0FFF7EAFC0B4B6C46F7
:100920000FCB0FC46846FFF765FE002801D0FFF724
:10093000DFFC07204005FFF7D9FE002801D0FFF7B4
:10094000D7FC20BFFDE700002C000020CC0C0000ED
:100950000121890740180068002800D00120704755
:1009600000280FD00849094A096800BF00BF00BF2E
:1009700000BF00BF00BF00BF00BF914200D000BF5A
:10098000401EF2D170470000280000200024F4002F
:1009900010B50A4C2078002801D0852010BD002019
:1009A000A06060602061E060032100F03DF8044930
:1009B000012088612070002010BD00008C00002004
:1009C0000005004070B5154C0546A078002808D0F9
:1009D000002D02D06968012088470020FFF724FD20
:1009E00015E00020FFF720FD002D04D00B4829461C
:1009F0001030FFF7DFFDE068002808D108490860E3
:100A000008490220486006490120FC390860E06876
:100A1000401CE0600020FFF70BFD70BD8C00002043
:100A200004010040000300408207D30EFF229A40D9
:100A30008907090E10B5994000280BDA03071B0F30
:100A4000083B9C080C4BA400E318DC6994430C435E
:100A5000DC6107E08408094BA400E4182368934391
:100A60000B432360C106C90E012088400449086079
:100A70000449086010BD000000ED00E000E400E063
:100A800080E200E000E100E070B501260446067156
:100A9000007D00280AD02046FFF790FD0020207539
:100AA000A078E178411A414308121BE0A1690029AE
:100AB00001D020468847E578A078A84203D1204697
:100AC000FFF78AFD0DE0002D204608D0FFF784FDDA
:100AD000A0786843000A401D2061267504E0FFF7F6
:100AE0006DFDA078401D2061207901280BD10220E6
:100AF0002071E069216900682246FFF755FC002853
:100B000001D0FFF7F5FB70BD70B501240B496004FF
:100B100008600B4940108860094940398860094DD8
:100B20006C602F20FFF71CFFAC60074D00242F20C6
:100B3000AC60FFF715FFAC7070BD000080E100E015
:100B4000401301400010014000000020FEB51F4C82
:100B50000025A768606802906846FFF7E7FC0190EF
:100B6000FFF7CCFD06460198002822D0002300980C
:100B7000616817E00E680A46864202D9301A08609A
:100B800012E0801BF31800261660D668D169B446BF
:100B9000002E07D0FE183602360A5660664696606A
:100BA000D56115460029E5D128466160FFF7FCFDB7
:100BB00006E02846FFF7F8FD002801D1002E02D0FC
:100BC0000298FFF75FFC0020E070FEBD00000020EF
:100BD00001200249000508607047000000E200E0C3
:100BE00010B50E4B5968002906D002680C68A24265
:100BF00004D8A21A0A60C161586010BD0B4604E017
:100C00000B46C969121B002904D00C689442F7D323
:100C1000A41A0C600260C161D86110BD0000002000
:100C2000F8B51D4D6C68002C34D01C480027406876
:100C3000A968401A0602360A2068B04218D8361A47
:100C4000C7192246107CE46900280FD000201074D8
:100C5000EB68002B07D0916950699847002805D0B0
:100C6000FFF746FB02E0516990698847002CE3D109
:100C700029786878814206D1401CC0B26870022889
:100C800001D10020687004490006800D18310F5012
:100C9000FFF79EFFF8BD0000000000200015014096
:100CA00010B509494B788C785A1CD2B2944200D1C5
:100CB00000220C78944201D1002010BD02704868D7
:100CC00018214B43C01810BD1000002000DC0005A7
:100CD00000000100000000000000E000E80000202B
:100CE000000D0000000000202C000000B4020000F5
:100CF0002C0D00002C000020DC080000C4020000C5
:100D000000000000000000000000000000000000E3
:100D100000000000000000000000000000000000D3
:0C0D200000000000000000000024F400AF
:04000005000000C136
:00000001FF
