:020000040000FA
:10000000E8230020150400001D0400001F04000068
:10001000210400002304000025040000000000006B
:1000200000000000000000000000000027040000A5
:1000300029040000000000002B0400002D04000033
:100040002F0400001D0500006D0800002F040000B3
:100050002F0400002F0400002F0400002F040000D4
:100060002F0400002F0400002F0400002F040000C4
:100070002F0400002F0400002F0400002F040000B4
:100080002F0400002F0400002F0400002F040000A4
:10009000790500002F0400002F0400002F04000049
:1000A0002F0400002F0400002F0400002F04000084
:1000B0002F0400002F0400000000000000000000DA
:1000C0002F0400002F0400002F0400002F04000064
:1000D0002F0400002F0400002F0400000000000087
:1000E0000000000000000000000000000000000010
:1000F0000000000000000000000000000000000000
:1001000000000000000000000000000000000000EF
:1001100000000000000000000000000000000000DF
:10040000DFF80CD000F03CF80048004791090000EC
:10041000E82300200648804706480047FEE7FEE73D
:10042000FEE7FEE7FEE7FEE7FEE7FEE7FEE7FEE7A4
:10043000D10500000104000040EA01039B0703D03E
:1004400009E008C9121F08C0042AFAD203E011F813
:10045000013B00F8013B521EF9D27047D2B201E0D5
:1004600000F8012B491EFBD270470022F6E710B5B9
:1004700013460A4604461946FFF7F0FF204610BD12
:10048000064C074D06E0E06840F0010394E80700E1
:1004900098471034AC42F6D3FFF7B6FFEC160000D5
:1004A0000C17000000F01F0201219140400980005C
:1004B00000F1E020C0F88012704700F01F02012117
:1004C00091404009800000F1E020C0F880117047A1
:1004D00000F01F02012191404009800000F1E0205E
:1004E000C0F80011704700F01F020121914040093F
:1004F000800000F1E020C0F8001270474907090EA3
:10050000002806DA00F00F0000F1E02080F8141D4A
:10051000704700F1E02080F80014704770B5144C6B
:10052000D4F80001002628B1D4F80403C00701D094
:10053000C4F80061D4F80C010E4D40B1D4F80403A6
:10054000000704D5C4F80C61E86800B18047D4F80E
:10055000100100280BD0D4F80403C00607D5C4F856
:100560001061A868002802D0BDE87040004770BD47
:1005700000100040280000207CB5144C206A019037
:100580002078002821D00120FFF797FF656800261A
:1005900066600120FFF79CFFA169002915D0E807DC
:1005A00003D08DF8006068468847A80705D501206C
:1005B0008DF80000A16968468847680705D50220C4
:1005C0008DF80000A169684688477CBD280000209E
:1005D000F0B598480023021D01780125101D4FF049
:1005E0008056062907D11478240704D10478C4F36F
:1005F0000314032C02D0062904D00FE08F4F8E4C39
:100600007C670EE01478240708D10478C4F303143F
:10061000032C06D0042C04D0052C02D0062907D0C8
:100620000EE0D6F84442864FC4F342343C6002E008
:100630001478240704D10478C4F30314032C02D0E3
:10064000062906D011E07F4C276827F080772760C5
:100650000EE01478240708D10478C4F30314032CA3
:1006600006D0042C04D0052C02D006290AD011E0B3
:100670004FF08044C4F80C31C4F81031704C241F82
:10068000236002E01478240704D10478C4F303142F
:10069000032C02D0062905D00CE0694F03246437EF
:1006A0003C600AE01478240704D10478C4F30314EE
:1006B000032C02D006290DD014E0634F05243C60C2
:1006C000614C78342560604C083423603F243F1D22
:1006D0003C6002E01478240704D10478C4F30314C6
:1006E000052C02D0062957D068E058490968584AB5
:1006F00011605649091D0968121D116053490831DE
:100700000968121D116051490C310968121D1160F0
:100710004E4910310968121D11604C4914310968A5
:10072000121D1160494918310968494A2032116087
:1007300046491C310968121D11604449203109687D
:10074000121D1160414924310968121D11603F4991
:1007500028310968121D11603C492C310968121DAD
:1007600011603A4930310968394A403211603749DD
:1007700034310968121D1160344938310968121D7D
:10078000116032493C310968121D11602F49403116
:100790000968121D116002E0117809070ED1007876
:1007A000C0F30310032803D0042801D0052805D185
:1007B000D6F85802274900F04F00086021487438E5
:1007C000016841F470010160BFF34F8FBFF36F8F79
:1007D0004FF01021D1F80002002803DBD1F8040209
:1007E000002822DA1C4A15601C480468002CFCD042
:1007F0001524C1F800420568002DFCD0C1F8044260
:1008000001680029FCD0136001680029FCD0BFF307
:100810004F8F0C48F0380168114A01F4E061114330
:100820000160BFF34F8F00BFFDE70F490D4808601F
:10083000F0BD0000E00F00F00DF0ADBA00C00740C1
:100840003C050040FCED00E01056004004040010A0
:1008500020C50040E40E004004E5014000E40140F2
:100860000400FA050090D003640000200448017FD2
:1008700004480029024901D000F00FBE00F07EBDFF
:10088000900000200020004002E008C8121F08C1AC
:10089000002AFAD170477047002001E001C1121F01
:1008A000002AFBD17047006890FAA0F000BA00BAA5
:1008B0007047006890FAA0F000BA70474FF080408F
:1008C0000021C0F800110121C0F80010D0F800117B
:1008D0000029FBD07047000000B51BA08BB000685A
:1008E00008901AA01AA100680990D1E90001CDE989
:1008F0000601182218496846FFF79EFD01208DF871
:1009000000008DF808001548019000208DF80100C6
:100910004FF416718DF81400ADF80C10684600F015
:1009200049F900280DD108A800F010FA002808D1D4
:1009300009A800F01DFA002803D1082106A800F03C
:1009400029FA0BB000BD0000E7E7E7E7C2C2C2C268
:10095000E7C2C3C4C5C6C7C8D4160000410B000017
:1009600070B508240F25204600F0A8FA641CAC429C
:10097000F9D900245FF0010505FA04F010F4F01F26
:1009800002D0204600F09AFA641C202CF4D370BDEB
:10099000FFF7E6FFFFF792FFFFF79EFF10B18C21F4
:1009A00000F0BCF80024012505FA04F010F4F01F53
:1009B00002D0204600F082FA641C202CF4D3214C93
:1009C00000254CF25036E5701E4800F01BFAA0BB23
:1009D000A079410703D000F00700042801D90121C4
:1009E00000E00021112000F071FAA07900F007006A
:1009F000012801D9052801D9012100E00021122098
:100A000000F064FAA07900F00700022801D9062856
:100A100001D9012100E00021132000F057FAA0794C
:100A200000F00700032801D8012100E00021142074
:100A300000F04CFAA079401CA071304600F004F898
:100A4000C1E700000000002000283ED01F49204AD6
:100A5000096800BF00BF00BF00BF00BF00BF00BFEC
:100A600000BF91422FD000BF00BF00BF00BF00BF3A
:100A700000BF00BF00BF00BF00BF00BF00BF00BF7E
:100A800000BF00BF00BF00BF00BF00BF00BF00BF6E
:100A900000BF00BF00BF00BF00BF00BF00BF00BF5E
:100AA00000BF00BF00BF00BF00BF00BF00BF00BF4E
:100AB00000BF00BF00BF00BF00BF00BF00BF00BF3E
:100AC00000BF00BF00BF401EC3D1704764000020BC
:100AD0000024F4000D4910B54FF4705008600C4923
:100AE0000020487000F010FB24210A48FFF7BDFCED
:100AF000084809210A38FFF7B8FC1420FFF7DDFC8D
:100B000005490320C1F80002002010BD08F501408E
:100B100028000020BE03002000100040BFF34F8FCC
:100B200005480168054A01F4E06111430160BFF323
:100B30004F8F00BFFDE700000CED00E00400FA0558
:100B400010B50446007870B1012802D002280AD1FD
:100B500004E000F017F800F041F904E0074800F065
:100B6000B9F80028FAD006494FF47040086020799F
:100B70000007000C091F086010BD0000680000207D
:100B80000C050050094810B5007860B10120FFF74E
:100B900094FC074800218162016241620120FFF755
:100BA00097FC002010BD082010BD00002800002088
:100BB000F001002070B5050076D03C4C207818B1CB
:100BC000FFF788FF00286DD16868A06118222946C8
:100BD0003748FFF731FC0025656024213548FFF7D1
:100BE00044FC344809210A38FFF73FFC00F0F6FCCA
:100BF00000F08AFA2E490020183101F5947200BFE6
:100C000000EB800303EB40130B4442F82030401C00
:100C10000828F5DB2849002001F5947200EB8003D9
:100C200003EB40130B4442F82030401C0828F5DB4E
:100C3000224904200860214808380560204840F215
:100C40000221C0F80012204A1E491160111D0860DF
:100C50001C48001D091D08601948001D091D086079
:100C6000091D1A4808601748F038091D0860174820
:100C7000001D091D0860091D154808600C4E707C98
:100C800000F003010120FFF739FCB07C00F0030104
:100C90001420FFF733FC1420FFF71AFC65700120C5
:100CA0002070002070BDFFE70E20FBE72800002029
:100CB000B0000020BE0300201C02002010A5004050
:100CC00000A000400011004060F5014040A100403C
:100CD0000010004070B505461A48007860B36DB347
:100CE000194CA06A60B30120FFF7E7FB606A54F873
:100CF00020100A782A7054F820104978697054F846
:100D000020108978A97054F820100979297154F8B5
:100D10002010681D491DFFF78FFB606A401C606250
:100D2000082801D300206062A06A401EA062012052
:100D3000FFF7CEFB002070BD082070BD0E2070BDF7
:100D4000052070BD2800002044030020074910B58D
:100D50004A780AB1112010BD30B1006888620120C4
:100D600000F014FC002010BD0E2010BD2800002053
:100D7000074910B54A780AB1112010BD30B100689A
:100D8000C862022000F002FC002010BD0E2010BD41
:100D90002800002010B50C460F49497809B11120F0
:100DA00010BD18B1092C03D3072010BD0E2010BDB3
:100DB0000146094822463030FFF73EFB0648C4F1A1
:100DC00008022830FF210474D1408174042000F00F
:100DD000DDFB002010BD000028000020074810B5F2
:100DE000407808B1112010BD0548806A18B100F0A4
:100DF00003FA002010BD4FF4807010BD28000020C1
:100E0000F00100202DE9F041284F0646387840B126
:100E100056B1307868B120280BD8254D297829B1F2
:100E200009E00820BDE8F0810E20FBE7E97C88425C
:100E300001D90920F6E71F4CA06A082801D3042035
:100E4000F0E7687818B9F07808B1287D18B3012068
:100E5000FFF733FB206A2522314654F82000FFF7C4
:100E6000EBFA72781448815C491C01F0030181544B
:100E7000206A54F82020401C08281171206201D3F8
:100E800000202062A06A401CA0620120FFF720FB26
:100E9000687810B107E00620C4E7287C18B9787894
:100EA00008B900F0A9F90020BCE7000028000020E4
:100EB000B0000020F0010020B403002003218000D6
:100EC00000F1A040C0F800177047000001228240E6
:100ED00011B10348026070470148001DFAE70000A5
:100EE000080500504058002800D00120704708B580
:100EF000002242504058009008BDD0F8040308403A
:100F000000D0012070474058002800D001207047D1
:100F100008B5002242504058009008BD70B5164AEE
:100F200040F21310C2F80002144C606A14490860C1
:100F3000144B091D9889823808601348012140F834
:100F40000C1F0021C0F83411C0F838110F4D4FF4B8
:100F5000E050286050142D1D2860C2F80C1118783C
:100F600010B92169002088470A49094808600A48E1
:100F7000A0600320607070BD0010004028000020B9
:100F800040A50040B000002000A0004004F5014052
:100F90009203002004150040D90F000010B50C4C3E
:100FA000606840F00100606000F0CEF90948806A96
:100FB00030B11420FFF797FABDE8104000F01CB9DB
:100FC00000206070BDE810401420FFF78CBA0000CC
:100FD00028000020F00100202DE9F04740494FF49F
:100FE000E05008603F4AD2F80C31DFF8FC9000274F
:100FF0003E4CB9F80E004E14DFF8F4800125DBB347
:101000003C4B1B68C3B365600E60D8F8041041F018
:101010000101C8F80410D8F81C10401A401CC8F888
:10102000200000F091F999F8000080B109F2E22067
:10103000007860B1304800680021C0B200F098F834
:1010400028B1D8F8040040F00400C8F804002B4888
:10105000806A50B199F81000012806D01420FFF7DB
:1010600042FABDE8F04700F0C7B888F80170BDE863
:10107000F0471420FFF737BAD8F81CC0BCF1010CB8
:10108000C8F81CC00BD265600E60401CC8F8200078
:10109000D8F8040040F00200C8F80400E5E740F288
:1010A0001B111746C2F80012D8F81400D8F8101017
:1010B0000078884710491248283908601148C8F854
:1010C0000800022088F8010025600548001F06601E
:1010D000D4F84401002800D03D60BDE8F08700004E
:1010E00008F5014000100040B000002000A00040C2
:1010F00028000020001400402C150040F0010020C2
:10110000700300201D0F000005490020086248629E
:10111000886201F5AA71086248628862704700001F
:10112000F001002070B50546C87D0C4600284FF43C
:10113000847128460AD0FFF7DAFED5F81805627EDA
:10114000E1688854607E401C607670BDFFF7CFFE7A
:10115000D5F8180570BD1FB501238DF800308DF846
:1011600008100192D0E90012684690471FBD0000A8
:101170002DE9F0411E4C07460E46A06A082835D2DC
:10118000A4F52572204613780025006A02F2E221B8
:10119000012B03D0537843B1D27C02E00A78202A95
:1011A00024D854F820301A7002E054F8202015702A
:1011B00054F82000891C10F8052BFFF73DF9206A30
:1011C00054F820104F700B49096854F82020917092
:1011D00054F82010401C08280E71206200D32562AC
:1011E000A06A401CA0620120BDE8F0810020FBE75E
:1011F00044030020481500402DE9F05F3D4C4FF0BE
:101200000109C4F820903C48DFF8F0B0A0F5A076C2
:10121000416A3B4D4FF0110A50F82110616130785E
:1012200006F5307810B1012841D110E00878216925
:101230008847616908F102000A7988F800200022D5
:1012400088F8012011F8052BFFF7F6F815E0C878AB
:1012500000B3307DF0B100270A7888F800200A79C1
:1012600087F0010343EA420288F8012011F8052BB8
:1012700008F10200FFF7E0F877B140F21B10C5F863
:101280000002C5F804A3F089E0610220C4F808B0A8
:1012900060700CE00127DFE740F21310C5F8000290
:1012A0001020C5F804031748A06084F80190606915
:1012B000154A4178116040784C4609FA00F0111D3A
:1012C00008600C48104928302439C07C0860091F88
:1012D000C1F800800120FFF7E5F80120FFF7F8F8DA
:1012E0000020C5F80401C5F80801C5F810012C60FC
:1012F000BDE8F09F28000020F00100201D0F000035
:10130000001000409D0F00002C15004070B50C46E9
:1013100005464FF48E71FFF7EAFDA18AA068415C93
:10132000A08A401CA082C5F81C1570BD1FB5002204
:101330008DF800208DF80810816801918275D0E940
:101340000012684690471FBD10B50B4CA06A0028DC
:1013500011D00120FFF7B1F8A06A401EA062606AB8
:10136000401C6062082801D300206062BDE8104084
:101370000120FFF7ADB810BDF00100202DE9FF47B7
:101380000C4605464FF40071FFF7B7FD01274FF4F7
:101390000178002618B34FF4927949462846FFF7A2
:1013A000A1FDE0B149462846FFF7A1FDC5F8088335
:1013B000A07E00B96F6002208DF80000D5F880048F
:1013C000C5F880040390E07D8DF80800E068019086
:1013D000E6752676D4E900126846904727E0042196
:1013E0002846FFF78AFD10B34FF484712846FFF7B3
:1013F00079FDE0B121462846FFF794FEE07D617E4D
:10140000884214D1207E38B1617EE268E07520699F
:10141000E0602676667607E0A07E00B96F60C5F8CA
:101420000883E675617EE2682046FFF794FE4FF47C
:101430008E7841462846FFF755FD88B1A08AA17DE8
:10144000884204D221462846FFF760FF08E0414663
:101450002846FFF74CFDA17D11B12046FFF766FF3E
:101460004FF4A27841462846FFF73CFD002812D0F1
:1014700041462846FFF73BFDA07E00B12F60E07D8E
:10148000002808D0E675617EE26804B02046BDE819
:10149000F047FFF760BEBDE8FF872DE9FF410C462E
:1014A0004FF4927705463946FFF72DFD0026C0B16F
:1014B00039462846FFF72CFD02208DF80000D5F8AC
:1014C0008004C5F880040390D5F83C058DF8080029
:1014D000E0680190E6752676D4E9001268469047E8
:1014E00024E04FF4887739462846FFF70CFDE8B131
:1014F00039462846FFF70CFDD5F83C05C1B2E07D22
:10150000884213D1207E60B1E268D5F8000220F055
:101510002000C5F80002207EE0752069E060267694
:1015200001E0E675E2682046FFF715FE4FF4A2776A
:1015300039462846FFF7E7FC68B139462846FFF7E9
:10154000E7FCE07D38B1E675D5F83C05E268C1B24C
:101550002046FFF700FE4FF4907631462846FFF70D
:10156000D2FC00280FD031462846FFF7D1FCA07DE1
:10157000002808D0D5F84C0504B0C1B22046BDE81B
:10158000F041FFF7D3BEBDE8FF81000010B504466F
:10159000C00704D00F48FFF786F90F490860A0077D
:1015A00006D50C48001DFFF77EF90B49091D0860A0
:1015B00060070DD507480830FFF77BF90649083169
:1015C000086004480C30FFF774F903490C310860D7
:1015D00010BD0000500000201C15004010B500F0A8
:1015E00043F81B481B49027A0A601B4940235AB141
:1015F000012A04D0022A04D0032A06D104E03022B2
:1016000000E0FA224A6200E04B6202781AB1012A35
:1016100003D1124A00E0124A0A610E4B427A243387
:101620001A600C4B2C331C1F022A02D0012A05D051
:1016300009E04FF6FF721A600A4A03E0FF221A60BF
:1016400040F207122260C07C0969BDE810400847DB
:10165000B00000201015004028000020A91600004E
:101660007D1600002110010002480349807A0860BD
:1016700070470000B00000200C150040084A0749E0
:1016800011600849497C491E090441EA00210143CF
:1016900041F08070111D08607047000000010100DA
:1016A000141500405000002007490648086007480C
:1016B0000749407C401E41EA00400349091D08607B
:1016C0007047000006000300141500405000002081
:1016D00020000001010000000000000001020000E5
:1016E000FA00030000010220000000000C170000B7
:1016F0000000002068000000880800007417000047
:101700006800002080230000980800000800000006
:1017100000010000001100000000000000000000B7
:1017200000000000000000000000000000000000B9
:1017300000000000000000000000000000000000A9
:101740000000000000000000000000000000000099
:10175000000000000000000000000000E7E7E7E7ED
:10176000C2C2C2C2E7C2C3C4C5C6C7C80805FF0219
:041770000090D00312
:0400000500000401F2
:00000001FF
