:020000040000FA
:10000000F00F00204D0200006702000069020000AE
:1000100000000000000000000000000000000000E0
:100020000000000000000000000000005901000076
:100030000000000000000000ED0100003902000097
:1000400071020000710200007102000071020000E4
:100050007102000000000000710200007102000047
:1000600071020000710200007102000071020000C4
:1000700071020000710200007102000071020000B4
:1000800071020000E5000000710200007102000032
:100090007102000071020000710200007102000094
:1000A000710200007102000000000000000000006A
:1000B0000000000000000000000000000000000040
:1000C0000748854600F0F4F800F08AFA002103485A
:1000D00000F01EFB00F098FAFEE700000800002088
:1000E000F00F002000F0ACF880F309887047EFF3C0
:1000F00009807047684680F3098806480078C00781
:1001000003D1032080F314887047022080F3148801
:1001100070470000B41A0000064B9C46EFF30583BD
:100120001B0605D1EFF31483DB0701D000DF704716
:100130006047000005090000064B9C46EFF305836D
:100140001B0605D1EFF31483DB0701D000DF7047F6
:10015000604700008D0B0000EFF309808169891E64
:10016000097800292BD1A6461FC8A4467446E0474B
:10017000EFF3098307C31A4B06CB91421CD0083B0F
:1001800000290DD0EFF3098020388862F0C0444682
:100190004D4656465F46F0C00CB400F0F7FF0CBC6D
:1001A0001A60906A1030F0C8A046A946B246BB4615
:1001B00080F309882038F0C80220C043004710B5FA
:1001C000084A1268914209D8074C89006458A6462B
:1001D0001FC8A446F047EFF309840FC410BD000008
:1001E0002C000020D4020000D402000000F06AFEBF
:1001F000104B06CB91421AD0083BEFF30980203810
:100200008862F0C044464D4656465F46F0C00CB486
:1002100000F0BCFF0CBC1A60906A1030F0C8A04619
:10022000A946B246BB4680F309882038F0C80220B0
:10023000C04300472C00002001F06CF8D8E7000014
:1002400000F050FB01F066F8D2E7000003210948F6
:1002500002680A430260084802680A4302600748CD
:10026000804707480047FEE7FEE7FEE7FEE7FEE7B8
:10027000FEE7000024050040540500401D03000077
:10028000C100000030B50B460146002020220124A9
:1002900009E00D46D5409D4205D31D469540491BBA
:1002A0002546954040191546521E002DF1DC30BD03
:1002B000064C0125064E05E0E36807CC2B430C3CB9
:1002C00098471034B442F7D3FFF7FEFEF41A00004B
:1002D000141B0000000000008307FF22DB0E9A4081
:1002E0008907090E994000280BDA0007000F08382B
:1002F000830808489B001818C36993430B43C361E4
:100300007047830804489B001B18186890430843F3
:100310001860704700ED00E000E400E010B500F068
:1003200095F8002805D01F491D484860C8131E498C
:1003300088611E48018CC9B201290BD1828C120739
:1003400008D1028D1206120F042A03D1828D1206E3
:10035000120F0AD0012921D1818C09071ED1018DEC
:100360000906090F0A2904D007E0114A012191600A
:10037000F5E7828D1206120F05D00D290ED1808D62
:100380000006000F0AD10B480168012904D00A4970
:10039000016001680129FCD1C021416110BD00004C
:1003A000DFFF07C000050040006C0040C00F00F0F8
:1003B0000006004000EC06407593000002E008C80B
:1003C000121F08C1002AFAD170477047002001E0CF
:1003D00001C1121F002AFBD1704710B5002A06DAAE
:1003E00052005208D21DD308DB00102203E0D21CB9
:1003F00093089B000C22002B02D09C188C4201D940
:10040000012010BD82188360411802604160C91A42
:10041000D018884202D810600246F9E70020106028
:1004200010BD00000026F643074D0124A405314607
:10043000012000F05FF90828F9D16868214681435E
:10044000A9602040E860F2E7000500501048018CE8
:10045000C9B2012917D1818C090714D1018D090670
:100460000A0F03D1828D1206120F0ED0090F012937
:1004700003D1828D1206120F07D0032903D1808D7C
:100480000006000F01D000207047012070470000D7
:10049000C00F00F070B50D46040004D0002A02D150
:1004A0002078012801D0802070BD204600F016FC85
:1004B000002805D02946204600F039F8002070BDFC
:1004C000812070BD0A4601469000064A10B580188A
:1004D0004038C06B002803D000F03CFD00F02AFD3E
:1004E00010BD00007C0B002010B504468089002858
:1004F0001CD06089800000190069086060780228BB
:1005000005D10021204600F025FD00F013FD72B654
:10051000A089401EA08162B66089401C80B26081C3
:10052000E189884201D100206081042010BD10B50E
:1005300000F010FD00F0FEFC10BD00000448426811
:10054000012149050B46934383600A40C26070470E
:100550000005005000200121174C034603220D46E0
:100560008540ED012D0F02D085002D192A60401C19
:100570002028F4D30F21114849058160C360002170
:100580000F4800F0C5F804460D4800220121083844
:1005900000F0ECF8642100F003F9002C01D00028F1
:1005A00000D0FEE7FF2591350121204600F086F8B6
:1005B000284600F007F8F7E7000700500005005054
:1005C000981A000080B5EFF30581002901D0822040
:1005D00080BD024FBC4600DF80BD0000C916000090
:1005E00080B5EFF30580002801D0822080BDEFF3B5
:1005F0001480C00703D0034FBC4600DF80BD01F06C
:100600006DF880BDDD16000080B588B0EFF3058081
:10061000002802D0822008B080BDEFF3148081074B
:100620001248890F06D001291AD0022910D00329B7
:1006300018D112E008A981F309880078C0070AD010
:10064000022080F31488BFF34F8FBFF36F8F09E050
:100650000078C00706D10320F3E70078C00701D077
:10066000FF20D8E7024FBC4600DFD4E7B41A0000F1
:10067000551700009EB50246EFF30580002816D0FE
:100680008020002A01D0002904D0029A019900900C
:1006900003B090BD11780129F7D101A91046FFF7E9
:1006A00023FF042801D00020EFE71020EDE7024FE0
:1006B0001046BC4600DFEBE7C7170000B0B5EFF30C
:1006C0000582002A10D00C4600F042FE0121C90725
:1006D000002807D0220C05D1058BC178A0B2FFF706
:1006E000F1FE29460846B0BD014FBC4600DFB0BD53
:1006F0000318000080B5EFF30583002B01D08220A2
:1007000080BD024FBC4600DF80BD000029180000FC
:1007100080B5EFF30582002A01D0002080BDEFF301
:100720001482064BD2075B78D20F1A4303D0044FD2
:10073000BC4600DF80BD01F0A5F880BD240000208C
:1007400085180000034FBC4600DF034FBC4600DFA6
:10075000FEE70000FD1800001919000080B5024FE7
:10076000BC4600DF80BD000055190000B0B5EFF3B6
:100770000583002B01D00020B0BDEFF31483064C9D
:10078000DB076478DB0F234303D0044FBC4600DF54
:10079000B0BD01F0EDF8B0BD2400002071190000DB
:1007A00080B5EFF30582002A01D0822080BD024F80
:1007B000BC4600DF80BD0000B11900000025094CD7
:1007C000ED4329462068FFF755FF02460846102AE8
:1007D000F7D1FFF7C3FF0028F3D002460846904741
:1007E000EFE700001C000020FEE700001C48006846
:1007F00001240004810FE01EFFF76EFD194E1A4F11
:100800001A4D346000F042F80002000A022824D990
:100810007968174A4018904201D952428018124A0A
:1008200040321060AC600120124A4004106072B681
:100830003068002807D001231B046B6030BF0E4ACC
:1008400000201060AB6062B66C607868884201D3AB
:10085000401A02E0064A511A081800F00FF8D0E7D3
:1008600010E400E0040000200015014000130140E6
:10087000FFFFFF0000E100E04011014080B5024FA2
:10088000BC4600DF80BD00006510000080B5024F4F
:10089000BC4600DF80BD0000B511000010B50C485B
:1008A000012484610B480021416081058C6041680E
:1008B0000029FCD002211120FFF70EFD064920205F
:1008C00088600648446006480460112010BD00009E
:1008D00000050040000100400015014000130140E8
:1008E0000010014005480168002905D00449496805
:1008F000C90701D0002101607047000000110140CC
:10090000001301400146EFF31080C207D20F72B608
:100910000868002801D003680B60002A00D162B685
:10092000704710B500280ED000290CD00B318A0872
:100930009200016844680B1A1B1B934205D20846BB
:1009400009680029F5D1002010BD002C07D021181E
:1009500003680B604A6001600846083010BD4260C1
:10096000083010BD70B50D4600280FD00849094C5D
:10097000884204D222680146104600F00BFB206832
:100980004570054800F02DF900F028FC70BD00000E
:10099000FFFF00002C000020C00B002010B50E4807
:1009A0000C4942680D480B680068934204D00A6005
:1009B000CB88421E9A188A808A8880B2824208D1E7
:1009C00000200860044800F00CF90146024800F0DD
:1009D00009FB10BD40000020C00B00203C0000209F
:1009E00070B51A4DE86800282FD0A88A401EA8824A
:1009F000002624E0A068002808D061684160606893
:100A0000002802D0A16881606660A6600F48214678
:100A1000183800F0E7FAA08AA8826078042804D188
:100A20000B49E08A09884018A08201206070E068C4
:100A3000E860E068002801D00561E6602661A88AC8
:100A4000002802D1EC68002CD4D170BDD80B002056
:100A50003C00002070B504000ED00C4DA178286831
:100A60000126827891420BD900F0DAFA28684670A4
:100A7000204600F0B3FB70BD054800F0B2F8F8E77F
:100A800066702146024800F0ADFA70BD2C000020CF
:100A9000C00B002010B50321FFF764FF10BD00005C
:100AA00010B50446008B084320836278618B062AC8
:100AB00017D0052A14D10A46104211D00240628391
:100AC00088432083204600F018FB01206070628B71
:100AD0000821204600F00DFB2146044800F082FA70
:100AE00010BD0A468243EBD010BD0000C00B0020B1
:100AF00002468800144910B540184038C46B002CD9
:100B00001CD0208B104320836278618B062A16D07C
:100B1000052A13D10A46104210D00240628388434E
:100B20002083204600F0E9FA01206070628B0821E2
:100B3000204600F0DEFA2046FFF78CFF10BD0A4683
:100B40008243ECD010BD00007C0B002070B5034642
:100B50000D480D460468002A208B08D019468143B1
:100B600001D0062109E098432083022070BD014690
:100B7000194001D06183F6E7052163832846FFF71A
:100B8000F1FE012070BD00002C000020814202D344
:100B900042688A4201D801207047EFF31082D207E1
:100BA000D20F72B603680B60016000D162B60020FC
:100BB0007047002810D000290ED00839002203E029
:100BC00002460068002807D08842F9D1002A05D0E3
:100BD00000681060002070470120704700214160CC
:100BE000F8E70146406842684A600B780022022B11
:100BF00005D0012B03D0032B01D04260704743681E
:100C0000002B01D09960426082607047810700D05C
:100C10000020704770B50446154600202070012260
:100C200062702246A170203211716060A060E060A5
:100C300020612062A082E082208360835071E08C7A
:100C4000002803D10448FFF75DFEE06229462046F4
:100C500000F01EF870BD000068010020002801D0DF
:100C6000082901D2012070474118091F00220160A4
:100C70000A60426010467047034800210160034942
:100C80000988C1807047000040000020B01A0000B1
:100C900030B5C28C920803D10E4A12881204920C0D
:100CA000C36A92009A18530700D5121F403A0123D5
:100CB0001B06D363002391631C469D005B1C5451AB
:100CC0000E2BFAD3C369136282620163C06A0249C0
:100CD000016030BDAC1A0000A52E5AE2C18980899E
:100CE000081A70470122027000224270827042602E
:100CF000028142818281034A89038918090CC181DA
:100D0000704700000000FCFFF8B50446406800276B
:100D10000D46002844D060780126012837D00228EB
:100D200013D0032832D10846FFF7ECFD05002DD083
:100D30002046FFF756FF0446294600F0D7F96670B3
:100D4000204600F0DAF921461DE02046FFF749FF72
:100D50000546002100F0CAF92189E86989000919CE
:100D6000086172B6A089401CA08162B62089401C2F
:100D700080B22081E189884200D127816E702846A7
:100D800000F0BBF92946134800F02CF9F8BD2046C5
:100D9000FFF727FF04462A46102100F0AAF9CEE704
:100DA000A089E189884211D220898000001905615B
:100DB00072B6A089401CA08162B62089401C80B216
:100DC0002081E1898842E1D12781F8BD0320FFF726
:100DD0000BFDF8BDC00B002070B5044680890026CD
:100DE0001546002834D06089800000190069086029
:100DF0006089401C80B26081E189884200D16681AF
:100E00006068002802D06078022806D072B6A089F7
:100E1000401EA08162B6002070BD2046FFF7E1FEB3
:100E20000546002100F062F92189E8698900091965
:100E300008612089401C80B22081E189884200D16C
:100E40002681284600F059F92846FFF703FEE2E71D
:100E5000002D08D00B4862680168002A05D02046A2
:100E600000F0C0F808E0012070BD616001684E60CC
:100E7000006884600120607008212846FFF772FD39
:100E8000F1E700002C00002010B5411C11D00A49E8
:100E90000A4C88420BD87D21C900484308490A689A
:100EA0008018401E1146FFF7EDF9A04200D92046F8
:100EB00010BD0248401C10BD00093D00FEFF0000AF
:100EC000C01A000070B5184801210268517000680E
:100ED00000F0A6F8154C657813E0E80001194868A1
:100EE0000278002A17D0012A1AD000F035F9E078EC
:100EF0006D1C854200D1002572B6A078401EA070FE
:100F000062B6A0780028E8D165700948FFF769FE4D
:100F100000F064F970BD098989B2FFF7C1FDE6E709
:100F20008968FFF7F1FEE2E72C000020F80A0020B4
:100F3000C00B002005480178002902D00121417032
:100F400070470120024900074860704734000020C4
:100F500000ED00E070B50E4BDD789C1C1E4672B6AD
:100F60009A78AA4207D2521C22703278541CAC42A2
:100F700000D10024347062B6DC78944204D9D200E7
:100F8000D2189160506070BD0220FFF72DFC70BD3B
:100F9000F80A002010B5124AD368002B17D0134668
:100FA0009B8A04E0002C12D02246A48AE318D4685D
:100FB0008B42F7D3C460D0600261C468002C00D0BB
:100FC0002061591A8182908A401A908210BD0024B3
:100FD000C460D060C91A02619182848210BD000091
:100FE000D80B002030B502780023022A03D0012A52
:100FF00001D0032A00D101238C7800E0104642681A
:10100000002A02D09578A542F8D24A604160002BB0
:1010100004D0002A00D09160886030BD0020FBE73A
:1010200003494A68426000228260486070470000BD
:10103000C00B002010B583680446002B05D16078F2
:1010400001280CD1064B03E09B6818780028FBD0E0
:10105000204600F067F821461846FFF7C3FF10BD91
:10106000C00B0020F8B505461B48012701684F70EA
:101070000068FFF7D5FF1949002008601848194C8F
:10108000C16800291AD0818AA94211D822686E1A33
:101090008918216087820746FFF7A2FC002E10D036
:1010A0002068761E401C2060F8680028F4D108E013
:1010B00023685A19491B2260818202E02068401986
:1010C0002060284600F0C0FC0748FFF78AFD00F0CA
:1010D00085F800F0CFFAF8BD2C0000204000002079
:1010E000D80B00203C000020C00B0020806A016269
:1010F0007047806A42620162704710B50169002939
:101100000FD0C268CA60C3680022002B07D08B8A48
:10111000848A1B198B82C3681961C26000E08A82CD
:10112000026110BD8168002907D042684A604168A9
:10113000002901D0806888607047064906E04A6847
:10114000824202D140684860704711460029F6D1BA
:1011500070470000C00B002010B5416800290FD077
:10116000FFF73FFD0446FFF7C8FF0120607001460E
:101170002046FFF7BBFF21460348FFF733FF10BDB2
:101180004188491C418010BDC00B002010B50748A4
:101190000068816AC06A814203D3006804498842BA
:1011A00002D00120FFF720FB10BD00002C00002022
:1011B000A52E5AE210B5074C00F0EAF90648C168BE
:1011C000002900D0848A00F057FCA04200D20446D7
:1011D000204610BDFFFF0000D80B002002494860E8
:1011E00002214170704700002C00002070B50020E3
:1011F0000446264A264902E08300D450401C0B884E
:101200009842F9D32348342201882348FFF7E5F8B0
:10121000224801210088C90780B24218204801688D
:101220002048FFF7DAF82048082201881F480068A4
:10123000FFF7D3F81E4DFF20E870EC841D4A002113
:101240002846FFF7E7FC1C480421017044601B4856
:101250000170C4600461848219481B490560022042
:1012600068701848047044700978C170FFF704FD75
:101270001648016AFF22120411430162C169026A21
:101280005202920E92061143C16170BD7C0B002088
:10129000A81A0000C81A00008C000020AC1A000038
:1012A000CC1A000068010020F01A000000000020A5
:1012B0008C0B0020ED070000C00B0020D80B002095
:1012C0002C000020F80A0020D41A000000ED00E0F5
:1012D00010B5FFF7E3FA0C490028086013DB820819
:1012E0000A49920051180A688307DC0EFF23A340C5
:1012F0001A430A60C206D20E012191404011044AED
:1013000080008018016010BD3800002000E400E07B
:1013100000E100E010B50B4801210268517000683F
:10132000FFF77EFEFFF73AFB07480168491C0160A2
:10133000FFF756FB00F062FB0448FFF752FCFFF793
:101340004DFF10BD2C0000203C000020C00B0020F1
:10135000002805D0810702D10178002900D00020A3
:101360007047000030B50D4C0023626805E0158918
:101370008D4204D813461268491B002AF7D189B25E
:1013800002600181002A02D01589691A1181002B9F
:1013900001D0186030BD606030BD00002400002026
:1013A0000F4B0022596803E0814204D00A460968C5
:1013B0000029F9D106E0002904D00168002A04D0F0
:1013C000116003E00020C0437047596001680029A4
:1013D00003D00A8900891018088100207047000096
:1013E00024000020FFB5080681B01E4617460C46B3
:1013F000000E00D14C1C1448FFF784FA050021D0E0
:101400002002000CEF62E884EE61E1B22846019A06
:10141000FFF700FC01240D480D4906E0A200121858
:10142000403AD26B002A04D0641C0A889442F5D951
:101430000024A10008184038C563EC702846FFF767
:1014400009FB204605B0F0BD8C0000207C0B00207D
:10145000A81A0000F8B5484D0028296802D0CA78BB
:10146000824238D100274F70FEF741FE296888621A
:10147000FFF78CFE2868046A19E06068002815D020
:101480002046FFF7AEFB06460021FFF72FFE304651
:10149000FFF733FE0120707031463848FFF7A2FD98
:1014A00001216180A660316AE1603462E468002C49
:1014B000E3D12868C1788A00314951184039CF6397
:1014C000C16A3048FFF762FB29682F48CF62FFF7F7
:1014D0005DFB2F604AE02D49098888420ED88100C3
:1014E00027480F18403FFD6B002D07D02846FFF717
:1014F00019FE2846FFF701FE2C6A1DE0FF20F8BD0B
:101500006068002817D02046FFF76BFB06460021D5
:10151000FFF7ECFD3046FFF7F0FD0120707031461B
:101520001648FFF75FFD01216180A660316AE16026
:101530003462E46800E0E468002CE1D1FC63114807
:10154000E96AFFF723FB29460F48EC62FFF71EFB11
:101550000A4840688278084801688B789A4208D91E
:1015600001224A7001680548FFF73CFD0020FFF7A3
:1015700071FA0020F8BD00002C000020C00B0020F4
:101580007C0B0020680100208C000020A81A0000BD
:1015900030B51048012243680F49002B09DA0F4C7F
:1015A0000523236102704A68920E1A408270500629
:1015B0000EE0DD06ED0E1446AC405B11084D9B00BD
:1015C0005B191C6002704A68D200D20F8270D0068C
:1015D000486030BD3400002000ED00E000E000E095
:1015E00080E100E070B51B4D002811D01A4A128826
:1015F000904220D88200194810184038C46B002C43
:1016000019D0A170242001552868A04205D014E00B
:1016100028688170286820300171114840688078FE
:10162000884215D90E482968FFF7DCFC296801209B
:10163000487000200AE0FF2070BD2046FFF7FAFC4A
:101640006078012804D10648FFF7CBFAFFF702FAC9
:10165000002070BD2C000020A81A00007C0B002088
:10166000C00B002002480068002800D0C0787047F6
:101670002C00002070B510480022014643680F4C32
:101680008978002B08DA0E4D07232B61027043780E
:101690009B000B4399060CE0DE06F60E0125B540D3
:1016A0005B11084E9B009B191D6002704378194323
:1016B00009076160427070BD3400002000ED00E059
:1016C00000E000E000E100E010B5002805D0FFF7E1
:1016D000DBFB80B2FFF7DEF9402010BD10B5154CE2
:1016E000207800280DD11448400706D1134801681E
:1016F0001148FFF7B3FA002801D0852010BDFFF78D
:1017000075FD0F49FF2009688870207800280BD1EB
:1017100000210C4800F042F80B49086000210B48FA
:1017200000F0B0F80A4908600120207000206070C5
:1017300010BD000024000020D0030020D01A0000BB
:101740002C000020E81A00001C000020D81A00001D
:101750001800002070B50F4D6878002801D00020D7
:1017600070BD0D4C2068203001790020FFF73AFF52
:101770002168C878FF2803D1886A203080F309885F
:101780006068002800D103C4FFF7A2FD0120687043
:10179000E5E70000240000202C00002010B5040024
:1017A00008D02168002905D06068002802D002789E
:1017B000002A01D0002010BD8900103189B2FFF746
:1017C00091FA606810BD3EB5044680200D46002C9D
:1017D00013D02178012910D12846FFF755FB82B29A
:1017E00001A92046FFF7F8FA012801D0102004E0F3
:1017F000002D01D0402000E00020029A019903B0A2
:1018000030BD70B50C46FFF7A3FD0121C9070028C4
:1018100001D0220C01D0084670BD058BC178A0B262
:10182000FFF766F9284670BD70B504460D46000CFA
:1018300001D0862020E0002C084605D0FFF724FBCD
:1018400081B2A0B2012204E0FFF71EFB81B20022A8
:101850000A48FFF77BF9022803D0002D0AD0402068
:1018600009E00820002C01D0214605E00449096860
:10187000498B01E000200021324670BDFFFF0000CF
:101880002C00002070B50E4604002ED020680028E1
:101890002BD00420205EC11C27DB032825DCE16857
:1018A000002905D01248FFF73CF8050016D000E0EB
:1018B00000250421615EE068091D000201433346F2
:1018C0002A462068FFF78EFD002808D009498000CD
:1018D00040184038C06B0849826A516370BD002DC2
:1018E00003D029460248FFF764F9002070BD0000CC
:1018F000D00300207C0B00204507000010B5FFF747
:10190000B1FE002804D00349800040184038C06B65
:1019100010BD00007C0B002010B5FFF719FD00285A
:1019200004D0C18C002903D0C46A02E0802010BD1D
:101930000024C078FFF78EFDFF2807D0002C03D0CD
:1019400021460348FFF735F9002010BD812010BD66
:10195000D003002010B5FFF759F9002805D0016920
:10196000C26809680846114610BD0020014610BD36
:1019700010B5030010D0186800280DD05868002852
:101980000BD0002901D0012906D1084C2468002C75
:1019900002D00479002C01D0002010BD0024046086
:1019A0000124047141710361C26010BD1800002060
:1019B00070B50D46FFF72AF904000AD02846FFF754
:1019C00063FA050007D0207901280DD0022809D13B
:1019D00003E0802070BD862070BD2046FFF7E0FC4C
:1019E000002804D0812070BD022020716581294625
:1019F0002046FFF7B7FC002070BD0000F8B5104E80
:101A00007468002C16D020890E4F401E20810EE0F5
:101A1000254624687460002229463868FEF73AFD9E
:101A20006879012807D001202871002C02D0208974
:101A30000028EDD0F8BD69892846FFF793FCF4E74C
:101A4000240000201C00002070B504460126094D2A
:101A500006E00189A14209D8641A0681FFF7CEFF8A
:101A60006868002801D0002CF3D170BD0189091BE2
:101A7000018170BD2400002003484068002801D087
:101A8000008970470148704724000020FFFF0000D4
:101A90003D05000048000020250400000100000072
:101AA000010000000000000004000000C800020166
:101AB0000500010001000000020001004A000400CE
:101AC000E803000000000000DC00000068020000E5
:101AD0002807000010000000BD0700000200000001
:101AE0000100000020030000080000005C0000204E
:101AF00000000000141B000000000020480000004F
:101B0000BC0300005C1B000048000020A80F000080
:101B1000CC0300000000000000000000550500009C
:101B20000000000001000000E803000000000000C9
:101B3000000000000024F40000000000000000008D
:101B40000000000000000000000000000000000095
:0C1B500000000000000000000000000089
:04000005000000C136
:00000001FF
