:020000040000FA
:1000000058130020F50000000F010000110100004E
:1000100000000000000000000000000000000000E0
:1000200000000000000000000000000013010000BC
:100030000000000000000000150100001701000092
:1000400019010000210500009D08000019010000B1
:1000500019010000000000009102000019010000D9
:100060003108000019010000190100001901000009
:100070001901000019010000190100001901000018
:1000800019010000E106000019010000190100003B
:100090000107000009070000190100001901000014
:1000A000190100001901000000000000000000001C
:1000B0000000000000000000000000000000000040
:1000C0000348854600F0B0F8004800477923000057
:1000D00058130020401E00BF00BF00BF00BF00BF7C
:1000E00000BF00BF00BF00BF00BF00BF00BFF1D115
:1000F000704700000321094802680A43026008486B
:1001000002680A4302600748804707480047FEE745
:10011000FEE7FEE7FEE7FEE7FEE7000024050040FD
:100120005405004091070000C100000030B50B46A7
:10013000014600202022012409E00D46D5409D42C1
:1001400005D31D469540491B254695404019154647
:10015000521E002DF1DC30BD03460B439B0703D03C
:1001600009E008C9121F08C0042AFAD203E00B787C
:100170000370401C491C521EF9D27047D2B201E0F4
:100180000270401C491EFBD270470022F6E710B5F2
:1001900013460A4604461946FFF7F0FF204610BDF5
:1001A000421C0178401C0029FBD1801A704730B5F1
:1001B00004460020034600E05B1C934203D2E05C4F
:1001C000CD5C401BF8D030BDF0B51FB40646002012
:1001D00082B005464024019100901BE0019922461F
:1001E0000F46304600F042F8049A059B801A994168
:1001F00010D310461946224600F028F8361A8F41CF
:100200000197224601200021009F00F01FF83818B6
:100210004D4100902046641E0028DFDC019B0098C1
:100220002946324607B0F0BD064C0125064E05E0D2
:10023000E36807CC2B430C3C98471034B442F7D307
:10024000FFF742FFF45400001455000010B5202AB7
:1002500004DB0146203A9140002010BD914020234C
:100260009C1A0346E3401943904010BD10B5202A64
:1002700004DB0846203AD040002110BD0B46D34095
:10028000D0402024A21A91400843194610BD000016
:10029000F0B50025FF268BB0013601242F460195CD
:1002A000304602F02DFE002807D048484068204222
:1002B00003D0304602F01CFE2543361D64007F1C2F
:1002C000B6B2042FECD3FF247D34204602F018FE92
:1002D000002807D0204602F00BFE600705433C488B
:1002E000006901903B4C280714D0012700262F42BB
:1002F0000CD03948B200111808690969C004C00E51
:100300008903A258890F002A00D090477F00761CED
:10031000042EECD3002D57DA00200590401E4DE04E
:10032000A119403108788506AD0E42B2521C39D071
:100330000121A940089A0091114233D0800903900D
:10034000284601F081F8800020580490002802D14E
:100350000398032826D103980099032802D1059811
:10036000084305901D4AA80080180068019A800380
:10037000800F114202D0022802D013E0032811D1CD
:100380000399032907D102281CD00221284602F034
:100390009FFD7F1CFFB20498002803D0049A2846D2
:1003A00003999047761C042EBAD3002F0CD008482E
:1003B00000690199884207D00190059800273E46C0
:1003C0000890ADE70321E1E70BB0F0BD006300400A
:1003D00000050050D80100200065004000070050D3
:1003E00010B502F09DF810BDF7B5074600240120B6
:1003F0002E490004154688602D4EB078002802D0A2
:100400002C48FFF7EDFF002F02D12B48FFF7E8FF44
:100410007068002802D02948FFF7E2FF284677607D
:100420000127274D002820D0012828D0022824D0D9
:100430002448FFF7D5FF2448B770002101600199D7
:10044000611889B229602E6820494F606D68006884
:10045000002802D01E48FFF7C3FFA64211D3A542D1
:1004600001D3B5421CD31B4818E0184847606C689C
:100470000760154900200860DDE7AC68DBE72C6801
:10048000D9E7B54201D2012000E00020AC4201D8FA
:10049000012100E00021884202D10F48FFF7A0FFB0
:1004A000012002490004486003B0F0BD0083004011
:1004B0009C00002073000400750004007600040016
:1004C0004085004089000400408100404080004099
:1004D0009B000400B0000400C90004008307FF2251
:1004E000DB0E9A408907090E994000280BDA0007B5
:1004F000000F0838830808489B001818C369934305
:100500000B43C3617047830804489B001B1818689D
:10051000904308431860704700ED00E000E400E0FD
:10052000F8B55F4C20696778401C2061607D002829
:1005300002D05C48FFF754FF204622785A4D002431
:100540005A495B4E032A3FD1CA68002A3CD0012F8A
:1005500003D0022F2FD057489FE007460069032899
:1005600002D05548FFF73CFF02203870B969491C9A
:10057000B96152490C60C11EA960514908604B48DD
:10058000C460046004614460032179707C603C7540
:100590003268117D00290AD04A498B68BB75C46155
:1005A000494B01209861494B800298608C60D0686B
:1005B00000283AD1F8BD0069012802D04448FFF76D
:1005C0000FFF03F0F9FCF8BD032F65D0012F2ED0EB
:1005D000022FF6D042783F4B1201D218137B00272E
:1005E000002B03D0CB68002B00D00127927A334B2D
:1005F00002701C60032A49D00022D243AA60304B0B
:1006000002221A60CC60032242700C600C614C60C4
:100610004460047530680069002800D08047002FCE
:10062000D1D0306880680028CDD08047F8BD0269FD
:10063000012A18D0022AF9D1CC600C610C601F4944
:100640000C60111FA96008216960032101704460DA
:10065000047530680069002800D0804730688068E1
:100660000028E2D1F8BD0C604C600021C943A960AC
:10067000012169603168097D002903D00121134AF5
:10068000890251601449C0684860F8BD0822D2430D
:10069000AA6008226A60B8E71048FFF7A1FEF8BD1B
:1006A0004008002090010A000013004000110040A3
:1006B000A4000020A9010A009F010A0000120040C6
:1006C00080E200E0401500400010004000F50140CD
:1006D000A4010A00B854000000150040D6010A0029
:1006E00010B506490020086048608860C86003496A
:1006F00040390860486004F0ABFC10BD4011014077
:1007000010B504F01BFC10BDF8B5204D2C4680340C
:10071000012080F310886068002832D020680C2106
:10072000484340190279310A090211434279FF23F3
:100730001B02120299431A40114382791B021204D0
:1007400099431A401143C2790E02360A11060E432C
:1007500081688289C08997B2000407436068401E9F
:1007600060602068401C206020680A2801D30020B7
:100770002060002080F310882B683A463046984766
:10078000C6E7002080F31088F8BD00006408002050
:1007900010B501F081FB002805D01F491D484860B5
:1007A000C8131E4988611E48018CC9B201290BD1AA
:1007B000828C120708D1028D1206120F042A03D16F
:1007C000828D1206120F0AD0012921D1818C0907CE
:1007D0001ED1018D0906090F0A2904D007E0114A2C
:1007E00001219160F5E7828D1206120F05D00D29C7
:1007F0000ED1808D0006000F0AD10B480168012937
:1008000004D00A49016001680129FCD1C02141617D
:1008100010BD0000DFFF07C000050040006C004075
:10082000C00F00F00006004000EC06407593000089
:1008300070B5012013490004886013480025056045
:10084000124C6068002802D11148FFF7C9FDA5705D
:10085000636810480122656042600F484168006883
:1008600095031430A94205D20325AD03A84201D94E
:10087000627005E0814201D3012000E00020607039
:10088000984770BD00830040408100409C000020DC
:10089000EC000400408000404085004010B5024953
:1008A000024804F051FC10BD20020020002000404E
:1008B0000FB410B504A9074B02AA039800F028F85A
:1008C000044602A9002000F05DFA204610BC08BCD6
:1008D00004B01847850D000030B47446641E2578B6
:1008E000641CAB4200D21D46635D5B00E31830BC64
:1008F000184702E008C8121F08C1002AFAD1704741
:100900007047002001E001C1121F002AFBD170478F
:10091000FFB591B00F460546002606E025280AD00F
:10092000149A139990476D1C761C28780028F5D1ED
:10093000304615B0F0BD002400940121F34A029422
:1009400000E004436D1C2B780846203B9840104281
:10095000F7D128782A280ED0022128780246303A8A
:10096000092A15D8009A0A235A43303A80180C43B2
:100970006D1C0090F1E701CF0090002805DA0120FE
:1009800040030443009840420090022004436D1C41
:1009900028782E2815D10420044368786D1C2A2855
:1009A0000AD101CF6D1C02900BE002990A2251433B
:1009B000303940186D1C02902878014630390929D9
:1009C000F3D928786C2810D006DC4C281AD0682877
:1009D0000ED06A2817D104E0742813D07A2812D1D7
:1009E00010E00120400504430CE00121090501E06D
:1009F000032109050C436978814203D101200005D8
:100A000024186D1C6D1C287803906E281ED00CDCF9
:100A1000632831D004DC00288AD0582811D1B2E0F4
:100A200064287BD069280CD178E073282DD004DCB1
:100A30006F2870D0702804D1A7E075286CD0782872
:100A40006BD0149A13999047761C62E06002400FB5
:100A5000022807D003280AD0042838680AD0066084
:100A60003F1D56E03868F11706604160F8E73868C6
:100A70000680F5E70670F3E73878694608740020C9
:100A8000487404A80390012003E038680390002014
:100A9000C0433F1D61070FD5002101E00199491CAA
:100AA000029A0191914213DA8142F7DB019A03998C
:100AB000895C0029F2D10BE0002101E00199491C79
:100AC00001918142FADB019A0399895C0029F5D1F1
:100AD00001990098139A401A00902146149B00F047
:100AE0003BF901998019461807E0039803990078AB
:100AF000491C0391149A139990470198401E019044
:100B0000401CF2D12146149B139A009800F014F96E
:100B100086196D1C09E741E033E034E00A2000212A
:100B2000049005916002410F022905D001CFC21740
:100B30009446032905D007E0FF1DFF08FF0003CFFF
:100B400006E000B2C2179446042902D140B2C11790
:100B50008C4600226146944506DA0A46002140424E
:100B600091418C462D2102E0210504D52B216A46B6
:100B70001176012103E0E10701D02021F7E701917F
:100B800054E00A200BE0102009E01020049000211E
:100B90000420044308200591029003E0082000216E
:100BA000059104906002410F022905D001CF002277
:100BB0009446032906D006E0FF1DFF08FF0003CF7F
:100BC0008C4603E080B2042900D1C0B2002101911B
:100BD00021072BD50399702906D0049A1021059B73
:100BE0004A401A4305D00EE040216A4611760121A1
:100BF00008E06146014306D030216A461176039928
:100C0000517602210191049A0821059B4A401A431A
:100C10000CD16146014301D1610707D530216A46F5
:100C20001176012101910299491E029103995829D7
:100C300004D037A103910FA90F910DE039A1F9E775
:100C40006146059B049AFFF7BFFA039B8C469B5CA9
:100C50000F9A521E0F92137061460143F0D10F9804
:100C600007A9081A20300390600704D5012000046A
:100C70008443029801E0012002900399884201DD3B
:100C8000401A00E0002041180290019809180098CD
:100C9000401A0090E00306D42146149B139A009852
:100CA00000F05AF886190020049008E006A9085CB4
:100CB000149A139990470498401C761C049001994B
:100CC0008842F3DBE0030CD52146149B139A00986D
:100CD00000F042F8861904E0149A302013999047E6
:100CE000761C0299481E02900029F5DC08E00F9856
:100CF0000F990078491C0F91149A13999047761C0C
:100D00000399481E03900029F1DCFBE60928010045
:100D10003031323334353637383961626364656671
:100D20000000000030313233343536373839414233
:100D30004344454600000000F8B5044600251E4621
:100D40001746880404D405E039462020B0476D1CBE
:100D5000641EF9D52846F8BDFFB50446002581B0CC
:100D60001E46C80301D5302700E02027880404D59B
:100D700005E038460399B0476D1C641EF9D5284636
:100D800005B0F0BD0A68531C0B601070704700007E
:100D9000044842680121C9050B46934383600A4019
:100DA000C26070470005005009A1012003F084FCD7
:100DB00003F0CAFB03F0CEFB0028FBD1BFF34F8F3B
:100DC0000A490948C860BFF34F8F00BFFDE7000024
:100DD0004150505F4552524F523A4552524F523A4B
:100DE000466174616C0D0A000400FA0500ED00E034
:100DF0000EB50021029000916A4601910148FFF76B
:100E0000D3FF0EBD01400000094B5B68002B07D0EB
:100E1000002A07D0002805D00068037C002B03D0EF
:100E200008207047072070474174426100207047D6
:100E30002C000020FFB507469007002581B01E4614
:100E40001446002825D1002C23D003F0E7FF3046BC
:100E5000114EF06030461030057045700299817077
:100E600044607560357001240C4875702405046079
:100E700003211420FFF732FB09480460094CA760E6
:100E800003211120FFF72AFB6068B060002005B045
:100E9000F0BD0720FBE700001C00002080E200E01E
:100EA00000E100E000150140FEB51D4B5B68002B22
:100EB0002DD000282BD0052901D20720FEBD436983
:100EC000002B24D0437C012B23D00027044600258F
:100ED00016462846019100F03BF8684604F0A0FA57
:100EE000002818D0012101700E49446049688160D2
:100EF000019907614661C1606846094900784870F8
:100F0000002000F029F804F05BF82846FEBD082018
:100F1000FEBD0F46DAE70425002000F01DF8F4E7D7
:100F20002C0000200015014010B50849496800292F
:100F30000AD0002808D04169002905D00021017499
:100F4000022104F065F810BD082010BD2C0000201F
:100F500000B500F005F800BD00B500F009F800BDCF
:100F600072B602480168491C016070473C000020CD
:100F700003490868401E086000D162B6704700004F
:100F80003C000020F0B549488BB003684849494A05
:100F9000012B02D04B6B002B05D153681B78202B03
:100FA00001D8012300E00023434D03242C700024CA
:100FB000404A002B146057D084688268CA623D4A58
:100FC00003A901920091C26801232146184603F04B
:100FD00039FC002824D0012805D0022824D0032879
:100FE0004FD036484BE00398002802D03448FFF732
:100FF000F7F9204603F09AFD002802D13148FFF7A7
:10100000EFF968680222817D684600260270019629
:101010000681468144708170C67003F089FB30E020
:101020002948FFF7DDF92CE00398002802D1274872
:10103000FFF7D6F9204603F079FD002802D12448B5
:10104000FFF7CEF968680222817D039E6846027030
:1010500000236A46019613815381447001278170F1
:10106000C77003F065FB0CE00020009003460246C9
:101070000146019003F0E6FB042802D01548FFF773
:10108000AFF90C4C2068002807D001206075124889
:101090002061042028700BB0F0BD02F043FF002057
:1010A0006075206100F01AF80BB0F0BD001400402C
:1010B000001500401C08002088000020C805090019
:1010C000B8050900B9050900BD050900C0050900FA
:1010D000C1050900CF0509007911000070B502F0C3
:1010E00021FF1C4C00251C4E0120256130701B483F
:1010F0001B490069086303F01FFD00281FD003F09F
:101100001BFD032802D01748FFF76AF9022003F0FD
:1011100005F8002003F07CF803F00EFD032802D050
:101120001148FFF75DF93078012802D00F48FFF72A
:1011300057F9022030700E482561E06070BD03F061
:1011400033FB0228E2D303F083FD60600028DDD189
:101150000848D9E71C08002088000020CC070020A0
:101160000015004080050900880509009205090066
:10117000850F00007B05090010B5034905200870A4
:10118000FFF7ACFF10BD00008800002010B50D4A2D
:1011900051609060C00706D007210B484905816067
:1011A0000022C2608161094A00210948FFF72CFE34
:1011B000002805D10648074A0121001DFFF724FE3B
:1011C00010BD00000000002000050050E11E0000DE
:1011D00058540000910D0000FEB5764D0322EB68D7
:1011E00092059A4302936B6800939C0006461B1974
:1011F000002001210193490507466F4C3300FFF79A
:101200006BFB180D1515374755677C7F887F88D68F
:101210009595959595BFC5C8CFD6D6140721029A46
:1012200049059143A160E7602F70FEBDA260E760B1
:101230006068072252055040800209D5A160E7602E
:10124000022E02D1E120C0000AE07D20400107E02B
:10125000E160A760022E01D1C82001E0FF2091309B
:101260002E706421FEF762FF0099414300223FE0A7
:10127000A260E7606068072252055040800204D5F2
:10128000A160E76019204001EAE7E160A760E3E7B9
:10129000A260E7606068072252055040800202D5D4
:1012A000A160E760D1E7E160A760D7E7A260E760EF
:1012B0006068072252055040800202D5A160E760B5
:1012C00001E0E160A7602E700098410000220FE06D
:1012D000A260E7606068072252055040800202D594
:1012E000A160E76001E0E160A7602E700099002234
:1012F00032480068FFF7D8FDFEBDA260E76012E04B
:101300006068012189050A468243A2600840E060C6
:10131000ECE76068012189050A468243A260084023
:10132000E0600199D2E7E160A7602DE023484068C2
:10133000FFF7FAFD11218A1B01D0002807D00722F0
:10134000E96852051140A160E760EF60FEBD012130
:10135000C905E960012A0CD91046C8214843642117
:10136000FEF7E4FE69680022414314484068FFF735
:101370009BFD0722E96852051140E160A760FEBDB0
:1013800007214905A160E7602E70FEBD032292058A
:10139000B3E705214905A160E76001218905C2E79E
:1013A0000121C905A160E76003214905BBE70721C9
:1013B0004905B8E70000002000050050585400001F
:1013C000002901DA002070470268511801600120ED
:1013D00070470000F8B5461C01250020FFF7B8FD56
:1013E0001149741C0A6848688B68101A1F1A7F1C00
:1013F000BC4212D9002F0ED00C480D4C0088246836
:1014000080051A40800DA402920020435218D0603B
:101410000868401C0860002501E090190860002061
:10142000FFF79AFD2846F8BD6C03002080540000A9
:101430004C000020034803C8814201D101207047BD
:10144000002070476C03002002490918202008562C
:1014500070470000D8010020F8B5234841680029F2
:101460003ED00E6821494C6887688078E11B0D02E8
:101470002D0AED1C002814D101201D4A00045060E3
:101480001B4A403A50601B49400008601A490860F6
:101490001A49012008602F2001F0C0F812490120EC
:1014A0008870B54200D23546E81900020F4B000A99
:1014B000403318600D4A5168001B091B0902090AD4
:1014C0000002000AC91C814209D9506818602F2007
:1014D00001F0A4F801200749400480390860F8BDF4
:1014E00003F09CFCF8BD00001C000020001501402A
:1014F0004013014080E200E000E100E00010014004
:10150000F0B5454885B00068012803D04348406BDA
:10151000002806D1424840680078202801D80125DB
:1015200000E000253F4C01266069002804D101F04D
:101530009BFC002800D1666103F0FEFA012802D06E
:101540003948FEF74DFF39484068007D002802D039
:101550003748FEF745FF02F0E5FC002D57D001218A
:10156000084603F039FA052840D201007944097988
:1015700049188F4402381D383800002703F0CAFA92
:101580000390A689E58903F0CBFA0246274869460D
:101590004068837D0F700399019169460E814D81EA
:1015A0004A7000208B70C870684603F0C1F81DE0D7
:1015B000002703F0AFFA0390A689E58903F0B0FA9B
:1015C00002461A4869464068837D0F70039901916D
:1015D00069460E814D814A7001208B70C870684643
:1015E00003F0A6F802E01348FEF7FAFE00F0CEFF83
:1015F000206111481149426962602378022B01D0B1
:10160000002A06D0C0680860002000F0F3FF05B093
:10161000F0BD8068F7E700000014004000150040AE
:101620001C08002000080020A806090088000020EF
:10163000A9060900C8060900CC07002034080020CC
:1016400010B50E4900230A784C78A24212D0521CE1
:10165000D2B20A70022A00D10B700A78074B9200AE
:1016600018339A580260886810180002000A8860CF
:10167000012010BD0360002010BD00001C000020F0
:1016800030B5244D83B0687E00283BD001F08CFB40
:10169000002401280CD001F0D1FB1F48007F002856
:1016A00002D1012081074860002003F075FB6C60C7
:1016B00002F038FCAC706C7605216846017001942C
:1016C0000481448144708470C47003F031F813487D
:1016D0001349047003200002886003F02DFA0128EA
:1016E00012D0022810D003280CD1002300941A46EF
:1016F00019461846019403F0A5F8042802D00948B9
:10170000FEF76EFE03B030BD0021084603F064F919
:10171000F3E7000000080020CC070020880000202C
:1017200000F50140E801090010B501F04FFC01F09F
:10173000A3FD0028FBD110BD10B50024204601F008
:101740009DFC641C082CF9DB10BD10B501F0CAFC2F
:10175000012804D0FFF7E8FF012001F0FFFD01F0B0
:101760008BFD002801D101F03DFC10BD10B54000FB
:1017700001F0A0FD10BD10B50024204601F08EFC44
:10178000641C082CF9DB10BD10B503220149FEF7DB
:10179000E3FC10BDA4540000F0B50746204889B012
:1017A000007815460E46002813D0012814D00228D0
:1017B00034D110221B4904A8FEF7CEFC1A490D2291
:1017C00004A8FEF7C9FC0020154B6C465B1C0246C2
:1017D0000DE010221349F3E71022124904A8FEF786
:1017E000BBFC04A800F094F8EDE7052802D2195CD0
:1017F000215400E02254401CC0B21028F5D301F05F
:10180000A5F804A801F0B4F86946084601F074F898
:101810002B466A463146384600F02EFB09B0F0BD33
:1018200050000020A7540000A407002001490870C0
:10183000704700005000002010B501460D220248FC
:10184000FEF78AFC10BD0000A407002010B5014679
:1018500005220248FEF780FC10BD00005100002068
:1018600070B5094C0D46E278002A0AD00749FEF708
:1018700073FC002D01D0E07828700020E07001207A
:1018800070BD002070BD000056000020B107002090
:101890000248C078002800D0012070475600002080
:1018A000F7B5064682B0144611464E20FEF73EFCC0
:1018B00000900220307030194F212038C1770398F2
:1018C000002811D00125671E0CE0A9070398890F95
:1018D000405C0099FEF72AFC009868430818705590
:1018E0006D1CEDB2BD42F0DB012105230CE0701848
:1018F0002038725CC07F101AC0B2052802D2181AB4
:1019000010187054491CC9B2A142F0D305B0F0BD03
:1019100010B505220149FEF71FFC10BD01100000A3
:1019200010B505220149FEF717FC10BD5E0000202E
:10193000F8B5012705463F03B8790E46FF2813D1B5
:101940000021B81D02F052FF00240BE0012168467F
:1019500000F00EFA684601780948201802F046FFA8
:10196000641CE4B2B442F1D3002005E0C119C97986
:10197000401C2970C0B26D1CB042F7D3F8BD000006
:101980000710000030B58BB0202000243F4D0A9096
:10199000AC70204601F0BCFB002805DD0AAA02A9B4
:1019A000002001F02FFB0446E87820430AD10120F3
:1019B00001F0AEFB002805DD0AAA02A9012001F012
:1019C00021FB0446002C40D06846007A0300FEF755
:1019D00083FF07053C090D1125373C0002A800F0E4
:1019E000B5F832E002A800F08DF92EE002A800F070
:1019F0004FF92AE069460A2008700C46481CFFF798
:101A00008FFF00F051F8002802D1601CFFF71EFF85
:101A100001220621684600F089F816E002AC012098
:101A2000FFF704FF1022611C601CFFF7B5FE601C6D
:101A300000F014FA002808D0201DFFF7FDFE04E096
:101A40000A98C1B202A800F0E3F801F015FC0028E2
:101A50000CD1FFF78BFE6878002805D001F066FBFB
:101A60000121084301F094FCFFF76FFE07490020B5
:101A700008310A5C521C1206120E0A5403D1401C93
:101A8000C0B20528F5D30BB030BD000056000020D1
:101A900000B500F009F8002802D0024902200870C1
:101AA00000BD00005600002002480078002800D049
:101AB000012070475600002008B504216846FFF752
:101AC00037FF684600F070F901F030FB022108434F
:101AD00001F05EFC04490020487088700870C870EE
:101AE000FFF744FE08BD00005600002070B50E4D03
:101AF00004466878A04215D0FFF716FE002C06D0E9
:101B000001F014FB0121084301F042FC07E001F061
:101B10000DFB4008400001F03BFC002028706C7079
:101B2000FFF713FE70BD00005600002070B516468A
:101B30000C460546FFF7F8FDFFF71DFE2246294635
:101B4000304601F0E7F9FFF700FE70BDFEB505462F
:101B5000202002902D4E0020B070FFF7E5FD01F02F
:101B6000E5FAC4B2311D0220085E4021C84244DBC0
:101B7000002001F00DFC9620FFF7F8FDFFF7DCFDDB
:101B8000FFF7E3FD01F078FB0028FBD10820694650
:101B9000087000A804210130FFF7CAFE052269463B
:101BA000002001F0B7F9FF205F30FFF7DFFD0120D3
:101BB00001F0EEFBFFF7C9FD01270DE0002001F069
:101BC000A7FA002808D002AA2946002001F01AFA34
:101BD0002878012800D1B77001F04EFB0028EDD124
:101BE000FFF7C9FDFFF7A8FD0020FFF7BFFD204666
:101BF00001F0CEFBFFF7A9FDFEBD6008400001F03B
:101C0000C7FBFF20F530FFF7B1FDF3E756000020DA
:101C10003EB50D460446FFF747FF002801D00020DF
:101C200000E00220FFF702FE681EC2B2611C601CC9
:101C3000FFF7B2FD601C00F011F9002807D02D1F3E
:101C40001148EAB2C270211D1048FEF785FA6946B4
:101C50000B2008700C46881DFFF796FD0322A11D7E
:101C6000A01DFFF799FD601CFFF75AFEFFF71CFF50
:101C7000002802D1601CFFF7E9FD01220921684616
:101C8000FFF754FF3EBD000056000020B1070020C2
:101C9000FEB50446FFF708FF002826D00020FFF716
:101CA000C5FD0322611C601CFFF776FD601C00F07F
:101CB000D5F8002819D0124C002520786E4602284D
:101CC00014D0032818D035710920694608703446AD
:101CD000701CFFF759FD0922611C601CFFF75CFDB9
:101CE00001220A216846FFF721FFFEBD0120307165
:101CF000701DFFF70DFE01E0022030712570E3E753
:101D0000560000207CB5194D0446687800282BD079
:101D1000FFF7CAFE002804D1601CFFF797FD0120E1
:101D200028706846FFF7F4FD00216846425CFF2AF0
:101D300002D1491C0529F9DB052915D1FFF7F0FD72
:101D400069460523621C084600F096F80124240326
:101D500020786946FF2807D10522601C02F064FD47
:101D60000021204602F042FD7CBD0000560000200C
:101D7000F0B50A4B00271F60094D01242C603A463C
:101D800008E01E68002EFCD0064EB66886541F6020
:101D9000521CD2B28A42F4D36C60F0BD00D1004034
:101DA00000D0004000D50040F0B585B0054601F0F8
:101DB00063FA294C0646002D4BD069782878090231
:101DC0004018A978EA78090412068918471801F022
:101DD000FFFA204601F07AFA00280CD000210846CC
:101DE00001F052FA002806D0384601F07FFA0028A8
:101DF00001D0012403E0012409E0002F07D021468F
:101E0000084601F041FA002801D0012700E0002730
:101E1000641CE4B2082CF0D301F058F90446C2B2B5
:101E200029466846FFF73CFD002F0FD02146684643
:101E300001F06CFA002809D00120002E04D001F036
:101E4000D1F8002805D0012005B0F0BD0020002EFB
:101E5000FAD00020F8E700000406080A10B50322B3
:101E60000449FEF7A4F9002801D0002010BD01208C
:101E700010BD0000A454000070B5002408E00D78E7
:101E80001678641C75400570401C491CE4B2521C55
:101E90009C42F4D370BD00001048018CC9B20129E6
:101EA00017D1818C090714D1018D09060A0F03D1BE
:101EB000828D1206120F0ED0090F012903D1828DD7
:101EC0001206120F07D0032903D1808D0006000FE0
:101ED00001D000207047012070470000C00F00F0C3
:101EE00010B50448017AC90702D00078FFF774F9E9
:101EF00010BD000000000020F0B5284C214610392C
:101F000048688B68227886469C46CF78667836E0AB
:101F1000182353436168521CC918A378D2B2934264
:101F200000D100220B78022B02D0032B27D123E013
:101F300003464D68194603E0A94204D00B46C9691F
:101F400000291CD0F8E7002919D08B4208D1C069BC
:101F5000002805D1124F0125BD600025AC460127A0
:101F60000D68C969D961002909D00B685B190B603C
:101F700005E00174C06900E000210028F9D1964213
:101F8000C6D10649624610398A604860CF707045F4
:101F900001D00120F0BD0020F0BD00002C00002089
:101FA00000100140F8B52C4E0446706800250090E2
:101FB00041E0002C02D02046E46920E026481823A6
:101FC0001030017842684B43491CC9B2D2180170E5
:101FD0008378994200D105701178506801292CD17D
:101FE000017C002929D191684160D1688160116923
:101FF000C16051698161F178002900D04560436872
:10200000B268164F991A0902090AB94202D28268C7
:10201000891806E0D11A09028268090A8A4202D99F
:10202000511A016000E0056045600121856001747E
:10203000C56102F0CDFF002CBBD1074810300178FC
:1020400040788142BAD171680098814201D0012064
:10205000F8BD0020F8BD00001C000020FFFF7F003D
:10206000F8B5AB4D002068610326AA4F3602BE606A
:10207000A949C8630120C863A84C606989158843D1
:102080006061606900090001801D606160690F2165
:1020900009048843310240186061A06901214906A2
:1020A0008843A061A06949100843A061A069000AA3
:1020B00000022030A061A069FF2109028843A061CD
:1020C00097490220086000F067FEE8619548A86122
:1020D0007E60954801F0F8FF944948609448A169F2
:1020E000427F07231B04994312041143A16100217D
:1020F000036A0A461827D6001846F040C0B2850782
:10210000C407ED0F240EAD0125434407E40F64011D
:102110002C430507ED0F2D012543C406E40FE40011
:102120002C438506ED0FAD0025434406E40F640003
:102130002C43C0092043BC1BA040521C0143D2B217
:10214000042AD8D37548C1617948436A0020024601
:10215000D5001946E940C9B2CC07260E8C07E40F1A
:10216000A40134434E07F60F760126430C07E40F13
:1021700024013443CE06F60FF60034438E06F60FE4
:10218000B60026434C06E40F64003443C9092143DA
:102190007C1BA140521C0843D2B2042AD8D35F4D05
:1021A0002862634E002430192030007A082C4ED269
:1021B000A107C90EFF228A40D243042C23D26B6AA6
:1021C00013406B62C207130E8207D20F92011A43AB
:1021D0004307DB0F5B0113430207D20F12011A43BF
:1021E000C306DB0FDB0013438206D20F97004206C3
:1021F000D20F52001F433A43C00910438840696A16
:102200000843686226E0AB6A1340AB62C207130E54
:102210008207D20F92011A434307DB0F5B0113437E
:102220000207D20F12011A43C306DB0FDB00134370
:102230008206D20F92001A434306DB0F5B00134362
:10224000C00918438840A96A0843A86202E03948D7
:10225000FEF7C6F8641C082CA5DB374C207CE86030
:10226000607C696B090A0902696300281CD0012897
:102270001DD0022825D003282BD03048FEF7B0F817
:10228000A07C2F4B2F4A3049304C00282AD00128FF
:1022900032D0022807D1286153622D489162D06262
:1022A0002C4854631063F8BD686B6863E8E7686B9B
:1022B000012108436863FF20E863FF200830A8631A
:1022C000DEE7686B0221084368632348E86323481C
:1022D00006E0686B0321084368632148E863002037
:1022E000A863CDE70020286153621E489162D06246
:1022F0001D4854631063F8BD0120286153621B48D8
:102300009162D0621A4810631A485063F8BD000009
:1023100040F5014000F50140C01F0040001500409D
:1023200080E200E0041100401C080020880000202A
:10233000CC07002039030900EC070020C203090084
:1023400000500078001700404E0000543E420F82BB
:1023500008800C6088647200FFFF000021100100FB
:10236000FFFFFF0003800C602264720002800C609B
:1023700011646600DEC08F828AB002F079FF01200E
:1023800000F0E6FE83242402002804D100F0A4FE1D
:102390000019FEF72DFDFF20F93001F009F80028A3
:1023A00004D100F099FE0019FEF722FDFFF784FB2F
:1023B00000F0BCFE0421084300F0EAFF002804D12D
:1023C00000F08AFE0019FEF713FD0120FFF78EFBD7
:1023D00000F008FE002804D100F07EFE0019FEF790
:1023E00007FD2024FFF7CEFAFFF75EFB002801D09F
:1023F000FFF74EFB0220089400F08AFE002805D06B
:1024000008AA6946022000F0FDFD07E0FFF740FA48
:102410000028E7D008A96846FFF722FA0028E1D093
:102420006846007802F0D4FCDCE70000F8B503044D
:102430001B0E0E460093C3B2010E000200160024CC
:10244000170C404295B2062B5BD21A007A441279DF
:1024500092189744021427423F3C002900D00121E2
:102460000C4629043D46000405430C43304601F068
:1024700037F82A462146009800F0A7FDF8BD23480A
:102480008068407E002802D12148FDF7A9FF304630
:1024900001F026F82146280401433A46009800F04E
:1024A00093FDF8BD002900D001210C46000404432F
:1024B000002907D0002E02D11648FDF791FF3046C3
:1024C00001F00EF82146009800F034FEF8BD00F04F
:1024D00088FDF8BD00F0D6FEF8BD0F484168491CE4
:1024E000416001780029F7D08168002902D0491E97
:1024F0008160F8BD01F0DCF80028E8D100F076FF3B
:10250000F8BD0648FDF76CFFF8BD0000680000202C
:10251000B5030500C3030500C0070020E303050061
:1025200002490F220A70C86070470000680000204E
:1025300009480A4A4168491C416012681368994277
:1025400008D3002343600168491C0160526891422E
:1025500000D303607047000094000020900000202A
:1025600070B5084D064C296820684968884202D336
:102570000548FDF735FF286821688068405C70BD1C
:102580009400002090000020B20001000148006883
:102590007047000094000020014840687047000028
:1025A0009400002010B5040002D10548FDF718FF83
:1025B00004480021046004480160416010BD00002F
:1025C0002A000100900000209400002010B504466D
:1025D000054800684068A04202D80448FDF700FFA3
:1025E0000348046010BD000090000020B900010005
:1025F0009400002010B50446054800680068A04219
:1026000002D80448FDF7ECFE0348446010BD00000A
:1026100090000020C50001009400002000280FD089
:102620000849094A096800BF00BF00BF00BF00BFDA
:1026300000BF00BF00BF914200D000BF401EF2D1DA
:1026400070470000640000200024F4008207D30ECD
:10265000FF229A408907090E10B5994000280BDA2D
:1026600003071B0F083B9C080C4BA400E318DC6914
:1026700094430C43DC6107E08408094BA400E41890
:10268000236893430B432360C106C90E0120884091
:10269000044908600449086010BD000000ED00E036
:1026A00000E400E080E200E000E100E0F7B505466C
:1026B0000C4600791C21484332494618F07E002818
:1026C00001D00820FEBD20780127394681402E48E0
:1026D0008160206800F0F2FB0021606800F0E5FBFB
:1026E0002A68052000021218A1695162617D227DCD
:1026F0002B6811431A18D1662A680ACC1018C160D9
:102700004361207B083C012813D10021A06800F020
:10271000CCFB207B394681401B488160E06800F09B
:10272000CDFB2968052212028918E368A0688B6036
:1027300008610298706021693160002814D0FF237D
:102740001D332A68217F0020D050FF232A6845339B
:10275000D050032328681B020C4AC0184260286826
:10276000000B40B2FFF772FF05212868042209021E
:10277000401802600020F0753076B075F776B076BC
:10278000FEBD000020020020000500508000020075
:1027900070B505460C4600791C214843084943188A
:1027A000284600F055F8002801D0112070BD9A7518
:1027B00000209C609882284600F004F870BD00005C
:1027C00020020020F8B5044600791C2148431F4927
:1027D00000264518FF2720681D37C65120680121B3
:1027E00081602946206802F08BFC6968002913D0BB
:1027F00027E0FF270137FF211D31206802F0DAFAB8
:10280000002802D1A88AB842F5D1A88AB84203D0DC
:102810002946206802F074FCA88AA97D8842E8D382
:10282000A98AC81FF9380ED0FF271D3739462068FE
:1028300002F0C0FA0028F9D020680121C160002010
:10284000A8753046F8BD0F26F9E7000020020020E9
:1028500000791C21484303494018807D002800D09E
:102860000120704720020020F8B501791C22514355
:102870001E4A00238E1805220168120289180B6077
:10288000716800290CD0032401682402184B09192F
:102890008B600168C903CB0E01219940154B19606B
:1028A0000522016812028A18D3685769956814696D
:1028B0000021C943D16051610068052212028018CD
:1028C00081600161184600F0E7FA384600F0E4FA4A
:1028D000601C02D0204600F0DFFA681C02D02846B7
:1028E00000F0DAFA0020F0767060F8BD20020020D7
:1028F0008402020080E100E070B5114D064601241B
:1029000068682406814202D01022FDF725FC0D499B
:10291000002008600C4B01221A6001E0641E0CD0FC
:102920000A68002AFAD00860A9688E4203D01022F3
:102930003046FDF711FC012070BD002070BD000085
:102940001000002000E1004000E00040054906487A
:102950000A46103206C0103202600448416001206D
:10296000704700003C0200201000002000E50040FD
:10297000014610B5024810220068FDF7EDFB10BDBE
:1029800010000020F0B583B00546102802D335486A
:10299000FDF726FD28460C21484333494018019095
:1029A00068002E18314830180090102D02D330489E
:1029B000FDF716FD2D49885D002851D00098019A39
:1029C00083789B00D4588278521C82708278801C55
:1029D000032A01D300220270885D401E8855002C16
:1029E0003ED02448844202D12348FDF7F9FC234F0E
:1029F0003868062802D32248FDF7F2FC1F49002060
:102A0000096800290CD91F4A8300D358A34203D177
:102A10001D48FDF7E5FC0EE0401CC0B28842F3D330
:102A20001A48002122224A431318A34206D0491C07
:102A3000C9B20629F6D31648FDF7D2FC0F48114F4C
:102A40000068800039580B48814202D01148FDF7D8
:102A5000C7FC0A4801688A00BC50491C0160A4E711
:102A600003B0F0BDD7000300B009002080090020AA
:102A7000A6000300ADDEADDEDB000300BC000020DD
:102A800085000300700A0020F6000300880A002079
:102A9000860003008800030070B51B4C05462068C3
:102AA000062802D31948FDF79BFC21680020184E28
:102AB00000290BD98200B258AA4203D11548FDF76C
:102AC0008FFC0EE0401CC0B28842F3D312480021B4
:102AD00022224A431318AB4206D0491CC9B2062928
:102AE000F6D30E48FDF77CFC20680D498000305875
:102AF000884202D00B48FDF773FC206881007550B6
:102B0000401C206070BD0000BC0000208500030058
:102B1000700A0020F6000300880A002086000300E7
:102B2000ADDEADDE8800030001480068704700009C
:102B3000BC00002010B50446102802D30348FDF75E
:102B40004FFC600002492018085C10BDC80003005B
:102B50008009002070B400201F4A01464300C318BA
:102B60009C186170A170D154401C1028F6D300212C
:102B70001A4D1B4BDE240A46222042438E00501978
:102B80009851AC5444708470C47004714471847161
:102B9000C471047244728472C47204734473847383
:102BA000C473047444748474C47404754475847563
:102BB000C475047644768476C47604774477847743
:102BC000C47720300470491C44700629D3D30549CA
:102BD0000620086070BC704780090020880A002029
:102BE000700A0020BC00002070B5002504461028A3
:102BF00002D30F48FDF7F4FB60000E492218885CF1
:102C0000002813D00C2044430B4823185018847814
:102C1000A4001D598478641C84708478801C032C63
:102C200001D300230370885C401E8854284670BD81
:102C3000A600030080090020B0090020F8B50D4669
:102C40000446102902D32048FDF7CAFB1F49002083
:102C50000968064600290CD91D4A8300D358A342AF
:102C600003D11C48FDF7BCFB0EE0401CC0B28842FB
:102C7000F3D319480022222151430B18A34206D056
:102C8000521CD2B2062AF6D31448FDF7A9FB6800FD
:102C9000134A2918505C032814D20C2045431148CC
:102CA0002B1888184578AD005C514478641C44703A
:102CB0004478401C032C00D30670505C401C5054D8
:102CC0000120F8BD0020F8BD8F000300BC000020EB
:102CD000700A0020F6000300880A0020900003001C
:102CE00080090020B009002010B50446102802D346
:102CF0000948FDF775FB600021180848425C002A6E
:102D000008D00C225443064AA21808188078800084
:102D1000105810BD002010BDB7000300800900202E
:102D2000B009002070B5164900240A68002A25D091
:102D30009000144B144DC0188038C46F521EC567E4
:102D40000A600021002A0BD988001D58A54203D132
:102D50000E48FDF745FB0EE0491CC9B29142F3D382
:102D60000B48002122224A431318A34206D0491CD3
:102D7000C9B20629F6D30748FDF732FB204670BDDD
:102D8000BC000020700A0020ADDEADDEF6000300BE
:102D9000880A00207D0003000048704748800040FA
:102DA00000487047408100400148007870470000AB
:102DB0009C00002070B5114801254560C560104E8B
:102DC0000024B4600F4845600F484068002802D0D6
:102DD0000E48FDF705FB00200D49C04388600D48F3
:102DE0000460042030610C484460057044708470B5
:102DF00088150A4908600A49086070BD00800040D3
:102E000000850040408000404085004035000400BF
:102E100000830040408100409C00002080E200E0F0
:102E200000E100E003490120086003490020087028
:102E300070470000008000409C00002010B407484C
:102E400001214160C16000220548064C4260427089
:102E50000B0223608270017010BC7047008000403C
:102E60009C00002080E200E00148407870470000AC
:102E70009C00002030B552000A439900039C0A438D
:102E80002102049D0A4329040A4302498000401894
:102E9000026030BD000700501CB5002100910B46B8
:102EA00001220191FFF7E6FF1CBD1CB500220B4675
:102EB000009211460192FFF7DDFF1CBD1CB50021F9
:102EC00000910B46012201911146FFF7D3FF1CBD73
:102ED000820006481018026803231B049A4302600C
:102EE000026809040A4302607047000000070050AE
:102EF0000249401800210160704700000060004056
:102F0000034940180068012800D0002070470000E5
:102F100000600040F7B52A4D16460746082804D33E
:102F200004202870002003B0F0BD0198002806D0CE
:102F3000202E09D906202870002003B0F0BD032000
:102F40002870002003B0F0BD384600F0E7FA0328EF
:102F500004D309202870002003B0F0BD384600F0EB
:102F6000D3FA032804D30A202870002003B0F0BD50
:102F700000F0C0FA022804D208202870002003B014
:102F8000F0BD00F0C9FB04460670407801210843FB
:102F900060703246A01C0199FDF7DEF8F8B22146B8
:102FA00000F09AFB002802D0012003B0F0BD0548D4
:102FB000FDF716FA0F202870002003B0F0BD0000C6
:102FC00068000020DD0005007047704710B500F074
:102FD0006FFB002802D000F004F810BD00F006FAE4
:102FE00010BD704706488168002903D10221017095
:102FF0000020704710B500F00FFA012010BD00004E
:1030000068000020F8B516460F46044600F07CFA2A
:10301000184D00280CD0002F0ED0204600F078FB71
:103020000078316881420BD2062028700020F8BD5C
:103030000B2028700020F8BD032028700020F8BD68
:10304000204600F03FFB04000CD0A01C0AD02278E0
:10305000A11C38463260FDF77FF8204600F040FAA8
:103060000120F8BD0448FDF7BBF90F2028700020AF
:10307000F8BD0000680000200501050010B5082813
:1030800004D3054904200870002010BDC0B200F030
:1030900003FA012010BD00006800002010B50A49A5
:1030A0008A68527E002A03D00C200870002010BDD0
:1030B000082803D304200870002010BDC0B200F01F
:1030C000F5F9012010BD00006800002001484068AB
:1030D0007047000068000020014800787047000039
:1030E0006800002010B500F009FA002808D0012877
:1030F00008D0022808D00548FDF772F9022010BD5B
:10310000022010BD002010BD012010BD700105007F
:1031100010B5082804D3044904200870401F10BDCE
:1031200000F0F2F910BD00006800002010B500F0BA
:10313000EFF910BD03B5002806D104496846808820
:1031400088806846C088C8800CBD000056000020FA
:10315000F1B5454D82B000242C704448EC60046009
:1031600044608460424800F0DDF9A8600125002831
:1031700074D03D4F407E3F4902267A68012817D01F
:10318000102A17D8100015D00846FCF7E5FF39487B
:10319000796800F0E1FA01200090029800280DD033
:1031A00001280FD002280FD00520387000200FE032
:1031B0003E7001E0072038700020EDE7012000F0AC
:1031C0002FFB04E0022000E0002000F029FB01209A
:1031D000009908400090042000F0A8FA224900203D
:1031E0008968497E002903D01F482746067002E0FF
:1031F00000F0ACFA2F461C49009889680740497EC8
:103200000020002903D018480670204602E000F094
:10321000E7FB2846074014488068407E002803D01A
:1032200011480670204603E0012000F0AFFA28465E
:103230000D4907408A680020527E002A01D00E7096
:1032400002E000F0D7FB2C463C40012000F012F9D0
:10325000002C03D0012003B0F0BDFFE70248057049
:10326000002003B0F0BD000068000020C00700206F
:103270002D2400007800002001488068407E7047BF
:10328000680000207047000010B5094A93685B7E13
:10329000002B03D002201070002010BD082803D39B
:1032A00004201070002010BD00F03EFB012010BD76
:1032B000680000200022044900280A7002D08860BB
:1032C0000120087070470000C007002010B50649B3
:1032D0008A68527E002A03D002200870002010BDA8
:1032E00000F0B6FA012010BD6800002010B50649B4
:1032F0008A68527E002A03D002200870002010BD88
:1033000000F0DCFA012010BD6800002010B5114C5F
:10331000A268527E012A11D0102913D8002911D099
:10332000002813D00A46616001460B48FCF714FFE1
:103330000948616800F010FA012010BD02202070D9
:10334000002010BD07202070002010BD0320207039
:10335000002010BD680000207800002010B5002873
:1033600008D001280AD002280AD008490520087090
:10337000002010BD012000F053FA04E0022000E01C
:10338000002000F04DFA012010BD00006800002070
:1033900010B506498A68527E002A03D002200870C0
:1033A000002010BD00F010FB012010BD68000020BF
:1033B00010B506498A68527E002A03D002200870A0
:1033C000002010BD00F006FB012010BD68000020A9
:1033D00010B5FFF751FF002806D0FFF7F7FD30BF0B
:1033E000FFF74AFF0028FBD110BD000010B50120F7
:1033F00080F310880748417E002906D08178002993
:1034000003D10121817001F067FD002080F3108855
:1034100010BD00000008002070B5114C607E00282F
:103420001CD1FEF71DFE0F4DA868002802D10E48E2
:10343000FCF7D6FF6868002802D10C48FCF7D0FFE3
:1034400001F096FC002802D00948FCF7C9FF0020D3
:1034500001F0A2FC0120607601F03EFD70BD00008D
:1034600000080020340800205E0209005F02090005
:103470006602090010B5044604484068002802D1DD
:103480000348FCF7ADFF0348047510BD8800002019
:10349000F60309001C08002010B5012181F31088F3
:1034A00001F008FB002080F3108810BD10B5044621
:1034B000012181F3108808490878002805D0487E4A
:1034C000002802D00548FCF78BFF204601F0F8FAEF
:1034D000002080F3108810BD00080020FA020900C7
:1034E00010B5012181F3108801F006FB002080F364
:1034F000108810BD10B501F003FB10BD0148007825
:10350000704700000008002010B501F00FFB10BD4F
:103510000148006970470000CC07002010B501F099
:1035200011FB10BDF8B50646012080F31088544CFD
:103530000025607003202070A5706560A560A581DE
:10354000E5812561656125764E48657605604560B3
:103550008560C560056105754B4F1830BD604560DD
:10356000FFF728FC304601F027F901F0EFFA0020C0
:1035700001F00AFC3846FFF715F8454943480A6848
:10358000FF26B2430A60026831028A430260414A60
:10359000106888430121890308431060012080F3EB
:1035A00010882178012905D06070607E00285ED0E7
:1035B00001F092FC002080F310883046364E042340
:1035C0003061737735483062354870623548012183
:1035D00001720221417203228272C37205220273B8
:1035E00006224273072282730822C2730574417453
:1035F000012282741E2070614B20C000F160706057
:103600002278022A02D06068002833D039600F2067
:10361000B060022A02D06268002A2ED039600020F1
:1036200070830120307670760020307701F00AFB3D
:10363000692030606078012802D01B48FCF7D0FE7A
:1036400001202070A5706560A560A581E5812561D8
:10365000656125766576FEF703FDFF21134801318C
:1036600001604903016085F310880548F8BD01F049
:103670004BFE9FE7B0683860C9E73860CFE70000CD
:10368000000800201C0800203408002000E400E0AE
:1036900008E400E014E400E0CC07002004070A0D71
:1036A00005080B0EEC0700203C02090080E200E058
:1036B0000348407E002801D0002070470120704759
:1036C0000008002010B5012181F3108801F074FA80
:1036D000002181F3108810BD10B5012282F31088FB
:1036E00001F06FFA00280DD008488178002904D134
:1036F000407E002801D001F0EFFB002080F310880D
:10370000012010BD002080F3108810BD00080020AB
:1037100010B501F069FA10BD10B5012080F31088D2
:1037200001F067FA002181F3108810BD0549487740
:1037300005498A6907231B049A43000402438A61EE
:1037400070470000CC0700200015004001490876B2
:1037500070470000CC07002070B50C00054602D170
:103760000748FCF73DFE002D02D10648FCF738FE65
:103770000548856044600020FEF728FF70BD00000A
:1037800048030900490309003408002030B41749F0
:10379000174C8874174B1849184A194D00280DD03A
:1037A000012816D0022807D120614B6215488A6291
:1037B000C86215484D63086330BC70470020206123
:1037C0004B6212488A62C86211484D63086330BC7C
:1037D0007047012020614B620E488A62C8620E4821
:1037E00008630E48486330BC70470000EC070020B7
:1037F0000015004000500078001700404E000054B3
:103800003E420F8208800C608864720003800C6066
:103810002264720002800C6011646600DEC08F8238
:1038200010B5012181F3108808490A78824205D039
:103830004870487E002805D001F04EFB002080F340
:10384000108810BD01F060FDF8E7000000080020BE
:10385000F0B41849086200210B461826DD00024624
:10386000EA40D2B2D407270E9407E40FA4013C43E8
:103870005707FF0F7F0127431407E40F24013C4340
:10388000D706FF0FFF003C439706FF0FBF002743FB
:103890005406E40F64003C43D2092243741BA24047
:1038A0005B1C1143DBB2042BD8D30348C161F0BCCD
:1038B00070470000CC07002000150040F0B4184904
:1038C000486200210B461826DD000246EA40D2B2CB
:1038D000D407270E9407E40FA4013C435707FF0FBA
:1038E0007F0127431407E40F24013C43D706FF0F51
:1038F000FF003C439706FF0FBF0027435406E40F29
:1039000064003C43D2092243741BA2405B1C114358
:10391000DBB2042BD8D303480162F0BC704700002F
:10392000CC07002000150040F8B5082841D2234AF2
:103930001218203211728207D60EFF22B240D743EE
:103940008B07CA07DB0F120E9B0113434A07D20FE6
:1039500052011A430B07DB0F1B019C46CB06DB0F02
:10396000DD008B06DB0F9C004B06DB0F5B00C909FB
:10397000042813480ED2406A3840114F78626046DE
:10398000104305432C4323431943786AB140014354
:103990007962F8BD806A3840094FB86260461043CA
:1039A00005432C4323431943B86AB1400143B9622C
:1039B000F8BD0448FCF714FDF8BD0000CC0700205A
:1039C00000150040390309000149086170470000F3
:1039D000CC0700200149486070470000CC07002058
:1039E000024908740249C86070470000EC070020D3
:1039F000001500400149087770470000CC070020FF
:103A000070B51248124C4068407D002805D0012056
:103A100000F0FEFBA089401CA08100260D49304625
:103A20004E610D494A680968551A01F0B5F9606997
:103A3000A84202D30948FCF7D3FC60690122291A85
:103A40000748FCF7D1FC666170BD000088000020CB
:103A50000008002040F50140CC0700204D06090079
:103A6000554D0000F0B5FA48FA4C4069FA4EFB4F4C
:103A700087B0002803D1FFF7F7F9002816D0F44DDE
:103A80006868002801D0401E68602878022802D0AB
:103A90006968002979D0F1682160A978002975D07A
:103AA000FEF746FDFDF7ECFD07B0F0BDE848002548
:103AB0000078012802D0022805D009E000F0A0FB20
:103AC000002805D0B9E1387804287DD003287BD0C0
:103AD000FEF72EFDDE484168002901D0491E4160F5
:103AE0000178022902D04168002919D0F1682160CB
:103AF00004468078002815D0FDF7C2FD00F054FE82
:103B0000022870D3032668460024067001940481BD
:103B1000448144708570C57000F00AFE07B0F0BDA6
:103B2000B168E4E701F0F0FB002811D000207668CE
:103B300001F032F96069B04202D3C948FCF750FC89
:103B400060690122311AC748FCF74EFC6561D5E770
:103B5000207800287ED0012819D002287BD0C248C6
:103B6000FCF73EFC707E0128C8D120780228C5D021
:103B700061680029C2D10127BF0700286CD0012845
:103B80006BD0BA48FCF72CFCB8E77FE180E100F08D
:103B9000C9F900F0D1FF002826D0708B00287CD016
:103BA000A189814279D30121002000F015FF01276E
:103BB00000F0B0FF0590A2890492E289039200F020
:103BC000AFFF69460F7000E037E105990191694642
:103BD000049A0A81039A4A8148708D70CD706846B4
:103BE00000F0A6FDA7E023E100F0DEFD02287DD372
:103BF0002078022802D06068002804D0FEF7CCFCB0
:103C0000002832D097E02069FEF7E0FC0020FEF7A4
:103C1000F1FC01F041F8002868D0A581E58100F0B1
:103C20007FFF9349C86200F07BFF012181409048EB
:103C3000016300F06FFF8F49086000F065FF8D4958
:103C400048608D48C860FEF78BFC8949886000F0A9
:103C500073FF03E0BEE09FE0DCE0C6E0012872D025
:103C600000F06AFF02285CD058E0307E002828D09F
:103C700001F012F800285ED0A581E58100F050FF28
:103C80007B49C86200F04CFF012181407848016304
:103C900000F040FF7749086000E055E000F034FF95
:103CA000744948607448C860FEF75AFC70498860DF
:103CB00000F042FF012865D000F03EFF02285FD0EF
:103CC0002CE0FEF763FC2169884234D100F0E4FF68
:103CD000002830D0A581E58100F022FF6449C86248
:103CE00000F01EFF01218140614800E023E00163F4
:103CF00000F010FF5F49086000F006FF5D49486072
:103D00005D48C860FEF72CFC5949886000F014FF3C
:103D1000012837D000F010FF022831D05748FCF7B7
:103D20005FFB2DE000F0FAF9FFF73AF8544908611B
:103D30007868406848610120376801F02DF86069B3
:103D4000B84221D34DE01DE0FFF78EF8002802D0E5
:103D50004C48FCF745FBFEF703FC4549896888425F
:103D600002D0E089401CE081FEF7FAFB4049886000
:103D700000F0E2FE012805D000F0DEFE0228CDD1E1
:103D80000020CFE70120CDE760690122391A3548CC
:103D9000FCF72AFB6561E5E600200090FEF7E0FBFA
:103DA00033498968884201D1009805E0FEF7D8FBC5
:103DB0002F498860012000903978401E084201D1C7
:103DC000FDF78CF90020776800F0E6FF6069B842E3
:103DD000DAD306E00020776800F0DEFF6069B842C1
:103DE000D2D31F48FCF7FCFACEE700F0A5FE00286E
:103DF00000D083E600F0A8FF0028FAD1FEF7D4FF38
:103E00000128F6D0FFF71AF8307F00280BD10120E7
:103E1000786008E0FEF7C8FF0128EAD0FFF70EF847
:103E2000307F0028F3D0002000F0B6FF656065E623
:103E30001548FCF7D5FA07B0F0BD706801224108BB
:103E4000034841610748FCF7CFFA07B0F0BD000016
:103E50000008002034080020CC0700208800002043
:103E60004D060900554D0000580409007204090070
:103E7000001500401C080020011500001E06090066
:103E800040F501400A0509008C040900B16803E609
:103E9000022809D0FEF74CFB0020746800F07CFF7C
:103EA0006869A04223D31FE03878042829D003286A
:103EB00027D0FEF73DFB0024FEF752FB154FB968F3
:103EC000884203D0FEF74CFBB86001241248641E00
:103ED0000078044201D1FDF701F90020746800F078
:103EE0005BFF6869A04202D30C48FCF779FA686965
:103EF0000122211A0A48FCF777FA0020686107B00E
:103F0000F0BD70680122410805486961FCF76CFA50
:103F100007B0F0BD00150040880000204D060900E4
:103F2000554D0000F8B51C48022707601B49401793
:103F300088601B4807601B48002404601A4E3461E7
:103F40001A49012008618861194D287801281CD080
:103F500002281ED003281CD00120FCF7BBF83461D6
:103F600010482C70046000200C49C04388600C4845
:103F70000760F460032068703460346174606C60C2
:103F80002C750C486C750760F8BD0620FCF7A2F88C
:103F9000E5E70220E1E7000080E100E000130040D7
:103FA00080E200E0001200400011004000100040DC
:103FB0004008002000E100E0F8B53348354F0669BD
:103FC0000322324B0025324C3968012E05D0022ED7
:103FD00048D03148FCF704FAF8BD0426067086691B
:103FE000761C86611A602D4B02221A60E5602560FE
:103FF000256165602A4A08235360097D002910D095
:10400000284EB168284F81753868400502D427488A
:10401000FCF7E6F9E5612649012088618002B86075
:10402000B5602068002802D02248FCF7D9F9E06882
:10403000002802D02048FCF7D3F920480068800708
:1040400002D51F48FCF7CCF9124C2068C068002844
:1040500000D080472068417D0029BDD01949006803
:104060004860F8BDE5602561256065601D6000243D
:104070000B4B0570E4439C60427045600575086910
:104080000028EED08047F8BD400800200012004014
:1040900000110040A4000020E7020A0080E200E0D6
:1040A000001300404015004000F50140AD020A0039
:1040B00000100040B6020A00B7020A0000E200E069
:1040C000B8020A000015004010B50D49022408602E
:1040D0000C4804600D480C4941620D490162FFF72C
:1040E00021FF00210B4803220170427041600161F1
:1040F00001754175817508480460064810BD0000CF
:10410000A400002080E100E01410004040F50140D0
:10411000041100404008002000E100E0F8B5054629
:104120002A4900012A4C4718207D002802D029483E
:10413000FCF756F90026002D2AD0012D28D0022D9B
:1041400026D02548FCF74CF92448FCF749F9002112
:1041500023486675C94381602249022008602248CD
:1041600065700068032D0168A16040682661A66142
:10417000E0603A6862601BD21C4B3A7A1A60FB7AA4
:104180001B4A002B08D05060506800280DD109E070
:1041900020780028DBD0D7E751605068002804D190
:1041A000144800E01448FCF71BF90D48797A416087
:1041B0000D480068007D002805D0022D03D10F496D
:1041C000A6756802486001206075F8BDB85400000B
:1041D00040080020DB000A00F9020A00DD000A00A6
:1041E0000013004080E200E0A40000200012004024
:1041F0000015004000010A0005010A0000F5014019
:1042000002484068012800D000207047001100409B
:10421000F8B51E4C074665781D4928014618607D93
:10422000012802D01B48FCF7DBF8207D002802D0D3
:104230001948FCF7D5F80120002120756175032D80
:104240000AD2002F01D131680860022D01D0012D62
:1042500005D1B07A207002E01048FCF7C1F8104890
:104260000068007D00280FD0022D0DD10D48406858
:10427000400502D40C48FCF7B3F80C48406800280D
:1042800002D10B48FCF7ACF8F8BD00004008002054
:10429000B854000021010A0022010A003A010A0074
:1042A000A400002000F5014040010A000015004074
:1042B00041010A00004870473543000030B5194CF1
:1042C0000546207889B0002805D06078854202D163
:1042D000002009B030BD202213496846FBF73CFF9F
:1042E000002069460875092000900B2001900820E5
:1042F00003900A2002900D4806900A48001DFEF720
:10430000B3FA002D01D0002200E0094A05486946B1
:10431000001DFEF7CBF90028DBD10120207065706D
:10432000D6E70000400000206054000000E0D70104
:1043300039510000F0B5C3B00D4600214B980091F3
:1043400049991C46081817460290002D01D00A20F2
:1043500000E00020019000F0A1FD002878D103AE1C
:10436000002C17D100986A463118284600F0B0FE9C
:1043700000286DD03846FBF713FFC22800D9C220B1
:10438000054600982A4630183946FBF7E5FE0098A6
:104390004019009001990098421803A90818313279
:1043A0008918002203E020230370401C521C019B4B
:1043B0009A42F8D30026029A944207D32022027030
:1043C000427082700A70C01C491C26E0499A9442CF
:1043D00002D2489A125D02E0A31A4A9AD25C0125E1
:1043E0009446AB006246DA4013071B0F092B01D934
:1043F000373300E0303301277F1B6D1EC3556A1C25
:10440000EFD12022827062461346203BC01C5E2BF7
:1044100000D92E220A70491C641C761C102ECAD3A7
:104420000D220A700A224A70202101700099019819
:104430000918433103A8009100F038FD002807D087
:1044400000F02CFD002803D1009002988442A1D3F3
:10445000204643B0F0BDFFB5C5B000251C464E9FB9
:10446000049500F01BFD002837D1049805AE3118E3
:1044700004AA469800F02CFE00282FD03B00FCF741
:104480002BFA0705131A2F38434F21004798FBF7E3
:1044900087FE049905464018FF2813D870182A464D
:1044A0004799FBF759FE0DE00498226830184799A8
:1044B000FCF7FEF905E004980CCC30184799FCF79E
:1044C000F7F90546294604A8FCF77AFF002804D02E
:1044D000FF200499013081422ED9002049B0F0BD5F
:1044E000A068009004980CCC30184799FCF7E0F9CC
:1044F000E7E7E168A0680090019104980CCC3018BF
:104500004799FCF7D5F9DCE72046083007C86B4629
:1045100007C304980CCC30184799FCF7C9F9D0E7C9
:10452000204608300FC86D460FC504980CCC3018D3
:104530004799FCF7BDF9C4E705A800F0B7FCCDE743
:10454000004870475744000010B50120FFF7B6FE41
:1045500010BD0000F0B595B0FCF76CFF002802D04C
:10456000002015B0F0BD4B484468866821463140B4
:10457000890009180C94CD680BE02904A80D890D59
:104580004018041920463040810042480C94081815
:10459000C568641CA807F0D000200890A807800F09
:1045A0003D4B022807D0AA0AA805000F84460EA991
:1045B0009646002059E02046304081003548641C72
:1045C0000818C068049486462804800D8446344048
:1045D000301B8000AF0D001D874222D92D490C31C0
:1045E000002807D02B4AA400A21814460C34C2B2EB
:1045F000381A03E00C460021FAB20846C0B2039014
:10460000019202910094A8065C69400F63467246CD
:104610000899A047B84213D1FF1C0498B9080C1898
:1046200030E01C48A200101800210C3000900291CC
:1046300001970391A8065C69400F63467246E8E75C
:10464000164980050D40000C05430C983040810050
:1046500010480818C56017E027463740BA000D4FCC
:10466000401CD719FF68641C80C167466045F3D3BE
:10467000A80600971D69400F0EAB72460899A8471F
:10468000002801D003484460FCF7D4FE01214840D3
:1046900067E700006C0300206C0700203F00FFFF6D
:1046A00000B5044AFF23936000231360536000F0B9
:1046B00027F800BD6C030020F3B50F4C074681B00E
:1046C0000020A6682568FCF785FE002812D00B485C
:1046D0003C218088354088437907890E08430F21A3
:1046E0008901884302998005800D89020843A90049
:1046F0000919C860FEBD00006C0300208054000052
:10470000014A5161106170476C07002070B5064680
:104710000020FFF7D3FD040008D1FFF7CBFD0546CD
:10472000FFF70EFF32462946FFF7BAFF204670BD5D
:1047300070B5184D04462868002802D11648FBF7CA
:104740004FFE164E70680A2802D31548FBF748FE44
:10475000E86F0C214843411920780871607848714E
:10476000A0788871E078C871606888602089888145
:104770006089C8817068401C7060E86F401CE86701
:10478000E86F0A2801D30020E867012005494005A9
:10479000086070BD6408002034000B00E4080020AD
:1047A00035000B0000E200E0024840680A21081AC8
:1047B000C0B27047E408002010B5040002D10748D9
:1047C000FBF70EFE06490C600020C867054908602B
:1047D0004860012004494005086010BD29000B0015
:1047E00064080020E408002000E100E0820710B522
:1047F000920F9043D200FF24944003689140A3435A
:10480000CA18074B0121596006490C68002CFCD0DE
:10481000026008680028FCD00020586010BD00002D
:1048200000E5014000E40140F0B515460E4607469C
:10483000002404E0315D3819FFF7D8FF641CAC4256
:10484000F8D3F0BDFFB55A4885B0C06F03250027E7
:104850000F9E0C46002802D15648FBF7C1FD544874
:104860000078032802D05448FBF7BAFD5048C06FC7
:1048700041785248CA070190002A1ED1807C002846
:104880001BD000200090059800286ED0079849079B
:104890000002890F000A464B09060843A200D118FE
:1048A000896B00220E9B88421A60326003905ED0B2
:1048B0003F4FF86F002805D101E00120E2E74048B2
:1048C000FBF78EFD3A482146C06F08310291FEF792
:1048D000B5F9002804D0002035490127C86700E059
:1048E0000027009838400090002F40D002988100A7
:1048F0002F4809180398886108990F4236D031482B
:10490000005D002832D02046FEF714F9002802D1BD
:104910002D48FBF765FD2046FEF766F9029000285A
:1049200011D001982546007C002805D02048006958
:10493000A84201D100F062F91D49002049198031D7
:104940000870204948550E99029808600E99002970
:1049500009D0002802D11D48FBF742FD002119486B
:104960000225015503E01A48F6E712E001250098F8
:1049700000280AD02046FEF7B7F93060002803D09F
:1049800010480121015501E012483060002F01D08C
:1049900006E00425064CE06FFEF77EF80020E06795
:1049A00003490020087000F029F9284609B0F0BD3D
:1049B000EC0800205B010C005C010C006C0900207D
:1049C0006F020C00A800002091010C0096010C0061
:1049D0009A010C0044090020F8B52D4C06462078B9
:1049E0000D46012804D0022802D02A48FBF7F8FC23
:1049F000002E28D02078012802D02748FBF7F0FCB1
:104A0000E068002802D12548FBF7EAFCE06800785E
:104A1000002804D0E06F6668002805D101E0002777
:104A200012E01F48FBF7DCFC31460831E06FFEF76F
:104A300005F9002802D00020E06702E01948FBF7E2
:104A4000CFFC022700E00427002D1AD06568284615
:104A5000FEF7CAF806000ED01348007C002804D0E8
:104A60002069A84201D100F0C9F800206119803105
:104A700008700E494855A068B04202D00C48FBF7B8
:104A8000AFFC0020207000F0B9F83846F8BD0000F7
:104A9000EC080020FC000C0002010C0003010C00DB
:104AA0006F020C000E010C006C090020A800002011
:104AB0001E010C0010B50830FDF764FF10BD0000AA
:104AC00070B5044609480A4D007C002804D02969C5
:104AD000A14201D100F092F8291900208031054A45
:104AE000087010552046FDF74DFF70BD6C09002081
:104AF000EC080020A800002010B5FDF7CDFF10BD88
:104B000010B5FEF711F810BD0148C06870470000ED
:104B1000EC0800200148806870470000EC08002085
:104B20000148406870470000EC08002010B50830CC
:104B3000FEF700F810BD0000014800787047000043
:104B4000EC08002010B5FDF7F5FF10BD70B5FEF7BD
:104B500001F80022144C154E104601069300014343
:104B60001B199961134605060146083329439D0028
:104B70002D19A961A11880310870E11880310870E1
:104B8000B054521C082AE8D320706060A060E06036
:104B90002061074960610874064A48741076E0672E
:104BA0000120887470BD0000EC080020A8000020DF
:104BB0006C0900202C09002010B50830FEF714F80D
:104BC00010BD70B50E4604460025FDF7ADFF002868
:104BD00008D021463046FEF731F8002802D000F018
:104BE0000DF80125284670BD10B50830FEF77CF899
:104BF00010BD10B5FEF796F810BD0000F8B50F4CCB
:104C00002078002819D10E4E307C002815D10825B7
:104C100001276069FDF78EFF002802D037746069B4
:104C200020616069401C6061082801D1002060613A
:104C3000307C002801D16D1EEBD1F8BDEC080020BE
:104C40006C09002001498874704700006C0900203D
:104C500070B50F4D2878002802D00E48FBF7C0FB36
:104C6000E86F002802D1FEF75DF8E86704000CD079
:104C7000FF2020706078062108436070FF22202109
:104C8000A01CFBF77BFA03202870204670BD0000B3
:104C9000EC0800203B010C0070B5264C2078002861
:104CA00002D02548FBF79CFB244D0026287C0028D9
:104CB00025D020696060FEF717F8A060002802D1B7
:104CC0001F48FBF78DFBA0684078C00705D1A87C82
:104CD000002802D00220E6600FE060680830FDF78F
:104CE00029FF03280BD2E06F002802D1FEF71AF843
:104CF000E067E060002802D00120207002E0207808
:104D0000002816D0A068002802D10E48FBF768FBE7
:104D10002069606080000119C87EF923401CC876B4
:104D2000A26880075178400F1940014351702E74DA
:104D3000012070BDEC080020C3000C006C090020AD
:104D4000C9000C00E7000C000148007C704700001F
:104D50006C09002004480178817041780170880056
:104D60000249085800470000B0000020B4000020AD
:104D70000148007870470000B000002001484078EA
:104D800070470000B0000020024988704870087029
:104D900070470000B000002010B50446022802D37E
:104DA0000248FBF71DFB0248447010BD2A000D00AD
:104DB000B00000204058002800D001207047032296
:104DC000120280184068084000D00120704700009F
:104DD000FEB5104B6C460ECB0EC4002207270E4BBF
:104DE00015466E467F0501210C469440044206D0CC
:104DF0009400345DA1403940D9609D6005E0940085
:104E0000345DA14039409960DD60521C032AEAD329
:104E1000FEBD00004C5400000005005070B5012498
:104E20000B49600408600B4940108860094940390B
:104E30008860094D6C602F20FDF7F0FBAC60074DDA
:104E400000242F20AC60FDF7E9FBAC7070BD0000C2
:104E500080E100E040130140001001401C000020F0
:104E600030B5FF220523CD7D002409321B02C31873
:104E7000002D8450986905D04B7ECA68D054487E76
:104E8000401C487630BD1FB501246B461C7019725A
:104E9000019206C8684690471FBD000010B5024841
:104EA000FDF7D6FC10BD00004400002070B50D4693
:104EB0000A46014601240648FBF74EF9EAB20449C6
:104EC0000448FDF765FC002800D00024204670BD92
:104ED0006C0200204400002010B5FDF765FF01289A
:104EE00020D1FFF74BFF002802D00F48FBF778FADC
:104EF00000221E210D48FBF777FA0D48007F00289D
:104F00000ED10C48012141610B480022026082054C
:104F1000116000BF00BF00BF00BF01680029FCD0C6
:104F2000FDF780FF10BD00002C060900554D000064
:104F3000CC0700200005004000010040FEB51F4CDA
:104F40000025A768606802906846FCF779FB01902D
:104F5000FCF7D2FF06460198002822D000230098D3
:104F6000616817E00E680A46864202D9301A086066
:104F700012E0801BF31800261660D668D169B4468B
:104F8000002E07D0FE183602360A56606646966036
:104F9000D56115460029E5D128466160FDF702F884
:104FA00006E02846FCF7FEFF002801D1002E02D0C3
:104FB0000298FCF751FA0020E070FEBD1C000020B2
:104FC00001200249000508607047000000E200E08F
:104FD00010B50E4B5968002906D002680C68A24231
:104FE00004D8A21A0A60C161586010BD0B4604E0E3
:104FF0000B46C969121B002904D00C689442F7D3F0
:10500000A41A0C600260C161D86110BD1C000020B0
:10501000F8B5064600240D462046FBF799FF684682
:1050200000F0FEF900280CD005704660684607497C
:10503000007848700020FBF78FFFFFF7C1FF204684
:10504000F8BD04240020FBF787FFF8E72C000020C0
:10505000F8B51D4D6C68002C34D01C480027406802
:10506000A968401A0602360A2068B04218D8361AD3
:10507000C7192246107CE46900280FD00020107464
:10508000EB68002B07D0916950699847002805D03C
:10509000FBF7AEFE02E0516990698847002CE3D12E
:1050A00029786878814206D1401CC0B26870022815
:1050B00001D10020687004490006800D18310F509E
:1050C000FFF77EFFF8BD00001C0000200015014026
:1050D00010B5144602460120002A09D0084612687D
:1050E00005A1FBF7E5FB01462046FCF769F910BD79
:1050F0000021216010BD00005B253038645D000098
:10510000FF221D32002383508B8A8A68D25C8B8AEF
:105110005B1C8B82052109024018C26170471FB5D4
:1051200000226B461A70197281680191827506C857
:10513000684690471FBD00000078012801D1014951
:105140008870704740000020F0B50C46012185B002
:1051500005464902FFF733FE032109026F180026B6
:10516000002826D0FF2125312846FFF723FE0028FE
:105170001FD0FF2025302E5081208000B860A07EF7
:10518000002801D1012068600221684601700920D1
:10519000C0012918086808600390E17D6846017223
:1051A000E0680190E675267606CC6846083C904794
:1051B0002DE004212846FFF702FE002827D0FF211A
:1051C00009312846FFF7F6FD002820D02146284661
:1051D000FFF746FEE07D617E884218D1207E0028E0
:1051E00007D0617EE268E0752069E0602676667629
:1051F0000AE0A07E002801D10120686081208000A3
:10520000B860E675617EE2682046FFF73CFEFF2746
:105210001D3739462846FFF7CDFD00280FD0A08A5C
:10522000A17D884204D221462846FFF769FF06E0A7
:10523000EE51A17D002902D02046FFF770FFFF2725
:10524000453739462846FFF7B5FD00280ED0EE5108
:10525000A07E002801D001202860E07D002805D034
:10526000E675617EE2682046FFF70DFE05B0F0BDF1
:1052700010B50023134A09211846FBF7DBFD00286F
:1052800001D0FBF7B5FD00220F490120FBF77EFF9F
:10529000002801D0FBF7ACFD0020FFF737FA00280B
:1052A00001D0FBF7A5FD09A10320FFF705FAFFF7E1
:1052B00051F90028FBD1072112484905C16000219E
:1052C000816010BDC0000020CD0C00004150503A5C
:1052D000494E464F3A47617A656C6C2064796E613D
:1052E0006D69632070616972696E67206578616DB0
:1052F000706C652E20486F7374206D6F64652E0D81
:105300000A00000000050050F0B53D4E83B0307833
:105310007178884270D0002801D1FCF7A1FE707826
:10532000002400281ED10320364900028860FFF7C0
:1053300003FC012804D0022802D0032812D104E083
:1053400000210846FFF748FB07E0002300941A46B7
:10535000194618460194FFF775FA042802D02A4826
:10536000FBF73EF829484461FEF7DCFD284D294F44
:105370002C606C602C61AC60EC603078012802D04D
:10538000022809D01CE0FFF7D7FB002815D0002128
:105390000846FFF721FB10E0FEF7C4FD1E482C6114
:1053A0000470FFF7C9FB032807D1002300941A46B5
:1053B000194618460194FFF745FA3078022802D0C2
:1053C0007068002813D01548F96801607078307053
:1053D00004266846002506700195058145814570C3
:1053E0008470C470FFF7A4F9012003B0F0BD0B482E
:1053F000B9680160EAE7FFE7002003B0F0BD0000F4
:105400000008002000F50140E801090040F50140D6
:105410001C080020CC070020880000203408002051
:1054200010B509494B788C785A1CD2B2944200D1FD
:1054300000220C78944201D1002010BD027048680F
:1054400018214B43C01810BD2C000020150000008F
:10545000160000001700000098010020B80100208D
:10546000FFFFFFFFFFFFFFFFFFFFFFFFFFFFFFFF4C
:10547000000000000000000000E0D7010300000071
:1054800029000000010000000100000001000000F0
:105490000100000001000000010000000100000008
:1054A0000200000032536601172D391A440C400DDA
:1054B000490D3E1A2D0C4D00001000401011004007
:1054C0000310000001000000001000400000000078
:1054D0000B02040000000000041000400000000067
:1054E00007080301000000004F766572666C6F7755
:1054F0000D0A00001455000000000020C00000004C
:10550000F2080000D4550000C000002098120000EE
:105510000209000000000000000000000000000080
:10552000000000000000000000000000000000007B
:10553000000000000000000000000000000000006B
:10554000000000000000000000000000000000005B
:1055500000000000000000000020004000000000EB
:10556000E8540000000000000000000000000000FF
:1055700000000000000000000024F4000000000013
:1055800005000000000000000000000004192A3F90
:105590004D000000000000000000000000000000BE
:1055A00000000000000000000000000000000000FB
:1055B00000000000000000000000000000000000EB
:1055C0000000000000000000653A0000013A000001
:0455D00000000000D7
:04000005000000C136
:00000001FF
