:020000040000FA
:10000000202B0020490400005104000015040000CA
:1000100055040000570400005904000000000000CF
:100020000000000000000000000000005B04000071
:100030005D040000000000005F0400006104000097
:1000400063040000630400004D0A00009D070000E7
:1000500063040000630400008105000063040000E5
:1000600063040000630400006304000063040000F4
:1000700063040000630400006304000063040000E4
:1000800063040000790700006304000063040000BB
:10009000AD07000063040000630400006304000077
:1000A00063040000630400006304000063040000B4
:1000B0006304000063040000000000000000000072
:1000C0006304000063040000630400006304000094
:1000D00063040000630400006304000000000000EB
:1000E0000000000000000000000000000000000010
:1000F0000000000000000000000000000000000000
:1001000000000000000000000000000000000000EF
:1001100000000000000000000000000000000000DF
:10040000DFF80CD000F08AF800480047F919000026
:10041000202B0020094B1EF0040F1CBFEFF30980B6
:100420001847EFF308800649064A884201D89042EF
:1004300002D88D464FF0000018470000CD0600009E
:10044000202B0020200B002006488047064800474C
:10045000FEE7FEE7FEE7FEE7FEE7FEE7FEE7FEE774
:10046000FEE7FEE7B10700000104000040EA0103D7
:100470009B0703D009E008C9121F08C0042AFAD25A
:1004800003E011F8013B00F8013B521EF9D270471E
:10049000421C10F8011B0029FBD1801A704730B5AF
:1004A00004460020034600E05B1C934203D2E05C5C
:1004B000CD5C401BF8D030BD2DE9F05F0546002033
:1004C00092469B4688460646814640241BE02846C5
:1004D00041464746224600F042F853465A46C01A63
:1004E000914110D311461846224600F029F82D1AE2
:1004F00067EB01084F4622460120002100F020F85A
:1005000017EB00094E41201EA4F10104DFDC484630
:1005100031462A464346BDE8F09F0000064C074D91
:1005200006E0E06840F0010394E8070098471034C3
:10053000AC42F6D3FFF768FF6C4100008C4100002D
:10054000202A04DB203A00FA02F100207047914093
:10055000C2F1200320FA03F3194390407047202A88
:1005600004DB203A21FA02F00021704721FA02F35D
:10057000D040C2F120029140084319467047000064
:100580002DE9FC5F0025DFF83891A8464FF480760E
:1005900001242F46304602F05BF838B1D9F8040345
:1005A000204203D0304602F049F82543361D64004E
:1005B0007F1CB6B2082FEDD34FF4BE74204602F074
:1005C00047F838B1204602F039F83E4845F000457A
:1005D000D0F800803C4E15F0FF0F15D00127002405
:1005E0002F420DD009EB8401D1F81005D1F8101578
:1005F000C0F3042056F82420C1F3014102B1904712
:100600007F00641C082CEBD3002D56DA00200190EB
:10061000401E4CE0701910F8501F90F9000021F0B6
:10062000C004401C38D0012000FA04FA1AEA090F6D
:1006300032D04FEA911B204600F0D2FF56F820003E
:10064000009010B9BBF1030F26D15146BBF1030F47
:1006500002D1019808430190A00000F1A040D0F819
:1006600000071AEA080FC0F3014002D0022802D0A6
:1006700012E0032810D1BBF1030F07D102281AD0D2
:100680000221204601F0C4FF7F1CFFB2009818B180
:10069000009A5946204690476D1C042DBAD3002F6E
:1006A0000BD008480068404507D0804601980027D5
:1006B00081463D46AEE70321E3E7BDE8FC9F00002D
:1006C0000060004010050050440500200446826987
:1006D00006A1012002F026FA02F00CF902F00EF950
:1006E0000028FBD1204600F013F800004841524496
:1006F0004641554C543A4552524F523A4861726401
:100700006661756C742050433A25780D0A0000002C
:10071000BFF34F8F05480168054A01F4E0611143BA
:100720000160BFF34F8F00BFFDE700000CED00E05C
:100730000400FA0500F01F020121914040098000E9
:1007400000F1E020C0F88012704700F01F02012184
:1007500091404009800000F1E020C0F8001170478E
:1007600000F01F02012191404009800000F1E020CB
:10077000C0F800127047000007480021C0F840117F
:10078000C0F84411C0F84811C0F84C11C0F800116D
:10079000C0F8041102F0A4BB001001400149024856
:1007A00001F01EB89C0500200030004002F034BB70
:1007B000F0B598480023021D01780125101D4FF067
:1007C0008056062907D11478240704D10478C4F38D
:1007D0000314032C02D0062904D00FE08F4F8E4C57
:1007E0007C670EE01478240708D10478C4F303145E
:1007F000032C06D0042C04D0052C02D0062907D0E7
:100800000EE0D6F84442864FC4F342343C6002E026
:100810001478240704D10478C4F30314032C02D001
:10082000062906D011E07F4C276827F080772760E3
:100830000EE01478240708D10478C4F30314032CC1
:1008400006D0042C04D0052C02D006290AD011E0D1
:100850004FF08044C4F80C31C4F81031704C241FA0
:10086000236002E01478240704D10478C4F303144D
:10087000032C02D0062905D00CE0694F032464370D
:100880003C600AE01478240704D10478C4F303140C
:10089000032C02D006290DD014E0634F05243C60E0
:1008A000614C78342560604C083423603F243F1D40
:1008B0003C6002E01478240704D10478C4F30314E4
:1008C000052C02D0062957D068E058490968584AD3
:1008D00011605649091D0968121D116053490831FC
:1008E0000968121D116051490C310968121D11600F
:1008F0004E4910310968121D11604C4914310968C4
:10090000121D1160494918310968494A20321160A5
:1009100046491C310968121D11604449203109689B
:10092000121D1160414924310968121D11603F49AF
:1009300028310968121D11603C492C310968121DCB
:1009400011603A4930310968394A403211603749FB
:1009500034310968121D1160344938310968121D9B
:10096000116032493C310968121D11602F49403134
:100970000968121D116002E0117809070ED1007894
:10098000C0F30310032803D0042801D0052805D1A3
:10099000D6F85802274900F04F0008602148743803
:1009A000016841F470010160BFF34F8FBFF36F8F97
:1009B0004FF01021D1F80002002803DBD1F8040227
:1009C000002822DA1C4A15601C480468002CFCD060
:1009D0001524C1F800420568002DFCD0C1F804427E
:1009E00001680029FCD0136001680029FCD0BFF326
:1009F0004F8F0C48F0380168114A01F4E06111434F
:100A00000160BFF34F8F00BFFDE70F490D4808603D
:100A1000F0BD0000E00F00F00DF0ADBA00C00740DF
:100A20003C050040FCED00E01056004004040010BE
:100A300020C50040E40E004004E5014000E4014010
:100A40000400FA050090D003700000200448017FE4
:100A500004480029024901D003F0A3B903F012B9F8
:100A6000C4050020002000400FB4084B10B504A9B5
:100A700002AA039800F01CF8044602A9002000F026
:100A800048FA204610BC5DF814FB0000130F00006C
:100A900002E008C8121F08C1002AFAD17047704747
:100AA000002001E001C1121F002AFBD170470000A5
:100AB0002DE9FF4F8DB00F460546002606E025289C
:100AC0000BD0DDE90F1290476D1C761C28780028AA
:100AD000F5D111B03046BDE8F08F0024A246A14602
:100AE0000122EC4900E0044315F8013F203B02FAE3
:100AF00003F00842F7D128782A2810D06FF02F028F
:100B00002878A0F13001092914D80AEB8A0102EBF8
:100B1000410144F0020400EB010A6D1CF0E701CF33
:100B20005FEA000A03D544F40054CAF1000A44F015
:100B300002046D1C28782E2817D115F8010F44F0F7
:100B400004042A280ED06FF02F022878A0F130017B
:100B500009290AD809EB890102EB410100EB0109DF
:100B60006D1CF2E757F8049B6D1C28786C280FD099
:100B700006DC4C2817D068280DD06A2814D104E070
:100B8000742810D07A280FD10DE044F400140AE044
:100B900044F4801401E044F440146978814202D1A5
:100BA00004F580146D1C6D1C2A786E2A1FD00CDC95
:100BB000632A31D004DC002A8BD0582A11D1A3E05B
:100BC000642A68D0692A0CD165E0732A2ED004DC2F
:100BD0006F2A73D0702A04D19BE0752A6FD0782ACF
:100BE0006ED01046DDE90F129047761C50E1C4F339
:100BF0000250022806D0032809D0042801CF09D0CA
:100C0000066045E101CFF117C0E9006140E101CF85
:100C100006803DE106703BE117F8040B8DF80000FB
:100C200000208DF80100EB46012003E057F804BBDB
:100C30004FF0FF3061074FF0000102D40DE008F1E2
:100C40000101884649450FDA8045F8DB1BF808109A
:100C50000029F4D108E008F1010188468142FADB5D
:100C60001BF808100029F6D1DDE90F23AAEB0800D4
:100C70008146214600F036F9304400EB080604E0D6
:100C8000DDE90F121BF8010B9047B8F10108F7D20C
:100C900021464846F7E00A21C4F302534FF0000B07
:100CA0000891022B04D001CFC117032B09D00AE011
:100CB000FF1D27F00707F7E8020108E032E01FE018
:100CC00020E000B2C117042B01D140B2C117031EAE
:100CD00071F1000307DA4FF0000CD0EB0C006CEB65
:100CE00001012D2302E0230504D52B238DF82430A8
:100CF000012303E0E30701D02023F7E7984658E0FB
:100D00000A2110E010210EE010204FF0000B089097
:100D10000CE010214FF0000B44F004044FF00809E0
:100D2000089103E008214FF0000B0891C4F302532F
:100D3000022B04D001CF0021032B06D006E0FF1DBB
:100D400027F00707F7E8020103E080B2042B00D187
:100D5000C0B24FF0000823072BD5702A07D0DDF86A
:100D600020C08CF0100C5CEA0B0C05D00EE0402388
:100D70008DF82430012308E050EA010306D0302327
:100D80008DF824308DF8252002239846DDF820C008
:100D90008CF0080C5CEA0B0C0BD150EA010301D17A
:100DA000630706D530238DF824304FF00108A9F1F0
:100DB0000109582A04D038A20B9208AA0A920BE023
:100DC0003AA2F9E75B46089AFFF776FB0B9B9B5C20
:100DD0000A9A521E0A92137050EA0102F2D10A983E
:100DE000ADEB000000F1200B600702D524F4803445
:100DF00001E04FF00109D94502DDA9EB0B0000E04D
:100E0000002000EB0B0141440890AAEB010AE0032B
:100E100006D4DDE90F232146504600F063F806446E
:100E20004FF0000908E009A911F80900DDE90F12E7
:100E3000904709F10109761CC145F4DBE0030CD5AC
:100E4000DDE90F232146504600F04CF8064404E04B
:100E5000DDE90F1230209047761C0899481E089053
:100E60000029F5DC08E00A980A990078491C0A91E3
:100E7000DDE90F129047761CBBF10001ABF1010BCD
:100E8000F1DC21465046DDE90F2300F019F8064455
:100E90006D1C1BE6092801003031323334353637FA
:100EA00038396162636465660000000030313233B6
:100EB0003435363738394142434445460000000056
:100EC0002DE9F041044600251E461746880404D447
:100ED00005E039462020B0476D1C641EF9D5284630
:100EE000BDE8F0812DE9F041044600251E469046FC
:100EF000C80301D5302700E02027880404D505E089
:100F000041463846B0476D1C641EF9D52846BDE8F9
:100F1000F0810A68531C0B60107070471FB50D48B4
:100F200001F006FA0B4900230C391A46D1E90701F2
:100F3000CDE902011B2000901A2001906946054866
:100F400001F08CF9002803D1024801F077F9002064
:100F500004B010BDFC3E0000002000F0B3B900005A
:100F600070B5154D0446022028704FF47A720121A5
:100F7000284600F085F900280CD10D21284600F004
:100F8000EBF8002806D106220C49681CFFF787FA07
:100F900008B1052070BDE87900022060297A084375
:100FA00000022060697A084300022060A97A0843A1
:100FB0002060002070BD0000C4040020F63E000048
:100FC0002DE9F0418F1C1D461646402F41D82A7846
:100FD0000A32402A3DD8284C40222270274A127DEE
:100FE00062700A460146A01CFFF740FAF9B24FF4BE
:100FF0007A773A46204600F043F900282AD138464D
:1010000000F07EF928B328780A30C1B2204600F0FB
:10101000A3F800281ED121780B2000291AD161786D
:10102000002917D1A178FF2914D1E1782379CA4387
:10103000521CD2B293420DD16279D52A01D0D42A62
:1010400008D1D52A05D1A079412802D1E0798006BE
:1010500002D00320BDE8F081C91E2878CAB29042B0
:1010600000D202460449144608313046FFF7FEF923
:101070002C700020EEE70000C404002025000020B2
:1010800038B5164D2978814301D0002038BD134C66
:10109000641C607D08B1032038BDFFF73FFF0028C6
:1010A000FAD12079002101F097FA6079002101F04E
:1010B00093FA642000F01DFF6846FFF751FF0028F7
:1010C000EAD1012000F0B2F80028E5D1FF2000F0BD
:1010D000E7F80028E0D101202870D6E7240000209E
:1010E0000548064900790968C14011F0010F01D097
:1010F0000020704701207047250000201005005097
:101100001CB504228DF8042030228DF800208DF8C3
:1011100001000A4601AB02216846FFF751FF1CBDE2
:101120001CB50621684600F017F8002811D10022EE
:101130004FF47A73FFF7D4FF18B1521C92B29A425F
:10114000F8D3062203496846FFF7A9F9002800D022
:1011500003201CBDF03E000070B505460C4664201F
:1011600000F0CEF810B10D48407D08B1032070BDED
:10117000601C402801D9072070BDC3B2084A242151
:10118000084801F0B1F80028F6D105492246491C6B
:101190002846FFF76BF9002070BD000025000020F5
:1011A00004050020FC3E00002DE9F0411F461546D5
:1011B0000E0001D005B110B10720BDE8F081194C37
:1011C0004A216422217001216170A0700321204610
:1011D00000F056F80028F0D1642F00D2642738467A
:1011E00000F08EF850B116210E48FFF7B5FF002829
:1011F000E3D1E079012803D00B20DEE70320DCE710
:101200002878227B904201D20920D6E706492A702D
:10121000207A0875034930460D31FFF727F9002081
:10122000CBE70000C40400202500002010B50128F1
:1012300007D0022805D0032803D0042801D00720B6
:1012400010BD0E4C14214FF47A7221706070A170A1
:101250000120E0700421204600F012F80028EFD1B0
:1012600009212046FFF778FF0028E9D1A079152849
:1012700001D0052010BD002010BD0000C4040020D6
:1012800010B5144600F04CF8002808D1204600F0B4
:1012900037F818B1BDE81040FFF742BF032010BD7A
:1012A000074932220A7005224A70FF228A70012201
:1012B000CA7008714FF47A7205210148FFF7E0BF48
:1012C000C404002010B5012802D008B1072010BDC9
:1012D0000A4932220A7001224A7088704FF47A72E9
:1012E00003210648FFF7CCFF0028F0D1642000F06E
:1012F00007F808B1002010BD032010BDC404002071
:1013000070B50546002404E0641CA4B2012000F07E
:10131000F0FDFFF7E5FE002801D1AC42F4D370BD2B
:101320002DE9F84380461C480C46407D10B103204F
:10133000BDE8F88304F10806402E01D90720F7E73D
:10134000164F0025FF213D707D70B970611CF9704A
:10135000C943491C3971D421797122464146B81DCF
:10136000FFF784F8D421002006E000BF18F8002021
:10137000401C1144C9B2C0B2A042F7D3C8433919C6
:10138000401C8871CD71F3B2044A242104480095B1
:1013900000F0BCFFCCE70000250000200405002081
:1013A000FC3E000010B5FFF7D7FD18B104A2D5210F
:1013B00000F032F8BDE81040054800F09FBD000085
:1013C0002E2E5C2E2E5C2E2E5C6D61696E2E6300BF
:1013D00080841E0070B50D460646144608A1012003
:1013E00001F07AFB01F086FA01F088FA0028FBD1BF
:1013F000224629463046BDE8704000F019B800008A
:101400004150505F4552524F523A4552524F523A14
:10141000466174616C0D0A000EB5ADF80010CDE99F
:1014200001206A46002144F20100FFF7D3FF0EBD00
:1014300008B501238DF800309DF80030144B18607A
:1014400059609A606FF48041401807D001280FD18D
:10145000DA60D86800889861D86807E01A6118696E
:101460008068586118690088986118694068D86177
:10147000186858689868D868186958699869D86968
:1014800072B600BF9DF800000028FBD162B608BD0F
:10149000E405002000F002B800F008B872B6024877
:1014A0000168491C016070475C000020034908681E
:1014B000401E086000D162B6704700005C0000204A
:1014C0002DE9F04105460878214F012606FA00F083
:1014D0000C463860086801F091F80021606801F05E
:1014E00084F828791B4901EB4010A169007F00288E
:1014F0002868C0F8241519D0607D217D2A6808432A
:10150000C2F86C0518E00021A06801F06EF8207B9D
:1015100086403E60E06801F071F8D4E90212286864
:10152000C0F80825C0F81015BDE8F081607D227D67
:1015300029681043C1F86C05D4E900122868C0F886
:101540000C15C0F81425207D0128DCD0ECE7000044
:1015500008050050C4050020002901DA002070476A
:101560000268114401600120704700002DE9F0413C
:10157000461C01250020FFF78DFF1149741CD1E99D
:1015800000208F68101A3B1A5B1C9C420FD963B174
:101590000C480D4B3A4000681B6801EB820263F374
:1015A0009F20D0600868401C0860002501E0901969
:1015B00008600020FFF770FF2846BDE8F0810000BA
:1015C00004070020403F00006C000020034803C8CF
:1015D000814201D10120704700207047040700209C
:1015E0000249084490F9300070470000440500208B
:1015F0002DE9F05F26484168F1B3DFF898B00E6836
:101600008146DBF8004087688078E11B21F07F4548
:10161000ED1CB0B9DFF880804FF48030C8F8440387
:10162000C8F804031120FFF785F81120FFF78DF8A3
:101630004FF0010AC8F800A02F2000F031FD89F812
:1016400002A0B54200D23546124BE8193C3320F0D7
:101650007F401860DBF800105A46091B21F07F41DB
:10166000001B20F07F40C91C81420FD91068186010
:101670002F2000F015FD00E004E0BDE8F05F112030
:10168000FFF76EB8BDE8F05F01F0E4BABDE8F09F87
:101690003C00002004150140001001400E4910B527
:1016A0000A784C780023A24212D0521CD2B20A709F
:1016B000022A00D10B70084A0B78183252F8232006
:1016C00002608868104420F07F408860012010BDCF
:1016D0000360002010BD00003C0000202DE9FE4307
:1016E0000546002014680290D5E901871646894610
:1016F00036E002A800904B4601AA394602944046C3
:1017000000F0A6FA002820D12868816800299DF8F9
:10171000041003D031B1402924D103E0802901D045
:10172000C0291FD1394600F0D6FB00280DD10299FF
:101730009DF80400641A402809D0C02807D0286802
:1017400082684068824207D10420BDE8FE83306889
:10175000001B30600020F8E7894408F108081837BA
:10176000002CC6D10B20F0E770B50E460446007978
:1017700018494FF4A27501EB4010017F2068A1B118
:101780004FF4887101F037FA4FF49071206801F03E
:1017900032FA4FF49271206801F02DFA2946206840
:1017A00001F029FA0C49206809E04FF48E7101F02C
:1017B00011FA2946206801F00DFA08492068C0F89E
:1017C0000413206800F01FFD3146BDE8704000F0B2
:1017D000FEBC0000C40500201003020080000200CF
:1017E0007FB50C46054691F8211094F82000CDE90C
:1017F000000104F12602D11E2846E36901F0B7FC7E
:10180000002823D194F8230008BB207B022801D0B4
:1018100003281CD12269E169914218D16269E26111
:10182000E37B84F82030217E0328C1F3401184F843
:10183000211006D004B029462046BDE8704001F0D2
:1018400032BC00912946204601F016FD7FBD04F10F
:101850000C0001AB07C883E8070094F823000021BF
:1018600068B1D5F8C404C5F8C404820701D50120C5
:1018700002E0400705D502208DF8000001E08DF858
:10188000001084F82410207E4007DFD4D4E9002122
:10189000684690477FBD00002DE9F043264CA4F137
:1018A00010092278D9F8048099F80350404694F83A
:1018B00001C0D9F8086031E002EB42036168521CB4
:1018C00001EBC301A378D2B2934200D100220B787E
:1018D000022B02D0032B21D11DE003464F6819468D
:1018E00003E0B94203D00B46C969B9B1F9E7A9B120
:1018F0008B4205D1C06918B9104E0125B56000268C
:101900000F68C969D96149B10B683B440B6005E0B8
:101910000174C06900E000210028F9D19445CBD1C1
:10192000C9E9010689F80350404502D00120BDE80D
:10193000F0830020FBE700004C0000200010014075
:101940002DE9F0412A4F0446002607F11005D7F88B
:1019500004803EE002D02046E4691DE028786968F2
:1019600000EB4002401CC0B201EBC2012870AA7813
:10197000904200D12E700A784868012A2BD1027C4F
:101980004ABB8A684260CA6882600A69C260496963
:101990008161F97801B146604368BA68DFF854C0E4
:1019A000991A21F07F41614502D28268114406E014
:1019B000D11A826821F07F418A4202D9511A01600E
:1019C00000E006604660012186600174C66101F096
:1019D00069FA002CBED1287869788842BED179682E
:1019E000414502D00120BDE8F0810020FBE7000066
:1019F0003C000020FFFF7F0002F04CFA0020FFF7C0
:101A00003FFB18B117A2E421FFF706FD4FF48064F5
:101A10002146184801F0A2F988B1042813D00528FE
:101A200013D0062816D014A1032001F055F8FFF7B3
:101A300093FA00BF00F062FF0028FBD1E8E70D48F1
:101A400001F068F90AE015A105E023A1032001F0E7
:101A500043F8EFE727A1032001F03EF8FFF7A2FCCF
:101A6000E8E700002E2E5C2E2E5C2E2E5C6D616948
:101A70006E2E6300C40000204150503A494E464F3C
:101A80003A4572726F7220647572696E6720746174
:101A90006720726561642E0D0A0000004150503AC3
:101AA000494E464F3A4465636C61726564206275C5
:101AB0006666657220697320746F20736D616C6C4B
:101AC00020746F2073746F72652074616720646185
:101AD00074612E0D0A0000004150503A494E464FA5
:101AE0003A4E6F2054616720666F756E642E0D0A42
:101AF000000000004150503A494E464F3A54616749
:101B0000206E6F7420737570706F727465642E0D23
:101B10000A00000000B5DFB04FF4BA715E910178A1
:101B200003290FD141885D9142685DAB5EA968468B
:101B300000F022F818B104A1032000F0CDFF6846A0
:101B400000F028F85FB000BD4150503A494E464F72
:101B50003A4572726F7220647572696E67207061A7
:101B60007273696E672061204E444546206D65732F
:101B7000736167652E0D0A003EB515461C466A4620
:101B800000F042F8002804D1224629466846FFF7B3
:101B9000A5FD3EBD70B505460A4800F0C7FA0AA18A
:101BA0000320AA6800F0BEFF002406E0286850F871
:101BB0002410204600F0A8F8641CA868A042F5D8BC
:101BC00070BD0000A08601004E46435F4E4445466E
:101BD0005F4D53475F5041525345523A494E464F2D
:101BE0003A4E444546206D65737361676520636FA7
:101BF0006E7461696E73202564207265636F726410
:101C00002873290D0A0D0A0030B50B68302B01D25C
:101C1000042030BD2424303BB3FBF4F400F10C036A
:101C2000641C03EB8405C2E9000505EBC40595605F
:101C3000036013685C6015680023AB60926804EB76
:101C4000440302EBC302101A0860002030BD0000FC
:101C5000F0B50324059D2E68032E3BD31E7806F0B5
:101C600007060E70072E01D105260E701E7806F0AD
:101C7000C006167013F8016B13F8017B0F72F206A1
:101C800002D513F8012B0CE02A680624062A21D37A
:101C900053F8032B12BA13F801CB22F0FF0242EAE9
:101CA0000C0236074FF0000C07D52E68641CA642C4
:101CB00010D313F8016B4E7003E081F801C0C1F836
:101CC00004C04E78144407EB060E7444D5F800E0C7
:101CD000A64501D20920F0BD17B1CB603B4401E01D
:101CE000C1F80CC00EB14B6033443AB1036042609E
:101CF00048610448086100202C60F0BDC0F800C0B5
:101D0000F5E70000B11E000010B50C46024621A107
:101D1000032000F007FF20782A4951F820202AA14B
:101D2000032000F0FFFE606848B12FA1032000F0FF
:101D3000D3FE637833A10320626800F077FEE06889
:101D400048B136A1032000F0C7FE237A2DA103205D
:101D5000E26800F06BFE39492069884213D164695A
:101D6000206860B136A10320626800F0DBFEA08825
:101D700024A183B20320226800F058FE03E03CA1B6
:101D8000032000F0A9FEBDE8104042A1032000F0AE
:101D9000A3BE00004E46435F4E4445465F5041524D
:101DA0005345523A494E464F3A4E44454620726595
:101DB000636F726420256420636F6E74656E743A7D
:101DC0000D0A0000643F00004E46435F4E44454606
:101DD0005F5041525345523A494E464F3A544E464F
:101DE0003A202573000000004E46435F4E444546AE
:101DF0005F5041525345523A494E464F3A49443A50
:101E00000D0A00004E46435F4E4445465F50415226
:101E10005345523A494E464F3A0D0A004E46435FEB
:101E20004E4445465F5041525345523A494E464F03
:101E30003A747970653A0D0A00000000B11E000086
:101E40004E46435F4E4445465F5041525345523AD9
:101E5000494E464F3A5061796C6F616420646174F9
:101E60006120282564206279746573293A0D0A007F
:101E70004E46435F4E4445465F5041525345523AA9
:101E8000494E464F3A4E6F207061796C6F61640D18
:101E90000A0000004E46435F4E4445465F504152A3
:101EA0005345523A494E464F3A0D0A0D0A0000007A
:101EB00070B515460B00044609D028686268904248
:101EC00001D2042070BD18462168FEF7CFFA606881
:101ED0002860002070BDD0E901329A4201D304206D
:101EE0007047036843F822108168491C8160002014
:101EF00070474FF47A71484300F046B800283ED04E
:101F00001F49204A096800BF00BF00BF00BF00BFD3
:101F100000BF00BF00BF91422FD000BF00BF00BF75
:101F200000BF00BF00BF00BF00BF00BF00BF00BFB9
:101F300000BF00BF00BF00BF00BF00BF00BF00BFA9
:101F400000BF00BF00BF00BF00BF00BF00BF00BF99
:101F500000BF00BF00BF00BF00BF00BF00BF00BF89
:101F600000BF00BF00BF00BF00BF00BF00BF00BF79
:101F700000BF00BF00BF00BF00BF401EC3D17047FD
:101F8000700000200024F40000283ED01F49204AA1
:101F9000096800BF00BF00BF00BF00BF00BF00BF97
:101FA00000BF91422FD000BF00BF00BF00BF00BFE5
:101FB00000BF00BF00BF00BF00BF00BF00BF00BF29
:101FC00000BF00BF00BF00BF00BF00BF00BF00BF19
:101FD00000BF00BF00BF00BF00BF00BF00BF00BF09
:101FE00000BF00BF00BF00BF00BF00BF00BF00BFF9
:101FF00000BF00BF00BF00BF00BF00BF00BF00BFE9
:1020000000BF00BF00BF401EC3D17047700000205A
:102010000024F40000283ED01F49204A096800BF70
:1020200000BF00BF00BF00BF00BF00BF00BF9142A4
:102030002FD000BF00BF00BF00BF00BF00BF00BF68
:1020400000BF00BF00BF00BF00BF00BF00BF00BF98
:1020500000BF00BF00BF00BF00BF00BF00BF00BF88
:1020600000BF00BF00BF00BF00BF00BF00BF00BF78
:1020700000BF00BF00BF00BF00BF00BF00BF00BF68
:1020800000BF00BF00BF00BF00BF00BF00BF00BF58
:1020900000BF401EC3D17047700000200024F40030
:1020A00000283ED01F49204A096800BF00BF00BF7A
:1020B00000BF00BF00BF00BF00BF91422FD000BFD4
:1020C00000BF00BF00BF00BF00BF00BF00BF00BF18
:1020D00000BF00BF00BF00BF00BF00BF00BF00BF08
:1020E00000BF00BF00BF00BF00BF00BF00BF00BFF8
:1020F00000BF00BF00BF00BF00BF00BF00BF00BFE8
:1021000000BF00BF00BF00BF00BF00BF00BF00BFD7
:1021100000BF00BF00BF00BF00BF00BF00BF401E28
:10212000C3D17047700000200024F40000283ED086
:102130001F49204A096800BF00BF00BF00BF00BFA1
:1021400000BF00BF00BF91422FD000BF00BF00BF43
:1021500000BF00BF00BF00BF00BF00BF00BF00BF87
:1021600000BF00BF00BF00BF00BF00BF00BF00BF77
:1021700000BF00BF00BF00BF00BF00BF00BF00BF67
:1021800000BF00BF00BF00BF00BF00BF00BF00BF57
:1021900000BF00BF00BF00BF00BF00BF00BF00BF47
:1021A00000BF00BF00BF00BF00BF401EC3D17047CB
:1021B000700000200024F40000F01F020121914073
:1021C0004009800000F1E020C0F880117047490705
:1021D000090E002806DA00F00F0202F1E02282F870
:1021E000141D03E000F1E02282F8001400F01F0249
:1021F000012191404009800000F1E020C0F88012E8
:10220000C0F800117047000B40B2704701790A4ACC
:1022100001EB8101006802EBC1024FF0FF31C0F811
:102220000813D0F800120021C0F80012C0F8001501
:10223000012082F8220070479C0500200179064A9F
:1022400001EB8101006802EBC1010522C0F8002505
:10225000022081F8220070479C05002070B50646D8
:102260000D4600791F4900EB800001EBC00494F893
:10227000220008B1082070BD0020C4E90023A0603E
:1022800084F8250084F82400A87B84F82700687B64
:1022900010B1284600F0A0FE296840F20C608900C9
:1022A00001F1A041C1F800076968890001F1A0416E
:1022B000C1F80007D5E900123068C0F80815C0F869
:1022C0000C25A968C0F82415206828B13068297B3E
:1022D000000B40B2FFF77BFF012084F822000020B2
:1022E00070BD00009C0500203EB5074D2C68AD6810
:1022F00000948DF80110019202958DF802300022B1
:10230000694600F04BF83EBD143F00003EB5002585
:102310000095069C8DF8011002958DF8023001920F
:102320000CB1202200E00022694600F037F83EBDE3
:1023300010B503460079184900EB800001EBC0049A
:10234000206860B11868000B41B201F01F02012043
:1023500090404909890001F1E021C1F88001184647
:10236000FFF754FF94F8270088B9196840F202304B
:10237000D1F80815890001F1A041C1F800071968DA
:10238000D1F80C15890001F1A041C1F80007002027
:1023900084F8220010BD00009C05002030B40379B1
:1023A000084C03EB830304EBC304930702D030BC57
:1023B00006207047006813460A460146204630BC96
:1023C00000F0ADBF9C0500202DE9F04105460079E5
:1023D000164F904607EB40140E46E07E10B10820E1
:1023E000BDE8F081707F20772846FFF769F85FEA43
:1023F000080060603169216003D0317F2846FFF713
:10240000B3F9287907EB4010007F0028286801D035
:10241000082100E00421C0F800150020E0752076B6
:10242000A0750121E176A076DAE70000C40500205E
:102430002DE9F047054600793E4C0E4604EB40136B
:10244000187F38B14FF40050B0EB164F02D0102077
:10245000BDE8F087284600F06FF808B11120F7E7D3
:102460009A7500279E609F8228794FF0010804EB3F
:1024700040143E46207F0028286825D04FF49079EC
:10248000494600F0B8FB4FF4AC7A5146286800F09A
:10249000B2FB2868A17DA268C0F84425C0F84815A1
:1024A0002868C0F808806068F0B94946286800F0DC
:1024B0009DFB80465146286800F098FB58EA0001D1
:1024C000F3D058BBA7750FE04FF48E7A514600F059
:1024D00081FB2868C0F808802146286800F065FF65
:1024E00061684FF4807089B13046B1E75146286881
:1024F00000F06BFB10B9A08A4845F7D1A08A484587
:1025000005D02146286800F050FF00E08146A08AEF
:10251000A17D8842EAD3A08A484501D10F26D1E7A0
:102520005146286800F051FB0028F9D02868C0F80F
:102530000C80C7E7C40500200079044901EB401076
:10254000807D002800D0012070470000C4050020D5
:1025500070B5044600791149002601EB401520684A
:102560002A7FC0F80065686888B1207901EB4010C7
:10257000007F0028206801D0094901E008498C3912
:10258000C0F808132068FFF73EFEFFF715FE20464F
:1025900000F037FBEE766E6070BD0000C4050020D1
:1025A0001003020030B541EA4201DDE9034541EA8A
:1025B0008301800041EA042100F1A04041EA054185
:1025C000C0F8001730BD1CB5002100910B46012258
:1025D0000191FFF7E7FF1CBD0022800000F1A04041
:1025E00042EA8101C0F8001770471CB500220B4673
:1025F000009211460192FFF7D5FF1CBD1CB50021CA
:1026000000910B46012201911146FFF7CBFF1CBD43
:10261000800000F5E06000F1A040026822F4403242
:102620000260026842EA0141016070470121814075
:10263000014801607047000008050050034908B5D3
:102640000844002101600068009008BD006000405F
:1026500002494058012800D0002070470060004027
:1026600000487047D926000030B5184C054689B09F
:10267000207828B16078854202D1002009B030BDB1
:10268000202213496846FDF7F1FE00208DF8140062
:10269000062000900820019005200390072002905A
:1026A0004FF0EB7006900948001DFFF751FF0DB188
:1026B000002200E0074A05486946001DFFF784FE36
:1026C0000028DBD1012020706570D6E76000002073
:1026D000203F0000753C00002DE9F04FC1B00D0017
:1026E000DDF82CB14D984FF000011C4690460BEBE5
:1026F000000A409101D00A2600E0002600F0EEFA20
:10270000002873D16F46BCB9409840AA39182846B2
:1027100000F04AFC002869D04046FDF7B9FEC22807
:1027200000D9C220054640982A4638444146FDF764
:102730009DFE4098284440904FF02009409882190F
:1027400031320DEB02016844002202E000F8019BE7
:10275000521CB242FAD30027544508D300F8019B1B
:1027600000F8019B00F8019B01F8019B26E05C4505
:1027700002D24A9A125D03E04C9AA4EB0B03D25C9E
:1027800084460125AB0022FA03F808F00F03092B59
:1027900001D9373300E03033C5F101086D1E0CF864
:1027A0000830EFD20CF10200A2F1200300F8019BE7
:1027B0005E2B00D92E2201F8012B641C7F1C102FE8
:1027C000CAD30D220A700A224A7080F800904098FD
:1027D000811943316846409100F086FA30B100F02B
:1027E0007DFA18B9002040905445A7D341B0204647
:1027F000BDE8F08F2DE9F043C5B000251C4690469A
:1028000089464C9F449500F069FAB0BB449804AEE9
:10281000311844AA484600F0C7FB00282ED0072FE5
:1028200022D2DFE807F00412192E38445100404646
:10283000FDF72EFE054644982918FF2914D8304488
:102840002A464146FDF712FE0EE0449822683044C5
:102850004146FEF709F906E0D4E9002344984146D1
:102860003044FEF701F90546294644A8FEF774FEF8
:1028700018B14499B1F5807F33D9002045B0BDE847
:10288000F083A0680090D4E9002344984146304486
:10289000FEF7EAF8E7E7D4E90201CDE90001D4E95F
:1028A0000023449841463044FEF7DEF8DBE704F1AC
:1028B000080007C88DE80700D4E900234498414682
:1028C0003044FEF7D1F8CEE704F108000FC88DE8D8
:1028D0000F00D4E90023449841463044FEF7C4F881
:1028E000C1E704A800F000FAC8E7000000487047FC
:1028F000F52700000120FFF7B7BE00002DE9F04FDB
:1029000087B0FEF763FE18B1002007B0BDE8F08F76
:10291000454ED6E9014704EA070006EB8000A146D0
:10292000641CC5680CE000BFC5F3891000EB95502E
:10293000044404EA070006EB8000A146C568641C55
:10294000A807F1D005F003004FF0000B022805D0D6
:10295000AA0A01A8C5F38313002153E004EA070083
:1029600006EB800004F1010A0AEA0704C268381B7A
:1029700080004FEA9558001DC5F38913804521D981
:1029800029490C3138B106EB840400F0FF0CA8EBA8
:1029900000000C3404E00C46002108F0FF0C08464F
:1029A000C0B2CDE90210CDE9004CD6F81444C5F30D
:1029B000C2005946A047404511D108F103080AEB6F
:1029C00098042AE0002106EB84000C300090CDE949
:1029D00001810391C5F3C200D6F81444EAE760F31D
:1029E0008F1509EA070006EB8000C56016E000BFFE
:1029F00004EA070C06EB8C0C491CDCF80CC040F810
:102A000004CB641C9942F3D3C5F3C2000093D6F8FB
:102A1000105401AB5946A84700B17460FEF7D6FDCB
:102A200080F0010071E70000040700202DE9F04765
:102A3000DFF888808A460746D81C01211D4691464A
:102A400001EB9000D8F80860D8F80040FEF78EFD42
:102A5000002831D01A48002104EA0602006A08EB77
:102A6000820261F3820067F3C50065F39F50641C26
:102A7000D06004EA060208EB8202641CC2F80CA0D3
:102A8000D8F808003440001B8600361DB54208EB1C
:102A9000840002D82A46494609E0324649460C30AD
:102AA000FDF7E4FCA81B82B2044809EB0601BDE86F
:102AB000F0470C30FDF7DABCBDE8F08704070020D2
:102AC000403F0000034AFF239360002313605360DC
:102AD00000F056B8040700202DE9F047DFF83C80ED
:102AE0000446002689463046D8F80870D8F80050C9
:102AF000FEF73CFD00280ED0094800213D4040680B
:102B000061F3820064F3C50066F3891008EB850168
:102B100069F39F20C860BDE8F0870000040700202B
:102B2000403F00002DE9F047DFF84C8005460127C3
:102B3000924689463846D8F80860D8F80040FEF733
:102B400015FD002815D00D48002104EA0602806812
:102B5000641C61F3820065F3C50067F3891008EB1C
:102B60008202344069F39F2008EB8401D060C1F8F1
:102B70000CA0BDE8F087000004070020403F0000E3
:102B8000024A02F5826203C2704700000407002077
:102B900070B506460020FFF767FD040008D1FFF777
:102BA0005FFD0546FFF7A2FE32462946FFF78AFF82
:102BB000204670BD4058002800D00120704708B55D
:102BC000002242504058009008BD4058002800D0D4
:102BD0000120704708B5002242504058009008BDBF
:102BE000D0F80403084000D0012070474058002866
:102BF00000D00120704708B5002242504058009094
:102C000008BD70B502464FF0FF301168D1F80C35A1
:102C1000D1F81465D1F80855D1F81045C1F80C0564
:102C2000C1F814051168C1F80805C1F81005184667
:102C3000FFF7C9FC3046FFF7C6FC601C02D02046F7
:102C4000FFF7C1FC681C04D02846BDE87040FFF7C0
:102C5000BABC70BD70B5012670044FF0E0210025AC
:102C6000C1F88001084C4010C4F84803C4F80803B8
:102C700066602F20FFF714FAA660044C2F20A56091
:102C8000FFF70EFAA57070BD001001403C00002057
:102C900070B50546C87D0C4600284FF4847128465F
:102CA0000AD0FFF797FFD5F81805627EE1688854CF
:102CB000607E401C607670BDFFF78CFFD5F818056C
:102CC00070BD1FB501238DF800308DF808100192FA
:102CD000D0E90012684690471FBD00000148FFF789
:102CE0002BBC00006400002070B50D460A4601466A
:102CF00001240648FDF7BAFBEAB204490448FFF78D
:102D000097FB00B10024204670BD0000040600209F
:102D10006400002070B50E4D0146284600F0AFFB60
:102D200004280AD018B10B490320FFF7D5FE284626
:102D300000F0E2FB0024EE6906E00749F4E73046C4
:102D4000FEF7E8FE641C0836288CA042F7D870BD58
:102D500000000020843F0000D03F0000FEB5054683
:102D600000200190029007200E468DF800001029E7
:102D700022D341F288336A4601A90020FEF714FAF3
:102D800008B10520FEBD9DF80000072801D00620EF
:102D9000FEBD002405EB84012046FEF7B1F908B121
:102DA00022461AE0641CE4B2042CF3D3A87BC000D2
:102DB00000F11001B14201D90420FEBD0024C0F38E
:102DC0008706102711E000BF07EB84002918201D9B
:102DD000C0B2FEF795F930B1221D06A10320FFF71E
:102DE000A1FE0320FEBD641CE4B2B442ECD300207B
:102DF000FEBD00004150503A494E464F3A46616987
:102E00006C656420746F2072656164207061676511
:102E10002025640D0A0000002DE9F84F204C002504
:102E20006846D4E901B6FEF739FC8046FEF734FD6A
:102E30000746A946B8F1000F25D00023009ACC46DA
:102E4000606819E007680146974202D9BA1A026021
:102E500014E0C1F800C0D1F80C80D21BC8693B4413
:102E60008A46B8F1000F07D0F71827F07F47C1E96D
:102E70000178CAF81C500D460028E3D1606028464E
:102E8000FEF75EFD04E02846FEF75AFD00B917B1D3
:102E90005846FEF7ADFB84F80390BDE8F88F0000BC
:102EA0003C0000200D4B10B5596831B102680C6828
:102EB000A24204D8A21A0A60C161586010BD0B4634
:102EC00003E00B46C969121B21B10C689442F8D388
:102ED000A41A0C600260C161D86110BD3C000020E2
:102EE0002DE9F0411F4D6C68002C38D01E4800279A
:102EF0000068A968B846401A20F07F462068B042B2
:102F000018D82246361A0744E469107C80B182F84A
:102F10001080EB684BB1D2E90501984740B113A28C
:102F20004FF4A771FEF778FA02E0D2E9051088475E
:102F3000002CE3D129786878814206D1401CC0B2C8
:102F40006870022801D185F8018006486978183038
:102F500040F82170BDE8F0411420FDF701BCBDE848
:102F6000F08100003C000020041501402E2E5C2E54
:102F70002E5C2E2E5C2E2E5C2E2E5C2E2E5C636F15
:102F80006D706F6E656E74735C6C6962726172698C
:102F900065735C74696D65725C6170705F74696D96
:102FA00065722E630000000010B5144602004FF059
:102FB00001000AD00846126805A1FDF755FD01463B
:102FC0002046BDE81040FEF7C7BA0021216010BDC1
:102FD0005B253038645D00002DE9F041044640F285
:102FE0000C602168890001F1A041C1F80007616807
:102FF000890001F1A041C1F800072068FFF716FB26
:103000006068FFF713FB216840F20D60890001F151
:10301000A041C1F800076168890001F1A041C1F831
:1030200000070420FEF7F6FFDFF858800025012690
:10303000A8F104072079D8F80010C14011F0010F61
:1030400002D0002D1BD00FE0207806FA00F0386087
:103050000420FEF7DFFF2068FFF7E8FA0420FEF700
:10306000D9FF6D1C092DE5DB207986403E600420E8
:10307000FEF7D0FF6068BDE8F041FFF7D7BABDE8C2
:10308000F08100001005005001460320CA0701D05E
:103090004FF402408A0701D548F20120490701D5C3
:1030A00048F2022070472DE9FC5F0C4605461F469A
:1030B00093464FF0000A4FF482712046FFF77FFDE0
:1030C0004FF492712046FFF77AFD4FF48E7120463F
:1030D000FFF775FD4FF484712046FFF770FD002661
:1030E00085F8266085F82360012F0ED00120C4F8F2
:1030F0000002012020622060286840B140F2862052
:10310000A860A868C4F804031AE00220EFE705F1FC
:10311000260905F12308CDE900765B464A4641467B
:10312000204600F024F80028F5D195F8230038B1A6
:10313000D4F8C404C4F8C40410B1FFF7A5FF824654
:103140005046BDE8FC9F30B51C78039D944206D2E2
:10315000095DC0F81C151878401C187005E00121A5
:1031600015B1C161002030BD4161012030BD2DE9A4
:10317000FF4F81B0044608780E9E90460F4618B95E
:1031800098F80010B14201D1012100E000218946E8
:103190004FF48E7B4FF4927160B12046FFF70FFD24
:1031A00059462046FFF70BFD4FF484712046FFF788
:1031B00006FD4DE08A462046FFF7FCFC012540BB9A
:1031C00059462046FFF7F6FC98B159462046FFF7CE
:1031D000F6FC51462046FFF7EDFCD0B90F98009061
:1031E0004346324620460499FFF7ADFF00283ED003
:1031F0002EE04FF4847B59462046FFF7DBFC38B3C2
:1032000059462046FFF7DBFC51462046FFF7D2FC2B
:1032100030B151462046FFF7D2FC65613D7017E0A2
:1032200098F8002004994046B24211D2D4F81835DB
:103230008B540178701E491CC9B288F80010814275
:1032400003D10220C4F8000201E0B14200D025629F
:10325000B9F1000F0ED04FF4827529462046FFF7D2
:10326000A9FC38B129462046FFF7A9FC002005B08B
:10327000BDE8F08F0120FAE72DE9FC5F0C4605461A
:103280001E4692464FF000094FF4827120460C9F73
:10329000FFF795FC4FF492712046FFF790FC4FF436
:1032A0008E712046FFF78BFC4FF484712046FFF7A8
:1032B00086FC0020C4F8000285F8260085F823006B
:1032C00001202062A06005F126039B46324651464C
:1032D00020460097FFF737FF286830B140F286207C
:1032E000A860A868C4F8040316E005F12308534653
:1032F0005A4641462046CDE90067FFF738FF0028CF
:10330000F5D195F8230038B1D4F8C404C4F8C40446
:1033100010B1FFF7B9FE81464846BDE8FC9FF8B5FD
:1033200004464FF0FF30C1F8080394F8240020B1A0
:10333000A068C1F804031120F8BD43F38000401CCD
:1033400084F82400180701D50620F8BDA36192E88F
:10335000610004F10C0787E86100907884F8200090
:103360005068E0615078C1F8880510780025012880
:103370000ED008B9980601D5012000E0002084F89D
:1033800021000090937852682046FFF775FF06E011
:1033900084F82150937852682046FFF784FE216814
:1033A0000029D2D184F82450F8BD70B50C460546EA
:1033B0004FF48E71FFF70EFCA18AA068415CA08AD1
:1033C000401CA082C5F81C1570BD1FB500228DF8E9
:1033D00000208DF80810816801918275D0E90012F3
:1033E000684690471FBD00210184C0F81210C182B9
:1033F000016041608160C160704700002DE9F041CB
:103400000C780470B1F8012053BA4380CD7805716F
:103410004A68CE7912BA22F0FF02324382600E7AF5
:1034200006734F7A4773498949BA0182D8B284EA50
:10343000132180F088004140C2F3074080EA126007
:10344000C2F307235840D2B250408D4201D1864288
:1034500003D003490220FFF73FFB0020BDE8F081C5
:10346000204100004AB1808A0A441030521E824234
:1034700003DA102901D3012070470020704738B5C6
:103480000D460446FFF7AFFF29462046FFF7B6FF7B
:10349000002805D1287B05F10C02E12801D00B2082
:1034A00038BD50780109A174507800F00F01E17423
:1034B0009078C100A182D0780109A175D07800F080
:1034C0000F01E175A07C012801D0062038BD102035
:1034D000ADF80000A18A80B2103181420AD06A465C
:1034E0002946204600F086FB0028EFD1BDF80000F9
:1034F0000028EFD1002038BD2DE9F041044638A165
:103500000320FFF7E9FA228C41A10320FFF70AFB11
:103510004CA10320FFF7E0FA227854A10320FFF723
:1035200001FB62885FA10320FFF7FCFA22796BA1FF
:103530000320FFF7F7FA77A10320A268FFF7F2FA5A
:10354000227B82A10320FFF7EDFA627B8DA103208D
:10355000FFF7E8FA228A99A10320FFF7E3FAA6A170
:103560000320FFF7B9FAA27CB0A10320FFF7DAFA33
:10357000E27CBBA10320FFF7D5FAA28AC5A10320F4
:10358000FFF7D0FAA27DD0A10320FFF7CBFAE27DAE
:10359000DBA10320FFF7C6FA002502272AE2E06933
:1035A000E6A110F835200320FFF7BCFAE06910F817
:1035B0003500032810D006DC00280ED0012808D0E2
:1035C000022804D107E0FD2808D0FE2807D0E6A194
:1035D000EFE1EDA1EDE1EBE112E215E212E215E21D
:1035E0004E46435F5432545F5041525345523A491C
:1035F0004E464F3A547970652032205461672063FB
:103600006F6E74656E74733A0D0A0D0A0000000047
:103610004E46435F5432545F5041525345523A49EB
:103620004E464F3A4E756D626572206F6620544C5F
:103630005620626C6F636B733A2025640D0A0D0A85
:10364000000000004E46435F5432545F50415253D5
:1036500045523A494E464F3A496E7465726E616CF6
:1036600020646174613A0D0A000000004E46435F19
:103670005432545F5041525345523A494E464F3AA4
:10368000202020204D616E756661637475726572CD
:103690002049443A202020202020307825303278DC
:1036A0000D0A00004E46435F5432545F504152535E
:1036B00045523A494E464F3A2020202053657269C0
:1036C000616C206E756D626572207061727420315C
:1036D0003A203078253034780D0A00004E46435F9A
:1036E0005432545F5041525345523A494E464F3A34
:1036F00020202020436865636B2062797465203048
:103700003A202020202020202020307825303278B8
:103710000D0A00004E46435F5432545F50415253ED
:1037200045523A494E464F3A20202020536572694F
:10373000616C206E756D62657220706172742032EA
:103740003A2030782530386C780D0A004E46435FB9
:103750005432545F5041525345523A494E464F3AC3
:1037600020202020436865636B20627974652031D6
:103770003A20202020202020202030782530327848
:103780000D0A00004E46435F5432545F504152537D
:1037900045523A494E464F3A20202020496E7465E2
:1037A000726E616C20627974653A2020202020209E
:1037B00020203078253032780D0A00004E46435FD5
:1037C0005432545F5041525345523A494E464F3A53
:1037D000202020204C6F636B2062797465733A203F
:1037E00020202020202020202020307825303478F0
:1037F0000D0A0D0A000000004E46435F5432545F2C
:103800005041525345523A494E464F3A43617061D6
:1038100062696C69747920436F6E7461696E657258
:1038200020646174613A0D0A000000004E46435F57
:103830005432545F5041525345523A494E464F3AE2
:10384000202020204D616A6F722076657273696F47
:103850006E206E756D6265723A2025640D0A000057
:103860004E46435F5432545F5041525345523A4999
:103870004E464F3A202020204D696E6F72207665AB
:103880007273696F6E206E756D6265723A20256481
:103890000D0A00004E46435F5432545F504152536C
:1038A00045523A494E464F3A2020202044617461E7
:1038B00020617265612073697A653A20202020209A
:1038C000202025640D0A00004E46435F5432545FA9
:1038D0005041525345523A494E464F3A20202020FB
:1038E00052656164206163636573733A2020202010
:1038F0002020202020203078253032580D0A00006A
:103900004E46435F5432545F5041525345523A49F8
:103910004E464F3A2020202057726974652061631B
:10392000636573733A2020202020202020203078E7
:10393000253032580D0A0D0A000000004E46435F44
:103940005432545F5041525345523A494E464F3AD1
:10395000544C5620626C6F636B203078253032589F
:103960003A200D0A000000004E46435F5432545F77
:103970005041525345523A494E464F3A556E6B6E3E
:103980006F776E0D0A0D0A004E46435F5432545F46
:103990005041525345523A494E464F3A4C6F636B31
:1039A00020436F6E74726F6C0D0A0D0A00000000E8
:1039B00017A10320FFF790F8E06907EBC5061EA1E9
:1039C000825B0320FFF7AEF8E069805B68B124A159
:1039D0000320FFF781F8E069042101EBC501835B57
:1039E000425827A10320FFF721F82BA10320FFF75E
:1039F00073F86D1C208CA8423FF6D1ADBDE8F08174
:103A00002CA1D6E735A1D4E73DA1D2E744A1D0E768
:103A10004E46435F5432545F5041525345523A49E7
:103A20004E464F3A4D656D6F727920436F6E7472DA
:103A30006F6C0D0A0D0A00004E46435F5432545F0E
:103A40005041525345523A494E464F3A2020202089
:103A50004C656E6774683A2025640D0A000000000A
:103A60004E46435F5432545F5041525345523A4997
:103A70004E464F3A20202020446174613A0D0A00DE
:103A80004E46435F5432545F5041525345523A4977
:103A90004E464F3A0D0A00004E46435F5432545F83
:103AA0005041525345523A494E464F3A0D0A0D0A7B
:103AB000000000004E46435F5432545F5041525361
:103AC00045523A494E464F3A4E444546204D65735D
:103AD000736167650D0A0D0A000000004E46435FE2
:103AE0005432545F5041525345523A494E464F3A30
:103AF00050726F70726965746172790D0A0D0A00F7
:103B00004E46435F5432545F5041525345523A49F6
:103B10004E464F3A4E756C6C0D0A0D0A00000000BF
:103B20004E46435F5432545F5041525345523A49D6
:103B30004E464F3A5465726D696E61746F720D0A2C
:103B40000D0A00002DE9F0474FF00009C3F800907E
:103B50000D46C3F80490144611881E468046012283
:103B6000FFF780FC0B2770B32188685C30702088D9
:103B7000401C81B221803278032A06D001DC22B9B0
:103B80001EE0FD2A01D0FE2A1ED040460122FFF78A
:103B900069FCC0B12188685CFF281AD07080208839
:103BA000401C208072885AB140462188FFF75AFC99
:103BB00048B120882844706020887188084420809B
:103BC0000020BDE8F08702E0A4F80090F8E738464E
:103BD000F7E703224046FFF745FC0028F7D021888D
:103BE000681C0844008840BAFF28F0D37080208801
:103BF000C01CD6E71CB504466B46FFF7A3FF0028A0
:103C000015D19DF8000002280CD003DC30B101284A
:103C10000ED107E0FD280BD0FE2809D1BDF8021017
:103C200021B905E0BDF80210032901D00B201CBD0D
:103C3000032806D001DC20B918E0FD2801D0FE28B9
:103C400014D0208C218B884206D1042408490220FC
:103C5000FEF742FF20461CBDE16901EBC000DDE933
:103C60000012C0E90012208C401C208400201CBDE2
:103C7000CC4000000078012801D1014988707047CC
:103C8000600000202DE9FF470C4605464FF4007107
:103C9000FEF7A6FF01274FF40178002618B34FF472
:103CA000927949462846FEF790FFE0B149462846FA
:103CB000FEF790FFC5F80883A07E00B96F60022070
:103CC0008DF80000D5F88004C5F880040390E07DED
:103CD0008DF80800E0680190E6752676D4E90012B8
:103CE0006846904727E004212846FEF779FF10B385
:103CF0004FF484712846FEF768FFE0B1214628465C
:103D0000FEF7C6FFE07D617E884214D1207E38B187
:103D1000617EE268E0752069E0602676667607E0FD
:103D2000A07E00B96F60C5F80883E675617EE26821
:103D30002046FEF7C6FF4FF48E7841462846FEF730
:103D400044FF88B1A08AA17D884204D2214628463A
:103D5000FFF72BFB08E041462846FEF73BFFA17D1D
:103D600011B12046FFF731FB4FF4A27841462846B7
:103D7000FEF72BFF002812D041462846FEF72AFF07
:103D8000A07E00B12F60E07D002808D0E675617E3E
:103D9000E26804B02046BDE8F047FEF792BFBDE8F8
:103DA000FF872DE9FF410C464FF4927705463946CF
:103DB000FEF71CFF0026C0B139462846FEF71BFF60
:103DC00002208DF80000D5F88004C5F88004039027
:103DD000D5F83C058DF80800E0680190E675267678
:103DE000D4E900126846904724E04FF488773946BA
:103DF0002846FEF7FBFEE8B139462846FEF7FBFEF3
:103E0000D5F83C05C1B2E07D884213D1207E60B177
:103E1000E268D5F8000220F02000C5F80002207EFC
:103E2000E0752069E060267601E0E675E2682046EC
:103E3000FEF747FF4FF4A27739462846FEF7D6FE35
:103E400068B139462846FEF7D6FEE07D38B1E67502
:103E5000D5F83C05E268C1B22046FEF732FF4FF4C8
:103E6000907631462846FEF7C1FE00280FD0314635
:103E70002846FEF7C0FEA07D002808D0D5F84C05E6
:103E800004B0C1B22046BDE8F041FFF79EBABDE8DC
:103E9000FF81000010B500200122032102FA00F387
:103EA00013F4F01F04D0830003F1A043C3F80017FC
:103EB000401C2028F2D309494FF4F0100860091D76
:103EC00000200860FEF764FE002805D0BDE8104021
:103ED00003A23C21FDF7A0BA10BD00000805005068
:103EE0002E2E5C2E2E5C2E2E5C6D61696E2E630074
:103EF0000000FF00FF0000FF06FAD503003000407D
:103F0000000000001F0000001F000000000040062D
:103F1000060000000100000000000000000000009A
:103F2000FFFFFFFFFFFFFFFFFFFFFFFFFFFFFFFFA1
:103F300000000000000000000000D60106010000A3
:103F40002900000001000000010000000100000045
:103F5000010000000100000001000000010000005D
:103F600002000000C44000009C4000002C40000003
:103F70004440000060400000B84000008440000061
:103F8000904000004150503A494E464F3A457272B7
:103F90006F7220647572696E672070617273696EEA
:103FA000672061207461672E205072696E74696E9B
:103FB00067207768617420636F756C64277665206D
:103FC0006265656E20726561642E0D0A0D0A00003F
:103FD0004150503A494E464F3A4E6F7420656E6FCD
:103FE000756768206D656D6F727920746F207265DA
:103FF00061642077686F6C65207461672E20507251
:10400000696E74696E6720776861742776652062CF
:1040100065656E20726561642E0D0A0D0A00000050
:104020004F766572666C6F770D0A00004D656469A6
:10403000612D747970652028524643203230343621
:10404000290D0A004162736F6C75746520555249E1
:1040500020285246432033393836290D0A00000003
:104060004E464320466F72756D2065787465726E9A
:10407000616C207479706520284E46432052544468
:10408000290D0A00556E6368616E6765640D0A004C
:1040900052657365727665640D0A00004E464320D2
:1040A000466F72756D2077656C6C2D6B6E6F776ED9
:1040B00020747970650D0A00556E6B6E6F776E0D0A
:1040C0000A000000456D7074790D0A004E46435F8A
:1040D0005432545F5041525345523A5741524E491F
:1040E0004E473A5761726E696E6721204E6F742099
:1040F000656E6F756768206D656D6F7279202074CD
:104100006F20696E7365727420616C6C206F66201D
:1041100074686520626C6F636B73210D0A00000088
:104120004E46435F5432545F5041525345523A57C2
:1041300041524E494E473A5761726E696E6721206F
:10414000424343206F66207468652073657269611D
:104150006C206E756D626572206973206E6F7420BD
:10416000636F7272656374210D0A00008C41000058
:104170000000002074000000900A000000420000CF
:1041800074000020AC2A0000A00A0000000000001B
:10419000000000000000000000000000000000001F
:1041A000000000000A000000740000200000000071
:1041B00000000000000D0E000000000000000000E4
:1041C00000000000000000000000000000000000EF
:1041D00000000000000000000000000000000000DF
:1041E00000000000000000000000000000000000CF
:1041F0000020004000000000204000000090D0039C
:0400000500000401F2
:00000001FF
