:020000040000FA
:10000000E0110020F50000000F01000011010000C8
:1000100000000000000000000000000000000000E0
:1000200000000000000000000000000013010000BC
:100030000000000000000000150100001701000092
:10004000190100008D0300002D07000019010000B8
:100050001901000000000000190100001901000052
:100060001901000075060000C1060000190100001A
:100070001901000019010000190100001901000018
:100080001901000019010000190100001901000008
:100090004D050000190100001901000019010000C0
:1000A000190100001901000000000000000000001C
:1000B0000000000000000000000000000000000040
:1000C0000348854600F0B0F800480047412300008F
:1000D000E0110020401E00BF00BF00BF00BF00BFF6
:1000E00000BF00BF00BF00BF00BF00BF00BFF1D115
:1000F000704700000321094802680A43026008486B
:1001000002680A4302600748804707480047FEE745
:10011000FEE7FEE7FEE7FEE7FEE7000024050040FD
:1001200054050040D5050000C100000030B50B4665
:10013000014600202022012409E00D46D5409D42C1
:1001400005D31D469540491B254695404019154647
:10015000521E002DF1DC30BD03460B439B0703D03C
:1001600009E008C9121F08C0042AFAD203E00B787C
:100170000370401C491C521EF9D27047D2B201E0F4
:100180000270401C491EFBD270470022F6E710B5F2
:1001900013460A4604461946FFF7F0FF204610BDF5
:1001A000421C0178401C0029FBD1801A704730B5F1
:1001B00004460020034600E05B1C934203D2E05C4F
:1001C000CD5C401BF8D030BDF0B51FB40646002012
:1001D00082B005464024019100901BE0019922461F
:1001E0000F46304600F042F8049A059B801A994168
:1001F00010D310461946224600F028F8361A8F41CF
:100200000197224601200021009F00F01FF83818B6
:100210004D4100902046641E0028DFDC019B0098C1
:100220002946324607B0F0BD064C0125064E05E0D2
:10023000E36807CC2B430C3C98471034B442F7D307
:10024000FFF742FF605500008055000010B5202ADE
:1002500004DB0146203A9140002010BD914020234C
:100260009C1A0346E3401943904010BD10B5202A64
:1002700004DB0846203AD040002110BD0B46D34095
:10028000D0402024A21A91400843194610BD10B551
:1002900002F0C4F910BD0000F7B5074600240120A4
:1002A0002E490004154688602D4EB078002802D0F3
:1002B0002C48FFF7ECFF002F02D12B48FFF7E7FF98
:1002C0007068002802D02948FFF7E1FF28467760D0
:1002D0000127274D002820D0012828D0022824D02B
:1002E0002448FFF7D4FF2448B7700021016001992A
:1002F000611889B229602E6820494F606D680068D6
:10030000002802D01E48FFF7C2FFA64211D3A54223
:1003100001D3B5421CD31B4818E0184847606C68ED
:100320000760154900200860DDE7AC68DBE72C6852
:10033000D9E7B54201D2012000E00020AC4201D84B
:10034000012100E00021884202D10F48FFF79FFF02
:10035000012002490004486003B0F0BD00A3004042
:100360007C00002073000400750004007600040087
:1003700040A500408900040040A1004040A000408A
:100380009B000400B0000400C9000400F8B55F4CF5
:1003900020696778401C2061607D002802D05C489D
:1003A000FFF775FF204622785A4D00245A495B4ECC
:1003B000032A3FD1CA68002A3CD0012F03D0022F64
:1003C0002FD057489EE007460069032802D05548C1
:1003D000FFF75DFF02203870B969491CB9615249C5
:1003E0000C60C11EA960514908604B48C46004609C
:1003F00004614460032179707C603C753268117D32
:1004000000290AD04A498B68BB75C461494B012059
:100410009861494B042098608C60D06800283AD1DC
:10042000F8BD0069012802D04448FFF730FF03F00F
:10043000B3FEF8BD032F64D0012F2ED0022FF6D0CB
:1004400042783F4B1201D218137B0027002B03D0B8
:10045000CB68002B00D00127927A334B02701C60CE
:10046000032A48D00022D243AA60304B02221A60ED
:10047000CC60032242700C600C614C6044600475D7
:1004800030680069002800D08047002FD1D0306844
:1004900080680028CDD08047F8BD0269012A18D0B5
:1004A000022AF9D1CC600C610C601F490C60111F4D
:1004B000A9600821696003210170446004753068F7
:1004C0000069002800D08047306880680028E2D1A9
:1004D000F8BD0C604C600021C943A960012169602E
:1004E0003168097D002902D0134A04215160154961
:1004F000C0684860F8BD0822D243AA6008226A603A
:10050000B9E71148FFF7C3FEF8BD0000CC06002094
:1005100090010A00001300400011004084000020F8
:10052000A9010A009F010A000012004080E200E0D9
:10053000401500400010004000F50140A4010A00F1
:100540002455000000150040D6010A00F8B5204DE2
:100550002C468034012080F310886068002832D057
:1005600020680C21484340190279310A09021143DD
:100570004279FF231B02120299431A4011438279E8
:100580001B02120499431A401143C2790E02360A23
:1005900011060E4381688289C08997B2000407431F
:1005A0006068401E60602068401C206020680A2847
:1005B00001D300202060002080F310882B683A4689
:1005C00030469847C6E7002080F31088F8BD000049
:1005D000F006002010B501F0F3FC002805D01F49FB
:1005E0001D484860C8131E4988611E48018CC9B265
:1005F00001290BD1828C120708D1028D1206120F2D
:10060000042A03D1828D1206120F0AD0012921D1AA
:10061000818C09071ED1018D0906090F0A2904D012
:1006200007E0114A01219160F5E7828D1206120F51
:1006300005D00D290ED1808D0006000F0AD10B4880
:100640000168012904D00A49016001680129FCD12F
:10065000C021416110BD0000DFFF07C00005004060
:10066000006C0040C00F00F00006004000EC0640A7
:100670007593000010B50F4800220178142905D2A7
:10068000491CC9B201700A2901D302E0027002219B
:1006900001E00121C943084803685B18036043680F
:1006A00059184160012141720448026001F01EFFA7
:1006B00010BD000006000020A00000204091004076
:1006C00070B50120134900048860134800250560B7
:1006D000124C6068002802D11148FFF7D8FDA570C0
:1006E000636810480122656042600F4841680068F5
:1006F00095031430A94205D20325AD03A84201D9C0
:10070000627005E0814201D3012000E000206070AA
:10071000984770BD00A3004040A100407C0000202D
:10072000EC00040040A0004040A5004010B5024984
:10073000024804F0A1FD10BDAC00002000200040E4
:100740000FB410B504A9074B02AA039800F028F8CB
:10075000044602A9002000F05DFA204610BC08BC47
:1007600004B01847150C000030B47446641E257898
:10077000641CAB4200D21D46635D5B00E31830BCD5
:10078000184702E008C8121F08C1002AFAD17047B2
:100790007047002001E001C1121F002AFBD1704701
:1007A000FFB591B00F460546002606E025280AD081
:1007B000149A139990476D1C761C28780028F5D15F
:1007C000304615B0F0BD002400940121F34A029494
:1007D00000E004436D1C2B780846203B98401042F3
:1007E000F7D128782A280ED0022128780246303AFC
:1007F000092A15D8009A0A235A43303A80180C4324
:100800006D1C0090F1E701CF0090002805DA01206F
:1008100040030443009840420090022004436D1CB2
:1008200028782E2815D10420044368786D1C2A28C6
:100830000AD101CF6D1C02900BE002990A225143AC
:10084000303940186D1C029028780146303909294A
:10085000F3D928786C2810D006DC4C281AD06828E8
:100860000ED06A2817D104E0742813D07A2812D148
:1008700010E00120400504430CE00121090501E0DE
:10088000032109050C436978814203D10120000549
:1008900024186D1C6D1C287803906E281ED00CDC6B
:1008A000632831D004DC00288AD0582811D1B2E066
:1008B00064287BD069280CD178E073282DD004DC23
:1008C0006F2870D0702804D1A7E075286CD07828E4
:1008D0006BD0149A13999047761C62E06002400F27
:1008E000022807D003280AD0042838680AD00660F6
:1008F0003F1D56E03868F11706604160F8E7386838
:100900000680F5E70670F3E738786946087400203A
:10091000487404A80390012003E038680390002085
:10092000C0433F1D61070FD5002101E00199491C1B
:10093000029A0191914213DA8142F7DB019A0399FD
:10094000895C0029F2D10BE0002101E00199491CEA
:1009500001918142FADB019A0399895C0029F5D162
:1009600001990098139A401A00902146149B00F0B8
:100970003BF901998019461807E00398039900781C
:10098000491C0391149A139990470198401E0190B5
:10099000401CF2D12146149B139A009800F014F9E0
:1009A00086196D1C09E741E033E034E00A2000219C
:1009B000049005916002410F022905D001CFC217B2
:1009C0009446032905D007E0FF1DFF08FF0003CF71
:1009D00006E000B2C2179446042902D140B2C11702
:1009E0008C4600226146944506DA0A4600214042C0
:1009F00091418C462D2102E0210504D52B216A4628
:100A00001176012103E0E10701D02021F7E70191F0
:100A100054E00A200BE0102009E01020049000218F
:100A20000420044308200591029003E008200021DF
:100A3000059104906002410F022905D001CF0022E8
:100A40009446032906D006E0FF1DFF08FF0003CFF0
:100A50008C4603E080B2042900D1C0B2002101918C
:100A600021072BD50399702906D0049A1021059BE4
:100A70004A401A4305D00EE040216A461176012112
:100A800008E06146014306D030216A461176039999
:100A9000517602210191049A0821059B4A401A438C
:100AA0000CD16146014301D1610707D530216A4667
:100AB0001176012101910299491E02910399582949
:100AC00004D037A103910FA90F910DE039A1F9E7E7
:100AD0006146059B049AFFF777FB039B8C469B5C62
:100AE0000F9A521E0F92137061460143F0D10F9876
:100AF00007A9081A20300390600704D501200004DC
:100B00008443029801E0012002900399884201DDAC
:100B1000401A00E00020411802900198091800983E
:100B2000401A0090E00306D42146149B139A0098C3
:100B300000F05AF886190020049008E006A9085C25
:100B4000149A139990470498401C761C04900199BC
:100B50008842F3DBE0030CD52146149B139A0098DE
:100B600000F042F8861904E0149A30201399904757
:100B7000761C0299481E02900029F5DC08E00F98C7
:100B80000F990078491C0F91149A13999047761C7D
:100B90000399481E03900029F1DCFBE609280100B7
:100BA00030313233343536373839616263646566E3
:100BB00000000000303132333435363738394142A5
:100BC0004344454600000000F8B5044600251E4693
:100BD0001746880404D405E039462020B0476D1C30
:100BE000641EF9D52846F8BDFFB50446002581B03E
:100BF0001E46C80301D5302700E02027880404D50D
:100C000005E038460399B0476D1C641EF9D52846A7
:100C100005B0F0BD0A68531C0B60107070470000EF
:100C200009A1012003F038FE03F07EFD03F082FDF0
:100C30000028FBD1BFF34F8F0A490948C860BFF3B2
:100C40004F8F00BFFDE700004150505F4552524FAB
:100C5000523A4552524F523A466174616C0D0A0045
:100C60000400FA0500ED00E00EB5002102900091AD
:100C70006A4601910148FFF7D3FF0EBD0140000015
:100C800000B500F005F800BD00B500F009F800BDA2
:100C900072B602480168491C0160704714000020C8
:100CA00003490868401E086000D162B67047000022
:100CB00014000020F0B549488BB003684849494A00
:100CC000012B02D04B6B002B05D153681B78202BD6
:100CD00001D8012300E00023434D03242C7000249D
:100CE000404A002B146057D084688268CA623D4A2B
:100CF00003A901920091C26801232146184603F01E
:100D000091FE002824D0012805D0022824D00328F1
:100D10004FD036484BE00398002802D03448FFF704
:100D2000B6FA204603F0F2FF002802D13148FFF75F
:100D3000AEFA68680222817D68460026027001963C
:100D40000681468144708170C67003F0E1FD30E099
:100D50002948FFF79CFA2CE00398002802D1274885
:100D6000FFF795FA204603F0D1FF002802D124486E
:100D7000FFF78DFA68680222817D039E6846027043
:100D800000236A46019613815381447001278170C4
:100D9000C77003F0BDFD0CE0002000900346024642
:100DA0000146019003F03EFE042802D01548FFF7EB
:100DB0006EFA0C4C2068002807D00120607512489C
:100DC0002061042028700BB0F0BD03F09BF90020D7
:100DD0006075206100F01AF80BB0F0BD00140040FF
:100DE00000150040A806002068000020C805090082
:100DF000B8050900B9050900BD050900C0050900CD
:100E0000C1050900CF050900A90E000070B503F067
:100E100079F91C4C00251C4E0120256130701B48BF
:100E20001B490069086303F077FF00281FD003F017
:100E300073FF032802D01748FFF729FA022003F0B6
:100E40005DFA002003F0D4FA03F066FF032802D015
:100E50001148FFF71CFA3078012802D00F48FFF73D
:100E600016FA022030700E482561E06070BD03F074
:100E70008BFD0228E2D303F0DBFF60600028DDD1A8
:100E80000848D9E7A806002068000020580600207E
:100E90000015004080050900880509009205090039
:100EA000B50C00007B05090010B50349052008704A
:100EB000FFF7ACFF10BD00006800002004280CD232
:100EC000074A1269074B80001B5C01209840904341
:100ED00000D001200870002070470020FAE70000D1
:100EE00000050050AC5400003FB5014600208907C2
:100EF0000FD5094C6D461ECC1EC50021074D6C4612
:100F00000C238A00A258920052191360491C04292C
:100F1000F7D304B030BD0000BC54000000070050FF
:100F2000002901DA00207047026851180160012091
:100F300070470000F8B5461C01250020FFF7A0FE11
:100F40001149741C0A6848688B68101A1F1A7F1CA4
:100F5000BC4212D9002F0ED00C480D4C00882468DA
:100F600080051A40800DA402920020435218D060E0
:100F70000868401C0860002501E090190860002006
:100F8000FFF782FE2846F8BDF8010020EC5400006F
:100F900024000020034803C8814201D1012070478A
:100FA00000207047F801002010B503220149FFF727
:100FB000D3F810BD10550000002207E00378401C54
:100FC000FF2B01D000207047521CD2B28A42F5D3C9
:100FD0000120704701490870704700002800002078
:100FE00010B501460D220248FFF7B6F810BD00000B
:100FF000300600200148407A70470000A000002021
:10100000FFFFFFFFFFFFFFFFFFFFFFFFFFFFFFFFF0
:10101000FFFFFFFFFFFFFFFFFFFFFFFFFFFFFFFFE0
:10102000FFFFFFFFFFFFFFFFFFFFFFFFFFFFFFFFD0
:10103000FFFFFFFFFFFFFFFFFFFFFFFFFFFFFFFFC0
:10140000F0B5454885B00068012803D04348406BDB
:10141000002806D1424840680078202801D80125DC
:1014200000E000253F4C01266069002804D101F04E
:1014300081FD002800D1666103F06EFC012802D016
:101440003948FEF724FF39484068007D002802D063
:101450003748FEF71CFF02F055FE002D57D0012142
:10146000084603F0A9FB052840D201007944097918
:1014700049188F4402381D383800002703F03AFC21
:101480000390A689E58903F03BFC0246274869469C
:101490004068837D0F700399019169460E814D81EB
:1014A0004A7000208B70C870684603F031FA1DE066
:1014B000002703F01FFC0390A689E58903F020FCB8
:1014C00002461A4869464068837D0F70039901916E
:1014D00069460E814D814A7001208B70C870684644
:1014E00003F016FA02E01348FEF7D1FE01F0CCF843
:1014F000206111481149426962602378022B01D0B2
:10150000002A06D0C0680860002001F0F1F805B09C
:10151000F0BD8068F7E700000014004000150040AF
:10152000A80600208C060020A806090068000020FC
:10153000A9060900C806090058060020C0060020B8
:1015400070B5184C00252179607801268143002967
:1015500005D0257114A1032003F09EF902E00028B4
:1015600000D02671E1782078814305D0E57018A17C
:10157000032003F091F902E0002800D0E6706179C1
:10158000A078814305D0657119A1032003F084F987
:1015900002E0002800D0667103F0CCF80028FBD1EF
:1015A00070BD0000000000204150503A494E464FA7
:1015B0003A53797374656D20616464726573732046
:1015C0006E6F742072656365697665640D0A00004C
:1015D0004150503A494E464F3A486F73742049443F
:1015E000206E6F742072656365697665640D0A000C
:1015F0004150503A494E464F3A44796E204B6579F6
:10160000206E6F742072656365697665640D0A00EB
:1016100030B5234D83B0687E00283AD001F02AFC13
:10162000002401280CD001F06FFC1E48007F002828
:1016300002D1012081074860002003F09DFC6C600E
:1016400002F060FDAC706C76052168460170019473
:101650000481448144708470C47003F059F91248C5
:10166000124904700320886003F056FB012812D051
:10167000022810D003280CD1002300941A461946E2
:101680001846019403F0CEF9042802D00848FEF76A
:10169000FEFD03B030BD0021084603F08DFAF3E7EC
:1016A0008C060020580600206800002000F501404C
:1016B000E8010900F0B58BB020270026099701F05A
:1016C00077FD044601F094FD0A9001F047FFC82021
:1016D00001F0E8FE052001F015FF002001F034FDC7
:1016E00001F0E6FC00206946087005460022012151
:1016F000684600F087FB002806D0002001F03CFF80
:101700006D1CEDB2642DF1D3C82000F003F9012067
:101710006946087001460022684600F073FB002805
:1017200023D01F48007800281FD0002001F044FD7E
:1017300000281EDD09AA01A90020099701F0C8FCB4
:10174000002816D068460079082812D1144801AD47
:1017500004220938691CFEF7FFFC681C00F0B8FB86
:10176000002000F055FA012603E0FF202D3000F0A4
:10177000D1F8FF205F3000F0CDF801F0EFFE00203F
:1017800001F0E2FC002001F0EFFC204601F08AFEAF
:101790000A9801F0B7FE01F08BFC30460BB0F0BDAB
:1017A0003A000020F0B50746204889B00078154679
:1017B0000E46002813D0012814D0022834D110225C
:1017C0001B4904A8FEF7C8FC1A490D2204A8FEF71D
:1017D000C3FC0020154B6C465B1C02460DE010223A
:1017E0001349F3E71022124904A8FEF7B5FC04A838
:1017F00000F0E4F8EDE7052802D2195C215400E07E
:101800002254401CC0B21028F5D301F005F904A8F9
:1018100001F014F96946084601F0D4F82B466A46EF
:101820003146384600F0BCFB09B0F0BD280000206E
:10183000135500003006002070B50C4605460D29F2
:1018400012D800F01FF8002801D0012070BD074811
:101850000078002808D100F097F9002804D021462C
:10186000284600F00FF870BD002070BD2E0000204B
:1018700010B5014605220248FEF76EFC10BD0000BF
:1018800029000020F0B50746081D89B00D46C6B2F4
:1018900006206946087404AC601CFFF785FB2A46E5
:1018A0003946201DFEF758FC194D2878002801D034
:1018B000002000E00220FFF78DFB701EC2B2611C09
:1018C000601CFFF76FFF01200090002301AA314642
:1018D00004A800F0AFFA002803D1684600790B286D
:1018E00002D0002009B0F0BD01ACA01D03220146CA
:1018F000FFF758FFA01D00F045FB0028F2D0287824
:10190000002802D1601CFFF7B3FF0120EAE70000C6
:101910002E00002010B5044601F066FC6043400034
:101920000FD00849084A096800BF00BF00BF00BFC8
:1019300000BF00BF00BF00BF914200D000BF401EEB
:10194000F2D110BD440000200024F400F7B5064693
:1019500082B0144611464E20FEF7E8FB00900220AC
:10196000307030194F212038C1770398002811D0EA
:101970000125671E0CE0A9070398890F405C0099B8
:10198000FEF7D4FB00986843081870556D1CEDB243
:10199000BD42F0DB012105230CE070182038725C99
:1019A000C07F101AC0B2052802D2181A101870543D
:1019B000491CC9B2A142F0D305B0F0BD10B5052253
:1019C0000149FEF7C9FB10BD3500002010B501200C
:1019D00088B0C043002102AAFF235354491C09B216
:1019E0000529FADB104983235B01CA18927FFF2A7D
:1019F00014D014090F2C00D11440214604A800F083
:101A0000FCF8052202A905A8FEF7D1FB002802D0A8
:101A1000204608B010BD0020C043FAE7491E09B2B5
:101A20000029E2DAF5E7000081030000F0B5324D4D
:101A300087B028780026012701AC002817D00320A2
:101A400069460871601CFFF7AFFA0020FFF7C2FA81
:101A50000322611C601CFFF7A5FE002303AA0421DA
:101A600001A8009700F0E6F9002815D018E0022040
:101A7000694608710521601C00F092F901220621D7
:101A800001A800F0BFF900280AD0601CFFF7F0FEA3
:101A90002F70002007B0F0BD6846007B092802D0F7
:101AA0002E700320F6E703AC601C09220146FFF705
:101AB00079FE601C00F066FA002819D06846007CA8
:101AC000002804D0012805D0022800D12E706846D5
:101AD000007CDFE7601D00F07FF90D21074800F072
:101AE0005FF90648FFF77CFA012000F091F8EDE776
:101AF0002E700220CEE700002E0000203D060020C0
:101B00009F204001C07FFF2801D0012070470020A6
:101B1000704700000848832252018118897FFF29FD
:101B200004D008090F2800D108407047401E00B2B9
:101B30000028F2DA0E207047810300000EB511492B
:101B400000200870FFF7DCFF002815D1832040013A
:101B5000807FFF2810D0FFF7DDFF01460E280BD253
:101B6000684600F04AF8074804226946C01CFEF7A0
:101B7000F3FA01A800F030F90248C01C00F0A8F9FF
:101B80000EBD00002E00002010B58AB0042069466A
:101B90000874012001460090002301AA04A800F067
:101BA00049F9002827D1684600790A2823D101A8DD
:101BB0000130FFF75DFE05206946087404AC601C27
:101BC000FFF7F2F90D21201D00F0EAF8201DFFF7C4
:101BD00007FA0120FFF7FEF91022611C601CFFF7D5
:101BE000E1FD0122112104A800F00CF9002802D027
:101BF00001200AB010BD0020FBE7CA0089180122AD
:101C0000120310B589180922FEF7A6FA10BD0000CC
:101C1000F0B5002785B03C460397002861D0002529
:101C20006E4629466846FFF7E8FF04225949684690
:101C3000FEF7BDFA002807D156490522091D301DBF
:101C4000FEF7B5FA002810D06D1CEDB20E2DE8D3CA
:101C5000002529466846FFF7D0FF04224D49684613
:101C6000FEF7A5FA002802D00FE02C4634E005214B
:101C7000301DFFF7A1F9002807D046490522091DAC
:101C8000301DFEF769FA2C464BE06D1CEDB20E2DAF
:101C9000DFD3002529466846FFF7AFFF09216846D4
:101CA000FFF78AF9002805D004223A496846FEF772
:101CB00053FAE2E76D1CEDB20E2DEBD3039800282A
:101CC00008D0E0000122201812038018694609227A
:101CD00002F09AFE002F5AD0FFF712FF002827D0FB
:101CE00055E0002421466846FFF787FF0422294972
:101CF0006846FEF75CFA0028EED0641CE4B20E2CB5
:101D0000F0D3002421466846FFF777FF0421684698
:101D1000FFF752F9002806D004221E496846FEF754
:101D20001BFA0127CDE7641CE4B20E2CEAD32EE0A7
:101D3000FFF7F0FEA0422AD00E2C28D083225201B9
:101D4000154B0020917F5D1C03E08118897F98422C
:101D50001AD0CE4336070DD00E090F2E0ED0401CE0
:101D600000B2A842F1DB0D4A801802F02FFE0120DC
:101D700005B0F0BD090909012143F4E70907090F7E
:101D800022011143C9B2EEE7E0212143EBE7002035
:101D9000EEE7000031000020810300007E1000000B
:101DA000F0B50A4B00271F60094D01242C603A460C
:101DB00008E01E68002EFCD0064EB66886541F60F0
:101DC000521CD2B28A42F4D36C60F0BD00D1004004
:101DD00000D0004000D5004010B501460522024861
:101DE000FEF7BAF910BD00003500002010B504461A
:101DF00001F02EF9640000E030BF01F0EFF9A042DD
:101E0000FAD310BD70B50546094C0020134660702A
:101E1000A0700A462946184601F0C0F8002801D1F2
:101E200070BD30BF60780028FBD0A07870BD000086
:101E30002E000020FFB583B00A200C9D00901646AE
:101E40000F46284601F098FB012401F025F901F026
:101E500087FA0028FBD101F0BDF902901E2001F0A5
:101E600031FB01F025F92A4639460398FFF7CAFFEE
:101E700000281FD00224284601F07EFB0720694677
:101E800008710A20FFF7B2FF2A46012101A8FFF7D7
:101E9000B9FF00280ED0284601F08EF9002809D09D
:101EA000202000906A463146284601F011F90028AA
:101EB00000D0002401F0F0F801F052FA0028FBD124
:101EC000029801F0FFFA01F0F3F8204607B0F0BDE8
:101ED000F0B585B0054601F043FA294C0646002DC1
:101EE0004BD06978287809024018A978EA78090463
:101EF00012068918471801F031FB204601F06EFAEE
:101F000000280CD00021084601F052FA002806D023
:101F1000384601F073FA002801D0012403E00124BF
:101F200009E0002F07D02146084601F041FA0028B9
:101F300001D0012700E00027641CE4B2082CF0D394
:101F400001F02AF90446C2B229466846FFF7FEFCB2
:101F5000002F0FD02146684601F060FA002809D012
:101F60000120002E04D001F0A3F8002805D00120A4
:101F700005B0F0BD0020002EFAD00020F8E70000E8
:101F80000405070B10B503220449FEF710F90028D9
:101F900001D0002010BD012010BD00001055000030
:101FA00070B5002408E00D781678641C7540057043
:101FB000401C491CE4B2521C9C42F4D370BD00008A
:101FC0001048018CC9B2012917D1818C090714D19D
:101FD000018D09060A0F03D1828D1206120F0ED051
:101FE000090F012903D1828D1206120F07D0032990
:101FF00003D1808D0006000F01D000207047012022
:1020000070470000C00F00F000220270022142540D
:10201000491CC9B20829FAD3704700220270042172
:10202000817003214254491CC9B20829FAD3704770
:10203000F8B5AA4D002068610326AE60A849C863C0
:102040000120C863A74C6069891588436061606995
:1020500000090001801D606160690F210904884347
:10206000310440186061A069012149068843A061DC
:10207000A06949100843A061A069000A000220304D
:10208000A061A069FF2109028843A061964902204E
:10209000086000F0E7FEE8619448A8616E6094482B
:1020A00002F002F9934948609348A269417F0723EF
:1020B0001B049A4309040A43A2610021036A0A46E9
:1020C0001827D6001846F040C0B28507C407ED0FA8
:1020D000240EAD0125434407E40F64012C4305079A
:1020E000ED0F2D012543C406E40FE4002C438506C3
:1020F000ED0FAD0025434406E40F64002C43C009F6
:102100002043BC1BA040521C0143D2B2042AD8D3A6
:102110007448C16178480021436A0A46D6001846CF
:10212000F040C0B2C407250E8407E40FA4012C437D
:102130004507ED0F6D0125430407E40F24012C43EF
:10214000C506ED0FED0025438406E40FA4002C43E3
:102150004506ED0F6D002543C0092843BC1BA04078
:10216000521C0143D2B2042AD8D35E4D2962624E7A
:10217000002430192030007A082C4ED2A107C90E55
:10218000FF228A40D243042C23D26B6A13406B6235
:10219000C207130E8207D20F92011A434307DB0FC7
:1021A0005B0113430207D20F12011A43C306DB0F70
:1021B000DB0013438206D20F92001A434306DB0F63
:1021C0005B001343C00918438840696A084368628A
:1021D00026E0AB6A1340AB628307C207DB0F120E27
:1021E0009F0117434207D20F53010207D20F3B430F
:1021F00012011A43C306DB0FDB0013438206D20F22
:1022000097004206D20F52001F433A43C0091043C1
:102210008840A96A0843A86202E03848FEF737F808
:10222000641C082CA5DB364C207CE860607C696B64
:10223000090A0902696300281CD001281DD0022860
:1022400025D003282BD02F48FEF721F8A07C2E4B59
:102250002E492F4C2F4A00282AD0012832D002289C
:1022600007D128618C622C484B62C8622B484A63B4
:102270000863F8BD686B6863E8E7686B0121084391
:102280006863FF20E863FF200830A863DEE7686B1F
:102290000221084368632248E863224806E0686B2D
:1022A0000321084368632048E8630020A863CDE762
:1022B000002028618C621D484B62C8621C484A633A
:1022C0000863F8BD012028618C621A484B62C8621D
:1022D0001948086319484863F8BD000000F501403B
:1022E000C01F00400015004080E200E004110040E3
:1022F000A8060020680000205806002039030900C5
:1023000078060020C2030900005000780017004042
:102310004E0000543E420F8208800C6088647200B8
:10232000FFFF000021100100FFFFFF0003800C6091
:102330002264720002800C6011646600DEC08F822D
:102340001CB5002211460220FEF7CEFD002002F04F
:10235000CDFA002801D0FEF787FC3CA1032002F053
:102360009BFA02F0E7F90028FBD1012000F08AF87F
:10237000002801D1FEF778FC00F07CF8002000F086
:102380005BFF83242402002804D100F00BFF001916
:10239000FEF76AFC962001F085F8002804D100F0D1
:1023A00001FF0019FEF760FC002001F05FF8002833
:1023B00004D100F0F7FE0019FEF756FCFF20F930BB
:1023C00001F090F8002804D100F0ECFE0019FEF7AF
:1023D0004BFC002001F076F8002804D100F0E2FE6A
:1023E0000019FEF741FCFFF7F1FA00222049801C9A
:1023F00004D00123012804D00B7003E00A704A7056
:1024000001E00A704B70FFF799FB00F051FE0028C5
:1024100004D100F0C7FE0019FEF726FC6946012032
:10242000FEF74CFD68460078002801D002F03AFE25
:1024300001A90020FEF742FD68460079002801D07E
:1024400002F0B6FDFFF77CF8E8E700004150503A93
:10245000494E464F3A4465736B746F7020656D75D5
:102460006C61746F72206578616D706C650D0A0027
:102470000000002002480121C16001607047000097
:1024800000900040124A0021116051605172117297
:10249000104A01215160D1600F4A8B1E93600B04DA
:1024A00053600E4A11600E4A042111610C494031FB
:1024B000002802D07D20800101E07D2040010860DD
:1024C0000120084940020860074908600120704760
:1024D000A0000020009000400093004000920040C7
:1024E0000095004080E200E000E100E0704700005D
:1024F00010B50C494A7A002A11D0022202708A884B
:1025000042700C8812052301120F134383702211AD
:10251000C2700020086048604872012010BD002091
:1025200010BD0000A0000020F8B503041B0E0E46ED
:102530000093C3B2010E000200160024170C4042A3
:1025400095B2062B5BD21A007A44127992189744FE
:10255000021427423F3C002900D001210C462904E7
:102560003D46000405430C43304601F097F82A46E7
:102570002146009800F082FDF8BD23488068407E27
:10258000002802D12148FDF782FE304601F086F88E
:102590002146280401433A46009800F05FFDF8BD4B
:1025A000002900D001210C4600040443002907D073
:1025B000002E02D11648FDF76AFE304601F06EF893
:1025C0002146009800F036FEF8BD00F070FDF8BD21
:1025D00000F0CCFEF8BD0F484168491C416001780D
:1025E0000029F7D08168002902D0491E8160F8BD1A
:1025F00001F048F90028E8D100F0D6FFF8BD064800
:10260000FDF745FEF8BD000048000020B5030500B9
:10261000C30305004C060020E303050002490F2216
:102620000A70C860704700004800002009480A4A44
:102630004168491C416012681368994208D300231D
:1026400043600168491C01605268914200D30360F5
:1026500070470000740000207000002070B5084D25
:10266000064C296820684968884202D30548FDF76E
:102670000EFE286821688068405C70BD74000020F0
:1026800070000020B200010001480068704700009F
:10269000740000200148406870470000740000206A
:1026A00010B5040002D10548FDF7F1FD04480021F2
:1026B000046004480160416010BD00002A00010070
:1026C000700000207400002010B504460548006822
:1026D0004068A04202D80448FDF7D9FD03480460D1
:1026E00010BD000070000020B9000100740000203F
:1026F00010B50446054800680068A04202D80448A6
:10270000FDF7C5FD0348446010BD000070000020C7
:10271000C5000100740000208207D30EFF229A40FA
:102720008907090E10B5994000280BDA03071B0F23
:10273000083B9C080C4BA400E318DC6994430C4351
:10274000DC6107E08408094BA400E4182368934384
:102750000B432360C106C90E01208840044908606C
:102760000449086010BD000000ED00E000E400E056
:1027700080E200E000E100E0F7B505460C46007994
:102780001C21484332494618F07E002801D0082019
:10279000FEBD20780127394681402E48816020689F
:1027A00000F0F2FB0021606800F0E5FB2A680520DC
:1027B00000021218A1695162617D227D2B681143CC
:1027C0001A18D1662A680ACC1018C1604361207BB0
:1027D000083C012813D10021A06800F0CCFB207B2D
:1027E000394681401B488160E06800F0CDFB2968D4
:1027F000052212028918E368A0688B6008610298BC
:10280000706021693160002814D0FF231D332A68CD
:10281000217F0020D050FF232A684533D050032366
:1028200028681B020C4AC01842602868000B40B29E
:10283000FFF772FF05212868042209024018026090
:102840000020F0753076B075F776B076FEBD0000EA
:10285000AC000020000500508000020070B5054665
:102860000C4600791C21484308494318284600F0CB
:1028700055F8002801D0112070BD9A7500209C6089
:102880009882284600F004F870BD0000AC000020DB
:10289000F8B5044600791C2148431F490026451815
:1028A000FF2720681D37C651206801218160294615
:1028B000206802F0BDFC6968002913D027E0FF27DB
:1028C0000137FF211D31206802F064FB002802D18E
:1028D000A88AB842F5D1A88AB84203D02946206810
:1028E00002F0A6FCA88AA97D8842E8D3A98AC81F5D
:1028F000F9380ED0FF271D373946206802F04AFB11
:102900000028F9D020680121C1600020A875304658
:10291000F8BD0F26F9E70000AC00002000791C216B
:10292000484303494018807D002800D001207047AB
:10293000AC000020F8B501791C2251431E4A002347
:102940008E1805220168120289180B60716800292F
:102950000CD0032401682402184B09198B6001680C
:10296000C903CB0E01219940154B1960052201685E
:1029700012028A18D3685769956814690021C943FF
:10298000D1605161006805221202801881600161E6
:10299000184600F0E7FA384600F0E4FA601C02D06E
:1029A000204600F0DFFA681C02D0284600F0DAFA70
:1029B0000020F0767060F8BDAC00002084020200B8
:1029C00080E100E070B5114D0646012468682406D8
:1029D000814202D01022FDF7BFFB0D4900200860A4
:1029E0000C4B01221A6001E0641E0CD00A68002A18
:1029F000FAD00860A9688E4203D010223046FDF755
:102A0000ABFB012070BD002070BD0000080000205D
:102A100000E1004000E00040054906480A46103247
:102A200006C0103202600448416001207047000077
:102A3000C80000200800002000E50040014610B555
:102A4000024810220068FDF787FB10BD0800002037
:102A5000F0B583B00546102802D33548FDF717FCC2
:102A600028460C21484333494018019068002E182D
:102A7000314830180090102D02D33048FDF707FC84
:102A80002D49885D002851D00098019A83789B00D9
:102A9000D4588278521C82708278801C032A01D319
:102AA00000220270885D401E8855002C3ED02448CC
:102AB000844202D12348FDF7EAFB234F38680628F9
:102AC00002D32248FDF7E3FB1F49002009680029D3
:102AD0000CD91F4A8300D358A34203D11D48FDF7E8
:102AE000D6FB0EE0401CC0B28842F3D31A48002146
:102AF00022224A431318A34206D0491CC9B2062910
:102B0000F6D31648FDF7C3FB0F48114F006880004D
:102B100039580B48814202D01148FDF7B8FB0A48EA
:102B200001688A00BC50491C0160A4E703B0F0BDF5
:102B3000D70003003C0800200C080020A60003007A
:102B4000ADDEADDEDB0003009C000020850003004D
:102B5000FC080020F6000300140900208600030092
:102B60008800030070B51B4C05462068062802D378
:102B70001948FDF78CFB21680020184E00290BD95D
:102B80008200B258AA4203D11548FDF780FB0EE03F
:102B9000401CC0B28842F3D31248002122224A438B
:102BA0001318AB4206D0491CC9B20629F6D30E4809
:102BB000FDF76DFB20680D4980003058884202D037
:102BC0000B48FDF764FB206881007550401C2060B5
:102BD00070BD00009C00002085000300FC08002060
:102BE000F60003001409002086000300ADDEADDE10
:102BF0008800030001480068704700009C00002026
:102C000010B50446102802D30348FDF740FB6000CE
:102C100002492018085C10BDC80003000C08002001
:102C200070B400201F4A01464300C3189C1861700D
:102C3000A170D154401C1028F6D300211A4D1B4B13
:102C4000DE240A46222042438E0050199851AC548B
:102C500044708470C470047144718471C4710472CE
:102C600044728472C472047344738473C4730474AE
:102C700044748474C474047544758475C47504768E
:102C800044768476C476047744778477C47720309A
:102C90000470491C44700629D3D3054906200860F6
:102CA00070BC70470C08002014090020FC080020AC
:102CB0009C00002070B500250446102802D30F4860
:102CC000FDF7E5FA60000E492218885C002813D051
:102CD0000C2044430B48231850188478A4001D5935
:102CE0008478641C84708478801C032C01D30023B6
:102CF0000370885C401E8854284670BDA6000300FF
:102D00000C0800203C080020F8B50D4604461029A8
:102D100002D32048FDF7BBFA1F4900200968064688
:102D200000290CD91D4A8300D358A34203D11C4863
:102D3000FDF7ADFA0EE0401CC0B28842F3D319484B
:102D40000022222151430B18A34206D0521CD2B2BA
:102D5000062AF6D31448FDF79AFA6800134A291890
:102D6000505C032814D20C20454311482B188818B6
:102D70004578AD005C514478641C44704478401C34
:102D8000032C00D30670505C401C50540120F8BD49
:102D90000020F8BD8F0003009C000020FC080020EC
:102DA000F600030014090020900003000C08002026
:102DB0003C08002010B50446102802D30948FDF74E
:102DC00066FA600021180848425C002A08D00C22EC
:102DD0005443064AA218081880788000105810BD85
:102DE000002010BDB70003000C0800203C080020A4
:102DF00070B5164900240A68002A25D09000144BAB
:102E0000144DC0188038C46F521EC5670A60002177
:102E1000002A0BD988001D58A54203D10E48FDF7A2
:102E200036FA0EE0491CC9B29142F3D30B48002197
:102E300022224A431318A34206D0491CC9B20629CC
:102E4000F6D30748FDF723FA204670BD9C0000200A
:102E5000FC080020ADDEADDEF60003001409002002
:102E60007D0003000048704748A0004000487047BC
:102E700040A1004001480078704700007C0000201D
:102E800070B5114801254560C560104E0024B4603E
:102E90000F4845600F484068002802D00E48FDF7F3
:102EA000F6F900200D49C04388600D4804600420F5
:102EB00030610C48446005704470847008150A49FC
:102EC00008600A49086070BD00A0004000A50040ED
:102ED00040A0004040A500403500040000A3004091
:102EE00040A100407C00002080E200E000E100E022
:102EF0000349012008600349002008707047000062
:102F000000A000407C00002010B40748012141606F
:102F1000C16000220548064C426042708B0223606B
:102F20008270017010BC704700A000407C0000203F
:102F300080E200E001484078704700007C000020FB
:102F400030B552000A439900039C0A432102049DB4
:102F50000A4329040A43024980004018026030BD38
:102F6000000700501CB5002100910B460122019181
:102F7000FFF7E6FF1CBD1CB500220B460092114670
:102F80000192FFF7DDFF1CBD1CB5002100910B462F
:102F9000012201911146FFF7D3FF1CBDF7B52A4D61
:102FA00016460746082804D304202870002003B0E2
:102FB000F0BD0198002806D0202E09D906202870DF
:102FC000002003B0F0BD03202870002003B0F0BD46
:102FD000384600F087FB032804D30920287000201E
:102FE00003B0F0BD384600F06DFB032804D30A207F
:102FF0002870002003B0F0BD00F05AFB022804D274
:1030000008202870002003B0F0BD00F06FFC0446DB
:10301000067040780121084360703246A01C019977
:10302000FDF79AF8F8B2214600F040FC002802D0E3
:10303000012003B0F0BD0548FDF729F90F202870E5
:10304000002003B0F0BD000048000020DD000500B6
:1030500001490020486070474C06002007B508224F
:1030600001A90548FDF778F8034801210C384170A3
:10307000002181700EBD00003A00002007B5082233
:1030800001A90448FDF768F8024801210C38417095
:1030900081700EBD3A00002010B500F0F3FB00284F
:1030A00002D000F004F810BD00F07EFA10BD7047A9
:1030B00006488168002903D1022101700020704771
:1030C00010B500F087FA012010BD00004800002074
:1030D000F8B516460F46044600F0F4FA184D0028DD
:1030E0000CD0002F0ED0204600F0FCFB0078316899
:1030F00081420BD2062028700020F8BD0B202870DA
:103100000020F8BD032028700020F8BD204600F004
:10311000C3FB04000CD0A01C0AD02278A11C3846A6
:103120003260FDF719F8204600F0B8FA0120F8BD2A
:103130000448FDF7ACF80F2028700020F8BD00000F
:10314000480000200501050010B5082804D30549F2
:1031500004200870002010BDC0B200F07BFA0120EE
:1031600010BD00004800002010B50A498A68527E50
:10317000002A03D00C200870002010BD082803D3BB
:1031800004200870002010BDC0B200F06DFA0120CC
:1031900010BD000048000020014840687047000052
:1031A00048000020014800787047000048000020D7
:1031B00010B500F081FA10BD10B5082804D30449F9
:1031C00004200870401F10BD00F07CFA10BD000004
:1031D0004800002010B500F079FA10BD01484068A1
:1031E000704700004C06002010B500F075FA10BDC5
:1031F00010B5012400F07AFAF02816D006DC002879
:1032000016D0042809D0EC2812D110E0F4280AD0F6
:10321000F82806D0FC280BD101E0002408E00224A5
:1032200006E0032404E0042402E0052400E0062470
:10323000204610BD70470000F1B5454D82B0002416
:103240002C704448EC60046044608460424800F0A4
:1032500053FAA8600125002874D03D4F407E3F49B5
:1032600002267A68012817D0102A17D8100015D026
:103270000846FCF771FF3948796800F057FB0120D8
:103280000090029800280DD001280FD002280FD0FE
:103290000520387000200FE03E7001E007203870F4
:1032A0000020EDE7012000F0ABFB04E0022000E08D
:1032B000002000F0A5FB01200099084000900420A8
:1032C00000F01EFB224900208968497E002903D0B6
:1032D0001F482746067002E000F022FB2F461C49DB
:1032E000009889680740497E0020002903D01848CB
:1032F0000670204602E000F063FC284607401448B0
:103300008068407E002803D011480670204603E004
:10331000012000F025FB28460D4907408A6800205F
:10332000527E002A01D00E7002E000F053FC2C46C1
:103330003C40012000F07CF9002C03D0012003B0B8
:10334000F0BDFFE702480570002003B0F0BD0000AB
:10335000480000204C0600202925000058000020CD
:1033600001488068407E7047480000207047000098
:1033700010B50446082804D30C4904200870002026
:1033800010BD00F0AFF903280DDA204600F09AF9DD
:10339000032808DA00F08CF90621081A081A022816
:1033A00001D3012010BD002010BD00004800002006
:1033B00010B5094A93685B7E002B03D00220107081
:1033C000002010BD082803D304201070002010BD79
:1033D00000F09AFB012010BD4800002010B50649FE
:1033E0008A68527E002A03D002200870002010BD97
:1033F00000F01EFB012010BD4800002010B506495A
:103400008A68527E002A03D002200870002010BD76
:1034100000F044FB012010BD4800002010B5114C05
:10342000A268527E012A11D0102913D8002911D088
:10343000002813D00A46616001460B48FCF78CFE59
:103440000948616800F072FA012010BD0220207066
:10345000002010BD07202070002010BD0320207028
:10346000002010BD480000205800002010B50C4975
:1034700002468B6800205B7E002B03D00220087080
:10348000002010BD002A06D0012A03D00E200870AB
:10349000002010BD012000F043FA012010BD000003
:1034A0004800002010B506498A68527E002A03D0E1
:1034B00002200870002010BD00F09CFA012010BD11
:1034C0004800002010B506498A68527E002A03D0C1
:1034D00002200870002010BD00F066FB012010BD26
:1034E0004800002010B506498A68527E002A03D0A1
:1034F00002200870002010BD00F05CFB012010BD10
:103500004800002010B5144902468B6800205B7EFD
:10351000002B03D002200870002010BD072A17D20C
:1035200013007B441B79DB189F44030E0507090B2E
:103530000D00042008E0FC2006E0F82004E0F42060
:1035400002E0F02000E0EC2000F03AFB012010BD8A
:103550000E200870002010BD4800002010B5FFF7B5
:10356000FFFE002806D0FFF797FD30BFFFF7F8FEFB
:103570000028FBD110BD000038B50446012181F3BD
:103580001088202505E06A46064920460095FFF789
:103590009FFD2046FFF710FE0028F4DC002080F39A
:1035A000108838BD1006002010B5012080F3108867
:1035B0000748417E002906D08178002903D10121E6
:1035C000817001F0EBFD002080F3108810BD000039
:1035D0008C06002070B5114C607E00281CD1FEF7CF
:1035E00027FD0F4DA868002802D10E48FCF74FFEBA
:1035F0006868002802D10C48FCF749FE01F0A8FCDD
:10360000002802D00948FCF742FE002001F0B4FC7B
:103610000120607601F0C2FD70BD00008C06002024
:10362000C00600205E0209005F0209006602090070
:1036300010B5044604484068002802D10348FCF74E
:1036400026FE0348047510BD68000020F60309003B
:10365000A806002010B5012181F3108801F01AFBA3
:10366000002080F3108810BD10B50446012181F3BD
:10367000108808490878002805D0487E002802D024
:103680000548FCF704FE204601F00AFB002080F309
:10369000108810BD8C060020FA02090010B5012127
:1036A00081F3108801F018FB002080F3108810BD12
:1036B00010B501F015FB10BD0148408B70470000AC
:1036C0005806002010B501F021FB10BD01484069EB
:1036D000704700005806002001484068704700000D
:1036E0005806002010B501F01DFB10BD0148007CFC
:1036F0007047000078060020F8B50646012080F3E8
:103700001088544C0025607003202070A5706560FF
:10371000A560A581E5812561656125764E486576C0
:10372000056045608560C560056105754B4F1830C3
:10373000BD604560FFF7A4FB304601F02DF901F0B4
:10374000F5FA002001F010FC3846FEF7A9FF454AC3
:1037500043491068FF2633049843106008681A1222
:1037600090430860404801684022B1431143016022
:10377000012080F310882178012905D06070607ED7
:1037800000285ED001F00AFD002080F3108830464A
:10379000364E0422306172773548306235487062A7
:1037A0003548012101720221417203238372C272E2
:1037B0000522027306224273072282730822C27313
:1037C00005744174012282741E2070614B20C00078
:1037D000F16070602278022A02D06068002833D03D
:1037E00039600F20B060022A02D06268002A2ED011
:1037F00039600020708301203076707600203077A9
:1038000001F010FB692030606078012802D01B486D
:10381000FCF73DFD01202070A5706560A560A581C5
:10382000E5812561656125766576FEF701FC01215C
:103830001348890201608902016085F310880548F8
:10384000F8BD01F0ADFD9FE7B0683860C9E73860AA
:10385000CFE700008C060020A8060020C00600204C
:1038600000E400E008E400E014E400E05806002072
:1038700004070A0D05080B0E780600203C0209001B
:1038800080E200E00348407E002801D0002070471D
:10389000012070478C06002010B5012181F31088AB
:1038A00001F07AFA002181F3108810BD10B50122D1
:1038B00082F3108801F075FA00280DD0084881784D
:1038C000002904D1407E002801D001F067FC0020CF
:1038D00080F31088012010BD002080F3108810BDF7
:1038E0008C06002010B501F06FFA10BD10B5012054
:1038F00080F3108801F06DFA002181F3108810BD6B
:103900000549487705498A6907231B049A4300043F
:1039100002438A61704700005806002000150040ED
:1039200001490876704700005806002070B50C0069
:10393000054602D10748FCF7AAFC002D02D1064833
:10394000FCF7A5FC0548856044600020FEF7BCFE3E
:1039500070BD00004803090049030900C0060020AB
:1039600030B41749174C8874174B1849184A194D29
:1039700000280DD0012816D0022807D120614B6203
:1039800015488A62C86215484D63086330BC7047A9
:10399000002020614B6212488A62C86211484D6360
:1039A000086330BC7047012020614B620E488A6278
:1039B000C8620E4808630E48486330BC7047000078
:1039C00078060020001500400050007800170040E5
:1039D0004E0000543E420F8208800C6088647200E2
:1039E00003800C602264720002800C601164660027
:1039F000DEC08F82014948837047000058060020CE
:103A000010B5012181F3108808490A78824205D057
:103A10004870487E002805D001F0C0FB002080F3EC
:103A2000108810BD01F0BCFCF8E700008C060020F7
:103A3000F0B41849086200210B461826DD00024642
:103A4000EA40D2B2D407270E9407E40FA4013C4306
:103A50005707FF0F7F0127431407E40F24013C435E
:103A6000D706FF0FFF003C439706FF0FBF00274319
:103A70005406E40F64003C43D2092243741BA24065
:103A80005B1C1143DBB2042BD8D30348C161F0BCEB
:103A9000704700005806002000150040F0B4184997
:103AA000486200210B461826DD000246EA40D2B2E9
:103AB000D407270E9407E40FA4013C435707FF0FD8
:103AC0007F0127431407E40F24013C43D706FF0F6F
:103AD000FF003C439706FF0FBF0027435406E40F47
:103AE00064003C43D2092243741BA2405B1C114377
:103AF000DBB2042BD8D303480162F0BC704700004E
:103B00005806002000150040F8B5082841D2234A85
:103B10001218203211728207D60EFF22B240D7430C
:103B20008B07CA07DB0F120E9B0113434A07D20F04
:103B300052011A430B07DB0F1B019C46CB06DB0F20
:103B4000DD008B06DB0F9C004B06DB0F5B00C90919
:103B5000042813480ED2406A3840114F78626046FC
:103B6000104305432C4323431943786AB140014372
:103B70007962F8BD806A3840094FB86260461043E8
:103B800005432C4323431943B86AB1400143B9624A
:103B9000F8BD0448FCF77BFBF8BD00005806002088
:103BA00000150040390309000149486170470000D1
:103BB0005806002001494860704700005806002060
:103BC000024908740249C860704700007806002066
:103BD0000015004001490877704700005806002092
:103BE00070B51248124C4068407D002805D0012075
:103BF00000F0FEFBA089401CA08100260D49304644
:103C00004E610D494A680968551A01F0B5F96069B5
:103C1000A84202D30948FCF73AFB60690122291A3D
:103C20000748FCF739FB666170BD000068000020A2
:103C30008C06002000F50140580600204D060900C2
:103C4000354F0000F0B5FA48FA4C4069FA4EFB4F88
:103C500087B0002803D1FFF76DF9002816D0F44D86
:103C60006868002801D0401E68602878022802D0C9
:103C70006968002979D0F1682160A978002975D098
:103C8000FEF7D4FCFDF7C4FC07B0F0BDE848002502
:103C90000078012802D0022805D009E000F0A0FB3E
:103CA000002805D0B9E1387804287DD003287BD0DE
:103CB000FEF7BCFCDE484168002901D0491E416086
:103CC0000178022902D04168002919D0F1682160E9
:103CD00004468078002815D0FDF79AFC00F054FEC9
:103CE000022870D3032668460024067001940481DC
:103CF000448144708570C57000F00AFE07B0F0BDC5
:103D0000B168E4E701F04CFB002811D00020766890
:103D100001F032F96069B04202D3C948FCF7B7FA42
:103D200060690122311AC748FCF7B6FA6561D5E728
:103D3000207800287ED0012819D002287BD0C248E4
:103D4000FCF7A5FA707E0128C8D120780228C5D0DA
:103D500061680029C2D10127BF0700286CD0012863
:103D60006BD0BA48FCF793FAB8E77FE180E100F046
:103D7000C9F900F0D1FF002826D0708B00287CD034
:103D8000A189814279D30121002000F015FF01278C
:103D900000F0B0FF0590A2890492E289039200F03E
:103DA000AFFF69460F7000E037E105990191694660
:103DB000049A0A81039A4A8148708D70CD706846D2
:103DC00000F0A6FDA7E023E100F0DEFD02287DD390
:103DD0002078022802D06068002804D0FEF75AFC40
:103DE000002832D097E02069FEF76EFC0020FEF735
:103DF0007FFC01F041F8002868D0A581E58100F042
:103E00007FFF9349C86200F07BFF01218140904809
:103E1000016300F06FFF8F49086000F065FF8D4976
:103E200048608D48C860FEF719FC8949886000F039
:103E300073FF03E0BEE09FE0DCE0C6E0012872D043
:103E400000F06AFF02285CD058E0307E002828D0BD
:103E500001F012F800285ED0A581E58100F050FF46
:103E60007B49C86200F04CFF012181407848016322
:103E700000F040FF7749086000E055E000F034FFB3
:103E8000744948607448C860FEF7E8FB7049886070
:103E900000F042FF012865D000F03EFF02285FD00D
:103EA0002CE0FEF7F1FB2169884234D100F0E4FFF9
:103EB000002830D0A581E58100F022FF6449C86266
:103EC00000F01EFF01218140614800E023E0016312
:103ED00000F010FF5F49086000F006FF5D49486090
:103EE0005D48C860FEF7BAFB5949886000F014FFCE
:103EF000012837D000F010FF022831D05748FCF7D6
:103F0000C6F92DE000F0FAF9FEF7B0FF5449086158
:103F10007868406848610120376801F02DF86069D1
:103F2000B84221D34DE01DE0FFF704F8002802D08D
:103F30004C48FCF7ACF9FEF791FB4549896888428B
:103F400002D0E089401CE081FEF788FB4049886090
:103F500000F0E2FE012805D000F0DEFE0228CDD1FF
:103F60000020CFE70120CDE760690122391A3548EA
:103F7000FCF792F96561E5E600200090FEF76EFB24
:103F800033498968884201D1009805E0FEF766FB55
:103F90002F498860012000903978401E084201D1E5
:103FA000FCF734FF0020776800F0E6FF6069B84254
:103FB000DAD306E00020776800F0DEFF6069B842DF
:103FC000D2D31F48FCF763F9CEE700F0A5FE002826
:103FD00000D083E600F0A8FF0028FAD1FEF74AFFE0
:103FE0000128F6D0FEF790FF307F00280BD101208A
:103FF000786008E0FEF73EFF0128EAD0FEF784FF74
:10400000307F0028F3D0002000F0B6FF656065E641
:104010001548FCF73CF907B0F0BD70680122410873
:10402000034841610748FCF737F907B0F0BD0000CD
:104030008C060020C00600205806002068000020E2
:104040004D060900354F00005804090072040900AC
:1040500000150040A8060020011400001E060900FB
:1040600000F501400A0509008C040900B16803E667
:10407000022809D0FEF7DAFA0020746800F07CFF0D
:104080006869A04223D31FE03878042829D0032888
:1040900027D0FEF7CBFA0024FEF7E0FA154FB968F7
:1040A000884203D0FEF7DAFAB86001241248641E91
:1040B0000078044201D1FCF7A9FE0020746800F0EA
:1040C0005BFF6869A04202D30C48FCF7E0F868691E
:1040D0000122211A0A48FCF7DFF80020686107B0C6
:1040E000F0BD70680122410805486961FCF7D4F809
:1040F00007B0F0BD00150040680000204D06090023
:10410000354F0000F8B51C48022707601B494017CF
:1041100088601B4807601B48002404601A4E346105
:104120001A49012008618861194D287801281CD09E
:1041300002281ED003281CD00120FBF7CBFF3461DE
:1041400010482C70046000200C49C04388600C4863
:104150000760F460032068703460346174606C60E0
:104160002C750C486C750760F8BD0620FBF7B2FF94
:10417000E5E70220E1E7000080E100E000130040F5
:1041800080E200E0001200400011004000100040FA
:10419000CC06002000E100E0F8B53348354A066956
:1041A0000327324B0025324C1168012E05D0022E18
:1041B00048D03148FCF76BF8F8BD042606708669D4
:1041C000761C86611F602D4E02233360E5602560FA
:1041D000256165602A4B08265E60097D002910D0A4
:1041E000284EB168284F81753868400702D42748A7
:1041F000FCF74DF8E5612649012088610420B8608C
:10420000B5602068002802D02248FCF740F8E0683A
:10421000002802D02048FCF73AF8204800688007C0
:1042200002D51F48FCF733F8124C2068C0680028FC
:1042300000D080472068417D0029BDD01949006821
:104240004860F8BDE5602561256065601D6000235C
:104250000B4A0570DB43936047704560057508693C
:104260000028EED08047F8BDCC06002000120040A8
:104270000011004084000020E7020A0080E200E014
:10428000001300404015004000F50140AD020A0057
:1042900000100040B6020A00B7020A0000E200E087
:1042A000B8020A000015004010B50D49022408604C
:1042B0000C4804600D480C4941620D490162FFF74A
:1042C00021FF00210B48032201704270416001610F
:1042D00001754175817508480460064810BD0000ED
:1042E0008400002080E100E01410004000F501404F
:1042F00004110040CC06002000E100E0F8B50546BE
:104300002A4900012A4C4718207D002802D029485C
:10431000FBF7BDFF0026002D2AD0012D28D0022D4D
:1043200026D02548FBF7B3FF2448FBF7B0FF002158
:1043300023486675C94381602249022008602248EB
:1043400065700068032D0168A16040682661A66160
:10435000E0603A6862601BD21C4B3A7A1A60FB7AC2
:104360001B4A002B08D05060506800280DD109E08E
:1043700020780028DBD0D7E751605068002804D1AE
:10438000144800E01448FBF782FF0D48797A416039
:104390000D480068007D002805D0022D03D10F498B
:1043A000A6750420486001206075F8BD2455000002
:1043B000CC060020DB000A00F9020A00DD000A003A
:1043C0000013004080E200E0840000200012004062
:1043D0000015004000010A0005010A0000F5014037
:1043E00002484068012800D00020704700110040BA
:1043F000F8B51E4C074665781D4928014618607DB2
:10440000012802D01B48FBF742FF207D002802D084
:104410001948FBF73CFF0120002120756175032D31
:104420000AD2002F01D131680860022D01D0012D80
:1044300005D1B07A207002E01048FBF728FF104841
:104440000068007D00280FD0022D0DD10D48406876
:10445000400702D40C48FBF71AFF0C4840680028BC
:1044600002D10B48FBF713FFF8BD0000CC0600207B
:104470002455000021010A0022010A003A010A0025
:104480008400002000F5014040010A0000150040B2
:1044900041010A00004870471545000030B5194C2D
:1044A0000546207889B0002805D06078854202D181
:1044B000002009B030BD202213496846FBF74CFEAE
:1044C000002069460875092000900B200190082003
:1044D00003900A2002900D4806900A48001DFEF73E
:1044E00029FA002D01D0002200E0094A054869465A
:1044F000001DFEF741F90028DBD101202070657016
:10450000D6E7000018000020CC54000000E0D701DE
:1045100069520000F0B5C3B00D4600214B980091E0
:1045200049991C46081817460290002D01D00A2010
:1045300000E00020019000F013FE002878D103AEC7
:10454000002C17D100986A463118284600F058FE12
:1045500000286DD03846FBF723FEC22800D9C220C0
:10456000054600982A4630183946FBF7F5FD0098B5
:104570004019009001990098421803A90818313297
:104580008918002203E020230370401C521C019B69
:104590009A42F8D30026029A944207D3202202704E
:1045A000427082700A70C01C491C26E0499A9442ED
:1045B00002D2489A125D02E0A31A4A9AD25C0125FF
:1045C0009446AB006246DA4013071B0F092B01D952
:1045D000373300E0303301277F1B6D1EC3556A1C43
:1045E000EFD12022827062461346203BC01C5E2B16
:1045F00000D92E220A70491C641C761C102ECAD3C6
:104600000D220A700A224A70202101700099019837
:104610000918433103A8009100F0AAFD002807D033
:1046200000F09EFD002803D1009002988442A1D39F
:10463000204643B0F0BDFFB5C5B000251C464E9FD7
:10464000049500F08DFD002837D1049805AE31188F
:1046500004AA469800F0D4FD00282FD03B00FCF7B8
:1046600083F80705131A2F38434F21004798FBF7AB
:1046700097FD049905464018FF2813D870182A465C
:104680004799FBF769FD0DE00498226830184799B7
:10469000FCF756F805E004980CCC30184799FCF765
:1046A0004FF80546294604A8FCF73AFC002804D038
:1046B000FF200499013081422ED9002049B0F0BD7D
:1046C000A068009004980CCC30184799FCF738F893
:1046D000E7E7E168A0680090019104980CCC3018DD
:1046E0004799FCF72DF8DCE72046083007C86B46F1
:1046F00007C304980CCC30184799FCF721F8D0E791
:10470000204608300FC86D460FC504980CCC3018F1
:104710004799FCF715F8C4E705A800F029FDCDE797
:10472000004870473746000010B50120FFF7B6FE7D
:1047300010BD0000F0B595B0FCF72CFC002802D0AD
:10474000002015B0F0BD4B484468866821463140D2
:10475000890009180C94CD680BE02904A80D890D77
:104760004018041920463040810042480C94081833
:10477000C568641CA807F0D000200890A807800F27
:104780003D4B022807D0AA0AA805000F84460EA9AF
:104790009646002059E02046304081003548641C90
:1047A0000818C068049486462804800D8446344066
:1047B000301B8000AF0D001D874222D92D490C31DE
:1047C000002807D02B4AA400A21814460C34C2B209
:1047D000381A03E00C460021FAB20846C0B2039032
:1047E000019202910094A8065C69400F63467246EC
:1047F0000899A047B84213D1FF1C0498B9080C18B7
:1048000030E01C48A200101800210C3000900291EA
:1048100001970391A8065C69400F63467246E8E77A
:10482000164980050D40000C05430C98304081006E
:1048300010480818C56017E027463740BA000D4FEA
:10484000401CD719FF68641C80C167466045F3D3DC
:10485000A80600971D69400F0EAB72460899A8473D
:10486000002801D003484460FCF794FB0121484034
:1048700067E70000F8010020F80500203F00FFFF77
:1048800000B5044AFF23936000231360536000F0D7
:1048900027F800BDF8010020F3B50F4C074681B0A2
:1048A0000020A6682568FCF745FB002812D00B48BD
:1048B0003C218088354088437907890E08430F21C1
:1048C0008901884302998005800D89020843A90067
:1048D0000919C860FEBD0000F8010020EC5400007A
:1048E000014A516110617047F805002070B5064615
:1048F0000020FFF7D3FD040008D1FFF7CBFD0546EC
:10490000FFF70EFF32462946FFF7BAFF204670BD7B
:1049100070B5184D04462868002802D11648FBF7E8
:10492000B6FC164E70680A2802D31548FBF7AFFC98
:10493000E86F0C214843411920780871607848716C
:10494000A0788871E078C871606888602089888163
:104950006089C8817068401C7060E86F401CE8671F
:10496000E86F0A2801D30020E86701200549000507
:10497000086070BDF006002034000B0070070020B6
:1049800035000B0000E200E0024840680A21081AE6
:10499000C0B270477007002010B5040002D107486C
:1049A000FBF775FC06490C600020C86705490860E4
:1049B0004860012004490005086010BD29000B0073
:1049C000F00600207007002000E100E0820710B52B
:1049D000920F9043D200FF24944003689140A34378
:1049E000CA18074B0121596006490C68002CFCD0FD
:1049F000026008680028FCD00020586010BD00004C
:104A000000E5014000E40140F0B515460E460746BA
:104A1000002404E0315D3819FFF7D8FF641CAC4274
:104A2000F8D3F0BDFFB55A4885B0C06F0325002705
:104A30000F9E0C46002802D15648FBF728FC54482C
:104A40000078032802D05448FBF721FC5048C06F7F
:104A500041785248CA070190002A1ED1807C002864
:104A60001BD000200090059800286ED007984907B9
:104A70000002890F000A464B09060843A200D1181C
:104A8000896B00220E9B88421A60326003905ED0D0
:104A90003F4FF86F002805D101E00120E2E74048D0
:104AA000FBF7F5FB3A482146C06F08310291FEF74B
:104AB0002BF9002804D0002035490127C86700E001
:104AC0000027009838400090002F40D002988100C5
:104AD0002F4809180398886108990F4236D0314849
:104AE000005D002832D02046FEF78AF8002802D167
:104AF0002D48FBF7CCFB2046FEF7DCF8029000289F
:104B000011D001982546007C002805D02048006976
:104B1000A84201D100F062F91D49002049198031F5
:104B20000870204948550E99029808600E9900298E
:104B300009D0002802D11D48FBF7A9FB0021194824
:104B40000225015503E01A48F6E712E00125009816
:104B500000280AD02046FEF72DF93060002803D047
:104B600010480121015501E012483060002F01D0AA
:104B700006E00425064CE06FFDF7F4FF0020E06737
:104B800003490020087000F029F9284609B0F0BD5B
:104B9000780700205B010C005C010C00F807002086
:104BA0006F020C008800002091010C0096010C009F
:104BB0009A010C00D0070020F8B52D4C064620784D
:104BC0000D46012804D0022802D02A48FBF75FFBDB
:104BD000002E28D02078012802D02748FBF757FB69
:104BE000E068002802D12548FBF751FBE068007817
:104BF000002804D0E06F6668002805D101E0002796
:104C000012E01F48FBF743FB31460831E06FFEF727
:104C10007BF8002802D00020E06702E01948FBF78B
:104C200036FB022700E00427002D1AD065682846CD
:104C3000FEF740F806000ED01348007C002804D090
:104C40002069A84201D100F0C9F800206119803123
:104C500008700E494855A068B04202D00C48FBF7D6
:104C600016FB0020207000F0B9F83846F8BD0000AF
:104C700078070020FC000C0002010C0003010C006E
:104C80006F020C000E010C00F807002088000020C5
:104C90001E010C0010B50830FDF7DAFE10BD000053
:104CA00070B5044609480A4D007C002804D02969E3
:104CB000A14201D100F092F8291900208031054A63
:104CC000087010552046FDF7C3FE70BDF8070020A0
:104CD000780700208800002010B5FDF743FF10BDC5
:104CE00010B5FDF787FF10BD0148C0687047000090
:104CF000780700200148806870470000780700208E
:104D000001484068704700007807002010B508305F
:104D1000FDF776FF10BD00000148007870470000E5
:104D20007807002010B5FDF76BFF10BD70B5FDF7DB
:104D300077FF0022144C154E1046010693000143E4
:104D40001B199961134605060146083329439D0046
:104D50002D19A961A11880310870E11880310870FF
:104D6000B054521C082AE8D320706060A060E06054
:104D70002061074960610874064A48741076E0674C
:104D80000120887470BD0000780700208800002092
:104D9000F8070020B807002010B50830FDF78AFF9B
:104DA00010BD70B50E4604460025FDF723FF002810
:104DB00008D021463046FDF7A7FF002802D000F0BA
:104DC0000DF80125284670BD10B50830FDF7F2FF3B
:104DD00010BD10B5FEF70CF810BD0000F8B50F4C73
:104DE0002078002819D10E4E307C002815D10825D6
:104DF00001276069FDF704FF002802D0377460695D
:104E000020616069401C6061082801D10020606158
:104E1000307C002801D16D1EEBD1F8BD7807002051
:104E2000F80700200149887470470000F807002047
:104E300070B50F4D2878002802D00E48FBF727FAEE
:104E4000E86F002802D1FDF7D3FFE86704000CD01B
:104E5000FF2020706078062108436070FF22202127
:104E6000A01CFBF78BF903202870204670BD0000C2
:104E7000780700203B010C0070B5264C20780028F4
:104E800002D02548FBF703FA244D0026287C002891
:104E900025D020696060FDF78DFFA060002802D159
:104EA0001F48FBF7F4F9A0684078C00705D1A87C3B
:104EB000002802D00220E6600FE060680830FDF7AD
:104EC0009FFE03280BD2E06F002802D1FDF790FF70
:104ED000E067E060002802D00120207002E0207826
:104EE000002816D0A068002802D10E48FBF7CFF9A1
:104EF0002069606080000119C87EF923401CC876D3
:104F0000A26880075178400F1940014351702E74F8
:104F1000012070BD78070020C3000C00F8070020B6
:104F2000C9000C00E7000C000148007C704700003D
:104F3000F8070020044801788170417801708800EA
:104F4000024908580047000090000020940000200B
:104F50000148007870470000900000200148407828
:104F60007047000090000020024988704870087067
:104F7000704700009000002010B50446022802D3BC
:104F80000248FBF784F90248447010BD2A000D0066
:104F9000900000204058002800D0012070470322D4
:104FA000120280184068084000D0012070470000BD
:104FB000FEB56846FDF731F82A4C20786178084341
:104FC00002D1FCF777FB6070607821780126884376
:104FD000002500280BD0FCF729FD012832D002283B
:104FE00001D0032801D1257065700028F3D0207806
:104FF000A178884306D008216846FCF71DFC0028EC
:1050000023D0A6702078A178084229D008216846CC
:10501000FCF712FC00281AD013A10320FFF73CFC78
:1050200002A90020FBF74AFF6846007A0028F7D162
:105030006846FCF7E9FF08216846FCF7FDFB0028FD
:1050400009D009E026706670D1E72570DAE70DA176
:105050000320FFF721FCA570FFF76CFB0028FBD1B4
:10506000FEBD0000000000204150503A494E464F1E
:105070003A4B6579626F6172642073656E74204F7C
:105080004B0D0A004150503A494E464F3A4B657914
:10509000626F6172642073656E74204641494C45AD
:1050A000440D0A0008B5FBF7A5FF00281AD0684692
:1050B000FDF71EFA002815D00220FEF759F9002846
:1050C000FAD0042269460220FDF768FF002801D0CB
:1050D00005A100E00BA10320FFF7DEFBFFF72AFB91
:1050E0000028FBD108BD00004150503A494E464FC0
:1050F0003A4D6F7573652073656E74204F4B0D0AC2
:10510000000000004150503A494E464F3A4D6F75ED
:1051100073652073656E74204641494C45440D0A01
:105120000000000030B5FF220523CD7D00240932A8
:105130001B02C318002D8450986905D04B7ECA68A5
:10514000D054487E401C487630BD1FB501246B46C4
:105150001C701972019206C8684690471FBD000076
:1051600010B50248FDF7DAFB10BD00001C0000205E
:1051700070B50D460A46014601240648FAF7ECFFD1
:10518000EAB204490448FDF769FB002800D0002476
:10519000204670BDF80000201C00002010B5FDF76F
:1051A00069FE012820D1FFF7D9FE002802D00F4860
:1051B000FBF76DF800221E210D48FBF76DF80D4836
:1051C000007F00280ED10C48012141610B480022CC
:1051D00002608205116000BF00BF00BF00BF016810
:1051E0000029FCD0FDF784FE10BD00002C0609004C
:1051F000354F000058060020000500400001004027
:1052000010B5144602460120002A09D0084612684B
:1052100005A1FBF795FA01462046FBF781FE10BD7C
:105220000021216010BD00005B253038645D000066
:10523000FF221D32002383508B8A8A68D25C8B8ABE
:105240005B1C8B82052109024018C26170471FB5A3
:1052500000226B461A70197281680191827506C826
:10526000684690471FBD00000078012801D1014920
:105270008870704718000020F0B50C46012185B0F9
:1052800005464902FFF78BFE032109026F1800262D
:10529000002826D0FF2125312846FFF77BFE002875
:1052A0001FD0FF2025302E5081208000B860A07EC6
:1052B000002801D1012068600221684601700920A0
:1052C000C0012918086808600390E17D68460172F2
:1052D000E0680190E675267606CC6846083C904763
:1052E0002DE004212846FFF75AFE002827D0FF2191
:1052F00009312846FFF74EFE002820D021462846D7
:10530000FFF710FFE07D617E884218D1207E0028E3
:1053100007D0617EE268E0752069E06026766676F7
:105320000AE0A07E002801D1012068608120800071
:10533000B860E675617EE2682046FFF706FFFF274A
:105340001D3739462846FFF725FE00280FD0A08AD2
:10535000A17D884204D221462846FFF769FF06E076
:10536000EE51A17D002902D02046FFF770FFFF27F4
:10537000453739462846FFF70DFE00280ED0EE517E
:10538000A07E002801D001202860E07D002805D003
:10539000E675617EE2682046FFF7D7FE05B0F0BDF6
:1053A000F0B53B4E83B03078717888426DD00028DC
:1053B00001D1FCF73DFE7078364D002400281CD149
:1053C0000320A860FFF7A8FC012804D0022802D01F
:1053D000032812D104E000210846FFF7EDFB07E0A7
:1053E000002300941A46194618460194FFF71AFB49
:1053F000042802D02848FAF74AFF6C61FEF782FEC3
:10540000264D274F2C606C602C61AC60EC603078CE
:10541000012802D0022809D01CE0FFF77DFC0028FB
:1054200015D000210846FFF7C7FB10E0FEF76AFE23
:105430001C482C610470FFF76FFC032807D1002380
:1054400000941A46194618460194FFF7EBFA307893
:10545000022802D07068002813D01348F968016050
:10546000707830700425684600230570019303812D
:10547000438143708470C470FFF74AFA012003B07F
:10548000F0BD0948B9680160EAE7002003B0F0BD4B
:105490008C06002000F50140E8010900A806002064
:1054A0005806002068000020C006002011000000FF
:1054B00012000000130000001400000011000000A2
:1054C000120000001300000014000000FFFFFFFFA7
:1054D000FFFFFFFFFFFFFFFFFFFFFFFF00000000D8
:1054E0000000000000E0D7010300000029000000D8
:1054F00001000000010000000100000001000000A8
:105500000100000001000000010000000200000096
:1055100032536601172D2D1A440C4023490D171ADA
:105520002D0B4D0000100040101100400310000032
:105530000100000000100040000000000B02040009
:1055400000000000041000400000000007080301F4
:10555000000000004F766572666C6F770D0A0000E0
:105560008055000000000020A0000000820700001D
:1055700020560000A000002040110000920700000B
:105580000000000101010000000000000000000018
:1055900000000000000000000000000000200040AB
:1055A0000000000054550000000000000000000052
:1055B00000000000000000000000000000000000EB
:1055C000000000000024F4000000000005000000BE
:1055D000000000000000000004192A3F4D000000F8
:1055E00000000000000000000000000000000000BB
:1055F00000000000000000000000000000000000AB
:10560000000000000000000000000000000000009A
:1056100000000000453C0000E13B000000000000ED
:04000005000000C136
:00000001FF
