:020000040000FA
:10000000B80E0020D5000000EF000000F100000055
:1000100000000000000000000000000000000000E0
:10002000000000000000000000000000F3000000DD
:100030000000000000000000F5000000F7000000D4
:10004000F9000000F900000091040000F900000030
:10005000F90000000000000035020000F900000077
:10006000F9000000F9000000F9000000F9000000AC
:10007000F9000000F9000000F9000000F90000009C
:10008000F9000000C9030000F9000000F9000000B9
:10009000E9030000F9000000F9000000F900000089
:1000A000F9000000F900000000000000000000005E
:1000B0000000000000000000000000000000000040
:1000C0000348854600F082F800480047911400007C
:1000D000B80E00200321094802680A43026008485C
:1000E00002680A4302600748804707480047FEE766
:1000F000FEE7FEE7FEE7FEE7FEE70000240500401E
:1001000054050040F1030000C100000030B50B466B
:10011000014600202022012409E00D46D5409D42E1
:1001200005D31D469540491B254695404019154667
:10013000521E002DF1DC30BD03460B439B0703D05C
:1001400009E008C9121F08C0042AFAD203E00B789C
:100150000370401C491C521EF9D27047421C0178A2
:10016000401C0029FBD1801A7047F0B51FB4064629
:10017000002082B005464024019100901BE00199C7
:1001800022460F46304600F043F8049A059B801A39
:10019000994110D310461946224600F029F8361A24
:1001A0008F410197224601200021009F00F020F896
:1001B00038184D4100902046641E0028DFDC019B6A
:1001C00000982946324607B0F0BD0000064C0125D4
:1001D000064E05E0E36807CC2B430C3C98471034EF
:1001E000B442F7D3FFF770FFCC250000EC250000E8
:1001F00010B5202A04DB0146203A9140002010BDB2
:10020000914020239C1A0346E3401943904010BDBF
:1002100010B5202A04DB0846203AD040002110BD4A
:100220000B46D340D0402024A21A914008431946DF
:1002300010BD0000F0B50025FF268BB0013601246B
:100240002F460195304601F041FC002807D0484870
:100250004068204203D0304601F030FC2543361D73
:1002600064007F1CB6B2042FECD3FF247D342046FB
:1002700001F02CFC002807D0204601F01FFC60078D
:1002800005433C48006901903B4C280714D00127E6
:1002900000262F420CD03948B200111808690969AC
:1002A000C004C00E8903A258890F002A00D09047CD
:1002B0007F00761C042EECD3002D57DA0020059029
:1002C000401E4DE0A119403108788506AD0E42B2BE
:1002D000521C39D00121A940089A0091114233D013
:1002E00080090390284600F005FF80002058049004
:1002F000002802D10398032826D1039800990328E7
:1003000002D10598084305901D4AA800801800688E
:10031000019A8003800F114202D0022802D013E01C
:10032000032811D10399032907D102281CD00221E7
:10033000284601F0B3FB7F1CFFB20498002803D0CD
:10034000049A284603999047761C042EBAD3002FAE
:100350000CD0084800690199884207D0019005989F
:1003600000273E460890ADE70321E1E70BB0F0BD62
:1003700000630040000500501C01002000650040A3
:10038000000700508307FF22DB0E9A408907090E01
:10039000994000280BDA0007000F08388308084846
:1003A0009B001818C36993430B43C36170478308CC
:1003B00004489B001B181868904308431860704756
:1003C00000ED00E000E400E010B506490020086000
:1003D00048608860C860034940390860486001F09F
:1003E00085FF10BD4011014010B501F0F5FE10BDB4
:1003F00010B500F069FF002805D01F491D4848606E
:10040000C8131E4988611E48018CC9B201290BD14D
:10041000828C120708D1028D1206120F042A03D112
:10042000828D1206120F0AD0012921D1818C090771
:100430001ED1018D0906090F0A2904D007E0114ACF
:1004400001219160F5E7828D1206120F05D00D296A
:100450000ED1808D0006000F0AD10B4801680129DA
:1004600004D00A49016001680129FCD1C021416121
:1004700010BD0000DFFF07C000050040006C004019
:10048000C00F00F00006004000EC0640759300002D
:1004900010B50249024801F0A5FF10BD640100201B
:1004A000002000400FB410B504A9074B02AA03981E
:1004B00000F028F8044602A9002000F05DFA20466A
:1004C00010BC08BC04B018477909000030B4744669
:1004D000641E2578641CAB4200D21D46635D5B0040
:1004E000E31830BC184702E008C8121F08C1002AF0
:1004F000FAD170477047002001E001C1121F002AA5
:10050000FBD17047FFB591B00F460546002606E0C7
:1005100025280AD0149A139990476D1C761C2878C8
:100520000028F5D1304615B0F0BD0024009401211B
:10053000F34A029400E004436D1C2B780846203BEC
:1005400098401042F7D128782A280ED00221287826
:100550000246303A092A15D8009A0A235A43303AFB
:1005600080180C436D1C0090F1E701CF009000282B
:1005700005DA012040030443009840420090022025
:1005800004436D1C28782E2815D104200443687874
:100590006D1C2A280AD101CF6D1C02900BE0029934
:1005A0000A225143303940186D1C029028780146C8
:1005B00030390929F3D928786C2810D006DC4C286A
:1005C0001AD068280ED06A2817D104E0742813D0F6
:1005D0007A2812D110E00120400504430CE00121EB
:1005E000090501E0032109050C436978814203D123
:1005F0000120000524186D1C6D1C287803906E28BE
:100600001ED00CDC632831D004DC00288AD05828A6
:1006100011D1B2E064287BD069280CD178E073282E
:100620002DD004DC6F2870D0702804D1A7E0752885
:100630006CD078286BD0149A13999047761C62E09E
:100640006002400F022807D003280AD00428386827
:100650000AD006603F1D56E03868F1170660416019
:10066000F8E738680680F5E70670F3E738786946FA
:1006700008740020487404A80390012003E038683F
:1006800003900020C0433F1D61070FD5002101E00A
:100690000199491C029A0191914213DA8142F7DBD8
:1006A000019A0399895C0029F2D10BE0002101E055
:1006B0000199491C01918142FADB019A0399895CF5
:1006C0000029F5D101990098139A401A009021460B
:1006D000149B00F03BF901998019461807E0039834
:1006E00003990078491C0391149A13999047019833
:1006F000401E0190401CF2D12146149B139A009891
:1007000000F014F986196D1C09E741E033E034E08C
:100710000A200021049005916002410F022905D0B2
:1007200001CFC2179446032905D007E0FF1DFF083B
:10073000FF0003CF06E000B2C2179446042902D19D
:1007400040B2C1178C4600226146944506DA0A463B
:100750000021404291418C462D2102E0210504D523
:100760002B216A461176012103E0E10701D0202107
:10077000F7E7019154E00A200BE0102009E0102077
:10078000049000210420044308200591029003E016
:1007900008200021059104906002410F022905D034
:1007A00001CF00229446032906D006E0FF1DFF0872
:1007B000FF0003CF8C4603E080B2042900D1C0B211
:1007C0000021019121072BD50399702906D0049AA5
:1007D0001021059B4A401A4305D00EE040216A468D
:1007E0001176012108E06146014306D030216A46B6
:1007F00011760399517602210191049A0821059BF3
:100800004A401A430CD16146014301D1610707D523
:1008100030216A461176012101910299491E029107
:100820000399582904D037A103910FA90F910DE026
:1008300039A1F9E76146059B049AFFF796FC039BF3
:100840008C469B5C0F9A521E0F92137061460143B7
:10085000F0D10F9807A9081A20300390600704D53B
:10086000012000048443029801E0012002900399D2
:10087000884201DD401A00E00020411802900198F2
:1008800009180098401A0090E00306D42146149BF2
:10089000139A009800F05AF886190020049008E096
:1008A00006A9085C149A139990470498401C761C7A
:1008B000049001998842F3DBE0030CD52146149B98
:1008C000139A009800F042F8861904E0149A302038
:1008D00013999047761C0299481E02900029F5DC76
:1008E00008E00F980F990078491C0F91149A1399FA
:1008F0009047761C0399481E03900029F1DCFBE623
:1009000009280100303132333435363738396162E5
:1009100063646566000000003031323334353637A9
:10092000383941424344454600000000F8B50446CA
:1009300000251E461746880404D405E039462020C9
:10094000B0476D1C641EF9D52846F8BDFFB50446B6
:10095000002581B01E46C80301D5302700E02027BE
:10096000880404D505E038460399B0476D1C641E21
:10097000F9D5284605B0F0BD0A68531C0B6010700D
:1009800070470000044842680121C9050B469343A3
:1009900083600A40C26070470005005070B50024B3
:1009A000064D06E06968E000085C012100F032FEB7
:1009B000641C28788442F5D3002070BD1C00002000
:1009C000F8B515460C460646052A01D20720F8BDA3
:1009D00000F0F6FE002803D100F0C4FE0028F6D196
:1009E000104900204E600C70C8608D6008610E4D8B
:1009F0000DE0E00069688019009181786A465170C5
:100A000000780A4A694600F051FE0028DFD12046EE
:100A1000641EE4B20028ECD1054A0021024800F02F
:100A200039F8F8BD1C000020742500007912000080
:100A3000D911000009A1012001F054FA01F09AF93E
:100A400001F09EF90028FBD1BFF34F8F0A490948F6
:100A5000C860BFF34F8F00BFFDE700004150505FFB
:100A60004552524F523A4552524F523A4661746182
:100A70006C0D0A000400FA0500ED00E00EB500213F
:100A8000029000916A4601910148FFF7D3FF0EBD25
:100A900001400000094B5B68002B07D0002A07D0FB
:100AA000002805D00068037C002B03D00820704785
:100AB00007207047417442610020704740000020C9
:100AC000FFB507469007002581B01E461446002852
:100AD00025D1002C23D001F00FFB3046114EF060E1
:100AE0003046103005704570029981704460756021
:100AF000357001240C48757024050460032114200E
:100B0000FFF740FC09480460094CA760032111204D
:100B1000FFF738FC6068B060002005B0F0BD07202A
:100B2000FBE700003000002080E200E000E100E090
:100B300000150140FEB51D4B5B68002B2DD0002831
:100B40002BD0052901D20720FEBD4369002B24D0FC
:100B5000437C012B23D00027044600251646284657
:100B6000019100F03BF8684601F0D0FC002818D055
:100B7000012101700E494460496881600199076153
:100B80004661C1606846094900784870002000F05D
:100B900029F801F063FB2846FEBD0820FEBD0F4684
:100BA000DAE70425002000F01DF8F4E740000020FB
:100BB0000015014010B50849496800290AD00028ED
:100BC00008D04169002905D000210174022101F0FB
:100BD0006DFB10BD082010BD4000002000B500F0E6
:100BE00005F800BD00B500F009F800BD72B6024876
:100BF0000168491C016070475000002003490868E3
:100C0000401E086000D162B670470000500000200E
:100C1000F8B507460024234802E0641C042C1AD2CD
:100C2000A2008258BA42F8D1042C14D21D481E4E9C
:100C30000C38002929D001290ED002290BD16000DF
:100C4000201880194578002D05D018480169002921
:100C500001D028468847F8BD61006118755C8E197F
:100C6000717800290CD011490A22496880685143E3
:100C70000E4A521CFFF75EFF002801D10B48477057
:100C80000A48B17814300155DDE78068FFF792FF1C
:100C900006486100611814308919005D8D78A842FA
:100CA000D1D0F8BD44250000F00000200400002051
:100CB00070B50023042811D2440004190D4D012AF7
:100CC00002D101290DD0002246008019094E801959
:100CD00000290CD0012906D0022906D00723184686
:100CE00070BD0D30C2B22A55F9E74270F7E7827045
:100CF000F5E70000F000002010B5054A0146127A21
:100D00000020D20702D0084600F066F810BD0000AF
:100D10000400002070B50C46FFF7EEFF05462246A2
:100D200002A1032001F002F9284670BD4253503A57
:100D3000494E464F3A25730070B50E462049054688
:100D40004E608D6000200A61A9071ED50024012293
:100D500011462046FFF7ACFF641C042C02D2002889
:100D6000F5D012E0002810D1720804211548FFF7D1
:100D700027FE002809D1FFF711FE002805D11148F0
:100D8000114A00211438FFF785FEE90706D00F222B
:100D90000E4952058A600023CB608A6100280DD17C
:100DA00008480B4A00211C38FFF774FE002805D1C3
:100DB0000448084A01211838FFF76CFE70BD000096
:100DC00004000020542500005910000000050050C8
:100DD0001113000085090000FEB57A4D0722EB686B
:100DE00092059A4302936B6800939C0006461B1978
:100DF00000200121019349050746734C3300FFF79A
:100E000065FB180D1515374755677C887F8891DE7F
:100E10009E9E9E9E9EC8CED1D8DEDE140F21029AE1
:100E200049059143A160E7602F70FEBDA260E760B5
:100E300060680F2252055040800209D5A160E7602A
:100E4000022E02D1E120C0000AE07D20400107E02F
:100E5000E160A760022E01D1C82001E0FF2091309F
:100E60002E706421FFF752F90099414300223FE0C0
:100E7000A260E76060680F2252055040800204D5EE
:100E8000A160E76019204001EAE7E160A760E3E7BD
:100E9000A260E76060680F2252055040800202D5D0
:100EA000A160E760D1E7E160A760D7E7A260E760F3
:100EB00060680F2252055040800202D5A160E760B1
:100EC00001E0E160A7602E700098410000220FE071
:100ED000A260E76060680F2252055040800202D590
:100EE000A160E76001E0E160A7602E700099002238
:100EF00036480068FFF71EFEFEBDA260E7601BE0FB
:100F000061680120800502468A43A2600140E160D9
:100F100010E06068012189050A468243A26008400A
:100F2000E060E3E76068012189050A468243A26028
:100F30000840E0600199C9E7E160A7602DE023481F
:100F40004068FFF737FE11218A1B01D0002807D027
:100F50000F22E96852051140A160E760EF60FEBD15
:100F60000121C905E960012A0CD91046C82148436E
:100F70006421FFF7CBF869680022414313484068B9
:100F8000FFF7D8FD0F22E96852051140E160A76024
:100F9000FEBD0F214905A160E7602E70FEBD07224E
:100FA0009205AAE70D214905A160E76001218905A5
:100FB000C2E70321C905A160E7608910BCE70F21E2
:100FC0004905B9E70400002000050050382500005D
:100FD000002901DA002070470268511801600120E1
:100FE00070470000F8B5461C01250020FFF7F6FD0C
:100FF0001149741C0A6848688B68101A1F1A7F1CF4
:10100000BC4212D9002F0ED00C480D4C0088246829
:1010100080051A40800DA402920020435218D0602F
:101020000868401C0860002501E090190860002055
:10103000FFF7D8FD2846F8BDA00200209C2500003F
:1010400060000020034803C8814201D1012070479D
:1010500000207047A002002010B500780221FFF7A1
:10106000D7FD10BD70B50446000E01F0A3F80506CB
:10107000200C01F09FF800040543200A01F09AF8C3
:1010800000020543204601F095F8284370BD00009A
:101090000022D243830004490428CA5002D308180E
:1010A00020300277704700001C010020F0B50025B9
:1010B000ED43002A02D00023042601E00423082681
:1010C0000B4C04E09F00E7597F1C04D05B1CB3422B
:1010D000F8D32846F0BD26185DB2203635709E0044
:1010E000A151002AF5D1E11820310877F1E700007D
:1010F0001C010020024909182020085670470000F2
:101100001C01002010B5084900230B600120820754
:1011100010600C68002CFCD0044CA0614B60906007
:1011200048680028FCD010BD0001004000050040C8
:10113000F8B52348416800293ED00E6821494C6823
:1011400087688078E11B0D022D0AED1C002814D160
:1011500001201D4A000450601B4A403A50601B4960
:10116000400008601A4908601A49012008602F20D1
:1011700000F008FA124901208870B54200D23546C5
:10118000E81900020F4B000A403318600D4A5168FD
:10119000001B091B0902090A0002000AC91C81423E
:1011A00009D9506818602F2000F0ECF90120074998
:1011B000400480390860F8BD00F09EFFF8BD0000D3
:1011C00030000020001501404013014080E200E0A3
:1011D00000E100E000100140F8B500260124154DA3
:1011E00023E06968F0004718387821462A69814071
:1011F000114218D08A432A6100F0AAFA3A782146AF
:10120000EB68914019400346934099420BD179789D
:10121000012901D0012100E000217B684140002B21
:1012200001D010469847761CF6B228788642D8D36B
:10123000F8BD00001C00002010B50E4900230A78FC
:101240004C78A24212D0521CD2B20A70022A00D1AB
:101250000B700A78074B920018339A58026088681E
:1012600010180002000A8860012010BD03600020F1
:1012700010BD000030000020F8B50746104E0125D3
:10128000BD403068FFF796FC00280DD10D4C206959
:10129000284207D1384600F05BFA0028E06804D005
:1012A000284303E0A8432061F8BDA843E06020691B
:1012B000002228432061A1683068FFF73BFCF8BD9D
:1012C000742500001C0000201048018CC9B20129BF
:1012D00017D1818C090714D1018D09060A0F03D19A
:1012E000828D1206120F0ED0090F012903D1828DB3
:1012F0001206120F07D0032903D1808D0006000FBC
:1013000001D000207047012070470000C00F00F09E
:1013100010B50448017AC90702D00078FFF75CFDD8
:1013200010BD000004000020F0B5284C2146103903
:1013300048688B68227886469C46CF78667836E087
:10134000182353436168521CC918A378D2B2934240
:1013500000D100220B78022B02D0032B27D123E0EF
:1013600003464D68194603E0A94204D00B46C969FB
:1013700000291CD0F8E7002919D08B4208D1C06998
:10138000002805D1124F0125BD600025AC4601277C
:101390000D68C969D961002909D00B685B190B6018
:1013A00005E00174C06900E000210028F9D19642EF
:1013B000C6D10649624610398A604860CF707045D0
:1013C00001D00120F0BD0020F0BD00004000002051
:1013D00000100140F8B52C4E0446706800250090BE
:1013E00041E0002C02D02046E46920E02648182382
:1013F0001030017842684B43491CC9B2D2180170C1
:101400008378994200D105701178506801292CD158
:10141000017C002929D191684160D16881601169FE
:10142000C16051698161F178002900D0456043684D
:10143000B268164F991A0902090AB94202D28268A3
:10144000891806E0D11A09028268090A8A4202D97B
:10145000511A016000E0056045600121856001745A
:10146000C56100F003FF002CBBD1074810300178A4
:1014700040788142BAD171680098814201D0012040
:10148000F8BD0020F8BD000030000020FFFF7F0005
:10149000FFF738FE00231F4A03211846FFF710FB11
:1014A000002801D0FFF7EAFA002000F071FD0028C3
:1014B00001D0FFF7E3FA002217490120FFF73CFCB7
:1014C000002801D0FFF7DAFA00F09AFD144913481A
:1014D000486014A11220FFF71DFC002801D0FFF77F
:1014E000CDFA00F04DFC0028FBD100F0E1FD0446F0
:1014F00012A10A20FFF70EFC002801D0FFF7BEFA68
:10150000224614A1032000F011FD00F039FC002850
:10151000FBD1EAE768000020CD0C000000000020AD
:10152000001500405761697420666F722066697209
:101530007374207061636B65740D0A005061636B96
:101540006574207761732072656365697665640DE3
:101550000A0000004150503A494E464F3A546865DF
:1015600020636F6E74656E7473206F662074686597
:10157000207061636B6167652069732025750D0AB2
:101580000000000000280FD00849094A096800BF80
:1015900000BF00BF00BF00BF00BF00BF00BF91423F
:1015A00000D000BF401EF2D1704700006400002050
:1015B0000024F4008207D30EFF229A408907090E07
:1015C00010B5994000280BDA03071B0F083B9C0855
:1015D0000C4BA400E318DC6994430C43DC6107E086
:1015E0008408094BA400E418236893430B43236049
:1015F000C106C90E012088400449086004490860FA
:1016000010BD000000ED00E000E400E080E200E03A
:1016100000E100E0F3B581B00F46019800F0D8FC7E
:10162000012400281D4E019817D0FFF763FD801993
:101630002030007F8009032802D0012806D007E06F
:101640001748006901998C40204201D1022100E035
:101650000321019800F022FAFEBD00F0C5FC00282D
:10166000FAD00198FFF746FD05468100C81D0D4AD6
:10167000F93089180A6980B222430A6100F01EFA23
:10168000002FE9D00198FFF735FD80003058002881
:10169000E2D00548AC404460FEBD00001C010020C3
:1016A000000500500065004000630040FEB50446A0
:1016B00023480E460019202141560027C81713461B
:1016C000401C01D0082738E0F27819462046FFF781
:1016D000EDFC0546401C2FD0B078002807D01948F3
:1016E000A1000918086802229043086007E0002161
:1016F0007378204600910A46019100F08FF9F07846
:10170000002810D01048AA001018317802690F4B39
:101710001A400261E206D20C8907890B0A4301696B
:101720000A43026109E00648327840192030017FFF
:1017300092011143017700E004273846FEBD000006
:101740001C0100200007005000650040FFE0FCFF86
:1017500003490969C140C807C00F00D00120704784
:101760000005005070B5144D2879002801D00820DC
:1017700070BD114900204039421E0B182033401C17
:10178000C0B21A702028F8D300242046FFF780FC4E
:10179000641CE4B2082CF8D303210620FFF70AFFEB
:1017A000FF207D3000F08AF901200449C00748601D
:1017B00001202871002070BD5C0100200063004002
:1017C00002480079002800D0012070475C01002009
:1017D000F7B505460C4600791C21484332494618A6
:1017E000F07E002801D00820FEBD20780127394670
:1017F00081402E488160206800F046F90021606831
:1018000000F039F92A68052000021218A169516216
:10181000617D227D2B6811431A18D1662A680ACC93
:101820001018C1604361207B083C012813D10021BE
:10183000A06800F020F9207B394681401B48816078
:10184000E06800F021F92968052212028918E3688E
:10185000A0688B600861029870602169316000287F
:1018600014D0FF231D332A68217F0020D050FF238E
:101870002A684533D050032328681B020C4AC0183D
:1018800042602868000B40B2FFF794FE05212868EB
:1018900004220902401802600020F0753076B0750D
:1018A000F776B076FEBD0000640100200005005010
:1018B0008000020070B505460C4600791C214843A3
:1018C00008494318284600F055F8002801D0112097
:1018D00070BD9A7500209C609882284600F004F83C
:1018E00070BD000064010020F8B5044600791C2199
:1018F00048431F4900264518FF2720681D37C65159
:101900002068012181602946206800F047FD696850
:10191000002913D027E0FF270137FF211D31206860
:1019200000F048FB002802D1A88AB842F5D1A88A65
:10193000B84203D02946206800F030FDA88AA97D6E
:101940008842E8D3A98AC81FF9380ED0FF271D376F
:101950003946206800F02EFB0028F9D020680121CC
:10196000C1600020A8753046F8BD0F26F9E70000D9
:101970006401002000791C21484303494018807D00
:10198000002800D00120704764010020F8B50179DB
:101990001C2251431E4A00238E18052201681202A0
:1019A00089180B60716800290CD003240168240297
:1019B000184B09198B600168C903CB0E01219940AE
:1019C000154B19600522016812028A18D3685769FD
:1019D000956814690021C943D160516100680522EE
:1019E0001202801881600161184600F03BF8384609
:1019F00000F038F8601C02D0204600F033F8681C74
:101A000002D0284600F02EF80020F0767060F8BD75
:101A1000640100208402020080E100E030B5520041
:101A20000A439900039C0A432102049D0A432904A6
:101A30000A43024980004018026030BD0007005090
:101A400030B552000A439900039C0A432102049DC9
:101A50000A4329040A43024980004018026030BD4D
:101A6000000700501CB5002100910B460122019196
:101A7000FFF7E6FF1CBD1CB500220B460092114685
:101A80000192FFF7DDFF1CBD1CB5002100910B4644
:101A9000012201911146FFF7D3FF1CBD82000648C9
:101AA0001018026803231B049A43026002680904A9
:101AB0000A430260704700000007005002494018C6
:101AC0000021016070470000006000400349401899
:101AD0000068012800D0002070470000006000402E
:101AE00000487047611B000030B5194C054620784E
:101AF00089B0002805D06078854202D1002009B065
:101B000030BD202213496846FEF716FB00206946C7
:101B10000875092000900B200190082003900A20EE
:101B200002900D4806900A48001DFFF72FFF002D78
:101B300001D0002200E0094A05486946001DFFF770
:101B400047FE0028DBD1012020706570D6E7000039
:101B5000540000207C25000000E0D701D5230000C0
:101B6000F0B5C3B00D4600214B98009149991C4631
:101B7000081817460290002D01D00A2000E000202E
:101B8000019000F0F9FA002878D103AE002C17D1AB
:101B900000986A463118284600F0E8FB00286DD00E
:101BA0003846FEF7DBFAC22800D9C2200546009865
:101BB0002A4630183946FEF7BFFA009840190090BF
:101BC00001990098421803A9081831328918002297
:101BD00003E020230370401C521C019B9A42F8D35F
:101BE0000026029A944207D320220270427082702B
:101BF0000A70C01C491C26E0499A944202D2489AB5
:101C0000125D02E0A31A4A9AD25C01259446AB0009
:101C10006246DA4013071B0F092B01D9373300E066
:101C2000303301277F1B6D1EC3556A1CEFD1202264
:101C3000827062461346203BC01C5E2B00D92E22C8
:101C40000A70491C641C761C102ECAD30D220A701F
:101C50000A224A7020210170009901980918433125
:101C600003A8009100F090FA002807D000F084FA51
:101C7000002803D1009002988442A1D3204643B0AB
:101C8000F0BDFFB5C5B000251C464E9F049500F081
:101C900073FA002837D1049805AE311804AA469883
:101CA00000F064FB00282FD03B00FEF70FFC070577
:101CB000131A2F38434F21004798FEF74FFA049923
:101CC00005464018FF2813D870182A464799FEF792
:101CD00033FA0DE00498226830184799FEF7E2FBCA
:101CE00005E004980CCC30184799FEF7DBFB05465D
:101CF000294604A8FFF76CF9002804D0FF200499B6
:101D0000013081422ED9002049B0F0BDA06800907A
:101D100004980CCC30184799FEF7C4FBE7E7E1685C
:101D2000A0680090019104980CCC30184799FEF7F8
:101D3000B9FBDCE72046083007C86B4607C30498A8
:101D40000CCC30184799FEF7ADFBD0E720460830A1
:101D50000FC86D460FC504980CCC30184799FEF794
:101D6000A1FBC4E705A800F00FFACDE700487047D3
:101D7000831C000010B50120FFF7B6FE10BD000067
:101D8000F0B595B0FFF75EF9002802D0002015B03D
:101D9000F0BD4B48446886682146314089000918E7
:101DA0000C94CD680BE02904A80D890D4018041986
:101DB00020463040810042480C940818C568641CD5
:101DC000A807F0D000200890A807800F3D4B0228FC
:101DD00007D0AA0AA805000F84460EA9964600203F
:101DE00059E02046304081003548641C0818C0681E
:101DF000049486462804800D84463440301B8000BD
:101E0000AF0D001D874222D92D490C31002807D083
:101E10002B4AA400A21814460C34C2B2381A03E0AC
:101E20000C460021FAB20846C0B20390019202911A
:101E30000094A8065C69400F634672460899A04763
:101E4000B84213D1FF1C0498B9080C1830E01C48A4
:101E5000A200101800210C3000900291019703910C
:101E6000A8065C69400F63467246E8E7164980059C
:101E70000D40000C05430C983040810010480818B4
:101E8000C56017E027463740BA000D4F401CD719F0
:101E9000FF68641C80C167466045F3D3A8060097BD
:101EA0001D69400F0EAB72460899A847002801D063
:101EB00003484460FFF7C6F80121484067E7000087
:101EC000A0020020A00600203F00FFFF00B5044A4A
:101ED000FF23936000231360536000F053F800BDAC
:101EE000A0020020F3B50F4C074681B00020A66881
:101EF0002568FFF777F8002812D00B483C2180882E
:101F0000354088437907890E08430F2189018843AA
:101F100002998005800D89020843A9000919C8604B
:101F2000FEBD0000A00200209C250000F7B5134D67
:101F30000F460120AE682C68FFF754F800281BD02C
:101F40000F483C210089884300994907890E0843BE
:101F50000F2189018843402108438005800DB90283
:101F600008432146314089004919C860641C344047
:101F7000A10049190298C860FEBD0000A00200201F
:101F80009C250000014A516110617047A0060020A5
:101F900070B506460020FFF7A7FD040008D1FFF743
:101FA0009FFD0546FFF7E2FE32462946FFF78EFF0A
:101FB000204670BD4058002800D001207047032201
:101FC000120280184068084000D0012070470000CD
:101FD0000449081820214156042901DB01207047DB
:101FE000002070471C010020044908182021415698
:101FF000042901D201207047002070471C010020F5
:1020000070B5254C0025E5600720A0602561C32040
:1020100000F0D0F80606C22000F0CCF80004064319
:10202000C12000F0C7F800020643C02000F0C2F84B
:1020300006436662C72000F0BDF80606C62000F021
:10204000B9F800040643C42000F0B4F80643A662C1
:102050001248FFF707F8E0611148FFF703F8206224
:10206000E5620120206365610E48A0610220606383
:10207000606B8007800F02280AD0606B8007800F9A
:10208000012804D1FF20E063FF200830A06370BD69
:102090000548E0630548F9E700150040674523015E
:1020A000EFCDAB8901010401FFFF00002110010009
:1020B00030B500200C49034608600C4A01245460E6
:1020C0000D68002DFCD0CB609460CD68002DFCD055
:1020D000074D2D68012D01D1064800680B61146180
:1020E0000A69002AFCD030BD0011004000100040F9
:1020F000001400400000002070B501240B4960046A
:1021000008600B4940108860094940398860094DD2
:102110006C602F20FFF736FAAC60074D00242F20AB
:10212000AC60FFF72FFAAC7070BD000080E100E0FA
:1021300040130140001001403000002030B5FF2264
:102140000523CD7D002409321B02C318002D8450C5
:10215000986905D04B7ECA68D054487E401C4876AA
:1021600030BD1FB501246B461C701972019206C860
:10217000684690471FBD000010B50248FFF7FAFB04
:1021800010BD00005800002070B50D460A460146FB
:1021900001240648FDF7D0FFEAB204490448FFF7DE
:1021A00089FB002800D00024204670BDA00100203B
:1021B00058000020014630B50020CBB2014607246C
:1021C0001A46CA40D207D20F651AAA401043491CCA
:1021D0000829F5D330BD0000FEB51F4C0025A768C7
:1021E000606802906846FFF727F80190FFF79CF8B7
:1021F00006460198002822D000230098616817E065
:102200000E680A46864202D9301A086012E0801B26
:10221000F31800261660D668D169B446002E07D0A0
:10222000FE183602360A566066469660D561154637
:102230000029E5D128466160FFF7CCF806E0284682
:10224000FFF7C8F8002801D1002E02D00298FEF74F
:102250006FFF0020E070FEBD300000200120024929
:10226000000508607047000000E200E010B50E4B6A
:102270005968002906D002680C68A24204D8A21A44
:102280000A60C161586010BD0B4604E00B46C96985
:10229000121B002904D00C689442F7D3A41A0C60D6
:1022A0000260C161D86110BD30000020F8B506465B
:1022B00000240D462046FEF791FC684600F026F902
:1022C00000280CD0057046606846074900784870C1
:1022D0000020FEF787FCFFF7C1FF2046F8BD04246D
:1022E0000020FEF77FFCF8E740000020F8B51D4D08
:1022F0006C68002C34D01C4800274068A968401A3C
:102300000602360A2068B04218D8361AC719224683
:10231000107CE46900280FD000201074EB68002BBB
:1023200007D0916950699847002805D0FEF7A6FBB1
:1023300002E0516990698847002CE3D129786878D8
:10234000814206D1401CC0B26870022801D1002031
:10235000687004490006800D18310F50FFF77EFFAA
:10236000F8BD0000300000200015014010B51446F3
:1023700002460120002A09D00846126805A1FEF78E
:1023800091F801462046FEF723FE10BD0021216092
:1023900010BD00005B253038645D0000FF221D3257
:1023A000002383508B8A8A68D25C8B8A5B1C8B8269
:1023B000052109024018C26170471FB500226B4613
:1023C0001A70197281680191827506C86846904733
:1023D0001FBD00000078012801D1014988707047B5
:1023E00054000020F0B50C46012185B00546490295
:1023F000FFF7E5FD032109026F180026002826D00B
:10240000FF2125312846FFF7D5FD00281FD0FF20EA
:1024100025302E5081208000B860A07E002801D198
:10242000012068600221684601700920C001291856
:10243000086808600390E17D68460172E0680190D9
:10244000E675267606CC6846083C90472DE00421C8
:102450002846FFF7B4FD002827D0FF210931284680
:10246000FFF7A8FD002820D021462846FFF766FE8A
:10247000E07D617E884218D1207E002807D0617EF1
:10248000E268E0752069E060267666760AE0A07E64
:10249000002801D10120686081208000B860E675C5
:1024A000617EE2682046FFF75CFEFF271D37394654
:1024B0002846FFF77FFD00280FD0A08AA17D884223
:1024C00004D221462846FFF769FF06E0EE51A17DC0
:1024D000002902D02046FFF770FFFF274537394615
:1024E0002846FFF767FD00280ED0EE51A07E002899
:1024F00001D001202860E07D002805D0E675617ECE
:10250000E2682046FFF72DFE05B0F0BD10B5094981
:102510004B788C785A1CD2B2944200D100220C78AD
:10252000944201D1002010BD0270486818214B432D
:10253000C01810BD40000020B0000020D0000020D6
:10254000FC00002011000000120000001300000039
:102550001400000011000300110C00001200030021
:10256000110C000013000300110C00001400030004
:10257000110C00008001002003000000FFFFFFFF9E
:10258000FFFFFFFFFFFFFFFFFFFFFFFF0000000057
:102590000000000000E0D701030000002900000057
:1025A0000100000001000000010000000100000027
:1025B0000100000001000000010000000200000016
:1025C0004F766572666C6F770D0A0000EC2500008F
:1025D0000000002068000000E6040000542600000F
:1025E00068000020500E0000F6040000000000000B
:1025F00000000000000000000000000000000000DB
:1026000000000000000000000000000000000000CA
:1026100000000000000000000000000000000000BA
:1026200000000000000000000000000000000000AA
:10263000000000000000000000000000000000009A
:10264000000000000020004000000000C025000045
:042650000024F4006E
:04000005000000C136
:00000001FF
