:020000040000FA
:10000000A8210020150400001D0400001F040000AA
:10001000210400002304000025040000000000006B
:1000200000000000000000000000000027040000A5
:1000300029040000000000002B0400002D04000033
:10004000AD0600002F0400002F0400002F04000064
:100050002F0400002F040000FD0400002F04000006
:100060002F0400002F0400002F0400002F040000C4
:100070002F0400002F0400002F0400002F040000B4
:10008000C9090000050700002F0400002F0400002C
:10009000290700002F0400002F0400002F04000097
:1000A0002F0400002F0400002F0400002F04000084
:1000B0002F0400002F0400000000000000000000DA
:1000C0002F0400002F0400002F0400002F04000064
:1000D0002F0400002F0400002F0400000000000087
:1000E0000000000000000000000000000000000010
:1000F0000000000000000000000000000000000000
:1001000000000000000000000000000000000000EF
:1001100000000000000000000000000000000000DF
:10040000DFF80CD000F068F800480047ED1300005A
:10041000A82100200648804706480047FEE7FEE77F
:10042000FEE7FEE7FEE7FEE7FEE7FEE7FEE7FEE7A4
:100430002D070000010400002DE9F05F05460020B3
:1004400092469B4688460646814640241BE0284645
:1004500041464746224600F02FF853465A46C01AF6
:10046000914110D311461846224600F016F82D1A75
:1004700067EB01084F4622460120002100F00DF8ED
:1004800017EB00094E41201EA4F10104DFDC4846B1
:1004900031462A464346BDE8F09F202A04DB203A35
:1004A00000FA02F1002070479140C2F1200320FAC7
:1004B00003F3194390407047202A04DB203A21FAC5
:1004C00002F00021704721FA02F3D040C2F120026D
:1004D0009140084319467047064C074D06E0E06816
:1004E00040F0010394E8070098471034AC42F6D37B
:1004F000FFF78AFF701C0000901C00002DE9FC5FD4
:100500000025DFF83891A8464FF4807601242F4665
:10051000304601F059FA38B1D9F80403204203D02B
:10052000304601F047FA2543361D64007F1CB6B201
:10053000082FEDD34FF4BE74204601F045FA38B1D0
:10054000204601F037FA3E4845F00045D0F80080DB
:100550003C4E15F0FF0F15D0012700242F420DD07F
:1005600009EB8401D1F81005D1F81015C0F304206F
:1005700056F82420C1F3014102B190477F00641C6A
:10058000082CEBD3002D56DA00200190401E4CE0E1
:10059000701910F8501F90F9000021F0C004401CA1
:1005A00038D0012000FA04FA1AEA090F32D04FEAD3
:1005B000911B204600F06EFD56F82000009010B907
:1005C000BBF1030F26D15146BBF1030F02D10198B5
:1005D00008430190A00000F1A040D0F800071AEAFB
:1005E000080FC0F3014002D0022802D012E0032815
:1005F00010D1BBF1030F07D102281AD002212046E7
:1006000001F0C9F97F1CFFB2009818B1009A594651
:10061000204690476D1C042DBAD3002F0BD00848FC
:100620000068404507D080460198002781463D4636
:10063000AEE70321E3E7BDE8FC9F00000060004057
:10064000100500502C01002000F01F0201219140F4
:100650004009800000F1E020C0F88012704700F0EF
:100660001F02012191404009800000F1E020C0F804
:100670000011704700F01F020121914040098000E5
:1006800000F1E020C0F8001270474907090E002869
:1006900006DA00F00F0000F1E02080F8141D70472A
:1006A00000F1E02080F80014704700002DE9F041CF
:1006B0004FF48077384600F007FF0124104EA5075D
:1006C00048B1384600F007FF0120C5F808037470F0
:1006D000002000F0E7FC4FF48277384600F0F4FE8B
:1006E00000280BD0384600F0F6FE0220C5F80803BB
:1006F000B470BDE8F041012000F0D4BCBDE8F08149
:100700001801002007480021C0F84011C0F844112A
:10071000C0F84811C0F84C11C0F80011C0F804111D
:1007200001F014BA0010014001F08CB9F0B59848FE
:100730000023021D01780125101D4FF08056062967
:1007400007D11478240704D10478C4F30314032CCC
:1007500002D0062904D00FE08F4F8E4C7C670EE04C
:100760001478240708D10478C4F30314032C06D0AA
:10077000042C04D0052C02D0062907D00EE0D6F8B0
:100780004442864FC4F342343C6002E014782407AC
:1007900004D10478C4F30314032C02D0062906D034
:1007A00011E07F4C276827F0807727600EE01478EF
:1007B000240708D10478C4F30314032C06D0042CB6
:1007C00004D0052C02D006290AD011E04FF0804455
:1007D000C4F80C31C4F81031704C241F236002E0BF
:1007E0001478240704D10478C4F30314032C02D032
:1007F000062905D00CE0694F032464373C600AE009
:100800001478240704D10478C4F30314032C02D011
:1008100006290DD014E0634F05243C60614C783408
:100820002560604C083423603F243F1D3C6002E09B
:100830001478240704D10478C4F30314052C02D0DF
:10084000062957D068E058490968584A1160564946
:10085000091D0968121D1160534908310968121DEC
:10086000116051490C310968121D11604E49103157
:100870000968121D11604C4914310968121D11607C
:10088000494918310968494A2032116046491C31EA
:100890000968121D1160444920310968121D116058
:1008A000414924310968121D11603F492831096806
:1008B000121D11603C492C310968121D11603A4922
:1008C00030310968394A403211603749343109689A
:1008D000121D1160344938310968121D1160324906
:1008E0003C310968121D11602F4940310968121D01
:1008F000116002E0117809070ED10078C0F30310EF
:10090000032803D0042801D0052805D1D6F85802C1
:10091000274900F04F00086021487438016841F40D
:1009200070010160BFF34F8FBFF36F8F4FF0102145
:10093000D1F80002002803DBD1F80402002822DAF3
:100940001C4A15601C480468002CFCD01524C1F812
:1009500000420568002DFCD0C1F80442016800295E
:10096000FCD0136001680029FCD0BFF34F8F0C4806
:10097000F0380168114A01F4E06111430160BFF3EE
:100980004F8F00BFFDE70F490D480860F0BD000024
:10099000E00F00F00DF0ADBA00C007403C0500408C
:1009A000FCED00E0105600400404001020C500409B
:1009B000E40E004004E5014000E401400400FA05B3
:1009C0000090D00360000020094882B0D0F80403F2
:1009D0004FF0000110F0010F07D0064801600068D9
:1009E00000900548406802B0004702B07047000020
:1009F00000000140000101401C00002002E008C886
:100A0000121F08C1002AFAD170477047002001E088
:100A100001C1121F002AFBD1704700000648006880
:100A20004FF40021044A8143121D1160111D00F48E
:100A300000200860704700000405005070B50024D5
:100A4000064D06E06868012110F8340000F03CFE15
:100A5000641C28788442F5D3002070BD2800002053
:100A6000F8B515460C460646052A01D20720F8BD02
:100A700000F010FF18B900F0DFFE0028F7D1104990
:100A800000204E600C70C1E902500E4D08610DE06F
:100A900006EBC4006968009181788DF80110007838
:100AA000094A694600F062FE0028E0D1641EE4B203
:100AB000EED2BDE8F840054A0021024800F01EB819
:100AC00028000020681C00001912000079110000A5
:100AD00003494FF4F01008600020091D0860FEE78C
:100AE000080500500EB500210091CDE901106A46BD
:100AF00044F20100FFF7ECFF0EBD0000074B5B68FE
:100B000023B12AB120B10068037C1BB108207047D3
:100B10000720704741744261002070474C0000205C
:100B20002DE9F047074698461446894690074FF04E
:100B3000000526D12CB300F067FF134E06F110001C
:100B4000C6F80C800570457080F8029044607560AE
:100B5000357075701420FFF777FD06211420FFF71C
:100B600094FD1420FFF77BFD084807600621112043
:100B7000FFF78BFD0548001F0068B0600020BDE84E
:100B8000F0870720FBE700003C000020081501402B
:100B90002DE9F843DFF87090D9F804305BB350B317
:100BA000052902D20720BDE8F88343691BB3437CC3
:100BB000012B22D0002704460025884616462846E9
:100BC00000F036F8684601F003F8C0B10121017069
:100BD0000E4944600968C0E90218C0E904769DF82E
:100BE000000089F80100002000F024F81420FFF72D
:100BF00041FD2846D7E70820D5E70F46DBE7042567
:100C0000002000F017F8F4E74C0000200415014024
:100C10000649496839B130B1416921B100210174F7
:100C2000022100F073BF0820704700004C00002034
:100C300000F002B800F008B872B602480168491C1A
:100C4000016070475C00002003490868401E08608E
:100C500000D162B6704700005C0000202DE9F0472B
:100C600007460024244802E0641C042C41D250F8BA
:100C70002420BA42F8D1042C3BD21F48DFF87C90E4
:100C80001F4E0C38A9F1140841B301290FD00229D5
:100C90002FD104EB440030444578002D29D0D8F8FA
:100CA0001010002925D02846BDE8F047084704EB7E
:100CB0004401755C0E44717861B1D8F804100F4A94
:100CC00001EB81014900133A8068FFF761FF08B921
:100CD00088F80170B17809F80410DEE78068FFF742
:100CE00097FF04EB4401314419F804008D78A842C1
:100CF000D3D0BDE8F08700002C1C000018000020B5
:100D0000EC000020FFF79ABE0D2803D102480078BE
:100D100000F0E8BD704700000000002070B500231F
:100D2000042810D20D4D00EB4004012A02D1012904
:100D30000CD00022094E00EB4000304461B1012983
:100D400006D0022906D00723184670BD0D30C2B266
:100D50002A55F9E74270F7E78270F5E7EC000020CA
:100D600070B50E462149054600200A61C1E90165BA
:100D7000A9071BD50024012211462046FFF7CEFF0C
:100D8000641C042C02D20028F5D00FE070B9720860
:100D900004211748FFF764FE40B9FFF74FFE28B95A
:100DA0001348144A00211438FFF7A8FEE9070AD0B7
:100DB000114A4FF4F01111600F4B00221B1D1A60F5
:100DC0000D4A1032116000280FD109480B4A00214A
:100DD0001C38FFF793FE002807D1BDE87040044897
:100DE0000121074A1838FFF789BE70BD04000020B2
:100DF0003C1C00002910000008050050791200007A
:100E00001D0A00002DE9F84F854EDFF810A24FF4BF
:100E1000E01CF16807462CEA010C00910020716883
:100E20000AF10404251D7F4B4FF400324FF4802B50
:100E300001EB810E8146182F16D2DFE807F00C1760
:100E4000173A4E607083868F868FEAA0A0A0A0A07C
:100E5000CAD1D8E1EAEA009A4FF4F0119143216037
:100E6000C5F8009086F80090BDE8F88FC4F800C07F
:100E70004846C5F80090DAF800C08CF4F01C5FEA30
:100E80008C3C09D522602860022F02D14FF4E1602A
:100E900008E04FF47A6005E02A602060022F3CD021
:100EA0004FF4C8706422B0FBF2F041433770002267
:100EB0005EE0C4F800C04846C5F80090DAF800C00B
:100EC0008CF4F01C5FEA8C3C04D5226028604FF45F
:100ED0004870E7E72A6020601FE0C4F800C0484679
:100EE000C5F80090DAF800C08CF4F01C5FEA8C3C86
:100EF00002D522602860CCE72A602060D0E7C4F8E1
:100F000000C04846C5F80090DAF800C08CF4F01C28
:100F10005FEA8C3CDED522602860C820C2E7C4F8B6
:100F200000C04846C5F80090DAF800C08CF4F01C08
:100F30005FEA8C3C02D52260286001E02A602060D4
:100F4000377014E0C4F800C04DE0DAF800002BEA76
:100F50000002226000F48020286008E0DAF8000037
:100F60002BEA0001216000F48020286071460022F5
:100F70001868BDE8F84FFFF70BBE21602EE09846D9
:100F80005868FFF745FED7F1110100D040B1F16874
:100F900001F4F0112160C5F80090C6F80C9063E7E9
:100FA0004FF40022F26001290CD9C82011FB00F196
:100FB0006420B1FBF0F1706800224143D8F80400CE
:100FC000FFF7E6FDF16801F4F0112960C4F8009024
:100FD0004AE74FF4F0112160C5F80090377043E7FD
:100FE0004FF4E01121604946C5F8009006E04FF447
:100FF000D01121604946C5F800905A462A60BCE7E6
:101000004FF4C01121604946C5F800904FF4C0224A
:10101000F4E74FF4F01129604946AEE704050050AB
:1010200004000020201C000000780221FFF716BEFB
:1010300005494FF0FF32082841F8202002D3084428
:1010400080F84820704700002C010020F0B54FF0D8
:10105000FF3512B10023082601E008230C260C4CB2
:1010600005E000BF54F823707F1C04D05B1CB34222
:10107000F8D32846F0BD26185DB286F8305044F803
:101080002310002AF5D1E11881F84800F1E70000AB
:101090002C0100200249084490F9300070470000FC
:1010A0002C01002070B5084C050009D010342168CF
:1010B000002907D008682060496828468847F6E775
:1010C0000834F4E770BD0000180100202DE9F05F3E
:1010D00026484168F1B3DFF898B00E688146DBF826
:1010E000004087688078E11B21F07F45ED1CB0B996
:1010F000DFF880804FF48030C8F84403C8F8040358
:101100001120FFF7A1FA1120FFF7A9FA4FF0010A09
:10111000C8F800A02F2000F02DFA89F802A0B542EF
:1011200000D23546124BE8193C3320F07F4018605E
:10113000DBF800105A46091B21F07F41001B20F00C
:101140007F40C91C81420FD9106818602F2000F021
:1011500011FA00E004E0BDE8F05F1120FFF78ABA61
:10116000BDE8F05F00F050BCBDE8F09F3C000020FF
:1011700004150140001001402DE9F0410026012531
:10118000144C22E06068226900EBC607387805FA43
:1011900000F1114217D08A43226100F043FB02465E
:1011A0003878E36805FA00F1194002FA00F3994231
:1011B00009D17978012901D0012100E000215140B5
:1011C0007A6802B19047761CF6B220788642D9D36D
:1011D000BDE8F081280000200E4910B50A784C784F
:1011E0000023A24212D0521CD2B20A70022A00D1AD
:1011F0000B70084A0B78183252F823200260886876
:10120000104420F07F408860012010BD0360002062
:1012100010BD00003C0000202DE9F041124E0746B1
:101220000125BD403068FFF7F3FC00280DD10F4CBD
:101230002069284207D1384600F0F4FA0028E06817
:1012400005D0284304E0A8432061BDE8F081A8430D
:10125000E060206928432061A1683068BDE8F04162
:101260000022FFF795BC0000681C00002800002049
:1012700002680A60016070470348017AC90702D01A
:101280000078FFF7BFBD7047040000202DE9F04350
:10129000264CA4F110092278D9F8048099F803505B
:1012A000404694F801C0D9F8086031E002EB4203EF
:1012B0006168521C01EBC301A378D2B2934200D102
:1012C00000220B78022B02D0032B21D11DE0034614
:1012D0004F68194603E0B94203D00B46C969B9B15A
:1012E000F9E7A9B18B4205D1C06918B9104E0125A3
:1012F000B56000260F68C969D96149B10B683B44E4
:101300000B6005E00174C06900E000210028F9D1FC
:101310009445CBD1C9E9010689F80350404502D074
:101320000120BDE8F0830020FBE700004C00002016
:10133000001001402DE9F0412A4F0446002607F134
:101340001005D7F804803EE002D02046E4691DE095
:101350002878696800EB4002401CC0B201EBC20172
:101360002870AA78904200D12E700A784868012A25
:101370002BD1027C4ABB8A684260CA6882600A69D3
:10138000C26049698161F97801B146604368BA6811
:10139000DFF854C0991A21F07F41614502D282687A
:1013A000114406E0D11A826821F07F418A4202D9B5
:1013B000511A016000E006604660012186600174F8
:1013C000C66100F085FB002CBED128786978884280
:1013D000BED17968414502D00120BDE8F0810020EE
:1013E000FBE700003C000020FFFF7F000EB500F08F
:1013F00007F908B1FFF776FB002000F019F9002388
:101400002A4A03211846FFF78BFB08B1FFF76AFB56
:10141000274A40F6CD410220FFF7A2FC08B1FFF7B2
:1014200061FB00200121032201FA00F313F4F01FF5
:1014300004D0830003F1A043C3F80027401C2028F8
:10144000F2D31C4D4FF4F010286000262F1D3E6093
:10145000194A07CA8DE807001849684600F05CFA87
:1014600008B1FFF73FFB164800F01EFA08B1FFF77E
:1014700039FB00F043FADFF84C8000244FF40039C8
:10148000404600F031F809FA04F000F4F01038603A
:101490002E60641C042CF3D3FFF734FC08B1FFF773
:1014A00021FB40BF20BF20BFFBE7000064000020FD
:1014B000090D000008050050141C0000011C00006C
:1014C00000000020400D030000F18040006800286B
:1014D00000D00120704708B500F180400021016074
:1014E0000068009008BD000000283ED01F49204A37
:1014F000096800BF00BF00BF00BF00BF00BF00BF42
:1015000000BF91422FD000BF00BF00BF00BF00BF8F
:1015100000BF00BF00BF00BF00BF00BF00BF00BFD3
:1015200000BF00BF00BF00BF00BF00BF00BF00BFC3
:1015300000BF00BF00BF00BF00BF00BF00BF00BFB3
:1015400000BF00BF00BF00BF00BF00BF00BF00BFA3
:1015500000BF00BF00BF00BF00BF00BF00BF00BF93
:1015600000BF00BF00BF401EC3D170476000002015
:101570000024F40000283ED01F49204A096800BF1B
:1015800000BF00BF00BF00BF00BF00BF00BF91424F
:101590002FD000BF00BF00BF00BF00BF00BF00BF13
:1015A00000BF00BF00BF00BF00BF00BF00BF00BF43
:1015B00000BF00BF00BF00BF00BF00BF00BF00BF33
:1015C00000BF00BF00BF00BF00BF00BF00BF00BF23
:1015D00000BF00BF00BF00BF00BF00BF00BF00BF13
:1015E00000BF00BF00BF00BF00BF00BF00BF00BF03
:1015F00000BF401EC3D17047600000200024F400EB
:1016000010B5094C207808B1852010BD0020A060DD
:1016100060602061E060062100F03AF80349012093
:1016200008602070002010BD18010020180500403F
:1016300070B5154D0446A87838B114B16168012021
:1016400088470020FFF7F4FA15E00020FFF7F0FAD2
:1016500024B10D4821461030FFF70AFEE86850B962
:101660004FF48270FFF737FF02204107C1F80403EF
:10167000064901200860E868401CE860BDE8704049
:101680000020FFF7D7BA0000180100200800004032
:101690004907090E002806DA00F00F0202F1E022E5
:1016A00082F8141D03E000F1E02282F8001400F03B
:1016B0001F02012191404009800000F1E020C0F8A4
:1016C0008012C0F8001170472DE9F0478846814626
:1016D00000F082F90124224E0028484618D0FFF776
:1016E000D9FC304490F848008009032802D0012832
:1016F00006D007E01B48006804FA09F4204201D133
:10170000022100E003214846BDE8F04700F043B95C
:1017100000F06EF9002820D04846FFF7BBFC0546D4
:10172000114F4FF4807007EB850100EB8500D1F875
:10173000102580B242F00102C1F8102500F03AF9FC
:10174000B8F1000F09D04846FFF7A4FC56F8200076
:10175000002802D0AC40C7F80443BDE8F087000081
:101760002C01002010050050006000402DE9FC41D4
:10177000DFF8A480044608EB0400002790F930004D
:101780001346C0170E46401C01D0082740E0F278EF
:1017900019462046FFF75AFC0546401C37D0B07862
:1017A00048B1A00000F1A040D0F8001721F00201DC
:1017B000C0F8001707E000217378204600910A4620
:1017C000019100F0D7F8F078C0B11448317800EBFF
:1017D0008500D0F81025124B1A40C0F810254FF4A0
:1017E000F8524FF4403302EA042203EA01410A436B
:1017F000D0F810150A43C0F8102509E008EB0500E1
:10180000327810F8481F41EA8211017000E0042785
:101810003846BDE8FC8100002C010020006000403B
:10182000FFE0FCFF03490968C14011F0010000D04E
:10183000012070471005005070B5144D95F8540004
:1018400008B1082070BD0020411E2A18401CC0B2FB
:1018500082F830102028F8D300242046FFF7E8FB58
:10186000641CE4B20C2CF8D306210846FFF710FFE5
:101870004FF4BE7000F09EF805494FF00040C1F8EB
:101880000403012085F85400002070BD2C010020C5
:1018900000600040034890F85400002800D0012068
:1018A000704700002C01002010B504460020FFF70F
:1018B000BFF90A48816808290AD221704A1C82604F
:1018C0000748026801238B401A430260002400E0AD
:1018D00004240020FFF7AEF9204610BD1C000020B4
:1018E00008050140044A034902EB8000C0F80016D5
:1018F000704700003546526E000001400449012047
:10190000C1F8040308600349022008707047000012
:10191000000001401C00002070B5044612484160E0
:10192000017809B1082070BD0121017004B90F4C84
:101930000F492078086060684FF47A72410CC00348
:101940000023FEF779FD02460023D0F1FF308B41E2
:1019500001D2072070BD064908390A60217A10209B
:10196000FFF796FE002070BD1C0000205C1C0000EC
:101970000C05014030B541EA4201DDE9034541EA89
:101980008301800041EA042100F1A04041EA0541C1
:10199000C0F8001730BD800000F5E06000F1A04005
:1019A000026822F440320260026842EA01410160AA
:1019B00070470000034908B5084400210160006831
:1019C000009008BD0060004002494058012800D046
:1019D00000207047006000400449084490F930003E
:1019E000082801DB01207047002070472C010020EF
:1019F0000449084490F93000082801D201207047BA
:101A0000002070472C01002070B5012670044FF0B3
:101A1000E0210025C1F88001084C4010C4F84803BB
:101A2000C4F8080366602F20FFF7A4FDA660044CED
:101A30002F20A560FFF79EFDA57070BD001001402E
:101A40003C0000202DE9F84F204C00256846D4E9E1
:101A500001B6FFF7C1FB8046FFF718FC0746A94611
:101A6000B8F1000F25D00023009ACC46606819E039
:101A700007680146974202D9BA1A026014E0C1F819
:101A800000C0D1F80C80D21BC8693B448A46B8F12B
:101A9000000F07D0F71827F07F47C1E90178CAF88F
:101AA0001C500D460028E3D160602846FFF742FC39
:101AB00004E02846FFF73EFC00B917B15846FFF78F
:101AC00005FB84F80390BDE8F88F00003C0000207F
:101AD0000D4B10B5596831B102680C68A24204D8A8
:101AE000A21A0A60C161586010BD0B4603E00B46A4
:101AF000C969121B21B10C689442F8D3A41A0C6076
:101B00000260C161D86110BD3C000020F8B50646F6
:101B100000240D462046FFF78BF8684600F058F881
:101B200068B10570084946609DF8000048700020C3
:101B3000FFF780F81420FEF79DFD2046F8BD042431
:101B40000020FFF777F8F8E74C0000202DE9F0417E
:101B50001D4D6C68002C35D01C4800270068A96812
:101B6000B846401A20F07F462068B04215D8224679
:101B7000361A0744E469107C68B182F81080EB687B
:101B800033B1D2E90501984728B1FEF7ABFF02E077
:101B9000D2E905108847002CE6D12978687881427F
:101BA00006D1401CC0B26870022801D185F80180BE
:101BB00005486978183040F82170BDE8F0411420DC
:101BC000FEF758BDBDE8F0813C000020041501403F
:101BD0000A4A10B553789478591CC9B28C4200D186
:101BE000002114788C4201D1002010BD0170506892
:101BF00003EB430100EBC10010BD00004C000020CE
:101C000003494FF4F01008600020091D0860704778
:101C10000805005001000000D00700000600000089
:101C2000AC000020CC000020F80000200D000000D7
:101C30000E0000000F000000100000000D00030067
:101C40005D0C00000E0003005D0C00000F0003009F
:101C50005D0C0000100003005D0C0000010000009E
:101C6000D0070000060000008401002003000000EF
:101C7000901C00000000002064000000FC0900002F
:101C8000F41C000064000020442100000C0A000045
:101C90000000000000000000000000000000000044
:101CA0000000000000000000000000000000000034
:101CB0000000000000000000000000000000000024
:101CC0000000000000000000000000000000000014
:101CD0000000000000000000000000000000000004
:101CE00000000000000000000000000000000000F4
:041CF0000090D0038D
:0400000500000401F2
:00000001FF
